:020000040802F0
:1000000058FE022081030208890302080D8D0208B0
:100010008D0302088F03020891030208000000000C
:100020000000000000000000000000009303020830
:100030009503020800000000970302085593020888
:100040009B0302089B0302089B0302089B03020810
:100050009B0302089B0302089B0302089B03020800
:10006000F53502089B0302089B0302089B03020864
:100070009B0302089B0302089B0302089B030208E0
:10008000A93002089B030208C92E02089B0302083C
:100090009B0302089B0302089B030208FF3502082A
:1000A0009B0302089B0302089B0302089B030208B0
:1000B0009B030208C59302089B0302089B030208E6
:1000C0009B0302089B0302089B030208798E020827
:1000D0009B0302089B0302089B0302089B03020880
:1000E0009B0302089B0302089B0302089B03020870
:1000F0009B0302089B0302089B0302089B03020860
:100100009B0302089B0302089B0302089B0302084F
:100110009B0302089B0302089B0302089B0302083F
:10012000B93002089B0302089B0302089B030208E4
:100130009B0302089B0302089B0302089B0302081F
:100140009B0302089B0302089B030208498D0208D7
:100150009B0302089B0302089B0302089B030208FF
:100160009B0302089B0302089B0302089B030208EF
:100170009B030208598D02089B0302089B03020897
:100180009B0302089B0302089B0302089B030208CF
:100190009B0302089B0302089B0302089B030208BF
:1001A00000000000000000009B03020800F002F8BD
:1001B00000F0BDF80AA090E8000C82448344AAF144
:1001C0000107DA4501D100F0B2F8AFF2090EBAE842
:1001D0000F0013F0010F18BFFB1A43F0010318477B
:1001E00074D10400A4D104000A444FF0000C10F8AC
:1001F000013B13F0070408BF10F8014B1D1108BFA5
:1002000010F8015B641E05D010F8016B641E01F844
:10021000016BF9D113F0080F1EBF10F8014BAD1C94
:100220000C1B09D16D1E58BF01F801CBFAD505E0B2
:1002300014F8016B01F8016B6D1EF9D59142D6D30C
:10024000704700000023002400250026103A28BF34
:1002500078C1FBD8520728BF30C148BF0B60704738
:100260006E2900F06F82702900F05583662936F000
:100270009380652936F09080672936F08D8061295A
:1002800036F08C8003681B0A28BF41F08001692981
:1002900000F01C82642900F01982752900F0168292
:1002A0006F2900F0E282782900F02183E92901F02A
:1002B0007582E42901F07282F52901F06F82EF293D
:1002C00000F0DF82F82900F020830368DB0928BFF3
:1002D00041F08001632901F03E82732901F04382DD
:1002E000E32901F04E82F32901F053820020704788
:1002F0001FB536F044F89DE8030000F0D5FD00F08E
:10030000EEFB01F01DFB04000020002135F060FB36
:10031000401C60600020002135F070FBE06000F0C0
:1003200085FD1FBD10B5002001F0E8FA10BD01F0F9
:100330004DFC1146FFF7DCFF31F076F801F0E8FEE6
:1003400003B4FFF7EFFF03BC01F018FF0B49D1F82E
:1003500000C04A685CF8043B1068184442F8040B7B
:100360008C4528BFA1F1DC0C8A4228BFA1F1DC0238
:10037000C1F800C04A6020F000407047F0B1012091
:100380000948804709480047FEE7FEE7FEE7FEE729
:10039000FEE7FEE7FEE7FEE7FEE7FEE70448054965
:1003A000054A064B7047000061930208AD01020840
:1003B00058B2012058FE02205858022058580220F6
:1003C00000487047F8B1012070B5064600F04CFDBA
:1003D000056806F10B0020F00704B4429CBF002022
:1003E00070BD2B466A68BAB11068A04210D304F100
:1003F000080188423CBF5068586007D35168101903
:1004000041601168091B016058601460101D70BDC7
:1004100013465268002AE7D12146284600F030FDF5
:100420000028DED170BD70B50446051F00F01CFD2C
:100430000068002C14BF446870BD002C18BFAC428B
:100440003CBF20466468F8D301680A18AA4218BF66
:10045000456003D12A6805461144016028684119A6
:10046000A1421CBF6C6070BD61686960216808446E
:10047000286070BD53EA020C00F069802DE9F04B52
:100480004FF00006002B1FBFB3FA83F503FA05F403
:1004900024FA05F65E4012BF1643B2FA82F502FA5C
:1004A00005F4C5F120051EBF22FA05FC44EA0C0440
:1004B000203556EA044C4FEA144418BF641C4FF030
:1004C00000084FF00009904271EB030C39D300296A
:1004D00019BFB1FA81F701FA07F6B0FA80F700FA0E
:1004E00007F6C7F120071EBF20FA07FC46EA0C06F4
:1004F0002037B6FBF4FCA7EB0507103F07F01F0BF6
:10050000CBF120060CFA0BFB2CFA06F644BFB346DF
:100510000026202FA4BF5E464FF0000B5BEA060CBE
:1005200008BF4FF0010B19EB0B09ABFB027C48EB4A
:100530000608C01B06FB02CC0BFB03CC71EB0C01C5
:10054000C1E70B46024641464846BDE8F08B13B56D
:100550004FF000004FF00001AFF30080BDE81C40F9
:10056000704710B5044600F077FC0068005D000796
:1005700004D5DF2C02D0A4F1200010BD204610BD10
:100580001CB50C46064B7B4469460090204601F0A2
:10059000B8F804460020694601F0C6F820461CBDA4
:1005A0009F1100000FB41CB5084B06AA7B44694696
:1005B0000090059801F0A5F804460020694601F076
:1005C000B3F820461CBC5DF814FB00007911000054
:1005D0000FB47CB50C0009AA009001D02044401E45
:1005E000084B7B4469460190089801F08AF805465B
:1005F0001CB10020694601F097F828467CBC5DF8E4
:1006000014FB00004D11000070B5044685690068B8
:10061000C10601D5302600E02026C00707D070BDF6
:10062000D4E9012130469047206A401C20626D1EAB
:10063000F6D570BD70B5044685690078C00707D14E
:1006400070BDD4E9012120209047206A401C20621F
:100650006D1EF6D570BD09684A0501D540B27047D8
:10066000C905FCD500B2704709684A0501D5C0B27A
:100670007047C905FCD580B2704770B50C46054679
:10068000012A05D02878800600D5EA69002302E017
:10069000012305E05B1C934202D2E05C0028F9D103
:1006A000A869E618C01AA861286A18442862284672
:1006B000FFF7AAFF04E0D5E9012114F8010B9047E8
:1006C000B442F8D32846FFF7B5FF70BD2DE9F041DD
:1006D0000646002410687529314616A510D0FFF78C
:1006E000BAFF002802DA404213A507E031688A0702
:1006F00001D512A502E0490704D511A5012401E0A6
:10070000FFF7B2FF00210A2206F1240709E0B0FB3F
:10071000F2FCB0FBF2F302FB1C00303078541846B8
:10072000491C0028F3D123462A463046BDE8F04153
:1007300000F0FBBB000000002D0000002B000000BB
:100740002000000011680268006A530501D5087096
:100750000AE0D30501D5088006E0130603D5C217C9
:10076000C1E9000200E00860012070472DE9FF5F49
:1007700015468A460446DFF8AC80F8440027D8E9DD
:1007800000103E46CDE9001010E03AF816106A4617
:1007900002A801F093F8411C07D02178890603D5FF
:1007A000E269391891420DD80744761C20788006FA
:1007B00002D5E069B84205DDAE42E6DB3AF8160044
:1007C0000028E2D1A069C01BA0612046FFF71CFFF2
:1007D000D8E90010CDE90010002017E03AF8181011
:1007E0006A4602A801F06AF8B0F1FF3F81460BD0DB
:1007F00000250DF1080B05E0D4E901211BF80500E7
:1008000090476D1C4D45F7D308F10100B04280467A
:10081000E4DB206A384420622046FFF70BFFBDE886
:10082000FF9F00005619040030B4002100F1240499
:1008300008E002F00705D208303542EA4372DB08CF
:100840006554491C52EA0305F3D10468002310A241
:10085000250707D5A40600D421B1C46901230DA240
:10086000641EC46130BC00F060BB10B50446214674
:100870001068FFF7F9FE02462046BDE8104000234D
:10088000D2E7D21D22F00701D1E90023CCE7000016
:100890000000000030000000F0B40D46018809059A
:1008A00002D5214C7C4402E01F4C7C440E340021D4
:1008B00000F1240608E002F00F071209E75D42EAA2
:1008C00003721B097754491C52EA0307F3D10278DB
:1008D0000023120704D5702D06D009B1022311346C
:1008E0002246F0BC00F021BB01231034F8E770B5BC
:1008F00004460D4621461068FFF7B6FE024629461B
:100900002046BDE870400023C6E7D21D22F0070351
:10091000D3E90023C0E70368126843F020030360B3
:100920000823C3610023B7E7341804002DE9F05F02
:10093000894604464FF0000ADFF874B1FB44C0F862
:1009400020A02046E1688847002874D0252806D0DA
:10095000D4E901219047206A401C2062F1E700267B
:100960005F462046E16888472028054607DB312D91
:1009700005D2781910F8200C08B10643F1E7B0074A
:1009800001D526F00406C4F81CA00027C4F818A05E
:100990002A2D09D028462CF0DDFD38B304EB87085A
:1009A000303DC8F8185019E059F8041B204604EBF4
:1009B00087029161E1688847012F054618D1E069F7
:1009C000002820DA26F020061DE0D8F8180000EBF9
:1009D000800005EB40003038C8F818002046E16878
:1009E000884705462CF0B6FD0028EED1012F0AD02D
:1009F0002E2D08D12046E16888477F1C0546022F2E
:100A000046F02006C4DBA069002803DA404246F025
:100A10000106A061F00701D026F010066C2D0BD066
:100A2000682D09D04C2D39D06A2D35D0742D35D094
:100A30007A2D33D016E038E0E1682F46204688470B
:100A4000B842054609D16C2F26D04FF48060E1688A
:100A5000064320468847054604E06C2F1AD04FF421
:100A6000807006430DB3A5F14100192802D8203546
:100A700046F400664A462946204626604E46FFF761
:100A8000EFFB80B101280BD0F61D26F0070000F126
:100A9000080956E74020E4E78020D8E70020D6E7A1
:100AA00006F104094DE7284652E7206ABDE8F09FA9
:100AB000C41704000B4910B5A1F17C020A4CC2E92D
:100AC0003712372106E000EB104342F82130074B84
:100AD00000FB03400B1EA1F10101F4DC10BD01205D
:100AE000E8E7000090B10120E119D666CD0D0100C4
:100AF0002DE9F041074615460E461020FFF764FC2D
:100B000004000AD06760C4E9026500F0B1F9016829
:100B1000216004600020BDE8F0810120FBE740EA8D
:100B2000010310B59B070FD1042A0DD310C808C9C3
:100B3000121F9C42F8D020BA19BA884201D901206C
:100B400010BD4FF0FF3010BD1AB1D30703D0521CB7
:100B500007E0002010BD10F8013B11F8014B1B1BF2
:100B600007D110F8013B11F8014B1B1B01D1921E5C
:100B7000F1D1184610BD40EA0103024630B59B078B
:100B800010D14FF0013400E008C208C91D1B9D437D
:100B900015EAC41FF8D013F0FF0102F8011B0DD0B5
:100BA0001B0AF8E711F8013B002B02F8013B05D0C6
:100BB00011F8013B002B02F8013BF3D130BD10B519
:100BC000431C02E010F8011B71B18107FAD14FF00C
:100BD000013202C88C1A8C4314EAC211F9D0C01A2F
:100BE0000A0603D0C01E10BDC01A10BD0A0401D0F1
:100BF000801E10BD0902FCD0401E10BD421E12F81E
:100C0000013F002BFBD111F8013B002B02F8013B07
:100C1000F9D17047032A40F2308010F0030C00F045
:100C2000158011F8013BBCF1020F624498BF11F826
:100C300001CB00F8013B38BF11F8013BA2F10402DF
:100C400098BF00F801CB38BF00F8013B11F0030357
:100C500000F02580083AC0F0088051F8043B083ABB
:100C600051F804CBA0E80810F5E7121D5CBF51F85D
:100C7000043B40F8043BAFF30080D20724BF11F8D7
:100C8000013B11F801CB48BF11F8012B24BF00F83C
:100C9000013B00F801CB48BF00F8012B704710B5AD
:100CA000203AC0F00B80B1E81850203AA0E8185064
:100CB000B1E81850A0E81850BFF4F5AF5FEA027C25
:100CC00024BFB1E81850A0E8185044BF18C918C094
:100CD000BDE810405FEA827C24BF51F8043B40F835
:100CE000043B08BF7047D20728BF31F8023B48BF1A
:100CF00011F8012B28BF20F8023B48BF00F8012B58
:100D0000704702F0FF0343EA032242EA024200F086
:100D100002B84FF000020429C0F0128010F0030C5A
:100D200000F01B80CCF1040CBCF1020F18BF00F8DE
:100D3000012BA8BF20F8022BA1EB0C0100F00DB88D
:100D40005FEAC17C24BF00F8012B00F8012B48BFEB
:100D500000F8012B70474FF0000200B5134694468F
:100D60009646203922BFA0E80C50A0E80C50B1F103
:100D70002001BFF4F7AF090728BFA0E80C5048BF17
:100D80000CC05DF804EB890028BF40F8042B08BFB5
:100D9000704748BF20F8022B11F0804F18BF00F8B1
:100DA000012B70474FF0013C50F8042B51F8043BE5
:100DB0009A4221D1A2EB0C03934313EACC1317D12F
:100DC00050F8042B51F8043B9A4215D1A2EB0C03C6
:100DD000934313EACC130BD150F8042B51F8043B86
:100DE0009A4209D1A2EB0C03934313EACC13DBD054
:100DF0004FF00000704700BFD01A01BAB1FA81F17C
:100E000001F0180122FA01F0CB40C1F12001DBB260
:100E1000C0B2C01A2CFA01F3D11A914311EAC311DE
:100E2000E6D17047704770477047000070B5064CB8
:100E30007C44064D7D4403E0206820448047241D07
:100E4000AC42F9D170BD00008CC604009CC6040001
:100E500000487047F8B1012010B500F071FD001D89
:100E600010BD00BF6D4B03000048704700B2012069
:100E70000048704730B20120704770477047704794
:100E800038B504460A4600206946AFF300800028C2
:100E900008BF38BD02460099204600F055FD0120EC
:100EA00038BD012000F08ABEF8B5AFF300800546DA
:100EB00000200C46102000BF0646A819A0420DD9FC
:100EC000324669460020AFF30080070008BF00F0FB
:100ED00075FE0098A04218BF0546C419FFF7C4FF6D
:100EE00005600746F01D20F007004619284600F06F
:100EF0000AF8B44208BFF8BDA21B31463868BDE805
:100F0000F84000F021BD00210160C0E901107047E8
:100F10001020704710B5FFF753FA006810BD10B5E8
:100F20000446FFF74DFA046010BD2DE9F0470D4669
:100F300099469246044600F124080168880604D5C3
:100F4000E06921F01001216000E00120A84201DDEC
:100F5000471B00E00027A1697A1902EB0900081A73
:100F6000A0612078C00602D42046FFF74DFB002682
:100F700008E0D4E901211AF806009047206A401CD5
:100F8000761C20624E45F4DB2078C0060AD5204648
:100F9000FFF73AFB06E0D4E9012130209047206AB0
:100FA000401C2062381EA7F10107F4DC07E0D4E9F9
:100FB000012118F805009047206A401C2062281E75
:100FC000A5F10105F3DC2046FFF734FB207800068D
:100FD00002D50220BDE8F0870120FBE770472DE92C
:100FE000FF4F0C461E464FF0FF378BB0D2E9000191
:100FF000DDF860800A908A46C1F30A5505B93D467E
:10100000002108464FF00000BAF1000F00F4400044
:1010100005DA00EB80004FF4400101EA50004FEA8E
:101020009059B9F1010F00DDB9460A9850EA4A001B
:101030000ED044F61050A5F2FF3545432F14B8F1F9
:10104000000F1ED07542291E1EDDC9F100021CE0F2
:10105000B8F1010F4FF0000001D0302103E0F2435E
:1010600005E02154401CB042FBDB30460022002149
:1010700021540B99C1F80880C1E900200FB0BDE8E8
:10108000F08FBD1B6D1CDEE74A4600DA694206A8F8
:1010900000F022FD06AB93E8070003AB83E80700EE
:1010A00050460A9901F0DBFA8DE80700A0F50050E0
:1010B0001F3800900398002D0ADD42F21F014A46B6
:1010C0000844002303A90390684601F087FD09E066
:1010D000A0F500504A461F38002303A90390684634
:1010E00001F0A6FD8DE807000004000C03D04FF0CE
:1010F000FF30410800E01046B8F1000F03D0002295
:10110000009215461EE0751E05D400F037FC303203
:1011100062556D1EF9D5B3460122084302D0002264
:101120007F1C04E02078302801D100227F1E002A95
:10113000099784D01DE0112D07DA00F01FFC303232
:1011400062556D1C50EA0102F5D1084302D00098A7
:10115000C8B10EE00021681E05E0235C625C6354A8
:101160002254401E491C8142F7DBAB46A81B401E9F
:101170000990002004F80B000B98099AC0F8088029
:10118000C0E9002B7AE711264FF0000857E72DE958
:10119000F04F88460446D21D22F0070191B0D1E9F4
:1011A0000001CDE90A012BF060FC02460B98C00F4C
:1011B00001D02D2007E02068810701D52B2002E017
:1011C000202101EAC000032A099001D0072A05DB8B
:1011D00003464146204600F01FFC0BE120788006C4
:1011E00001D5E06900E00620B8F1650F814606D020
:1011F000B8F1660F18D0B8F1670F70D131E0002058
:10120000B9F1110F009001DB112301E009F1010395
:101210000AAA01A90CA8FFF7E2FEDDE90C7000267E
:1012200009F10105834647E001204B4600904FF04D
:1012300000470AAA01A90CA8FFF7D1FEDDE90DB00D
:101240000C995D46002610B909F101000D18B9EBA3
:10125000050003D4C0F1FF3609F10105A5EB090033
:101260002BE0B9F1010F01DA4FF001090020B9F1CB
:10127000110F0090484601DD112300E003460AAA41
:1012800001A90CA8FFF7ABFEDDE90C704D46002666
:101290008346207800070AD4AB4500DA5D4601A8F2
:1012A000012D04DD411911F8011C302907D04F45EB
:1012B00002DA17F1040F04DA012082460FE06D1EF6
:1012C000EEE7002F02DCED1B3E4403E0781CA84251
:1012D00000DD7D1CB81B00F1010A4FF000472078AB
:1012E000000703D4AA4501DB4FF0FF3A0021B7F114
:1012F000004F0DF143088DF8431024D002202B231A
:10130000002F01DA7F422D230A21021EA0F10100E5
:1013100000DC5FB197FBF1FC97FBF1F201FB1C7C59
:1013200017460CF1300C08F801CDEEE7A8F10100EA
:1013300003702188090501D5452100E06521A0F150
:10134000010800F8011C09980FA9A1EB0807FF1D6F
:1013500000B10120411901EBEA70A1693844081A73
:10136000401EA0612078C00602D42046FFF74CF949
:10137000099828B1D4E901219047206A401C2062D5
:101380002078C00622D52046FFF73EF91EE0002E49
:1013900004DBB34502DD01A8805D00E03020D4E924
:1013A00001219047206A401C2062761CAAF10100AE
:1013B0005FEA000A0AD100F0C3FAC0680168405C25
:1013C000D4E901219047206A401C2062281EA5F123
:1013D0000105DCDC07E0D4E9012118F8010B904796
:1013E000206A401C2062381EA7F10107F3DC20466A
:1013F000FFF720F9032011B041E600002DE9F04F7E
:1014000004460D46D21D22F0070089B0D0E90097AE
:10141000484639462BF029FB0246F80F01D02D2310
:1014200007E02068810701D52B2302E0202101EA93
:10143000C0038DF820300BB1012000E00020032A0A
:10144000824601D0072A04DB2946204600F0E4FA50
:101450003FE12078800601D40D2500E0E569C7F35F
:101460000A560D2D49DA00214FEA175B08464FF066
:101470000000002F00F4400007DA00EB80004FF47A
:10148000400100EBD07001EA60008115012901DD07
:101490004FF0FF3100224FEA850CBCF1180F06D344
:1014A0001346ACF118004FF08052C24003E04FF4F5
:1014B000801323FA0CF30CF10C0CBCF1200F04D3B5
:1014C000ACF1200C09FA0CF001E007FA0CF000294D
:1014D0004FF0004801DD18B90FE00ED140450CD3A4
:1014E00019EB02095F4121B9404502D19F4329EA26
:1014F0000209BBEB175F00D0761C2088000502D5DF
:101500007B48784402E07A487844193808AA3023A6
:1015100002F80A30037C0AF10101002E0AF1020AE6
:1015200053546A4602DC4FF0300101E04FF03101C4
:101530004FF001088DF8001002D0A6F2FF3603E04C
:1015400059EA470100D06B4E002D02DC21780907D3
:1015500004D54FF002082E218DF80110C446002159
:101560000BE0C7F303433F01C35C491C6D1E02F847
:101570000830052908F1010801DA002DF1DC00210D
:101580000CE000EB1973491C1B786D1E082902F84A
:1015900008304FEA091908F1010801DA002DF0DCE2
:1015A00021688B0602D516E0A8F10108E04505DDAB
:1015B00002EB080313F8013C302BF5D0B8F1000F13
:1015C00009DD02EB080313F8013C2E2B03D10907B8
:1015D00001D4A8F10108002D05DD3E2102F8081014
:1015E0006D1E08F10108407C002E02F8080008F189
:1015F000010804DA2D20764202F8080002E02B20D0
:1016000002F808000A214FF47A70864208F10108B6
:101610000BDB96FBF0F3303302F8083096FBF0F367
:1016200008F1010800FB136601E0642E0CDB642066
:1016300096FBF0F3303302F8083096FBF0F308F134
:10164000010800FB136601E00A2E06DB96FBF1F0B1
:10165000303002F8080008F1010896FBF1F001FBB8
:101660001060303002F80800A16908F1010808EBA9
:10167000050202EB0A00081AA0612078C00602D415
:101680002046FEF7C1FF216A08AE01EB0A00206286
:1016900004E0D4E9012116F8010B9047BAF1010AE0
:1016A000F7D22078C00602D52046FEF7ADFF6E4681
:1016B00009E016F8010B3E280FD0D4E9012190472C
:1016C000206A401C2062B8F10108F2D22046FEF7E1
:1016D000B1FF09B00320BDE8F08F206A28442062E2
:1016E00003E0D4E90121302090476D1EEBD3F8E7E9
:1016F000650C040002FCFFFF01694A1C02610878C6
:10170000704700B58FB0CDE9013100210591054941
:101710007944CDE9031011466846FFF707F90FB089
:1017200000BD0000E5FFFFFF0A6802F8010B0A6038
:101730007047D1E900239A4202D2531C0B6010700B
:10174000704710B5436913B1AFF3008001E0FEF7B5
:1017500094FF012010BD127800F124010A700022CC
:101760004A700122EDE711684FF0FF32E9E710B54A
:10177000436913B1AFF3008001E0FEF7F7FF0120EA
:1017800010BD128800F1240182840022C28401224B
:10179000EDE711684FF0FF32E9E700002DE9F04175
:1017A0008046D21D22F007020025D2E90002F52969
:1017B00015A614D0011E72F1000106DA0023D0EB49
:1017C000030063EB020211A608E0D8F800108B07B3
:1017D00001D50FA602E0490701D50EA60125114645
:1017E000002408F1240704E000F0C8F830323A552C
:1017F000641C50EA0102F7D12B463246214640468E
:10180000BDE8F041FFF791BB000000002D00000093
:101810002B000000200000000FB4002300B589B0A9
:101820000CA900910B99CB60214B7B440693214B73
:101830007B44079304236FF00042CDE901321E4A36
:101840007A446B4608920246002034F009FE09B043
:101850005DF814FB70B506464FF0FF3015460C4698
:10186000324686B00091CDE901016946002004901E
:1018700004A8FFF7D1FF02460498211825B108B14A
:10188000084600E020462860049800280DD0002A71
:1018900002DD0098884208D03246081B6946009451
:1018A000CDE9010404A8FFF7B7FF06B070BD000042
:1018B0006B02000083020000C301000070B51646F1
:1018C0000C460546FFF7C8FA036893F801010128A2
:1018D00006D0FF2C0FD8185D68B101202C7070BDA8
:1018E000D3F807013246214603F207130344284682
:1018F000BDE8704018474FF0FF3070BD2DE9F04152
:101900000646FFF7B5FA8046454613E016B1E06893
:10191000B0420ED120682860D4E90101D8F80070E7
:1019200088472046FEF77FFDD8F80000B842EBD18B
:1019300000E025462C68002CE8D1BDE8F0810000CD
:101940000048704718B20120034640688C460028C2
:1019500018BF88423CBF03464068F8D31868184453
:10196000884207D00CF1030020F00700001D411A47
:10197000521A0146081D0A60FEF755BD30B5B0F198
:101980000A024FEA900E71F100034EEA817EB0EB3D
:101990000E0061EB91014FEA101E4EEA017E10EB42
:1019A0000E0041EB11114FEA102E4EEA016E10EBC2
:1019B0000E0041EB11214FEA104E4EEA014E10EBA2
:1019C0000E0041EB1141401841F100014FEAD000F7
:1019D00040EA41704FEAD10110EB80054FEA8104E3
:1019E00044EA907444EB01046D1944EB0404521B67
:1019F000A3414FF0000348BF0A3200D530BD401C60
:101A000041F1000130BD10B50446FFF725FA00682A
:101A1000005D00F0010010BD2DE9F0411F460446B5
:101A200003260168072A01F4006004DB08B116A54B
:101A300005E016A503E008B115A500E015A521F005
:101A400010002060A069C01EA0610FB1401EA061FF
:101A50002046FEF7D9FD4FB1D4E901213846904721
:101A6000206A401C2062C01C206206E0206AFAE75F
:101A7000D4E9012115F8010B9047761EF8D22046D3
:101A8000FEF7D8FDBDE8F0814E414E006E616E005C
:101A9000494E4600696E6600426842B1016811F81D
:101AA000013B23B1521EC0E90012184670470121C4
:101AB000C160881E704742685AB1C368016843B963
:101AC00083688B4205D0491E521CC0E900120020D9
:101AD00070474FF0FF3070472DE9F04781461646BA
:101AE0008AB0354878440DC88DE80D0032487844F6
:101AF000801C03AC0DC884E80D0041F69B300844FF
:101B0000372190FBF1F290FBF1F5A5F1800501FB87
:101B100012041B3C02D56442012000E00020DFF8E3
:101B200098A080460027FA44AAF1BE0A0EE0E0071A
:101B30000AD03246684607EB470101230AEB8101D0
:101B400001F076F88DE8070064107F1C002CEED1C0
:101B5000194F7F44AE3F19E0E80715D007EB04109A
:101B60000DF1180A90E80E008AE80E00C068F042F5
:101B700001D1981908903246012306A903A801F063
:101B800057F803AB83E807006D10641C002DE3D108
:101B90004FF0010332466946B8F1000F03A802D0A6
:101BA00001F01CF801E001F043F8C9E90001C9F8AF
:101BB00008200AB0BDE8F0873407040010B500F033
:101BC000B5FABDE8104000F0ACBA70477546FFF7B3
:101BD0003FF9AE4605006946534620F007008546AA
:101BE00018B020B5FEF7DAFBBDE820404FF0000644
:101BF0004FF000074FF000084FF0000B21F00701F5
:101C0000AC46ACE8C009ACE8C009ACE8C009ACE837
:101C1000C0098D46704700002DE9FF4F06468BB086
:101C20000878FF2806D0491C2D2805D000244FF045
:101C3000000908E000200CE00124F8E709EB890323
:101C4000491C00EB43090878FF28F7D114B1C9F10A
:101C500000008146107800252C46AA4629462D28EA
:101C600001D02B2804D1521C2D2813D000208246ED
:101C70008B461078FF280FD04FF0000C0A21521C21
:101C8000A5FB017804FB018105FB0C11C5194BEB89
:101C90000104EEE70120EAE7002108464FF00000CA
:101CA000BAF1000F02D000EB80004008C0F381576A
:101CB000012F01DD4FF0FF370E9955EA040009EBC3
:101CC00001080BD04FF0020918F5FA7F16DA4FEA37
:101CD000CA70002F706008DD012007E04FEACA706B
:101CE000C6E900B00FB0BDE8F08F00203060FEF70D
:101CF00067FBC0F800901821084616E0B8F5FA7F97
:101D000018DD002F02DAF748784401E0F6487844FD
:101D1000D0E90010C6E9001040EACA707060FEF712
:101D20004FFBC0F80090142108460FB0BDE8F04FFB
:101D300034F02FBB002108464FF00000B8F100013D
:101D4000099002DAC7F1000200E03A4601DAC8F170
:101D5000000106A8FFF7C0FE06AB93E8070003AB3F
:101D600083E8070044F23E005BEA04010090584615
:101D700004D144F21E012C465D460091210C090459
:101D8000014306D10099240444EA15442D04103976
:101D9000009104F07F41014306D10099240244EAF6
:101DA00015642D020839009104F07041014306D1F9
:101DB0000099240144EA15742D01091F009104F0D3
:101DC0004041014306D10099A40044EA9574AD0056
:101DD000891E009104F00041084304D100986D1958
:101DE0006441401E00904FF001033A466846B8F146
:101DF000000FCDE9014503A902DD00F02EFF01E04F
:101E000000F001FFBAF1000F04460D4601D084F046
:101E10000044002108464FF00000099940F2FF7786
:101E2000484010F00C0F07D124F00040284303D0A5
:101E3000C4F30A50B84212D1FEF7C2FAC0F80090BB
:101E4000C4F30A50B8420AD1A8487844D0E9001037
:101E5000C6E9001004F000410843706042E7C6E99B
:101E600000543FE72DE9FF4F1F464FF0000A4FF0A7
:101E7000FF38454691B0D7E90146CDF83CA0FFF7C1
:101E80005FFDC0680168405C1090B96912986D1CD4
:101E90008847396A814688470028F6D1B9F1FF3F63
:101EA0000AD0002E24F4D06411DDB9F12B0F08D034
:101EB000B9F12D0F0BD102E0404615B013E744F401
:101EC0008064B96912986D1C8847761E814660054A
:101ED00004A901D52D2000E02B20002E01F1010BDB
:101EE0000DF130088DF810003FDDB9F1690F08D011
:101EF000B9F1490F05D0B9F16E0F02D0B9F14E0F0B
:101F00001CD13B4601A8009580E85002DDE9121281
:101F10006FF0020034F0A8FAC11CCED10EE0B9690E
:101F200012986D1C884781461398761E44F40074FD
:101F300005600F98401C002E0F9016DDB9F1300F90
:101F4000EDD0B9F1780F02D0B9F1580F0DD10F983B
:101F500001280AD13B46CDE90054DDE91212001FE9
:101F6000029634F07FFAC11CA7D1109989453ED161
:101F700044F0800406E01399681CAAF1010A44F4B5
:101F800000740860B9696D1C1298761E8847302865
:101F90008146F0D02BE01099894505D1200603D465
:101FA000761E44F0800418E048462BF0D3FA08B3BC
:101FB000761E0DF123018B4544F4007408D2A9F17B
:101FC00030000BF8010B200607D5AAF1010003E051
:101FD000200602D40AF101008246A00502D5139919
:101FE000681C0860B96912986D1C88478146002EEC
:101FF000D1DC53E0002E51DDB9F1650F02D0B9F10B
:10200000450F4BD1A00549D5B9696D1C1298761EB4
:1020100024F440748847002E81460CDD2B2804D020
:10202000B9F12D0F07D144F48074B96912986D1C71
:102030008847761E8146E00501D52D2100E02B2141
:1020400008F8011BCDF8008021E0761E0DF1390162
:10205000884544F400740CD2A9F1300010F0FF0060
:1020600088F8000002D10099884509D908F10108D3
:1020700006E0E00501D51E4801E042F20F708246FD
:10208000B96912986D1C8847814613980560002E27
:1020900004DD48462BF05EFA0028D6D1F969129883
:1020A0008847FF2053468BF8000088F80000002086
:1020B0000A900B9004AA0CA90AA8FFF7ADFDA00591
:1020C00002D46FF00100F8E614F0240F12D0E007FC
:1020D0001CD13868DDE90A12031D3B600068C0E9C5
:1020E000001213E080B6040072B6040036B5040096
:1020F000F1D8FFFF0AA968462BF080F8E00705D168
:102100003868009A011D3960006802602846D4E6EC
:1021100010B50446AFF300802046BDE81040FEF73E
:102120000FB9002801D000F029B8704710B5012878
:1021300005D0002103A000F027F8012010BD09A15F
:10214000F8E7000053494752544D454D3A204F752A
:1021500074206F662068656170206D656D6F72799F
:10216000000000003A2048656170206D656D6F7257
:102170007920636F7272757074656400014918206C
:10218000ABBEFEE72600020070B505460C460A20ED
:1021900000E06D1C00F011F835B128780028F8D166
:1021A00002E0641C00F009F814B120780028F8D18E
:1021B000BDE870400A20AFF3008008B569468DF88D
:1021C00000000320ABBE08BD2DE9FF4F1F464FF0B6
:1021D0003C0987B04FF00042DDE9141001F101081D
:1021E000DDF858A002EA4050039000200590834695
:1021F000054604460490B969461E08988847AAF126
:10220000010A0290BAF1000F3BDD02982E2815D08A
:10221000102100F016FA00282EDB4FF0010B059973
:10222000014317D0B9F1000F0BDB4A46C11700F08C
:10223000F5F905430C43A9F1040905E001200490D8
:102240000BE008B145F0010501200590049820B984
:10225000361D02E0049800B1361FB969089808F1EC
:1022600001088847BBF1000FAAF1010A0290C9D00A
:102270000999C1F80080C5E70298702808D0502855
:1022800006D0F96908988847BBF1000F14D04FE0D9
:10229000002002900120BBF1000F049009D0B96921
:1022A000089808F101088847AAF10109B9F1000F5F
:1022B00007DCF969089888476FF001000BB0BDE8AA
:1022C000F08F2B2804D02D280CD14FF0FF30049034
:1022D000B969089808F101088847A9F10109B9F11D
:1022E000000FE6DD411CE4D00A2100F0AAF9002825
:1022F000DFDB029908F1010801EB810100EB4100ED
:102300000290B969089888470A2100F09AF9099A59
:10231000A9F10109B9F1000FC2F8008001DD002820
:10232000E7DAF969089888470499029800FB016682
:1023300055EA040004D004F04041090002D006E050
:10234000039898E0A40044EA9574AD00B61E04F02A
:102350000041080002D16D196441761E159810F0F5
:10236000240F03D04FF00B095C4803E04FF028091D
:102370006FF07D008246564507DAAAEB06018944D4
:10238000B9F1410F01DD4FF0410901200021A9F110
:10239000010200F043F9024628400B462140084361
:1023A00001D0012100E00021501E029143F1FF31D4
:1023B00028402140084301D0012000E0002002997C
:1023C000834651EA0B014FD0002108464FF0000030
:1023D000039900F4400039B100EB80004FF4400154
:1023E00000EBD07001EA60008015012802DD4FF09B
:1023F000FF3000E013D0401C36D0029860B3BBF130
:10240000000F0CD14A460120002100F007F92840B6
:102410002140084301D0012000E00020E0B101206C
:102420004A46002100F0FAF8034640190A46614185
:102430002D1A8C4111D3B9F1400F09DD159810F018
:10244000240F02D0AAF1340603E0AAF1170600E037
:10245000761C00254FF0004406E05B1E42F1FF327F
:1024600020EA030521EA0204CAF10100B04206DABB
:102470001B49039808430190002000900EE0039A46
:10248000C4F3D321E80A0A43164940EA44500A43F8
:102490003146CDE9000268462BF052F8159810F04D
:1024A000240F0BD01598C00715D13868DDE900124C
:1024B000031D3B600068C0E900120CE002A86946F9
:1024C0002AF09CFE1598C00705D13868029A011DB4
:1024D0003960006802604046F0E6000002FCFFFF41
:1024E0000000F07F0000F03F2DE9FF4F92461D46AF
:1024F00085B04FF00041DDE9124BDDE914727F1E1B
:1025000001EA4B50414940F0FF4940EA01080021EF
:1025100022F020004928049102D04E2828D04CE017
:102520003BA0012607C88DE80700A9690698641C2E
:1025300088477F1E014606D41DF8060018B121F019
:10254000200181420BD0E96906988847032E34D0D8
:10255000082E32D06FF0010009B0BDE8F08F761C74
:10256000032E01D0082EE0D1601CCAF80000DCE781
:10257000A9690698641C88477F1E2AD420F0200091
:10258000412826D1A9690698641C88477F1E20D45B
:1025900020F020004E281CD1A9690698641C8847A9
:1025A0007F1E48F4002849F48009CAF8004001D48D
:1025B000282806D0E969069888475FEACB7012D0D0
:1025C00022E0A9690698641C88477F1E01D4002870
:1025D00003DAE96906988847BCE72928F1D1641C29
:1025E000CAF80040E9E71BF0240F07D028680499D7
:1025F000031D2B600068C0E9001805E02868021D73
:102600002A600068C0F800902046A5E70000F07F2F
:10261000494E46494E49545900000000B2F120038A
:102620000AD5C2F1200301FA02F120FA03F300FAFD
:1026300002F041EA0301704700FA03F14FF0000095
:1026400070473A2800D2303820F02002412A01D3C6
:10265000A2F13700884201D34FF0FF3070475FEAA4
:10266000400C08BF91F0000F4FEA8C234FEAC122C3
:1026700043EA51514FEA1C5018BF00F5F0404FEAB1
:10268000300018BF41F000415FEA6C5C00F0298027
:10269000BCF1FF3F08BF40F080407047130C06BFFD
:1026A00012044FF0100C4FF0000C130E04BF120276
:1026B0000CF1080C130F04BF12010CF1040C930F62
:1026C00004BF92000CF1020CD30F04BF52000CF1B6
:1026D000010C11464FF00002A0F11F00A0EB0C000E
:1026E000704711F0004F08BF704731F000413FF4D0
:1026F000D5AF0B0C06BF09044FF0100C4FF0000CC7
:102700000B0E04BF09020CF1080C0B0F04BF0901EA
:102710000CF1040C8B0F04BF89000CF1020CCB0FE1
:1027200004BF49000CF1010CCCF12003A0EB0C001C
:1027300022FA03F302FA0CF241EA030100F101006C
:10274000704720F07F4C80EA030023F07F47ACEB1A
:10275000070303F57C5300F0004003F1FF032DE96C
:1027600080494FEA154B09B44FEA144325EA0B4E52
:1027700024EA03480FF2042606EB132749083E78A3
:102780005FEA320203FB0667C7F5000707FB06F6A0
:102790004FEA54374FEAD64606F1020607FB066CAD
:1027A000CCF1005C4FEA1C472CEA074C07FB06F40F
:1027B0000CFB06F504EB15464FEA961634BF0020D5
:1027C0004FF000404FEAD13706FB07FC4FEA1C4CA4
:1027D0000CFB0BF7D21B03FB0CF761EB07010CFBA7
:1027E0000EF7B0EB074072EB17420CFB08F734BF53
:1027F000A2EB0742B2EB074261EB17414FEA0C44F0
:102800004FEA910706FB07FC4FEA1C4C0CFB0BF749
:10281000B0EBC74072EB573203FB0CF734BFA2EBAF
:10282000C742B2EBC74261EB57310CFB0EF7B0EB7E
:10283000C70072EB57720CFB08F734BFA2EBC7025C
:10284000B2EBC70261EB5771039F4FEA816141EA26
:10285000921104EBCC044FEAD1374FEA826206FBB7
:1028600007FC42EA90124FEA80604FEA1C4C0CFBD6
:102870000BF7D21B03FB0CF761EB07010CFB0EF708
:10288000B0EB074072EB17420CFB08F734BFA2EB2A
:102890000742B2EB074261EB17414FEA8C554FEA12
:1028A000910704EB9C2406FB07FC4FEA1C4C0CFB35
:1028B0000BF7B0EBC74072EB573203FB0CF734BF9A
:1028C000A2EBC742B2EBC74261EB57310CFB0EF7EC
:1028D000B0EBC70072EB57720CFB08F734BFA2EBEA
:1028E000C702B2EBC70261EB577115EB4C254FEAFB
:1028F000816141EA92114FEA82624FEAD13742EA9E
:10290000901206FB07FC44F100044FEA80604FEA96
:102910001C4C0CFB0BF7D21B03FB0CF761EB070104
:102920000CFB0EF7B0EB074072EB17420CFB08F7FD
:1029300034BFA2EB0742B2EB074261EB174115EB44
:102940001C154FEA813141EA92414FEA823242EA54
:1029500090424FEA80304FEA0C7644F1000448EA96
:1029600003434EEA0B484FF0000EB2EB080C71EB3C
:10297000030724BF624639464EEB0E0E4FF0000BA4
:102980000018524149414BEB0B0BB2EB080C71EBB9
:1029900003077BF1000B24BF624639464EEB0E0E57
:1029A0004FF0000B0018524149414BEB0B0BB2EBBF
:1029B000080C71EB03077BF1000B24BF624639461C
:1029C0004EEB0E0E51EA020718BF46F0010616EB59
:1029D0000E7655F1000254F1000103D5BDE88901DE
:1029E000BDE80088BDE88901BDE80048B61952413C
:1029F00041EB0101A3F10103704780807F7E7D7C64
:102A00007B7A7978777676757473727171706F6E80
:102A10006E6D6C6C6B6A6A6968686766666564642B
:102A2000636362616160605F5F5E5E5D5D5C5C5BB5
:102A30005B5A5A5959585857575656555555545424
:102A4000535352525251515050504F4F4F4E4E4D82
:102A50004D4D4C4C4C4B4B4B4A4A4A4949494848CE
:102A6000484747474746464645454544444444430E
:102A700043434342424242414141000046EA064646
:102A8000A3F570534FEA164646EA42564FEAD22261
:102A900042EA415210B54FEAD121A3F1010300F0FF
:102AA0002FF820F0004000F1020C00F0004701EB8D
:102AB00000501146BCF5006F40EA070000D210BD7F
:102AC000BAF1000F0AD01CB503B44FF004004FF068
:102AD00004014FF000000FBCBDE810404FF00001B2
:102AE000BBF1010FB9BF04484FF0FF31034800218B
:102AF00040EA070010BD00BFFFFFEF7F0000F07F3E
:102B0000002B9C4630D477002BD01CB54FEA3707FA
:102B100003B44FF010004FF01001BAF1000F06D0CF
:102B2000BCF1000FDCBF40F0080040F008014FF09E
:102B300000000FBCBDE810400BF1010BBBF1010F11
:102B400008BF5FEA170722BF12F1010211F101016C
:102B50004FF0004143F1000300F0004043EA000061
:102B60007047F9D35708D0E746EA064613F1400FFD
:102B70004FEA16461FDD13F1200FDFBF16430A464A
:102B8000002120335B42BED0C3F1200746EA06464F
:102B900002FA07F74FEA164646EA0706C3F120078E
:102BA00022FA03F201FA07F721FA03F14FF00003CA
:102BB00042EA0702A7E746EA020646EA06464FEA65
:102BC000164646EA0106BCBF46EA0646360C4FF0FA
:102BD00000034FF000024FF0000194E72DE9804C14
:102BE0009A46934670B491E8380007C831EA400C21
:102BF00048BF34EA430C03D5FFF7A3FDFFF780FF7E
:102C0000F0BCBDE8008C2DE9804C9A46934670B428
:102C100091E8380007C831EA400C48BF34EA430C59
:102C200003D5FFF78EFDFFF729FFF0BCBDE8008C50
:102C30002DE9804C9A46934670B491E8380007C855
:102C400010F0804F08BF13F0804F03D100F01AF846
:102C5000FFF756FFF0BCBDE8008C2DE9804C9A468A
:102C6000934670B491E8380007C810F0804F08BF51
:102C700013F0804F03D100F005F8FFF7FFFEF0BC22
:102C8000BDE8008C20F07F4780EA030023F07F4CF2
:102C900007EB0C03A3F57C5300F00040A3F1FE0307
:102CA00092F0000F00F0B38095F0000F00F07780F5
:102CB0002DE901494FEA11404FEA144621EA004844
:102CC00000FB06FC24EA064708FB06F607FB08F8AB
:102CD00000FB07F718EB06484CEB164C4FEA124B7B
:102CE00018EB07484FEA15464CEB174022EA0B4E0B
:102CF0000BFB06FC25EA06470EFB06F607FB0EFE5D
:102D00000BFB07F71EEB064E4CEB164C4FF0000684
:102D10001EEB074E4CEB174B18EB0B0840F1000075
:102D200018EB0E0B58EB000840F100008F1A4FF023
:102D300000013CBFC943661B14BFB5EB040C002166
:102D40003CBFC943F61B4FEA17444EEA8E0E27EAF2
:102D500004454FEA1C4704FB07622CEA074C05FBBD
:102D600007F70CFB05F604FB0CFC16EB074642EBE1
:102D7000174216EB0C4642EB1C421BEB060658EBC7
:102D80000202414146EA9E0601D5BDE80189B61915
:102D9000524141EB0101A3F10103BDE801894FEA72
:102DA00014454FEA114724EA054621EA074C05FB82
:102DB00007F406FB07F70CFB06F105FB0CFC11EB17
:102DC000074144EB17444FEA124711EB0C4144EB27
:102DD0001C4422EA074C05FB07F206FB07F70CFB35
:102DE00006F605FB0CFC16EB074642EB174216EB0A
:102DF0000C4642EB1C456A1854F1000148BF70476D
:102E0000B619524141EB0101A3F10103704795F05E
:102E1000000F37D04FEA11424FEA144721EA024629
:102E200024EA074C02FB07F106FB07F70CFB06F44C
:102E300002FB0CFC14EB074441EB17414FEA15472A
:102E400014EB0C4441EB1C4125EA074C02FB07F54F
:102E500006FB07F70CFB06F602FB0CFC16EB07461D
:102E600045EB174516EB0C4645EB1C42121951F188
:102E7000000148BF7047B619524141EB0101A3F16F
:102E8000010370474FEA14454FEA114724EA05460B
:102E900021EA074C05FB07F106FB07F70CFB06F2DE
:102EA0004FF0000605FB0CFC12EB074241EB17410B
:102EB00012EB0C4251EB1C4148BF7047921841EB9A
:102EC0000101A3F10103704710B5024800F0A9FE0B
:102ED00010BD0000708C002054494A6822F4403232
:102EE0004A604A6843681A434A600268526822F49A
:102EF000807203685A6002685368026943EA0222DA
:102F000003685A600268526822F0407203685A608F
:102F10000268526883681A4303685A6002689268BC
:102F200022F4006203689A6002689268C3681A43D8
:102F300003689A603E4B826A9A4218D0026892688F
:102F400022F0706203689A6002689268836A1A438A
:102F500003689A600268926822F0405203689A609F
:102F600002689268C36A1A4303689A600BE00268B9
:102F7000926822F0706203689A600268926822F098
:102F8000405203689A600268926822F00202036865
:102F90009A6002689368826943EA420203689A6011
:102FA000026AA2B10268526842F4006203685A6081
:102FB0000268526822F4604203685A6002685368EB
:102FC000426A521E43EA423203685A6005E00268D0
:102FD000526822F4006203685A600268D26A22F4DE
:102FE00070020368DA620268D36A828B521E43EA77
:102FF00002520368DA620268926822F4007203687F
:103000009A6002689368026B43EA422203689A60FE
:103010000268926822F4806203689A60026893688A
:10302000426943EA822203689A60704700230140A4
:103030000100000F70B50446A56B284600F0E8FFBC
:103040000120287170BD70B50446A56B284600F0BC
:10305000AFFF0120287170BD70B50546AC6B2069CB
:1030600040F004002061204600F0E6FF01202071BE
:1030700070BD70B50546AC6B206940F0040020615E
:10308000204600F097FF0120207170BD70B5044606
:10309000A56B284600F0BDFF70BD70B50446A56B5A
:1030A000284600F086FF70BD10B50249886801F01F
:1030B0004DF910BD6003002010B5024801F046F93B
:1030C00010BD0000A802002001460878103818231F
:1030D000B0FBF3F20848805CC865032A05D908688C
:1030E0006FF30900001D886503E008686FF30900AD
:1030F0008865886D704700000C690508014600204E
:103100008A6A8B69CBB932B1012A0DD0022A03D069
:10311000032A10D10EE000BFCB6A03F08073B3F135
:10312000807F00D1012007E0CB6AB3F1C07F00D1DE
:10313000012001E000E000BF34E08B69B3F5005FDF
:103140001AD132B1012A07D0022A03D0032A11D1A1
:103150000AE000BF01200EE0CB6A03F08073B3F1F8
:10316000807F00D1012006E0CB6AB3F1C07F00D19F
:10317000012000E000BF15E032B1012A05D0022A8B
:1031800004D0032A0CD103E000BF00BF012008E0F7
:10319000CB6A03F08073B3F1807F00D1012000E09F
:1031A00000BF00BF704730B50468246824F4802451
:1031B00005682C60046863608468402C04D104684E
:1031C000A2600468E16003E00468A1600468E26052
:1031D00030BD0146002205E0002301F51F7040F8D4
:1031E0002230521C0F2AF7D3002204E0002301F101
:1031F0001C008354521CB2F5007FF7D300200870E6
:103200004870012088700020C1F8B80201230B76B5
:1032100040238B7100234B7681F81C32012381F807
:103220001D327047016801F58051896921F0020261
:10323000016801F580518A617047016801F580518C
:10324000896941F00202016801F580518A61704785
:10325000016801F58051896921F40052016801F586
:1032600080518A617047016801F58051896941F494
:103270000052016801F580518A61704708B508491C
:103280000968C9084FF47A72B1FBF2F14143009129
:1032900000BF00BF00994A1E00920029F9D108BD65
:1032A0000000002038B5044600200090206800F59A
:1032B0008050806940F48011206800F58050816161
:1032C000206800F58050806900900120FFF7D6FF4C
:1032D0000099206800F58050816138BD30B5034603
:1032E0001479557944EA0520084C0C442064D478BC
:1032F0002406957844EA0544557844EA052415786F
:1033000044EA0500014C0C44606430BD008002407A
:1033100070B5AEB004460E46002526B14FF40061EC
:10332000E160C900A16000201190129013901490E8
:1033300015901690E06918B94FF48060179001E07D
:10334000002017904FF400701890002019901A90E8
:103350001B901C901D9040201E9000201F902090DC
:1033600021902290239024902590269080202790D1
:103370000020289029902A902B902C902D90206846
:10338000056871480540DDE91101084313990843B8
:1033900014990843A16808431599084316990843EE
:1033A000E168084317990843189908431999084395
:1033B0001A9908431B990843054320680560206853
:1033C0000568012001F0A7F920680560DDE91C010E
:1033D00008431E9908431F990843209908432199DF
:1033E00008432299084323990843216848602068CC
:1033F0004568012001F08FF9206845602498216814
:10340000886025982168C860206885694FF64170FA
:103410000540DDE9261040EA014028990843299932
:1034200008432A9908432B9908430543206885617E
:1034300020688569012001F06EF920688561DDE969
:103440002C0108432168C8612068C569012001F08A
:1034500062F92068C561002001904FF00070029071
:10346000002003904FF40010049000200590069077
:103470000790089004200990C0050A9040120B9014
:1034800080010C9040120D9080200E9000200F9033
:103490001090206800F5805085692C480540DDE9D2
:1034A0000101084303990843049908430599084317
:1034B000069908430799084308990843099908435E
:1034C0000543206800F580508561206800F5805034
:1034D0008569012001F01FF9206800F580508561A1
:1034E000DDE90A0108430C9908430D9908430E9938
:1034F00008430F9940EA81001099084340F4000105
:10350000206800F580500160206800F58050056853
:10351000012001F000F9206800F580500560A069E5
:10352000012809D1206800F58050C0690849084386
:10353000216801F58051C861002120466269FFF7CA
:10354000CDFE2EB070BD00000F8120FF233FDEF8BE
:103550004000010038B50446002000902068006853
:1035600020F00400216808602068006800900120B5
:10357000FFF784FE00982168086038BD38B504461E
:10358000002000902068006840F004002168086076
:103590002068006800900120FFF770FE0098216805
:1035A000086038BD38B504460020009020680068E7
:1035B00020F0080021680860206800680090012061
:1035C000FFF75CFE00982168086038BD38B50446F6
:1035D000002000902068006840F008002168086022
:1035E0002068006800900120FFF748FE00982168DD
:1035F000086038BD10B5042001F094FE10BD10B570
:10360000402001F08FFE10BD30B504460D4600226B
:103610002946204600F002F830BD0000F0B5034610
:10362000012500241148407A01281CDA00200F4EA1
:10363000767A0E4FB8553846467A001D40F8263047
:10364000001F467A083082553E46707A461C7E72CC
:10365000044604F1300008703A2048702F2088702A
:103660000020C87000252846F0BD0000D4090020C5
:1036700010B5002201B909E0012901D10A0205E0D3
:10368000022901D10A0201E04FF440720B2800D94F
:10369000001D0E4B1B6823F440730C4C2360234623
:1036A0001B681343236023461B6823F0F803236041
:1036B00023461B68022444EAC0042343034C2360CE
:1036C00023461B6843F48033236010BD103C024046
:1036D0001C48006800F40070B0B11A48006820F47B
:1036E00000701849086000BF0846006840F4006098
:1036F00008600846006820F40060086000BF0846C3
:10370000006840F4007008600E48006800F48060B3
:10371000B0B10C48006820F480600A49086000BF1E
:103720000846006840F4805008600846006820F4AD
:103730008050086000BF0846006840F48060086060
:1037400070470000003C0240134A126822F44072A5
:10375000114B1A60032906D11A461268DB131A436B
:103760000D4B1A600EE0012906D10B4A126842F097
:103770000402094B1A6005E0074A126842F400424D
:10378000054B1A60044A12684FF4803343EA002361
:103790001A43014B1A607047103C0240074A1268F6
:1037A00022F44072054B1A601A4612681A601A46D3
:1037B000126842F001021A6001707047103C02402A
:1037C00010B50949096821F44071074C2160214670
:1037D000096841F4407121602146096841F0010106
:1037E00021600260436010BD103C0240084A12682C
:1037F00022F44072064B1A601A46126842F4807234
:103800001A601A46126842F001021A60018070477D
:10381000103C0240084A126822F44072064B1A60BB
:103820001A46126842F400721A601A46126842F090
:1038300001021A6001607047103C02402A4800688B
:1038400000F0100040B12948C06940F0100027493D
:10385000C8611020244908602348006800F0200057
:1038600040B12248C06940F008002049C8612020CA
:103870001D4908601C48006800F0400040B11B482A
:10388000C06940F004001949C86140201649086029
:103890001548006800F0800040B11448C06940F04D
:1038A00002001249C86180200F4908600E48006874
:1038B00000F4807048B10D48C06940F001000B4928
:1038C000C8614FF48070084908600748006800F03C
:1038D000020040B10548C06940F020000349C861BA
:1038E00002200149086070470C3C0240E0090020BA
:1038F00070B50446002500201449C86101F03CFE63
:10390000054609E0601C38B124B101F035FE401BCA
:10391000A04201D9032070BD0D48006800F480303A
:103920000028EFD10A48006800F0010010B1012022
:10393000074908600648006800F4F97018B1FFF7FD
:103940007DFF0120E7E70020E5E70000E009002017
:103950000C3C024070B504461D460023B5F5804F6F
:1039600013D154F822300C480340D1E9000640EA54
:1039700006108E6840EA06208E8940EA06408E696D
:103980003043034344F8223003E06FF0704044F8C2
:103990002200002070BD00000000F0CF10B50246EC
:1039A0000023086852F8203018480340D1E9010488
:1039B0002043CC6820430C6920434C6920438C6928
:1039C0002043CC6920430C6A20434C6A20438C6A14
:1039D0002043CC6A2043CC6B20430C6B20434C6BC0
:1039E000204303438868082801D143F04003086856
:1039F00042F82030486BB0F5801F05D1086818B137
:103A000010684C6B20431060002010BD8000E0FF68
:103A100030B5034614460022601C53F8202002F003
:103A20004042D1E9000540EA05108D6840EA0520D2
:103A30008D8940EA0545088A401E45EA0055087D03
:103A4000801E45EA00608D6928430243601C43F8EC
:103A50002020186800F4801038B1586820F47002F3
:103A6000088A401E42EA00525A60002030BD70476A
:103A700038B502460020009000BF92F83C000128B3
:103A800001D1022038BD012082F83C0000BF086847
:103A9000092816D91068C0680C780A3C04EB440564
:103AA0000724AC40A0431468E0600C780A3C04EBA7
:103AB00044048868A0401468E46820431468E06007
:103AC00013E0106800690C7804EB44050724AC404F
:103AD000A043146820610C7804EB44048868A0407B
:103AE000146824692043146820614868072817D2A5
:103AF0001068406B0C79641E04EB84051F24AC40F5
:103B0000A04314686063088880B20C79641E04EBDB
:103B10008404A0401468646B20431468606331E03F
:103B200048680D2817D21068006B0C79E41F04EB6D
:103B300084051F24AC40A04314682063088880B229
:103B40000C79E41F04EB8404A0401468246B204328
:103B50001468206316E01068C06A0C790D3C04EB11
:103B600084051F24AC40A0431468E062088880B23A
:103B70000C790D3C04EB8404A0401468E46A2043F3
:103B80001468E0621A4B1B4C1068A04206D108680A
:103B9000122803D1586840F480005860154C106812
:103BA000A0421ED1144C0868A04202D00868112817
:103BB00017D1586840F4000058600F4C0868A042C4
:103BC0000FD10E4800680E4CB0FBF4F000EB800003
:103BD0004000009002E00098401E009000980028ED
:103BE000F9D100BF002082F83C0000BF00BF49E7C8
:103BF00000230140002001401200001000000020BE
:103C000040420F0010B50446204600F006F8014976
:103C1000088010BDB2050020704701460868C06CDE
:103C2000704770B504460025002620680068C0F380
:103C3000400520684068C0F3401695B38EB3206CF1
:103C400000F0100018B9206C40F400702064206867
:103C5000806800F04050E8B9A069D8B92068C06A0F
:103C600000F4700020B12068806800F4806088B99A
:103C70002068406820F0200021684860206C20F413
:103C800080702064206C00F4805018B9206C40F0E3
:103C9000010020642046FFF7B5FF6FF01200216895
:103CA000086020680068C0F3800520684068C0F3A1
:103CB000C016E5B3DEB3206C00F0100018B9206C1C
:103CC00040F4005020642068806800F4401038BB45
:103CD0002068806B00F4401020B12068806800F4F8
:103CE0008060E8B92068406800F48060C0B920684E
:103CF000806800F0405098B9A06988B92068406891
:103D000020F0800021684860206C20F480502064FE
:103D1000206C00F4807018B9206C40F00100206421
:103D20002046FFF7A4FE6FF00C00216808602068B1
:103D3000006800F0010520684068C0F3801685B176
:103D40007EB12068006800F0010050B1206C40F4A2
:103D500080302064204600F053F86FF001002168A5
:103D6000086020680068C0F3401520684068C0F310
:103D700080667DB176B1606C40F0020060646FF0E7
:103D80002000216808602046FFF746FF6FF0200002
:103D90002168086070BD000070B5044600250CB9AC
:103DA000012070BD1549A06A884200D000BF206C78
:103DB00030B90020606484F83C00204600F021F80F
:103DC000206C00F0100088B9206C20F4885040F07E
:103DD000020020642046FFF77FF800206064206C1A
:103DE00020F0020040F00100206400E0012500BF47
:103DF000002084F83C0000BF2846D2E70100000FF5
:103E00007047704708B501460020009000BF91F848
:103E10003C00012801D1022008BD012081F83C00AE
:103E200000BF0868806800F00100A0B908688068D9
:103E300040F001000B68986031480068314BB0FBDE
:103E4000F3F000EB4000009002E00098401E00906C
:103E500000980028F9D10868806800F00100002867
:103E60004BD0086C40F20163984340F480700864C2
:103E70000868406800F4806028B1086C20F40050A5
:103E800040F480500864086C00F4805020B1486C05
:103E900020F00600486401E00020486400BF0020D4
:103EA00081F83C0000BF184A6FF022000B681860D0
:103EB00008684068154B18430B685860506800F05C
:103EC0001F0058B90868806800F04050A8B9086819
:103ED000806840F080400B6898600EE00C4B0868EA
:103EE00098420AD10868806800F0405028B90868F4
:103EF000806840F080400B68986000208CE70000EC
:103F00000000002040420F00002301402000000478
:103F10000020014030B503460C46002100BF18794F
:103F2000012801D1022030BD0120187100BF0220FC
:103F300058711868806840F001001D68A860002171
:103F400004E054F821001D682860491C9142F8D310
:103F50000120587100BF0020187100BF1868006868
:103F6000E1E710B504460CB9012010BD607920B915
:103F700000202071204600F007F802206071012027
:103F800060710020F1E7000008B500BF002100913A
:103F90000649096841F48051044A116011460968D4
:103FA00001F48051009100BF08BD0000303802408C
:103FB00070477047704770B503460024002500BF66
:103FC0005879012801D1022070BD0120587100BF2D
:103FD000022018711868046840F6FE70904084430F
:103FE000D1E9000640EA060505FA02F00443186824
:103FF000046018680668C020904086431868066010
:104000000120187100BF0020587100BF00BFDBE71E
:104010007047704710B504460CB9012010BD02204E
:104020002071204600F01DF800202061207100BFA3
:10403000607100BF00BFF1E7704710B504460CB9CE
:10404000012010BD207920B900206071204600F0C9
:1040500009F8022020710020206101202071002039
:10406000EFE7704710B586B0044614220C4901A84A
:10407000FCF715FE01A90B4801F062F90A4800F0AF
:1040800085FA00BF0848A060846300BF00220521B4
:10409000102001F066FE102001F056FE06B010BDA3
:1040A0007869050800000240100000202DE9F04763
:1040B00004460D4616469846089F4FF0000900BF7B
:1040C0006079012802D10220BDE8F08701206071EB
:1040D00000BF0220207115BB3648A168C86336486E
:1040E000A16808643548A168C8642068006840F485
:1040F00080502168086027B1042F06D0082F0CD10A
:1041000007E0206800F1080908E0206800F10C09C8
:1041100004E0206800F1100900E000BF22E0284818
:10412000E168C8632748E16808642748E168C86413
:104130002068006840F080502168086027B1042F93
:1041400006D0082F0CD107E0206800F1140908E020
:10415000206800F1180904E0206800F11C0900E063
:1041600000BF00BF65B92068006840F400502168B6
:10417000086043464A463146A06800F07DFA0BE0ED
:104180002068006840F000502168086043464A46B5
:104190003146E06800F070FA206800680121A9400B
:1041A00008432168086000BF0020607100BF00BFA5
:1041B0008AE70000353002088D30020859300208C5
:1041C000473002089B3002087330020870B504467D
:1041D0000D460026206800684FF48051A9408843AE
:1041E00021680860206801680120A8408143206898
:1041F000016025B9A06800F00EF8064603E0E0680B
:1042000000F009F8064616B10420207101E00120F3
:104210002071304670BD70B50446A56D01F0ACF953
:10422000064694F83500022808D08020606500BF5B
:10423000002084F8340000BF012070BD20680068B1
:1042400020F01600216808602068406920F0800096
:1042500021684861206C08B9A06C28B1206800680A
:1042600020F00800216808602068006820F0010044
:10427000216808600FE001F07FF9801B05280AD94A
:104280002020606500BF002084F8340000BF0320B8
:1042900084F83500D1E72068006800F001000028AC
:1042A000E9D194F85C103F208840A86000BF00204E
:1042B00084F8340000BF012084F835000020BCE7FA
:1042C000014691F83500022803D08020486501207E
:1042D0007047052081F835000868006820F001006B
:1042E0000A6810600020F3E770B504460CB901209D
:1042F00070BD94F83500022800D1F9E72068006805
:1043000020F0010021680860002021680860216811
:104310004860216888602168C860216808612120A0
:10432000216848612046FEF7CFFE054694F85C10F0
:104330003F208840A8600020606584F8350000BFF9
:1043400084F8340000BF00BFD2E70000F8B504468F
:10435000002000908C4800684FF41651B0FBF1F734
:10436000A56D2E6894F85C1008208840304098B104
:104370002068006800F0040070B12068006820F038
:1043800004002168086094F85C1008208840A86048
:10439000606D40F00100606594F85C100120884079
:1043A000304068B12068406900F0800040B194F866
:1043B0005C1001208840A860606D40F002006065DC
:1043C00094F85C1004208840304068B12068006890
:1043D00000F0020040B194F85C1004208840A8600E
:1043E000606D40F00400606594F85C101020884017
:1043F000304078B32068006800F0080050B394F8AB
:104400005C1010208840A8602068006800F48020BC
:1044100080B12068006800F4002028B9206CC8B181
:104420002046216C884715E0A06C98B12046A16C0D
:1044300088470FE02068006800F4807028B9206881
:10444000006820F0080021680860206C10B1204648
:10445000216C884794F85C10202088403040002868
:1044600065D02068006800F0100000285FD094F844
:104470005C1020208840A86094F83500052828D1D9
:104480002068006820F016002168086020684069F4
:1044900020F0800021684861206C08B9A06C28B128
:1044A0002068006820F008002168086094F85C101B
:1044B0003F208840A86000BF002084F8340000BF7F
:1044C000012084F83500206D10B12046216D884709
:1044D000F8BD2068006800F4802080B12068006882
:1044E00000F4002028B9606C10B12046616C884748
:1044F0001DE0E06BD8B12046E16B884717E02068EB
:10450000006800F4807068B92068006820F010002E
:104510002168086000BF002084F8340000BF01203B
:1045200084F83500E06B10B12046E16B8847606D80
:1045300038B3606D00F00100F0B1052084F835005B
:104540002068006820F001002168086000BF009822
:10455000401C0090B84200D905E02068006800F0D7
:1045600001000028F3D100BF00BF002084F8340010
:1045700000BF012084F83500E06C10B12046E16CEA
:10458000884700BFA4E70000000000202DE9F041AB
:104590000446002500F0F0FF074614B90120BDE8ED
:1045A000F081606A00B100BF00BF002084F83400D1
:1045B00000BF022084F835002068006820F0010068
:1045C000216808600AE000F0D7FFC01B052805D964
:1045D00020206065032084F83500E0E7206800684B
:1045E00000F001000028EED1206805682148054050
:1045F000D4E901010843E16808432169084361697E
:104600000843A1690843E1690843216A0843054357
:10461000606A042803D1D4E90B01084305432068EC
:1046200005602068456925F00705606A0543606AF2
:1046300004280DD1A06A0543E06A48B12046FEF780
:104640005DFD28B140206065012084F83500A6E7B3
:10465000206845612046FEF737FD064694F85C1059
:104660003F208840B06000206065012084F835005C
:10467000002094E73F8010F02DE9F04704460D46F6
:1046800016461F464FF00008D4F8589000BF94F823
:104690003400012802D10220BDE8F087012084F80F
:1046A000340000BF94F8350001282BD1022084F893
:1046B0003500002060653B46324629462046FEF71D
:1046C00072FD94F85C103F208840C9F8080020680B
:1046D000006840F01600216808602068406940F0DA
:1046E000800021684861206C28B12068006840F093
:1046F0000800216808602068006840F00100216817
:10470000086006E000BF002084F8340000BF4FF0CE
:1047100002084046C0E731B500F02EFF0546009C78
:10472000601C00B1641C00BF00F026FF401BA042CB
:10473000FAD338BD70B505460C46002600BF95F883
:104740004500012801D1022070BD012085F84500F7
:1047500000BF022085F84400002C6DD02868066850
:1047600043480640D4E900010843A1680843E168D2
:104770000843A96808432169084361690843E96857
:104780000843A1690843E1690843216A0843616A53
:104790000843A16A0843064328680660286806683B
:1047A0000120FFF7B8FF28680660D4E90B01084331
:1047B000616B0843A16B0843E16B0843216C08431C
:1047C000616C0843A16C0843296848602868466802
:1047D0000120FFF7A0FF28684660E06C2968886028
:1047E000206D2968C860286886694FF641700640C8
:1047F000B4F85410A06D40EA0140E16D0843216E09
:104800000843616E0843A16E084306432868866129
:10481000286886690120FFF77EFF28688661D4E951
:104820001B0108432968C8612868C6690120FFF791
:1048300072FF2868C66110E02868066826F4904672
:10484000D5E902010843064328680660286806681F
:104850000120FFF760FF28680660012085F844000A
:1048600000BF002085F8450000BF00BF6CE70000D6
:104870000F8120FF70B504460D461646002200BF8A
:1048800094F84500012801D1022070BD012084F870
:10489000450000BF022084F84400A56200221FE00A
:1048A00005EB42114FF00040086044F2F4504860BC
:1048B000C2EBC21000EB400006EB80008860A069EC
:1048C000012803D1486820F000404860581E9042FB
:1048D00004D905EB42102030C86000E0CD60521CC6
:1048E0009A42DDD3206800F58050C560012084F82D
:1048F000440000BF002084F8450000BF00BFC4E7AB
:1049000070B504460D461646002200BF94F84500D7
:10491000012801D1022070BD012084F8450000BFAC
:10492000022084F84400E56200221BE005EB4211FE
:104930004FF480100860C2EBC21000EB400006EBA1
:1049400080008860E06918B9086840F44000086099
:10495000581E904204D905EB42102030C86000E098
:10496000CD60521C9A42E1D3206800F58050056169
:10497000012084F8440000BF002084F8450000BFF7
:1049800000BFC8E70146002200BF91F8450001289A
:1049900001D102207047012081F8450000BF0220AC
:1049A00081F84400886A006800F00040002838D18F
:1049B000886A006800F48070F0B1886B401C8863DE
:1049C000886B012801D1886A08638B6A4B63886A07
:1049D0000068C0F30D40021FCA63086B83680B6454
:1049E000886AC0688862012081F8440000BF002006
:1049F00081F8450000BFCDE7886A006800F40070C8
:104A000048B1886A086300234B6301238B63886A7B
:104A1000C068886205E0886B401C8863886AC0684B
:104A20008862012081F8440000BF002081F8450021
:104A300000BF0120AEE700002DE9FC41044600253F
:104A4000002001909D4E0027804614B90120BDE84A
:104A5000FC8194F8440028B9002084F845002046E1
:104A600000F03AF900BF002000909548006840F43B
:104A70008040934908600846006800F48040009038
:104A800000BF00BF8F48006820F400008D49086017
:104A900008460068216A08438A490860206800F5D2
:104AA0008050006840F00101206800F580500160EE
:104AB00000F062FD07460FE000F05EFDC01BB0F5A0
:104AC000FA7F09D9032084F8440000BF002084F84D
:104AD000450000BF0320BAE7206800F58050006859
:104AE00000F001000028E7D12068056925F01C05C9
:104AF00002F050FA06467448864205D3734886424F
:104B000002D245F008051AE07048864205D36B488A
:104B1000864202D245F00C0511E06848864203D374
:104B20006B48864200D20AE06948864205D369484C
:104B3000864202D245F0040501E045F010052068E8
:104B400005614FF400420021204600F0C9FA48B147
:104B50004FF0010841462046FEF7DAFB012084F8B9
:104B6000440074E7FF20FFF7D6FD6068002871D08D
:104B700000F002FD074600BF01AA0121204600F017
:104B800075F900F0F9FCC01B41F2883188420FD959
:104B90004FF0010841462046FEF7BAFB012084F899
:104BA000440000BF002084F8450000BF03204EE70A
:104BB000019800F004000428DED182020021204682
:104BC00000F08EFA48B14FF0010841462046FEF74A
:104BD0009FFB012084F8440039E700F0CDFC074634
:104BE00000BF01AA0121204600F040F900F0C4FCFA
:104BF000C01B41F2883188420FD94FF0010841466D
:104C00002046FEF785FB012084F8440000BF002009
:104C100084F8450000BF032019E7019800F0200048
:104C20002028DED101AA1021204600F01FF948B14A
:104C30004FF0010841462046FEF76AFB012084F848
:104C4000440004E7019800F0040020B14FF4006133
:104C5000E16002E00DE00021E160019800F0020057
:104C6000022802D10021A1601EE04FF48041A16022
:104C70001AE0E068C0F3CF00A168C1F34F0140EA39
:104C800001020021204600F02BFA48B14FF0010844
:104C900041462046FEF73CFB012084F84400D6E65E
:104CA00040F6FF70FFF737FD41462046FEF730FB28
:104CB000012084F844000020C9E600000087930327
:104CC0004438024004380140002D3101C00E160264
:104CD00000E1F50580D1F00810B586B0044600BFAC
:104CE000002000905C48006840F001005A490860CC
:104CF0000846006800F00100009000BF00BF0020DF
:104D000000900846006840F002000860084600680D
:104D100000F00200009000BF00BF00200090084695
:104D2000006840F0040008600846006800F00400D5
:104D3000009000BF00BF002000900846006840F0CF
:104D4000200008600846006800F02000009000BFC6
:104D500000BF002000900846006840F04000086056
:104D60000846006800F04000009000BF00BF00202F
:104D700000900846006840F080000860084600681F
:104D800000F08000009000BF00BF002000900846A7
:104D9000006840F4807008600846006800F4807085
:104DA000009000BF03200490022002900020039096
:104DB0000B2005908F20019001A9284800F0C0FA2F
:104DC00040F60350019001A9254800F0B9FA3E20B1
:104DD000019001A9234800F0B3FA4FF4C0400190BC
:104DE00001A9214800F0ACFA00BF00BF00200090EC
:104DF0001948006840F000701749086008460068CC
:104E000000F00070009000BF00BF00200090084636
:104E1000006840F0806008600846006800F080602C
:104E2000009000BF00BF002000900846006840F0DE
:104E3000006008600846006800F00060009000BF55
:104E400000BF206A28B900224FF48001104602F00A
:104E5000FFF806B010BD00003038024000000240EC
:104E60000004024000080240001802402DE9F04111
:104E700004460E4617460025A84694F844008228AA
:104E800002D10220BDE8F081822084F8440020682D
:104E9000056905F01C05208A4FF4784101EAC0201D
:104EA0000543481100EA8610054325F0020545F048
:104EB00001052068056100F05FFB804612E000F00C
:104EC0005BFBA0EB0800B0F5803F09D3012084F81C
:104ED000440000BF002084F8450000BF0320D1E754
:104EE0002068056905F001000028E8D120684069C4
:104EF00080B23860012084F844000020C2E710B579
:104F0000044600BF94F84500012801D1022010BDDD
:104F1000012084F8450000BF022084F844002046A8
:104F2000FEF754FB2046FEF729FB2046FEF7BAF9B0
:104F30002046FEF798F92046FEF77FF9012084F815
:104F4000440000BF002084F8450000BF00BFDEE73A
:104F500010B5044600BF94F84500012801D1022095
:104F600010BD012084F8450000BF022084F84400F1
:104F70002046FEF76DF92046FEF754F92046FEF76D
:104F8000E9FA2046FEF78EF92046FEF70BFB0120DA
:104F900084F8440000BF002084F8450000BF00BF33
:104FA000DEE770B5024600230025002400BF92F81A
:104FB0004500012801D1022070BD012082F8450082
:104FC00000BF022082F8440049B9012082F8440061
:104FD00000BF002082F8450000BF0120ECE7D06A46
:104FE000006800F0004048B1122082F8440000BF81
:104FF000002082F8450000BF0120DDE740F2F450B8
:10500000814208D9B1FBF0F3B1FBF0F600FB1610BA
:1050100010B15B1C00E00123012B13D1D06A0068A2
:1050200040F04050D66A3060C1F30C00D66A706020
:10503000D06A006840F00040D66A3060D06AC0682C
:10504000D06232E000242EE0D06A006820F04050A8
:10505000D66A30602CB9D06A006840F08050D66AB9
:10506000306040F2F450D66A7060581EA04210D1F1
:10507000D06A006840F00050D66A3060581EC0EB1D
:10508000C01000EB4000A1EB8005C5F30C00D66A10
:105090007060D06A006840F00040D66A3060D06A24
:1050A000C068D062641C9C42CED3106800F580506A
:1050B000406900F0040048B10426106800F58050F3
:1050C00046610026106800F580504660012082F895
:1050D000440000BF002082F8450000BF00BF6BE71E
:1050E0002DE9F04104460E4617460025A84694F8DF
:1050F0004400422802D10220BDE8F081422084F819
:1051000044002068056905F01C05208A4FF47841A9
:1051100001EAC0200543481100EA8610054345F026
:10512000020545F00105B8B22168486120680561B3
:1051300000F022FA804612E000F01EFAA0EB080010
:10514000B0F5803F09D3012084F8440000BF00205F
:1051500084F8450000BF0320CEE72068056905F00C
:1051600001000028E8D1012084F844000020C3E7B2
:105170002DE9F04104460E460127002500BF2648D0
:10518000007E012802D10220BDE8F08101202249E1
:10519000087600BF4CF25030FEF7AAFB0746002FFE
:1051A00032D1401E30602068012810D1207C616817
:1051B000FEF7CAFA4CF25030FEF79AFB0746174842
:1051C000006848F204018843144908601AE0A568A1
:1051D00012E0217C2846FEF74BFA4CF25030FEF7E5
:1051E00087FB07460D48006820F0FA000B4908606D
:1051F0000FB1356005E06D1CD4E902100844A842E7
:10520000E7D800BFFEF764FA00BF00200249087625
:1052100000BF3846B8E70000E0090020103C02401B
:105220000348006840F000400149086000207047D2
:10523000103C02402DE9F04106460F4614461D463B
:105240004FF0010800BF1F48007E012802D1022054
:10525000BDE8F08101201B49087600BF4CF25030B8
:10526000FEF746FB8046B8F1000F23D126B9E1B224
:105270003846FEF793FA12E0012E04D1A1B2384667
:10528000FEF7B4FA0BE0022E04D121463846FEF7B1
:10529000C1FA04E022462B463846FEF791FA4CF25A
:1052A0005030FEF725FB80460748006820F00100DB
:1052B0000549086000BF00200249087600BF40464B
:1052C000C6E70000E0090020103C02400020094928
:1052D000096801F0004159B10749064A0C3A1160CA
:1052E000064911600349096801F0004101B101203C
:1052F00070470000103C024023016745AB89EFCDA9
:1053000010B50446402C04D101220449044802F09F
:105310009BFC042C01D119F05FFE10BD3807002062
:105320000803002010B5044604480068204020B15E
:10533000024804602046FFF7E3FF10BD143C014023
:10534000F8B502460B460025002400200021E6E0C7
:10535000012606FA01F51E6806EA0504AC4273D17F
:105360005E68022E02D05E68122E13D1CF0802F1C1
:10537000200656F827004E07F70E0F26BE40B04312
:105380004F07FF0E1E69BE403043CF0802F12006D2
:1053900046F8270010684F000326BE40B0431E7930
:1053A00006F003064F00BE40304310605E68012ED9
:1053B00008D05E68022E05D05E68112E02D05E68AD
:1053C000122E13D190684F000326BE40B0434F0009
:1053D000DE68BE4030439060506801268E40B04386
:1053E0001E79C6F300168E4030435060D0684F00DF
:1053F0000326BE40B0434F009E68BE403043D0609D
:105400005E6806F08056B6F1805FA8D100BF002626
:105410000096454E366846F48046434F3E603E4611
:10542000366806F48046009600BF00BF3F4E8F08E6
:1054300056F827008E07370F0F26BE40B0433C4E6C
:10544000B24202D100262EE068E03A4EB24201D1CB
:10545000012628E0384EB24201D1022623E0374E21
:10546000B24201D103261EE0354EB24201D10426DC
:1054700019E0344EB24201D1052614E0324EB24258
:1054800001D106260FE0314EB24201D107260AE0D3
:105490002F4EB24201D1082605E02E4EB24201D174
:1054A000092600E00A268F073F0FBE4030431F4EFB
:1054B0008F0846F82700284E3068A0435E6806F43F
:1054C0008036B6F5803F00D12043234E3060361D34
:1054D0003068A0435E6806F40036B6F5003F00D1A0
:1054E00020431D4E361D3060361D3068A0435E6877
:1054F00006F48016B6F5801F00D12043164E0836FC
:105500003060361D3068A0435E6806F40016B6F5BC
:10551000001F00D12043104E0C363060491C10296A
:10552000FFF416AFF8BD00004438024008380140CF
:10553000000002400004024000080240000C02404B
:10554000001002400014024000180240001C0240FB
:105550000020024000240240003C01400246136942
:105560000B400BB1012000E0002070470AB18161BF
:1055700001E00B0483617047014800687047000038
:105580000C00002010B50446D4F8940205F040FA4F
:1055900010BD10B50446D4F8940205F050FA10BDC1
:1055A00010B50446206807F0DDFB10BD10B50446B9
:1055B000206807F0FFFB10BD024601EB810302F1FA
:1055C000380000EBC30090F824007047024601EB5E
:1055D000810302F1380000EBC3004069704770B5E9
:1055E00004460D46002600BF94F89002012801D120
:1055F000022070BD012084F8900200BF2946206877
:1056000007F0E6FB00BF002084F8900200BF3046A0
:10561000EFE72DE9FE4F04460D4616461F46DDE92D
:105620000D9ADDF830804FF0000B00BF94F8900227
:10563000012802D10220BDE8FE8F012084F89002EB
:1056400000BF05EB850104F1380000F8317005EB6F
:10565000850100EBC100A0F808A005EB850104F16D
:10566000380000EBC100457005EB850104F13800FE
:1056700000EBC10080F8079006F07F0105EB850282
:1056800004F1380000EBC2008170C6F3C01105EBD5
:10569000850204F1380000EBC200C17005EB850102
:1056A00004F1380000EBC10080F804808DE80007A9
:1056B0003B4632462946206807F02EFC834600BF51
:1056C000002084F8900200BF5846B4E770472DE9E7
:1056D000F05F04460D4616461F46DDE90BB9DDF8BE
:1056E00034A0DDF8288005EB850104F1380000EBDB
:1056F000C100C67005EB850104F1380000EBC10064
:10570000C771B8F1000F08D1032105EB850204F140
:10571000380000EBC200817207E0022105EB850230
:1057200004F1380000EBC200817237B1012F7DD047
:10573000022F3DD0032F3AD182E0B8F1010F36D1CC
:10574000AEBBB9F1000F07D1012105EB850204F1D1
:10575000380000EBC200417605EB850104F138000A
:1057600000EBC100407E40B9002105EB850204F149
:10577000380000EBC200817207E0022105EB8502D0
:1057800004F1380000EBC200817205EB850104F1E1
:10579000380000EBC10090F82400022807D005EB88
:1057A000850104F1380000EBC10080F805A085E018
:1057B0005EBB05EB850104F1380000EBC100407EC3
:1057C00040B9002105EB850204F1380000EBC2006E
:1057D000817207E0022105EB850204F1380000EB3D
:1057E000C200817205EB850104F1380000EBC100B5
:1057F00090F82400022822D005EB850104F138003E
:1058000000EBC10080F805A019E005EB850104F16B
:10581000380000EBC100007E48B9002105EB85028D
:1058200004F1380000EBC200817208E03DE0022183
:1058300005EB850204F1380000EBC20081723DE007
:10584000CEB905EB850104F1380000EBC100407EC4
:1058500040B9002105EB850204F1380000EBC200DD
:10586000817221E0022105EB850204F1380000EB92
:10587000C200817218E005EB850104F1380000EBED
:10588000C100007E40B9002105EB850204F138001B
:1058900000EBC200817207E0022105EB850204F1F2
:1058A000380000EBC200817208E0002105EB8502A0
:1058B00004F1380000EBC200817200BF00BF05EBAD
:1058C000850104F1380000EBC100C0F80CB005EB15
:1058D000850104F1380000EBC100C0F810900021F0
:1058E00005EB850204F1380000EBC20080F82410BB
:1058F00005EB850204F1380000EBC200416105EBC5
:10590000850104F1380000EBC1004570002105EB72
:10591000850204F1380000EBC20080F82510227CDB
:1059200005EB850C04F1380303EBCC01206807F08C
:10593000BDFBBDE8F09F2DE9F04104462668002537
:105940000027206807F03FFA012871D1206807F08E
:1059500039FD08B9BDE8F081206807F033FD00F497
:105960000010B0F5001F03D14FF40010216848610A
:10597000206807F027FD00F48010B0F5801F03D1E8
:105980004FF4801021684861206807F01BFD00F08B
:105990008060B0F1806F03D14FF080602168486172
:1059A000206807F00FFD00F00200022801D12168F5
:1059B0004861206807F006FD00F00050B0F1005F7C
:1059C00010D1D6F8400420F02E00C6F8400420463E
:1059D000FFF7DFFD0121206807F0A2FC4FF0005027
:1059E00021684861206807F0EDFC00F08070B0F19C
:1059F000807F02D1204603F09BF8206807F0E2FC8C
:105A000000F00800082805D1204600F0EFF8082033
:105A100021684861206807F0D5FC00F00070B0F103
:105A2000007F23D1206807F03BFB0746002516E0E6
:105A300032E00120A840384080B106F5A06000EBBC
:105A40004510006800F4004020B1E9B2204602F0A1
:105A50008EFB03E0E9B2204602F002FE6D1CA06856
:105A6000A842E6D84FF0007021684861206807F02E
:105A7000A9FC00F0100010280ED12068806920F0E9
:105A8000100021688861204603F0BCF82068806916
:105A900040F010002168886100BF5BE710B58AB054
:105AA000044614B901200AB010BD032084F8910205
:105AB000204600F021F8206806F0EAFD282204F1D3
:105AC00010016846FBF7EBF894E80F0006F00EFCB7
:105AD0000121206807F0A5FC282204F11001684686
