:020000040800F2
:1000000020B802208902000891020008930200082B
:1000100095020008970200089902000800000000FD
:100020000000000000000000000000009B0200082B
:100030009D020008000000009F020008352900080A
:10004000A3020008A3020008A3020008A3020008FC
:10005000A3020008A3020008A3020008A3020008EC
:10006000A3020008A3020008A3020008A3020008DC
:10007000A3020008A3020008A3020008A3020008CC
:10008000A3020008A3020008A3020008A3020008BC
:10009000A3020008A3020008A302000863090008E5
:1000A000A3020008A3020008A3020008A30200089C
:1000B000A302000891290008A3020008A302000877
:1000C000A3020008A3020008A3020008C12500083B
:1000D000A3020008A3020008A3020008A30200086C
:1000E000A3020008A3020008A3020008A30200085C
:1000F000A3020008A3020008A3020008A30200084C
:10010000A3020008A3020008A3020008A30200083B
:10011000A3020008A3020008A3020008A30200082B
:10012000A3020008A3020008A3020008A30200081B
:10013000A3020008A3020008A3020008A30200080B
:10014000A3020008A3020008A3020008C5210008BA
:10015000A3020008A3020008A3020008A3020008EB
:10016000A3020008A3020008A3020008A3020008DB
:10017000A3020008A3020008A3020008A3020008CB
:10018000A3020008A3020008A3020008A3020008BB
:10019000A3020008A3020008A3020008A3020008AB
:1001A0000000000000000000A302000800F002F8B8
:1001B00000F05BF80AA090E8000C82448344AAF1A6
:1001C0000107DA4501D100F050F8AFF2090EBAE8A4
:1001D0000F0013F0010F18BFFB1A43F0010318477B
:1001E0008CD30000ACD300000A4410F8014B14F08B
:1001F0000F0508BF10F8015B240908BF10F8014B78
:100200006D1E05D010F8013B6D1E01F8013BF9D1C0
:10021000641E03D0641E01F8015BFBD19142E4D35C
:10022000704700000023002400250026103A28BF54
:1002300078C1FBD8520728BF30C148BF0B60704758
:100240001FB507F053FB9DE8030000F075FA00F0BE
:10025000B9FA04000020002107F032FB401C606066
:1002600000F034FA1FBD10B510BD00F0D5FA1146EC
:10027000FFF7E6FF06F088FF00F0F3FA03B4FFF79C
:10028000F2FF03BC00F024FB0948804709480047FF
:10029000FEE7FEE7FEE7FEE7FEE7FEE7FEE7FEE736
:1002A000FEE7FEE704480549054A064B7047000093
:1002B00045290008AD0100082078002020B8022060
:1002C00020B8012020B8012070B5064600F018FAC9
:1002D000056806F10B0020F00704B4429CBF002023
:1002E00070BD2B466A68BAB11068A04210D304F101
:1002F000080188423CBF5068586007D35168101904
:1003000041601168091B016058601460101D70BDC8
:1003100013465268002AE7D12146284600F0F8F932
:100320000028DED170BD70B50446051F00F0E8F965
:100330000068002C14BF446870BD002C18BFAC428C
:100340003CBF20466468F8D301680A18AA4218BF67
:10035000456003D12A6805461144016028684119A7
:10036000A1421CBF6C6070BD61686960216808446F
:10037000286070BD53EA020C00F069802DE9F04B53
:100380004FF00006002B1FBFB3FA83F503FA05F404
:1003900024FA05F65E4012BF1643B2FA82F502FA5D
:1003A00005F4C5F120051EBF22FA05FC44EA0C0441
:1003B000203556EA044C4FEA144418BF641C4FF031
:1003C00000084FF00009904271EB030C39D300296B
:1003D00019BFB1FA81F701FA07F6B0FA80F700FA0F
:1003E00007F6C7F120071EBF20FA07FC46EA0C06F5
:1003F0002037B6FBF4FCA7EB0507103F07F01F0BF7
:10040000CBF120062CFA06F60CFA0BFB44BFB346E0
:100410000026202FA4BF5E464FF0000B5BEA060CBF
:1004200008BF4FF0010B19EB0B0948EB0608ABFBBB
:10043000027C06FB02CC0BFB03CCC01B71EB0C0156
:10044000C1E70B46024641464846BDE8F08B13B56E
:10045000084318BF4FF0FF300146AFF30080BDE8FE
:100460001C40704710B5044600F042F90068005D7A
:10047000C00602D504F1200010BD204610BD40EAA0
:100480000103024630B59B0710D14FF0013400E064
:1004900008C208C91D1B9D4315EAC41FF8D013F0FC
:1004A000FF0102F8011B0DD01B0AF8E711F8013B10
:1004B000002B02F8013B05D011F8013B002B02F89C
:1004C000013BF3D130BD032A40F2308010F0030C21
:1004D00000F0158011F8013BBCF1020F624498BF97
:1004E00011F801CB00F8013B38BF11F8013BA2F134
:1004F000040298BF00F801CB38BF00F8013B11F0AF
:10050000030300F02580083AC0F0088051F8043B4E
:10051000083A51F804CBA0E80810F5E7121D5CBFBB
:1005200051F8043B40F8043BAFF30080D20724BFEE
:1005300011F8013B11F801CB48BF11F8012B24BF82
:1005400000F8013B00F801CB48BF00F8012B7047D1
:1005500010B5203AC0F00B80B1E81850A0E8185050
:10056000B1E81850A0E81850203ABFF4F5AF5FEAA0
:10057000027C24BFB1E81850A0E8185044BF18C945
:1005800018C0BDE810405FEA827C24BF51F8043BEC
:1005900040F8043B08BF7047D20728BF31F8023B40
:1005A00048BF11F8012B28BF20F8023B48BF00F8D4
:1005B000012B70474FF000020429C0F0128010F0A8
:1005C000030C00F01B80CCF1040CBCF1020F18BF2F
:1005D00000F8012BA8BF20F8022BA1EB0C0100F0C2
:1005E0000DB85FEAC17C24BF00F8012B00F8012B95
:1005F00048BF00F8012B70474FF0000200B51346CA
:1006000094469646203922BFA0E80C50A0E80C5032
:10061000B1F12001BFF4F7AF090728BFA0E80C50E3
:1006200048BF0CC05DF804EB890028BF40F8042BDC
:1006300008BF704748BF20F8022B11F0804F18BF49
:1006400000F8012B7047000030B44FF0013C50F827
:10065000042B51F8043BCCFA52F4D51A20D1FCB942
:1006600050F8042B51F8043BCCFA52F4D51A17D1A8
:10067000B4B950F8042B51F8043BCCFA52F4D51A13
:100680000ED16CB950F8042B51F8043BCCFA52F45B
:10069000D51A05D1002CDAD030BC4FF000007047DD
:1006A00029BAB1FA81F111F01801D1F1200084408A
:1006B000F2D1CA40CB4012F0FF0213F0FF0330BC6E
:1006C000D01A7047704770477047000070B5064CED
:1006D0007C44064D7D4404E0204601680844804780
:1006E000241DAC42F8D170BDC8CF0000C8CF0000B7
:1006F00010B500F067F8001D10BD00BFC571000007
:1007000000487047106E0020704770477047704770
:1007100038B504460A4600206946AFF30080002839
:1007200008BF38BD02460099204600F053F801206A
:1007300038BD012000F068B8F8B5AFF30080054679
:1007400000200C46102000BF0646A819A0420DD973
:10075000324669460020AFF30080070008BF00F072
:1007600053F80098A04218BF0546C419FFF7C8FF08
:1007700005600746F01D20F007004619284600F0E6
:100780000AF8B44208BFF8BDA21B31463868BDE87C
:10079000F84000F01FB800210160C0E90110704767
:1007A0001020704710B500F011F8006810BD10B5AA
:1007B000044600F00BF8046010BD000000487047CC
:1007C000086E002000487047286E002000487047DF
:1007D000086E0020034640688C46002818BF8842F7
:1007E0003CBF03464068F8D318681844884207D0D5
:1007F0000CF1030020F00700001D411A521A0146B7
:10080000081D0A60FFF78FBD10B500F039F8BDE88C
:10081000104000F02FB870477546FFF7CFFFAE4687
:1008200005006946534620F00700854618B020B5FC
:10083000FFF738FDBDE820404FF000064FF00007FD
:100840004FF000084FF0000BAC46ACE8C009ACE834
:10085000C009ACE8C009ACE8C00921F007018D4629
:10086000704710B50446AFF300802046BDE8104045
:10087000FFF704BD002801D000F02AB8704700003F
:1008800010B5012805D0002103A000F027F80120B1
:1008900010BD09A1F8E7000053494752544D454D9A
:1008A0003A204F7574206F662068656170206D6511
:1008B0006D6F7279000000003A2048656170206D0C
:1008C000656D6F727920636F727275707465640004
:1008D00001491820ABBEFEE72600020070B50546B0
:1008E0000C460A2000E06D1C00F011F835B12878A4
:1008F0000028F8D102E0641C00F009F814B1207857
:100900000028F8D1BDE870400A20AFF3008008B598
:1009100069468DF800000320ABBE08BD00F51F71CD
:10092000002200230F2B03D041F823200133F9E7E5
:1009300000F11C0100220023B3F5007F02D0CA544D
:100940000133F9E700214FF480720170A0F8012013
:10095000A0F81C220122028340228271C0F8B81242
:100960007047402000F0A8BA002200F001B8000053
:10097000B0B50D4C0346607A08B10120B0BD657A70
:1009800000206055657A04EB85056B60637A23442B
:100990001A72627A531C3032637242F63A73C8702C
:1009A0000A70A1F80130B0BDBC750020514A03297E
:1009B000136823F4407313604FF4407338BF0B0285
:1009C00011681943C3001160116821F0F80111602A
:1009D00020210B2888BF01EBC0031068184340F0AA
:1009E00002001060106840F480301060704700BF53
:1009F0001348016889050FD5016821F40071016071
:100A0000016841F400610160016821F40061016046
:100A1000016841F400710160016849050FD5016862
:100A200021F480610160016841F480510160016836
:100A300021F480510160016841F4806101607047D8
:100A4000003C0240EA4A0129136823F44073136012
:100A50004FF4004308BF0423032908BF48F20403EE
:100A6000116819431160116841EA002040F4803098
:100A700010607047DE4A136823F4407313601368F4
:100A80001360136843F0010313600170704700BFE7
:100A900010B5F8490C6824F440740C600C6844F4F8
:100AA00040740C600C6844F001040C600260436008
:100AB00010BD00BFEF4A136823F44073136013683E
:100AC00043F480731360136843F0010313600180E3
:100AD000704700BFE74A136823F44073136013683C
:100AE00043F400731360136843F001031360016063
:100AF000704700BF103C024032480168C90606D565
:100B0000DB49CA6942F01002CA6110210160016824
:100B1000890606D5D649CA6942F00802CA61202171
:100B200001600168490606D5D149CA6942F004024C
:100B3000CA61402101600168090606D5CC49CA692D
:100B400042F00202CA61802101600168C90507D52F
:100B5000C749CA6942F00102CA614FF4807101605D
:100B60000168890706D5C249CA6942F02002CA61F4
:100B700002210160704700BFF8B50446BC4800215F
:100B8000104EC16100F06CFA0546671C3068C00366
:100B900009D5002FFAD024B100F062FA401BA04220
:100BA000F4D90320F8BD3068C0071CBF01203060B5
:100BB000306810F4F97F04BF0020F8BDFFF79CFFF8
:100BC0000120F8BD0C3C0240F0B5B3F5804F0FD1C9
:100BD00050F82230094C234091E8F0008969234302
:100BE00043EA051343EA062343EA0743194301E0B6
:100BF0006FF0704140F822100020F0BD0000F0CFEF
:100C00002DE9F043D1E900C401F11009D1E902E571
:100C1000184B99E8C00350F82C201A40224342EAAE
:100C20000E022A4332433A4342EA080201F1200805
:100C300098E8F80142EA09021A43CB6B22432A439F
:100C400032431A433A4342EA0802BEF1080F08BF92
:100C500042F0400240F82C204A6BB2F5801F05D1CB
:100C6000096819B1016841F4801101600020BDE8F4
:100C7000F08300BF8000E0FF2DE9F04700EB820326
:100C8000154DD3F80480D1E9042ED1E90096D1E9BD
:100C9000027C8C69AA4605EB025208F0404545EA01
:100CA000090545EA061545EA072545EA0C452A43A4
:100CB00022430EF1FE0442EA04625A600268D20244
:100CC00007D5426809690AEB015122F47002114309
:100CD00041600020BDE8F0870000F0FF90F835107B
:100CE000022909D1052180F835100068016821F03A
:100CF000010101600020704780214165012070479B
:100D000080B509484FF0FF31002201610261416165
:100D1000426101600260416042608160826000F077
:100D2000E1FD002080BD00BF10380240BCB501903D
:100D300000F096F904460198451C28BF4FF0FF3596
:100D400000F08EF9001BA842FAD3BCBD2DE9F84390
:100D5000DFF81C81054698F81800012801D1022609
:100D60003AE00120894688F8180001F034FA064676
:100D700078BB4FF0FF303F4CC9F8000028680128CD
:100D80000CD16968287CFFF75DFE01F024FA064665
:100D9000206848F204018843206018E0A8680746EC
:100DA000E968084487420ED2297C3846FFF7FEFDE9
:100DB00001F011FA0646206820F0FA00206026B9FA
:100DC000A8680137ECE7002601E0C9F80070FFF7DA
:100DD0000FFE002088F818003046BDE8F88300BFF9
:100DE0002448016841F0004101600020704700BFC5
:100DF000103C02402DE9F041DFF87480074698F876
:100E00001800012804BF0220BDE8F08101201E4621
:100E100014460D4688F818004CF25030FFF7ACFE2F
:100E200008BB022F07D0012F0AD077B9E1B22846BC
:100E3000FFF720FE0EE028462146FFF74BFE09E0B3
:100E4000A1B22846FFF736FE04E028462246334684
:100E5000FFF71EFE4CF25030FFF78EFE05490A6880
:100E600022F001020A60002188F81810BDE8F08124
:100E7000CC750020103C02400648C168B1F1FF3F2C
:100E8000C4BF002070470449016004490160C06884
:100E9000C00F7047043C024023016745AB89EFCD8A
:100EA000402818BF704702480249012201F050B89B
:100EB00034000020546F002003490A68024208BF32
:100EC00070470860FFF7ECBF143C01402DE9F84F74
:100ED0005A4A4FF00A0A4FF0010B4FF00F094FF03A
:100EE00000084FF0000E9042554A08BF4FF0090A23
:100EF00002444FEAB223092B38BF4FEAB22A00223C
:100F0000102A08BFBDE8F88F0F680BFA02F63742C7
:100F100000F08D804F6847F01004122C12D16FF052
:100F200003030EF01C0403EA520309FA04FC034411
:100F30001F6A27EA0C0C0F6907FA04F444EA0C0450
:100F40001C624F680324056807F0030304FA08F4E1
:100F500003FA08F3A5436FEA040C2B43122F036036
:100F600012D80BFA07F313F0061F0DD08368CC6874
:100F700003EA0C0304FA08F4234383603B09446842
:100F80009340B44323434360C3688C6803EA0C0373
:100F900004FA08F42343C360FB0048D500232B4C1C
:100FA000284F22F0030500932368BC463D4443F4D8
:100FB00080432360236803F4804300930EF00C0306
:100FC000009F09FA03F40AFA03F3214FB946EF59D7
:100FD00027EA0404234345F809304FF00F09DCF8F1
:100FE00000304D6843EA0604EF0358BF23EA0604C5
:100FF000CCF80040AF03DCF8043043EA060458BFE5
:1010000023EA0604CCF80440EF02DCF808300E4F67
:1010100043EA060458BF23EA0604CCF80840AD02B0
:101020003B6843EA060458BF23EA06043C6008F123
:1010300002080EF1040E013262E700BF00240240F4
:101040000000FEBF003C01400C3C0140443802401F
:1010500008FCFFFF0069084018BF0120704700002E
:1010600001480068704700BF1C780020D0F8940247
:1010700001F08CBFD0F8940201F09BBF006802F031
:10108000A7BE006802F0A8BE01EB810100EBC10021
:1010900090F85C00704701EB810100EBC100C06C6F
:1010A000704710B501F024FA04BF022010BD01F012
:1010B0006FFA02F09EFE01F03BBAFEB501F018FA9D
:1010C00004BF0220FEBD0120DDF828C0DDE908765E
:1010D000D50984F8900201EB810004EBC00080F890
:1010E0003B5002F07F05A0F840C080F8383080F80F
:1010F0003F6080F8391080F83C7080F83A502068E2
:10110000CDE90076CDF808C002F0B6FE002184F8E3
:101110009012FEBD704700002DE9F04101EB810403
:10112000069E022500EBC4042746002E08BF0325B7
:1011300007F8425F032B07F8033C07F8072CDDE9AB
:1011400007E829D8DDF824C0DFE803F002240E1BED
:1011500012BB012E20D104F15102B8F1000F2CD0A6
:10116000127862BB00222BE062B994F8512094F807
:101170005C30002A18BF01225200022B3A700BD0BB
:1011800023E012B194F8502001E094F851200AB104
:10119000022200E000223A700022036884F839102D
:1011A000C4E911E804F13801E264A4F85C20027C8F
:1011B0001846BDE8F04102F0CFBE012313700222B1
:1011C0003A7094F85C20022AE6D084F83DC0E3E748
:1011D0002DE9FE4F06680446304602F006FE01285F
:1011E00040F0CF82206802F0CDFF002800F0C982D5
:1011F000206802F0C7FF01462068890244BF4FF40F
:101200000011416102F0BEFF01462068C90244BFDF
:101210004FF48011416102F0B5FF01462068490199
:1012200044BF4FF08061416102F0ACFF014620688D
:10123000890744BF0221416102F0A4FF800001D46C
:10124000206810E0D6F8400420F02E00C6F84004D4
:101250002046FFF70FFF2068012102F079FF206888
:101260004FF00051416102F08DFFC00154D5256857
:10127000D5F840040290D5F840040190019820F080
:101280002E000190029880070DD50298C00706D065
:10129000A86920F00050A8612046FFF7E7FE0198FA
:1012A00040F002000190029800072BD5019840F011
:1012B00008000190029840070BD4D5F8400420F0B4
:1012C0002E00C5F840042068816941F00051816119
:1012D00018E0A06902280BD12068029901F4C0210E
:1012E000B1F5802F14BF0121022102F031FF06E089
:1012F000E068032804BF4EF66020C5F804042046C9
:10130000FFF7B4FE0298800603D5019840F0200054
:1013100001900198C5F84004206802F033FF0007EF
:1013200001D4206805E0204600F087FA20680821F3
:10133000416102F027FF01462068890140F1E08108
:1013400002F006FE834606F5A0674FF00008A0688D
:10135000804580F0D1812BFA08F0C00700F0908121
:1013600020685FFA88F63A6800EB4611120401F52E
:10137000A16A01F5A069D1F8081501F0040147D46C
:10138000002959D1DAF80010890661D4DAF8001082
:10139000490600F17680DAF80010890500F13981FC
:1013A000DAF80010C90740F04F81DAF80010090799
:1013B00000F16A81DAF80010C90600F17081DAF8EC
:1013C0000010090600F17881DAF80010490500F1F3
:1013D0007B81DAF80000800740F1528100F067FF5E
:1013E00000F24581DFE811F07501430186018301B8
:1013F0003E01080043010800014651F8582F531CD4
:10140000042A0B60C0F0768100220A6004212CE1DE
:10141000C1B9DAF8001089062FD4DAF800100907EC
:101420003CD4DAF8001049054ED500F0D8FE01F0A2
:101430002AF8C9F8080047E00420C9F8080000F0BD
:10144000D0FF1DE10420C9F8080000F0CAFF3BE00E
:101450002021CAF8001006EB860104EBC10595F8BF
:101460003D10012940F00C81042185F85D1000F049
:10147000B6FE022085F85C0002E12020CAF80000D8
:1014800022E006EB8601002204EBC1018A650422FA
:1014900081F85D2000F0A3FE402058E0D9F80C1040
:1014A000052241F00201C9F80C101021C9F80810FA
:1014B00006EB860104EBC10181F85D200821C9F823
:1014C0000810314602F095FCDAF80000800536D4A9
:1014D000DAF80000C0073DD1DAF80000800766D4D2
:1014E000DAF80000000600F19B80DAF80000C00680
:1014F00040F1C68006EB860004EBC0010D4615F8EE
:101500003F0F032807D100F06CFF0091314620689F
:1015100002F06FFC00991020CAF80000032081F847
:101520005D00287840F00200022840F0A980D9F838
:101530000000022161F39F70C9F80000A0E000F0F4
:1015400050FF2068314602F054FC4FF40070C9F897
:10155000080095E0206950B106EB860004EBC0005E
:10156000816CD9F810206FF3DF42891AC164012120
:1015700006EB860004EBC005CAF800100020A86541
:1015800095F83F0085F85D1018B103282CD002288B
:1015900038D1D9F80C00314640F00200C9F80C00EF
:1015A000206802F026FC1020C9F808002AE000F0AC
:1015B0007EFE5CD8DFE801F0585B5B5B56045B04A1
:1015C000816D0222032901F1010188BF042280F804
:1015D0005C2088BF002181650222D9F8001062F3E7
:1015E0009F71C9F8001042E001203146012285F8C0
:1015F0005C00D9F8000040F00050C9F80000204617
:10160000FFF788FD95F8500080F0010085F8500044
:1016100036E0D9F80C1041F00201C9F80C1091E73E
:10162000D9F80C00062140F00200C9F80C0006EBC6
:10163000860000F097FF816D013181652068314699
:1016400002F0D7FB802082E706EB860104EBC105A0
:101650000021A96500F0C3FD0120C9F8080085F844
:101660005D000DE0052100E0012180F85C10022101
:10167000CAF80010314690F85C202046FFF74AFD7A
:10168000203708F1010862E60821C9F8081000F0C7
:10169000A6FD06EB8600052100F064FFF0E706EBEF
:1016A000860104EBC1050021A96500F098FD032027
:1016B00085F85D0010204AE700F091FD06EB8600FA
:1016C000062100F04FFFBDE700F089FD00F0DBFED2
:1016D0003DE7012180F85C1090F83F100229C6D147
:1016E00090F8511081F0010180F85110BFE70021FE
:1016F00080F83D100221B8E720684FF00071416189
:1017000002F040FDC0063CD52568A86920F0100015
:10171000A861286A00F4F011B1F5802F2CD1C0F334
:101720000A164EB300F00F0808EB880004EBC0095E
:101730004F4657F8441FF9B12846324602F026FDBD
:101740003868114A30443860D9F84C003044C9F840
:101750004C0005EB4810D0F8101511420CD000F5E4
:10176000A0600222016862F39F71016099F8500045
:1017700080F0010089F850002068816941F0100173
:101780008161BDE8FE8F00BF0000F81F2DE9F04F1A
:101790008BB005460120002D48D0032085F891022A
:1017A000284600F046F8286802F0B8FA286805F1E3
:1017B000180E2F1D05F1240B9EE81050CECF9BE88C
:1017C000000E0A90D5E90C80CDE90067CDE90880CC
:1017D00002A880E8105005A880E8000E0A9802F0E0
:1017E00055FA2868012102F0F5FC286805F1140E6D
:1017F00005F1040B05F1240A9EE8C0509BE80E0891
:101800009AE800070A90D5E90C40CDE900B6CDE989
:10181000084002A880E8805005A880E800070A98E0
:1018200002F02EFC012085F8910200200BB0BDE8EB
:10183000F08F7047006802F0B5BCD0F8940201F058
:10184000EDBB10B500F054FE04BF022010BD00F047
:101850009FFE02F099FA2068012102F075FA00F06B
:1018600067BE10B500F044FE04BF022010BD00F0BA
:101870008FFE02F0C5FC00F05BBE0000024801686C
:1018800001310160704700BF1C78002080B50B4813
:10189000016841F400710160016841F480610160F8
:1018A000016841F480710160032000F07FF80F208F
:1018B00000F006F800F018F8002080BD003C02405F
:1018C00010B5044684484FF47A710068B0FBF1F01B
:1018D00000F026FC4FF0FF302146002200F040F8D7
:1018E000002010BD7047000010B5032000F05EF826
:1018F000104C6FF00B0000F0CBFC6FF00A0000F012
:10190000C7FC6FF0090000F0C3FC6FF0040000F0AA
:10191000BFFC6FF0030000F0BBFC6FF0010000F0B3
:10192000B7FC4FF0FF30002100222346BDE81040F5
:10193000184700BF61190008734600F0B1FC9E46CD
:10194000014A00F04BBD00BF80E100E0734600F0AB
:10195000A7FC9E46014A00F041BD00BF00E100E047
:10196000F0B5184B4FF0FF361C68C4F30224E51E97
:1019700084F0070438BF002506FA05F7BA43042CA3
:1019800028BF042406FA04F4A14300F00F04A94080
:10199000043C1143044A234409010244002848BF7F
:1019A00003F10C021170F0BD00E400E005494FF6B0
:1019B000FF030A681A4060F30A22034810430860D4
:1019C000704700BF0CED00E00000FA052DE9F04182
:1019D000002856D03E4B04468846D3F8000400F059
:1019E0000F00884204D283F8008400F001FC48D143
:1019F0002068810711D5410703D5996841F4E0516A
:101A00009960010703D5996841F460419960A16824
:101A10009A6822F0F00211439960C0072AD100F0C1
:101A2000E7FB04D983F8008400F0E2FB29D12068A9
:101A3000410705D5E1689A6822F4E05211439960A4
:101A4000000706D52069996821F4604141EAC00089
:101A500098601C4600F042F8A1681E4AC1F30311C9
:101A6000515CC8401C4908600F20FFF729FF002087
:101A7000BDE8F0816068811E022905D219688901DC
:101A800007D40120BDE8F08101281DD11968890320
:101A9000F7D599681D4621F0030108439860FFF7C8
:101AA000DFFA064641F288376068A9682B4601F0E4
:101AB0000C01B1EB800FB2D0FFF7D2FA801BB84215
:101AC000F2D90320BDE8F08119688907D9D5E0E78C
:101AD00000380240F87900081000002010B5134CBF
:101AE000606800F00C00082804D0042814BF1048D7
:101AF000104810BD226820680023400202F03F0217
:101B00000C485CBF42F20040C0F2F4002168C1F30F
:101B10008811A0FB0101FEF72DFC21680222C1F310
:101B2000014102EB4101B0FBF1F010BD043802406D
:101B30000024F40040787D012DE9FC41A8B304465F
:101B40000078A64EC00709D0B06800F00C00042849
:101B50005DD13068800301D5606830B3207880079C
:101B600016D5B06810F00C0F05D000F041FC64D120
:101B70007068400261D43068800702D5E0680128AF
:101B800013D12069316821F0F80141EAC0003060CA
:101B9000207800070CD4207840071CD4A769002FB8
:101BA00000F0F98000F024FC77D10120BDE8FC8131
:101BB00061698B48002960D00121C0F8801EFFF7C1
:101BC0004FFA0546706F8007E5D4FFF749FA401BCE
:101BD0000228F7D9BEE00020824F0190306C40F01F
:101BE00080503064306C00F080500190019838686B
:101BF00040F480703860FFF733FA05463868C00556
:101C00002DD4FFF72DFA401B0228F7D9A2E000F0EF
:101C1000EFFB02D1706840029BD46068B0F5803F52
:101C200006D0B0F5A02F66D1306840F48020306037
:101C3000306840F48030306067E0E068002849D0C8
:101C4000674801210160FFF70BFA054630688007FD
:101C500097D4FFF705FA401B0228F7D97AE0A0686D
:101C6000012805D005285DD1306F40F004003067B1
:101C7000306F40F0010030675EE00021C0F8801E48
:101C8000FFF7EEF90546706F80077FF584AFFFF729
:101C9000E7F9401B0228F6D95CE05149002088464C
:101CA0000866FFF7DDF90546022F09D1306880018B
:101CB00053D5FFF7D5F9411B03200229F6D98AE055
:101CC0003068800167D5FFF7CBF9411B032003295A
:101CD000F6D380E0424800210160FFF7C1F90546D4
:101CE000306880077FF554AFFFF7BAF9411B032036
:101CF0000229F5D96FE03168002821F48031316084
:101D0000316821F48021316048D0FFF7A9F90546F8
:101D1000306880033FF522AFFFF7A2F9401B64282B
:101D2000F6D917E0316F002821F001013167316FDA
:101D300021F0040131673FD0FFF792F9054641F2E7
:101D40008837306F80073FF529AFFFF789F9401BCF
:101D5000B842F6D90320BDE8FC811C341FCC0843EF
:101D6000214940EA821001EBC33140EA04606FF37D
:101D70000F01084370600120C8F86000FFF770F998
:101D800004463068800106D4FFF76AF9011B03207E
:101D90000229F6D91FE00020BDE8FC81FFF760F9B9
:101DA0000546306880037FF5D9AEFFF759F9411B2E
:101DB00003206429F5D90EE0FFF752F9054641F2F8
:101DC0008837306F80077FF5E9AEFFF749F9411B8F
:101DD0000320B942F5D9BDE8FC8100BF00380240BC
:101DE00000004742007000400000FFFF7047000005
:101DF000BCB5044600684168826812F0400303D114
:101E0000D50701D04D0617D4950701D50D0611D47D
:101E100012F4B07F55D08D0653D5EBB194F8513004
:101E2000032B0ED100210191C168019180680190BE
:101E3000019846E0616C00E0216C2046BDE8BC40A2
:101E40000847636D43F00403636500230193C3688F
:101E5000019383680193019B93060CD5636D43F056
:101E6000010363650023019383680193036823F0F2
:101E700040030360019BD20508D5626D42F0080261
:101E800062650022019282680192019A626DC2B17C
:101E9000426822F0E00242600122890784F8512062
:101EA00010D000F067FAE06C18B109490165FEF73F
:101EB00015FFA06C28B106490165BDE8BC40FEF7DE
:101EC0000DBFBCBD2046BDE8BC40FFF78FBF00BFC3
:101ED000F3270008C8B3B0B5044690F8510028B9FC
:101EE000002084F85000204600F031F8022084F8E9
:101EF000510094E80F0011430568194325F040058F
:101F000005602269114362691143A26902F40073FA
:101F10001943E3691943236A1943A36A194301600A
:101F2000042101EA1241626A11434160B3F5005F86
:101F300004BFE16A0161C16921F40061C16100204F
:101F40000121606584F85110B0BD012070477047D1
:101F5000B0B5134682685AB94468B4F5827F07D198
:101F6000042280F851200A46BDE8B04000F054B881
:101F700090F85040012C01D1022138E090F85140F6
:101F8000012C2ED179B373B304241B4D80F851403A
:101F900000244465C3878163838784860463154B6B
:101FA000C168002908BF1D46C0E91054C486B2F5B7
:101FB000004F04D101680A6822F480420A60826AF4
:101FC0000168B2F5005F01D100F0D1FA4A6842F031
:101FD00060024A600A68520601D400F04FFA0021FC
:101FE00002E0022100E00121002280F85020084692
:101FF000B0BD00BF552800080128000880B504487E
:10200000007802F0C5FB03480021016080BD00BFDD
:10201000546F00200C30014070B590F85040012CF6
:1020200001D1022443E090F85150012D2FD1C1B3CA
:10203000BAB3B3B390F851401F4D012C04BF05242F
:1020400080F8514000244465C386838601638387FA
:102050008263C387174CC268836A0168002A08BF7D
:102060002546174C154A08BF1446B3F5005FC0E972
:10207000104501D100F07BFA4A6842F0E0024A6064
:102080000A68520601D400F0F9F900240CE0446813
:10209000B4F5827F07D1866802242EB9042DC6D0FC
:1020A00002E0012400E00224002180F850102046C4
:1020B00070BD00BFA1260008732600081126000885
:1020C000C5250008704730B370B5044690F8490044
:1020D00015460E4628B9002084F84800204600F036
:1020E0001CF8206804F10801FEF78AFD2068A26848
:1020F0003146FEF7C1FDD4E90102236B2946FEF704
:1021000063FD2068A16850F8212042F0010240F8E8
:102110002120002070BD01207047704770470000EB
:10212000411E0020B0EB116F1CBF01207047044A14
:10213000F023516003490B700721906011607047D4
:1021400010E000E023ED00E0FFF7E8BF60B110B55C
:1021500000F0C4F903D100F01CF900F007F800F01A
:102160001CFA012000F09CB9012070477047022141
:1021700080F8391001680A6842F001020A6000F034
:1021800078B90068C16841F00101C160016841F09F
:102190000101016000207047006841F21112C1681E
:1021A00021F00101C160016A114208D1734600F0BB
:1021B00025F89E4603D1724600F088F89646002026
:1021C000704700000148FFF703B800BF20730020EC
:1021D000284605F07CB84CF25030FEF7CDBCD9F85B
:1021E0000C1041F00201C9F80C10314601F001BE9B
:1021F000D3F8000400F00F0040457047016A40F238
:1022000044421142704741F0020161654FF6EF719F
:1022100081607047089EA8F8FA40017088F80C1099
:102220002846214600967047801AF065D6F88C0043
:1022300000EB0201C6F88C107047E365130A84F8BE
:10224000500084F86A1084F86730130C84F8663004
:10225000130E84F86530B0BD04F11C022046FF2344
:1022600000F052BE0021002200F086BCCDE90051F2
:10227000CDE90224194601227047CDE90010002063
:10228000002103F005BA89F800004FF4FA705047B6
:10229000002100222047207D00F07F00207570473C
:1022A00000F01F010122400902FA01F17047D9F83C
:1022B0000C0020F00200C9F80C0006EB860004EBCD
:1022C000C00090F85D10013907297047016821F0BE
:1022D00001010160704701684DF6FF721140016015
:1022E000016841F40051016070470546D0F874025E
:1022F000D0F81C8095F81E0200287047204600F098
:1023000089BE1446D0F87422D56995F85220022A65
:102310007047204600F02FBD204600F07BBECDE97F
:10232000022501240022CDE9004119467047BDEE87
:10233000C00A10EE102A03F0B5B88DF80350ADF8BE
:10234000014003F04DB90023CDE90005204603F01C
:1023500039BB0123012503F0F7BF016821F04001DB
:1023600001607047B9F80A00013800EA5128B8F155
:10237000000F7047416821F00301416070474FF43E
:102380000071FEF717B9314604F0C4BD204604F0D1
:10239000C1BD002084F8380020467047026B0168F8
:1023A000531C036312780A73C18E0139C186C18E32
:1023B00000297047026B016832F8023BCB60C38E84
:1023C000013BC3860263C28E002A70472046642107
:1023D00000F07EB94FF4007004F0D4BA42F8201037
:1023E0007047D9F80C0040F00200C9F80C007047A3
:1023F000B06800F00C000828704734200C4611FB30
:10240000008010F8901F01297047A5F86200022093
:1024100085F85200012085F85000B0BD04461846EA
:102420001F46164603F018BB0021ADF802100168E4
:10243000CA68ADF80220BDF802204A6870470168FA
:10244000097B826B531C83631170C18F0139C18773
:10245000C18F70470168826BCB6822F8023BC38F43
:10246000013BC3878263C28F7047A0EB0800A8427C
:102470007047012180F83910002070470A6842F047
:1024800040020A60704710200821C9F8080006EBD6
:10249000860004EBC00080F85D104FF48060704748
:1024A00084F83900002010BD606D40F020006065A8
:1024B0007047CDE900082046029701F088BA84F8F9
:1024C00068204B0284F85200012084F86B10090A3E
:1024D000704701EB00110A7301F0F8BF044690F851
:1024E0003900002870470120E870284604F0CCBF6E
:1024F000044690F890020128704745F6C0510068E4
:10250000B0FBF1F0642148430190FEF7A9BD3421EE
:10251000012400FB01607047D0F87442E46994F82C
:102520005250022D704794F91400B0F1FF3F7047EC
:10253000002084F8900210BD086840F480500860C4
:10254000486820F0800048607047204601F022BCB7
:10255000A0F8901090F8921080F8922070472846CA
:1025600004F012BA04EBC00080F85D1070470A68EE
:102570004DF6FF731A400A600A6842F400520A607E
:10258000704742F2107006FB00F7D5F8B86270474A
:10259000012084F89002206870470220211D84F8F1
:1025A0003900206800F038BA012188F80C10BDE825
:1025B000FC812046002103F019BC044604F0CEBF84
:1025C00002F0E2B84DF808EDFFF744FF5DF808EBC4
:1025D00002B17047826AB2F5005F02D10549016419
:1025E00070474A6822F040024A60C18E0029F0D14B
:1025F00000F080B8F925000881B07346FFF714FF9A
:102600009E4622F040024A6001B000F073B800001C
:102610004DF808EDFFF713FF5DF808EB01B17047C7
:10262000816AB1F5005F02D1064901647047016813
:102630004A6822F060024A60C18E0029EFD100F0A2
:1026400059B800BF4926000881B000218DF8031059
:1026500001680A7B8DF803209DF803204A6822F068
:1026600060024A60C18E09B101B0704701B000F04C
:1026700041B84DF808EDFFF79DFE5DF808EB00D07E
:102680007047826AB2F5005F01D1FFF755BF4A6813
:1026900022F080024A60C18F0029F1D100F02AB8EF
:1026A0004DF808EDFFF77AFE5DF808EB00D07047B3
:1026B000826A0168B2F5005F01D1FFF73DBF4A6849
:1026C00022F080024A60C18F0029F0D100F012B8D8
:1026D000BCB50B460092802100220546002400F084
:1026E000E6F820B1686D032440F0200068652046BC
:1026F000BCBD00001CB504462248FFF7FEFE0246A2
:102700002068416821F02001416001994B1E01932E
:1027100019B181688907F8D501E0FFF7C5FEFFF719
:1027200055FE08B1FFF7C0FEA06808B1206807E0B9
:10273000002000902068C168009181680091009994
:102740008168C90605D4606D70B1012084F851001C
:1027500005E0012184F85110616DFFF754FD20461A
:10276000BDE81C40FFF742BB94F85100012184F8FA
:10277000511004282046BDE81C4008BFFFF73EBCAE
:10278000FFF7A0BC1000002018B5D0E90013826844
:102790004C68B3F5827F24F060044C600BD15AB1D1
:1027A000B2F5004F02D0B2F5806F0CD10A6822F06A
:1027B00040020A6007E032B900220092CA68009223
:1027C0008A680092009A012280F851208B68426D3D
:1027D000DB0604D44AB9BDE81840FFF70FBC42F04D
:1027E000020242654FF6EF728A60BDE81840FFF7BB
:1027F000FDBA806B0021C187C186FFF7F7BA0000E0
:102800004DF808EDFFF726FE5DF808EB012A07D129
:10281000826AB2F5005F03D10A6842F480520A600E
:10282000C18F01B17047816AB1F5005F18BFFFF732
:10283000ABBF0149016470473D28000881B0734671
:10284000FFF7F2FD9E4622F060024A6001B0FFF7FA
:102850009BBF00004DF808EDFFF7F1FD5DF808EBB8
:10286000012908D1816AB1F5005F04D101680A68C5
:1028700042F480520A60C18F01B17047816AB1F59C
:10288000005F18BFFFF780BF01490164704700BFB8
:102890009528000881B000218DF803100168097B9C
:1028A0008DF803109DF8031001B0FFF76DBF2DE9FF
:1028B000F843DDF820801D4616460F4681465C1C15
:1028C000D9F8000081683940C91BB1FA81F1490982
:1028D000B1422CD0002CF3D035B1FEF7C1FBFFF78D
:1028E000C4FDEDD3D9F80000416821F0E00141605A
:1028F000D9F80410B1F5827F09D1D9F80810B1F5E3
:10290000004F02D0B1F5806F01D1FFF726FDD9F855
:102910002810B1F5005F01D1FFF7DDFC002089F838
:102920005000012089F851000320BDE8F883002001
:10293000BDE8F88380B5FEF7A1FFBDE88040FFF752
:1029400003BC000010B50E480F4CD0F8801041F4C5
:102950007001C0F880100B490A6842F001020A6059
:1029600000228A600B6823400B60084B4B600B68A9
:1029700023F480230B60CA604FF00061016010BD3A
:1029800008ED00E000380240FFFFF6FE10300024A2
:102990002DE9F0471E484168C9070CD00168C907F6
:1029A00009D06FF001014160FEF75AFB824601F049
:1029B0004DFD504501D9BDE8F08701F079FDDFF804
:1029C000549000254FF0FF38102D1AD009EB051652
:1029D000374657F8080F504511D8280159F800001C
:1029E0008047307B48B10436306839680C183C6049
:1029F000FEF736FB8442F7D301E0C7F800800135CB
:102A0000E2E701F023FDBDE8F04701F075BD00BF2E
:102A10000C040040586F002010B5254B0268984206
:102A20002FD000F140444FEAB424042C03D303F523
:102A30008063984203D14B6822F070021A43B0F1D0
:102A4000804F22D01B4B98421FD01B4B98421CD06A
:102A50001A4B984219D01A4B984216D0194B9842EB
:102A600013D0194B984210D0184B98420DD0184BE8
:102A700098420AD0174B984207D0174B984204D07F
:102A800007E04B6822F070021A43CB6822F44072D0
:102A90001A4302608B680A68C3620C4B826240F47E
:102AA00080629A4204BF096901630121416110BD3E
:102AB000000001400004004000080040000C0040FD
:102AC00000180040001C00400020004000040140AD
:102AD00000400140004801400044014010B500F5AD
:102AE0001F7300220B2A06D003EB820464782406AD
:102AF00003D50132F6E7FF2205E000EB820001F585
:102B00000041C0F87C12D0B210BDBFB50024012531
:102B1000FFF7ACFB022300F0C1FA002004B0B0BD07
:102B20007FB590F81D420026089D002C18BF354641
:102B3000FFF7F5FB022300F0B1FA002004B070BDEE
:102B400080B500F01CFA002080BD8278012A05D1F2
:102B5000002281824FF48171C2820161FFF782BB42
:102B6000BFB500240125FFF781FB002300F096FA92
:102B7000002004B0B0BD0000BCB504468078022837
:102B800009D0012840F0B58001250220A281A16072
:102B90002576A070AEE0207E01380A2800F2A980D8
:102BA0000FF20401DFE800F0060E212C36404E5AE9
:102BB00064727F00627904F11001204600F0ACF8E5
:102BC000022095E06179FFF7A7FB042869D001286E
:102BD00040F08F80E18A94F91000002900F0848091
:102BE000B0F1FF3F2CDC032082E0D4F8B802A168EA
:102BF0002379A289E0812046FFF7B2FF042077E025
:102C00002179FFF789FB05286CD0042849D00128D9
:102C100045D06EE06379A289A16801252046009520
:102C200000F06AF806202CE06179FFF775FB0138A7
:102C3000012504285ED8DFE800F05A035D4E5300FA
:102C4000052055E02379204600210022FFF788FF68
:102C500008202076D4F8B802E0814AE02179FFF715
:102C60005BFB01282CD005283CD0042841D118E07A
:102C700063790125204600210022009500F03CF8F0
:102C80000A202076D4F8B802E08133E06179FFF7BA
:102C900043FB012814D0042803D0022829D109209D
:102CA00026E00B2024E0607E01306076C0B202286E
:102CB00009D8204600F0EBF901252576A57019E02A
:102CC0000025012064E7D4F8C4222046062190475D
:102CD0000020607601E00B2020760120022558E7D5
:102CE0000C202076032505E0B0F1FF3FD7DD07205B
:102CF000207601252846BCBD7FB590F81D420026F0
:102D0000089D002C18BF3546FFF709FB002300F093
:102D1000C5F9002004B070BD1FB500230824CDE91B
:102D20000031CDE9024311460022002300F0B6F93C
:102D3000002004B010BDFDF7F9BFB0B500F2432488
:102D4000002001E01A340130022812D014F8025C8D
:102D50008D4218BFFF29F5D114F8015C954218BFC8
:102D6000FF2AEFD125789D4218BFFF2BEAD1C0B2D0
:102D7000B0BDFF20FBE70A2907D800EB8100D0F89F
:102D80007C126FF3DF31C0F87C1200207047B0B5C1
:102D900085781446049A012D0FD141F08001062553
:102DA0004482C282017424F0FF0100244574B1F50D
:102DB000407F08BF40F2094484821946BDE8B04014
:102DC000FFF7DABE2DE9F84300F11C050E4600912D
:102DD00000214FF4007281462B46FFF7D8FF0028F0
:102DE00067D1B9F81C10B9F81E300A2EA9F83212B2
:102DF00099F82010A9F8343289F83612D9F8211040
:102E0000C9F8371255D3002109229BB24FF01A0C92
:102E10004EB2012E4DDC97B29F424AD22F783D44EC
:102E20003A446F78042FF3D116FB0C982E784FF0AC
:102E3000000E88F83C626E7888F83D62AE7888F8BB
:102E40003E62EE7888F83F622E7988F840626F79AA
:102E500088F84172AF7988F84272EF7988F8437246
:102E60002F7A88F844724FFA8EF7B7421FDA94B27D
:102E70009C421CD22C78254422446C78052CF4D139
:102E800008EBC7042F780EF1010E84F846726F78B4
:102E900084F84772AF7884F84872EF7884F8497202
:102EA000AF88A4F84A72AF7984F84C72DBE701313D
:102EB000AEE7BDE8F883BCB50D46009100F11C03F8
:102EC00000214FF480720446FFF761FF00B1BCBDE2
:102ED000E169226A092DC4F82012C4F82422F6D32D
:102EE000A18CA4F82812D4F82610C4F82A1294F859
:102EF0002A1084F82E12B4F82B10A4F82F1294F88C
:102F00002D1084F83112BCBD7CB5144601F5407219
:102F10001D46009300F11C0300210646FFF737FF12
:102F200000B17CBD717F0329FBD1317F06F11E0208
:102F30000239A942C8BF294689B200239BB28B42FD
:102F400004D2D55C023304F8015BF7E7002121705D
:102F50007CBD90B1B0B5044600200D46C4E99D008B
:102F6000204684F8BC22FDF7D9FC0DB1C4F8C45248
:102F7000204600F061F80020B0BD0220704780B507
:102F8000D0F8C002FEF78DF8002080BD80B5017832
:102F900029B10178012904BF0221017007E0012154
:102FA00080F81E12D0F8C4220AB1042190470020F4
:102FB00080BD10B5044600F06AF82179FFF7A9F941
:102FC0006179FFF7A6F9002084F81E02D4F8C42224
:102FD00012B1204605219047204600F051F8032009
:102FE0002070002010BD80B5C820FDF79FFE002096
:102FF00080BDD0F8C002FEF74EB880B5D0F8C00250
:10300000FEF73FF8032828BF0120C0B280BD084664
:1030100001F084BCD0F8C002FEF736B8D0F8B81280
:103020000131C0F8B81201780A2904D1D0F874121D
:1030300009B189690847704780B501F04DFC00204F
:1030400080BD1FB5089CD0F8C0020294079C019473
:10305000069C0094FEF731F8002004B010BD80B546
:10306000D0F8C002FEF7E6FB002080BDC0F8B81221
:10307000704780B50846114601F060FC002080BD15
:1030800080B5D0F8C002FEF7DCFB002080BD80B523
:10309000D0F8C002FEF7E5FB002080BD1FB5099CFB
:1030A000D0F8C0020394089C0294079C0194069CEB
:1030B0000094FEF731F8002004B010BDD0F874225F
:1030C0000129D26902D029B9D11D00E0911D0978EA
:1030D000FFF73BBD02207047D0F874020549064A4D
:1030E000C069C0E91521012180F8521080F8501004
:1030F0000020704750403020555342437CB5044671
:10310000D0F87402C66996F8500001380A2800F217
:10311000CF80DFE800F0063E545D1570838CB0224E
:10312000B8000220737986F86110012506F1540178
:103130001F2286F8500020460095FFF7F1FCB8E00A
:1031400073793289D6F88C10012520460095FFF757
:10315000E7FC062086F85000ABE02046012101255F
:10316000FFF7ACFF042800F09880002840F0A18011
:1031700071792046FFF74BFFC0F101007179C2B2AF
:103180002046FFF776FF317920460022FFF771FFD6
:103190006FE07179FFF7B2F8052800F0808002280F
:1031A00000F08980012840F08380F06D00287CD0F9
:1031B00096F96000B0F1FF3F73DC032076E03379CD
:1031C0007289D6F88C102046FFF79FFC04206DE032
:1031D0003179FFF793F805284BD0012868D172891F
:1031E000F06D90425FD9FFF71FF85ED0337920462B
:1031F000FFF78BFC5CE07179FFF780F805284ED073
:1032000002284ED0012853D13289F06D90424AD91C
:10321000FFF70AF849D0737901258CE7337906F175
:10322000780120460D22FFF770FC08203EE031793E
:10323000FFF764F805281CD0012839D1012086F851
:10324000520086F85000D4F87402C56920462979E6
:10325000FFF7CFFE0D280AD1A86F1949884206D181
:10326000A86DE96F814202D195F8840098B10225DA
:103270001FE009201AE020460021FFF71FFF042865
:103280000BD090B114E0204600F027F8054680B935
:10329000012086F8500000250BE00B2006E00A20F4
:1032A00004E0052002E00020F065072086F85000C9
:1032B000012528467CBD012586F85050F9E700BF5E
:1032C000555342530122C2820022C0F812204FF609
:1032D000A16202820122FFF74FBC00210022C182BD
:1032E000C0F812104FF6217101820021FFF744BC93
:1032F00070B5D0F87412CC69A17B19B103290AD03A
:1033000002290ED12146FFF7DDFF002103280AD054
:1033100040B9207808E00021FFF717FC08B9E07BEE
:10332000A073012070BD0020421C022300252260F2
:103330003422EEB2864284BF002070BD16FB0246E6
:10334000013586F8C11086F89230F2E780B5D0F8E2
:103350007432DB6900780A281CBF022080BD34204B
:1033600011FB003000F1900110463422FDF7ABF85C
:10337000002080BDB0B50446D0F87402C5696979F3
:1033800041B12046FFF7DCFB69792046FFF7F3FCEB
:1033900000206871297941B12046FFF7D1FB2979D6
:1033A0002046FFF7E8FC00202871D4F87402C069B9
:1033B00028B1FCF7B8FFD4F874020021C1610020E5
:1033C000B0BD2DE9FF410446D0F874020622502317
:1033D00001792046FFF7B1FCFF281AD001462046AC
:1033E00000F02BFC4FF48070FCF76EFF0546D4F81C
:1033F000740294F81F12C5611A2011FB004292F961
:103400004802B0F1FF3F06DDB2F84A22A8712A81D6
:1034100005E002264AE0B2F84A22E8716A811A22DF
:1034200011FB024292F95012B1F1FF3F05DDB2F8F3
:103430005202A9712881084603E0E971B2F85212DC
:1034400069810026C1B22046C5F8F860AE73AE812E
:10345000FFF744FBE97968712046FFF73FFB2871CD
:103460002046FFF739FE05F190006821FDF7C4F80A
:1034700094F81D026979AA7994F81C322F894FF0CB
:103480000208FFF716F894F81D0294F81C326F89B1
:103490002979EA79FFF70DF8297920460022FFF70C
:1034A000E8FD697920460022FFF7E3FD304604B0CD
:1034B000BDE8F08170B50546D0F87402C669307B6E
:1034C000012834D0002840F0C180B6F8F8003168F7
:1034D00081422ED93421012400FB016111F8902F83
:1034E000082A4C7000F2B380DFE802F005B12E43E9
:1034F0000B5CB1B1860004220A70D5F8B812C6F888
:10350000FC10342400FB046101F19F02C1B2284683
:1035100000F011F9042874D0022877D0002840F078
:103520009580B6F8F800FEF7F2FF022196E000243D
:103530008DE00020D5F8C42201240221A6F8F8006D
:1035400028463473904782E0C1B2284600F0C0F9A3
:10355000042861D002286AD0002877D1B6F8F80094
:103560003421002200FB01600321FEF7F1FF002956
:1035700068E0342400FB046101F19402C1B22846E2
:1035800000F042F904283CD002283FD000285DD149
:10359000B6F8F8003421012400FB01610130A1F8E4
:1035A00090402BE0342400FB046101F19C02C1B285
:1035B000284600F05AF9042823D0022849D00028D0
:1035C00044D1B6F8F800342100FB016191F89C2049
:1035D00042F00402062A08D1D6F8FC20D5F8B83209
:1035E0009A1A42F20F739A429DD901300124A6F82B
:1035F000F80081F890402AE001300124A6F8F80094
:1036000025E0B6F8F80000FB04600AE0B6F8F80020
:10361000FEF77DFF052121E0B6F8F800342100FB1C
:10362000016040F201210124A0F890100FE0B6F8EB
:10363000F8003421022200FB016040F20511FEF780
:1036400087FF023918BF012180F8C11001242046EC
:1036500070BDB6F8F800FEF75AFF082180F8901008
:10366000F5E77CB50C46D0F87412CE69342114FB12
:103670000162154615F8901F05290BD0072919D0AE
:1036800006292DD10021002200230091214600F0BF
:103690009AF816E09C32214600F0E7F8042819D089
:1036A000F0B901202870342014FB0061022081F859
:1036B00091007CBD0021002200230091214600F0F2
:1036C0002AF9042806D0022808D048B90120287019
:1036D00000207CBD0820287002207CBD05202870B9
:1036E00001207CBD2DE9FC41FEF7FFFD1DD02878AF
:1036F0000A281AD1FEF781FE17D10621FEF78AFDAE
:1037000000F061F8FEF73DFF28462146FFF7A9FFCC
:1037100001280DD1D5F8B802801BB84203D895F81E
:103720001E020028F0D1022003E00220BDE8FC8147
:103730000020FEF739BFB0B5FEF7E3FD1AD0012A2D
:103740001CBF0220B0BD00204901C5F869008020DF
:1037500085F8641005F1100185F860002420C5F893
:103760008C10E8654FF41010C5F8650041F20A208E
:10377000FEF74BBEFFF7C2FC00B1B0BD20462221D0
:10378000FCF718FFD5F88C001022017801F01F011A
:1037900061700178490921704178C909A170816877
:1037A000C068C4F80700C4F8031004F10C00D5F891
:1037B0008C101031FCF787FED5F88C00006AC4F835
:1037C0001D000020B0BDB0B5FEF7A6FE18D0012D3B
:1037D0001CBF0220B0BD0499C4F88C30002042F612
:1037E0000A05E0666066A066C4F86F000220A4F8CF
:1037F00062508025FEF763FE84F86050FEF71DBD21
:10380000BDE8B040FFF77ABCB0B5FEF77AFD1DD039
:10381000012A1CBF0120B0BD00208021E866686637
:10382000A866C5F86F0042F20A5085F860100821BA
:10383000A5F862000220E96505F1100185F8520043
:103840000120C5F88C1085F85000B0BDFFF756FC7C
:1038500000B1B0BDD5F88C00016809BA2160C088FC
:1038600000BA000CA0800020B0BDB0B5FEF749FD45
:103870001ED0012A1CBF0220B0BD002080224901B9
:10388000C5F86900C5F86D00A5F871004FF4602017
:1038900085F860200E2285F8641005F11001C5F846
:1038A000650040F20A30EA65C5F88C10FEF7ADBD40
:1038B000FFF724FC00B1B0BDD5F88C00817801F091
:1038C0000F012170017B6170407BA0700020B0BDB2
:1038D000D0F87422D26992F85230022B19D0012B01
:1038E0001CBF0220704700200A21C2F8630082F842
:1038F0006000D065C2F86700C2F86B00C2F86F00C4
:10390000022082F8621082F85200012082F85000F2
:103910007047FFF7F3BBB0B5FEF7FEFD17D0012DE2
:103920001CBF0220B0BD0499C4F88C30002042F6C0
:103930000A25E0666066A066C4F86F0084F860003F
:103940000220A4F86250FEF7BAFDFEF776BCBDE88F
:10395000B040FFF7D3BB00207047D0F87422D26983
:1039600000780A281CBF00207047342011FB00207B
:1039700090F89100B0FA80F0400970472DE9FC41C1
:10398000FEF7B3FC1DD028780A281AD1FEF735FDC2
:1039900017D10721FEF73EFCFFF7BDFFFEF7F1FD53
:1039A00028462146FFF75DFE01280DD1D5F8B80263
:1039B000801BB84203D895F81E020028F0D10220DF
:1039C00003E00220BDE8FC810020FEF7EDBD1FB53D
:1039D000089C0294079C0194069C0094FFF731FB1D
:1039E000002004B010BD0000BFB5044602208DF8D1
:1039F0000F0020780A2800F2FF80DFE810F00B00AB
:103A0000FD0019004900FD005800780086008F0075
:103A10009800AE0094F81E02002800F0ED8001200E
:103A20002070C820FFF787F92046FFF718FBE3E076
:103A30006420FFF780F92046FFF7DFFA84F81D02C3
:103A400005200021002520702046FFF747F860710F
:103A500020468021FFF742F80146207194F81D02AC
:103A6000A27994F81C32CDE900050292204680220A
:103A7000FFF7ADFF94F81D02A27994F81C3261792A
:103A8000CDE90005029220460022FFF7A0FFB3E037
:103A90002046FCF743FFD4F87402002800F0AC8005
:103AA000C168204688470020C4F87402A4E060780A
:103AB000072800F2A180DFE800F004606780878FAC
:103AC00097A220460821FFF7F6F9002840F09480DD
:103AD000012094F81C32217994F81D220025607091
:103AE00094F82702A071CDE900250290BEE7D4F832
:103AF000740278B30169204688478DF80F009DF85D
:103B00000F00002878D10A2025E0D4F8C422002A2A
:103B100072D020460121904708201CE094F837120B
:103B2000204600F09EF8002866D1092013E0D4F862
:103B30007802002860D0D4F8700294F8411202791B
:103B40008A4218BF0020C4F8740218B18168204668
:103B5000884750B10C2020704EE0D4F87402002841
:103B60004AD041692046884746E00620032120705C
:103B70002046D4F8C42290473EE020461221FFF7A9
:103B80009AF9C8BB022036E020460121012500F049
:103B90005DF888BB0220FFF7CEF80320A27984F8F5
:103BA0001C52217900250123607094F81D020292B5
:103BB0008022CDE9000520465AE720460921FFF77B
:103BC00001F9C8B9042016E0B4F834122046FFF712
:103BD000F9F888B905200EE094F82E1211B1FEF71D
:103BE0003BFB48B9062006E094F82F1211B1FEF70E
:103BF00033FB08B907206070002004B0B0BD94F812
:103C0000301219B1FEF728FB0028F5D1002084F806
:103C10001F0294F8310201283FF47EAF07209AE793
:103C200011B1D0F878220AB102207047C0F87012A2
:103C30000121C0F878120020704790F836228A429D
:103C400092BF022080F81F12002070478278012A5C
:103C500005D1002241824FF4A06142610182FEF74A
:103C600001BB8278012A05D1002241824FF4106104
:103C700042610182FEF7F6BA10B50446FFF700FA7A
:103C800020460121FFF7AFF9002010BDB0B5044672
:103C90000698049D012816D1A16B164A0D9821F4AF
:103CA0008031A163E1681140E1600128E16821F4FD
:103CB0004011E16003D1E06840F48010E0602046EC
:103CC00000F01AF809E0E06840F04000E0602046AB
:103CD00000F012F84FF48030A063012D07D1A068E6
:103CE00040F00600A060A06840F02000A060002026
:103CF000B0BD00BFBFFFBDFF34490A46013A0CD03A
:103D00000369B3F1FF3FF9DC026942F0010202618D
:103D1000013902D00269D207FAD17047816821F0D7
:103D2000010181600020704700EB4110054902222B
:103D3000C0F81015D0F8001562F39F71C0F8001597
:103D4000002070470000088081B0D0F8402401298D
:103D50000092009A22F02E020092009A08BF12F4FC
:103D6000805204D1009A42F48052C0F84024009A54
:103D700039B912F4805104D0009921F48051C0F86F
:103D80004014002001B07047816841F0010181605A
:103D900000207047102101610C49013904BF032044
:103DA00070470269D2065CBF00207047F5E700BF8C
:103DB0008901203101610549013904BF03207047A1
:103DC000026992065CBF00207047F5E7410D0300D1
:103DD000D0F8080480B2704781B0D0F84004009059
:103DE0000098C0F3414001B07047406900F0010005
:103DF0007047490100F5A062535813F4402F05D0D5
:103E00008B5803F44023B3F5002F17D18B5843F0A0
:103E100080438B50C36A885813F47F0F17D120F06A
:103E200000408850885840F00040885040F2E93007
:103E300001380FD08B58002BFAD40BE08B5843F08D
:103E400080438B50D0F8103488581B0404D040F0C5
:103E5000004088500020704720F00040885088586B
:103E600040F00040885040F2E9300138F2D08B58E1
:103E7000002BFAD4EEE700002DE9F041DDE906C899
:103E800000EB4114089E4FF0FF3504F5A067C4F81D
:103E90000855B8F1030F2CD8DFE808F00210021C17
:103EA00055B240F29D4E3C4644F80CEF002D1AD41A
:103EB000B0F1A04F1DD04FF0600E16E040F2252566
:103EC0003C4644F80C5F55B2B5F1FF3F11DC4FF4AE
:103ED000C07E0AE040F29D653C4644F80C5F55B256
:103EE000B5F1FF3F05DC4FF4807E256845EA0E05FD
:103EF000256001246FF3DF2604FA01F1D0F818449D
:103F00002143C0F81814BCF1020F816941F000711F
:103F100081614FF4F04002F0800100EAC22040EAE3
:103F2000012003F07F0140EA815008F0030108BF3F
:103F300000F5003040EA81403043B8F1030F3860AB
:103F400003D1386840F0005038600020BDE8F081AF
:103F5000D0F8140480B27047F8B59446B0F1A04F81
:103F600002D00A79002A5BD00C696CB10A89A518C5
:103F7000013DB5FBF2F5AEB2B6F5807F82BF14020B
:103F80000C614FF4807501E00125002491F803E0F5
:103F9000BEF1000F03D00A89ACB254430C61374E16
:103FA0008F7A4A78BCF1000F06EAC545264600EB39
:103FB00042136FF3DF46354407F0030645EA4675C2
:103FC000C3F8105503F5A06503D0CB686B610023DF
:103FD00002E0BEFA8EF35B09D0F808642F6827F080
:103FE00000572F604FF0005727EA46762F683E4370
:103FF00002272E602E6867F39F762E6083B37CB312
:10400000CB79032B26D8DFE803F002180218C36A25
:10401000E51CC5F38F059BB29D421BD9202316E0FA
:10402000BCF1010F1ED0BCF1000F9DD14A79012ACD
:104030009AD14978FFF778FE12E0D0F81034E51CE9
:10404000C5F38F059BB29D4204D94FF0806385690B
:104050002B438361C96800230093A3B200F00AF9DF
:104060000020F8BD00224A714A7800EB4212D2F8D3
:104070000C4524F06004C2F80C4575E70000F81FF9
:10408000F8B5002704461546C0F8007E032B806B68
:1040900020F48020A063A06B20F40020A063A06B1C
:1040A00040F40010A063D4F8000420F0040001469E
:1040B00008BF0431B4F1A04F08BF0146C4F8001492
:1040C00020461021FFF774FEFEF73FFA069E04F526
:1040D000A0604FF0FF3125B18160C7602030013D05
:1040E000F9E720460121FFF72FFEC820FCF71EFE4E
:1040F0000020A0614FF0FF30B4F1A04F606108D004
:104100004FF4007060620C48A0620C48C4F80001D3
:1041100007E00B48802101600A4941600A49C0F864
:10412000DC101EB9A06940F01000A061A069074929
:104130000843A0610020F8BD000200010003E00078
:104140002400005080006000E0004000080020A330
:10415000D0F8002422F00302C0F8002401F003028A
:10416000D0F800341A430129C0F8002404D00229F1
:1041700006D141F2707101E04BF68031C0F80414B1
:1041800000207047416980690840704710B50332CC
:104190004FF4805392081AB1C458013A10C1FAE79B
:1041A000084610BD1CB50446D0F8400401900198A3
:1041B00020F02E000190019840F48070C4F8400473
:1041C0000A20FCF7B3FD019820F48070C4F8400485
:1041D00000201CBD80B5C268012922F0C042C26027
:1041E00003D039B94FF0804101E04FF00051C2686F
:1041F0001143C1603220FCF799FD002080BD000012
:1042000070B504468068102120F00100A0602046AF
:10421000FFF7CEFDFEF799F9154904F5A0600022DD
:10422000B2F5007F06D083580B4003F180438350E2
:104230002032F5E700220023102A0ED055014659FE
:104240000E4006F1404646510133B3F57A7F02D85D
:104250002E58002EF8D40132EEE74FF0FF30C4F8AC
:1042600014046061A06840F00100A060002070BDEF
:10427000FF7FFF3F10B5029C0CB1002010BD03333F
:10428000120300F580509B08002BF6D010C9013BAB
:104290001450F9E76C48024900780870704700BF75
:1042A000B875002010B58EB003290ED80346144609
:1042B000DFE801F0180D0202534801AA1946FFF782
:1042C00045F850B9BDF80C000AE004210AE04E4858
:1042D00001AA1946FFF73AF808B1012102E0029855
:1042E0002060002108460EB010BD00BFB0B58EB0F2
:1042F00004460D464448009321462B46FFF73EFBFB
:1043000080B1414801AA2146FFF720F89DF811002D
:10431000042805D0272807D03A2801D0282805D11D
:10432000032004E0002002E0022000E001200EB0A3
:10433000B0BD00BF80B501463348FFF70EFBB0FAB1
:1043400080F0400980BD00BF002070472DE9F0419A
:104350002DED048BADF5806D00F0F0FB194800F0F9
:10436000A9FA0446184DDFF8608C6E46B7EE009A45
:1043700000EE104AB8EEC08ADCB14FF480603146DE
:1043800000F080FA0746284631463A4600F0EEFB38
:10439000E41BD8F800003D4400EE104AB8EEC00A15
:1043A00000F2844080EE080A39EE400A80ED000AEF
:1043B000E2E700F079FA0DF5806DBDEC048BBDE805
:1043C000F08100BF10D2000800000208B0B58EB026
:1043D00004460D460C48009321462B46FFF782F910
:1043E00078B1094801AA2146FEF7B0FF9DF81110E7
:1043F0000320042918BF282904D03A2918BF012016
:1044000000E000200EB0B0BD587000207FB50E4E09
:1044100005460C4619221423294630788DF80C00E5
:1044200003A800904FF4917001F09AF83078294673
:104430001B2213238DF8080002A8CDE900404FF499
:10444000917001F025F97FBD8C000020294A4FF0C2
:10445000FF300021B1F5807F08BF704753189B687B
:10446000834238BF18461031F4E700BF04290CD04E
:10447000022909D10C480121006880F83812D0F8CF
:1044800070140131C0F870147047074801210022F0
:10449000006880F88814D0F86C140131C0F86C14EE
:1044A0000249002001F09CBFC8750020BDD2000861
:1044B0001B4801F0B7BA00BF10B50446207820B100
:1044C000FBF7D0FF04F8010BF8E710BDB0B50949C0
:1044D00001EB0015FFF7BAFF0446FCF7C1FD696860
:1044E0000844A042A86028BFB0BDBDE8B04000F0BD
:1044F00003B800BF586F002010B50446FFF7D8FF7F
:10450000601C08BF10BDFCF7ABFD201A4FF0FF3157
:1045100001EB40010248BDE8104001F085BA00BF40
:10452000A86E002080B500F0BBF800F04DF9BDE8A2
:10453000804000F08DBB000081B000214E4800910A
:10454000026842F001020260026802F00102009279
:10455000009A0091026842F002020260026802F0D2
:1045600002020092009A0091026842F00402026086
:10457000026802F004020092009A0091026842F080
:1045800008020260026802F008020092009A00919C
:10459000026842F010020260026802F0100200920B
:1045A000009A0091026842F020020260026802F064
:1045B00020020092009A0091026842F040020260DC
:1045C000026802F040020092009A0091426942F4AF
:1045D00080524261426902F480520092009A009136
:1045E000826842F001028260826802F00102009259
:1045F000009A426842F0800242600091426942F4AF
:1046000080424261426902F480420092009A009125
:10461000026842F400120260026802F40012009282
:10462000009A0091026942F020020261026902F0E0
:1046300020020092009A0091026942F00052026149
:10464000026902F000520092009A0091026942F061
:1046500080520261026902F080520092009A009139
:10466000416941F480414161406900F4804000901B
:10467000009801B0704700BF3038024080B500F0AC
:1046800063FBFFF759FFFFF74DFF362002210022A1
:10469000FDF766F93620BDE88040FDF757B9000008
:1046A00070B5B4B02E482FAD90E81E0000691EC54D
:1046B0002C4C33902FA9684D2046A8472A480DF16D
:1046C000A80C90E84E0000692E90ACE84E002AA994
:1046D0002046A84725480DF1940C90E84E0000694B
:1046E0002990ACE84E0004F5806025A9A847204831
:1046F0000DF1800C90E84E0000692490ACE84E006B
:1047000004F5006020A9A8471A480DF16C0C90E848
:104710004E0000691F90ACE84E0004F540601BA9F4
:10472000A84707AC482104F10800FBF765FF4FF4E8
:1047300080506D4611491C22109010200C900820CA
:104740000B900D4808904FF0204007902846FBF74B
:10475000BAFE204629462A46FDF7B5FC34B070BDA6
:104760003C790008000C0240507900086479000888
:10477000787900088C790008040100A0A07900086D
:1047800010480078704700BF3448FDF731BB00BFC8
:10479000B0B1B0B50446813811280CD8FCF760FCE4
:1047A000084DA968401A652805D3FCF759FCA86094
:1047B00004F07F0000E0002002490870BDE8B0402E
:1047C00001207047746E00202DE9F0418AB0214825
:1047D00005AD214F90E81E0000691EC5844C09906C
:1047E00005AE31462046B847202004F580653146A5
:1047F00005902846B8471948FDF76CFB2320042193
:1048000000224FF00008FDF7ABF82320FDF79EF8DB
:10481000134890E84E0000698DE84E006E46049003
:1048200028463146B8471720032100220325FDF70B
:1048300097F81720FDF78AF801203146CDE9035893
:1048400001904FF48050009004F5C050B8470AB072
:10485000BDE8F081BC790008CD0E000834000020CE
:10486000D079000880B52320FDF766F81720BDE851
:104870008040FDF761B880B5FFF7F4FFBDE88040E8
:10488000FCF73EBAE0B50246002001906948006896
:1048900001AB00F50F7001F040FF0199002818BF2F
:1048A0004FF0FF3108468CBD6248006800F50F707C
:1048B00001F072BD10B55F4C01460122206800F581
:1048C0000F7001F0B5FD10B14FF0FF3010BD206842
:1048D000D0F8480210BD00BFB0B51F4D04464FF0E0
:1048E000A04103200B2229600021C5E902200220FB
:1048F000C5F89442C4F8C052C5E9060128462961AA
:104900006963E9622962FCF741FF2846FCF7B6FBC0
:1049100001462046BDE8B040FEF7A8BB0E4900EBBB
:10492000800001EBC00090F83B1000F1500200291C
:1049300008BF00F151021078704700BF064A00EB33
:10494000800002EBC00090F83B2012B180F85010BC
:10495000704780F8511070472073002010B586B062
:1049600021480024D0E90012806803901F48CDE957
:1049700001120094016841F480410160006800F474
:1049800080400090032004900A2005904FF4D050FE
:104990000190009801A91648FCF798FA43200621D7
:1049A0000022FCF7DDFF4320FCF7D0FF2148006820
:1049B000C0F86C44C0F8704480F8384200F50D71BE
:1049C0000C48FBF7D1FF60B9194C0B490022204677
:1049D000FEF7BFFA09492046FFF722F92046FFF704
:1049E0004BF906B010BD00BFE4790008443802401E
:1049F00000000240987B00086D440008140000206D
:104A000010B50B48FEF7F0FF0A4C206890F83812FA
:104A1000012909D100F50D71002201F0E1FC28B156
:104A20002068022180F88814002010BD012010BDEC
:104A300058700020C87500202DE9F047ADF5AA6D2B
:104A400001460DF25230FBF71AFDFFF735FD5C20F1
:104A5000ADF8040001AE06F546743146204601F07B
:104A600009FE002863D106F5007506F21629002715
:104A700000262046294601F0F8FE002854D19DF872
:104A80001A0218B986F00101C9074DD09DF80C1221
:104A900001F0100157EA01020CD0B0FA80F2B1FA2D
:104AA00081F1520916432E3818BF012049090840E8
:104AB0000744DEE70DF2514749463846FBF7DFFC75
:104AC000FFF7FAFC0DF252303946FBF7BDFD98B303
:104AD00000270DF2514A0DF252382046294601F0C6
:104AE000C4FEF0B99DF81A02B0FA80F14E09A8B1DF
:104AF0009DF80C12C906F0D42E28EED05046494637
:104B0000FBF7BDFCFFF7D8FC40465146FBF79CFD88
:104B10000146012037460029DFD109E0F807374672
:104B2000DBD000208DF85104204601F049FC002024
:104B30000DF5AA6DBDE8F0870120F9E7FEB5204824
:104B4000F3210160FCF798F90220694605900320E3
:104B50000490052003900020CDE9000001A8FCF797
:104B6000F5F8FCF73DF906B080BD00BFF8B5054685
:104B700013480C46F32116460160FCF77DF9B00797
:104B80000AD00027B74217DAE25DE91900200023B6
:104B9000FCF730F90137F5E70420002796FBF0F623
:104BA000B74209DA54F82720022029460023FCF7EF
:104BB00021F901370435F3E7BDE8F840FCF710B9F7
:104BC0000C3C024070470000F6490A680021037857
:104BD0003BB103EBC303013013441B79194401318A
:104BE000F5E70846704700BF09207047ED4900EB24
:104BF000C00009680844007901307047E94800683E
:104C00000068704704480221817004490A784A709C
:104C100001784170704700BF0C000020306F002009
:104C2000FCF784B803490A680B689B1A8342FBD3DC
:104C3000704700BF2400004010B5214C0301E15033
:104C400004EB00114A60BDE8104000F02BB800BF33
:104C5000BCB51B4900204FF0FF32B0F5807F03D078
:104C60000B1810309A60F8E70C4C002501200C4915
:104C70004DF2EF22FDF767FB20460121012200F0F3
:104C80008DFE4FF0FF303C344FF080410022FDF7A5
:104C90005AFB2046BDE8BC4000F0C2BEA86E002012
:104CA0000004004006490122FDF713BC044901EB52
:104CB0000010002101734FF0FF318160704700BF89
:104CC000586F0020B0B592B000241D48022506940C
:104CD000016841F080510160006800F0805006904A
:104CE000069801941748016841F44041016000684A
:104CF00000F4404001900720109511904FF4A870E7
:104D00000F9019200E904FF48000CDE90C504FF415
:104D10008030079001200690019806A8FCF70CFF50
:104D20004FF48050CDE90254052105904FF4A05076
:104D300004900F20019001A8FCF748FE12B0B0BD0E
:104D4000403802400070004080B5FFF7BBFFBDE86F
:104D50008040FCF79BBD00002DE9F04FADF5963D7E
:104D600091B08A488A490024006880F87444C0F8E9
:104D70007844C0F87C14C0F88044FFF743FF9FEDEF
:104D8000851A8548B2EE0C0AB6EE002AB3EE0F3A49
:104D90000E2C23D004EE104AB0EE425AB8EEC44AAC
:104DA00084EE004A04EE015ABDEEC55A15EE101A03
:104DB000B0EE425A04EE035A01F03F01BDEEC54A7F
:104DC00014EE102A02F01F0242EA411141EAC22108
:104DD00000EB44020134A2F8D610D9E700F086FBBC
:104DE0006E4811AD90E81E00006915906C481EC514
:104DF00011A9FCF76BF800F0A3FB012000F076FC92
:104E000011A8002100230246B3F5A07F08D000249A
:104E1000F02C02D011550134FAE7F0320133F3E7F8
:104E200060494FF0010A0A681146049292F9001095
:104E30000B91C1F14F01084403915C4902905A481B
:104E40000A684678C3681F2008924A6889680A90F1
:104E5000109200220F91052A79D00A980299DDF864
:104E60000C8000240692C0EB001001EB001550A04E
:104E70000499875C07EBC7000844411D099090F92D
:104E8000040007910590C0F1080B08980B998C421B
:104E900053DAB84205D0079B43480897C36043489C
:104EA0000760185D002842D009980D930A994FF0C9
:104EB00007090C95204405300E90DDE90F30D945E7
:104EC00033DBA34208BFB84208D00E98CDE90F47A4
:104ED00006783648C0E9017433484670F0B220FACB
:104EE00009F0C00719D00020AC46092815D000EB06
:104EF000010E0023092B0CD04FEA9E12042A06D87B
:104F000018EB030203D4EF2AD8BF0CF803A0013337
:104F1000F0E70CF1F00C0130E7E705F50765A9F1C2
:104F20000109093138462346C9E7DDE90C5308F188
:104F30000908093501343846A8E705980A99069A00
:104F400000EBC0000132084409300A9083E716489C
:104F5000194C0022816811ABB2F5A07F11D000205E
:104F6000F0280BD01D5C3DB104EB810524F8212015
:104F70000131A8700C4DA9600130F1E7F033013226
:104F8000EAE70DF5963D11B0BDE8F08FC875002039
:104F90000000204100007C42EC75002028790008C8
:104FA0000018024090000020206F00200000002028
:104FB000CCCDC8CFC8000000A4000020EC48006899
:104FC00090F87404704700BFC87500202DE9F843BD
:104FD0002DED088BADF5826DDFF894930121D9F8A2
:104FE000000080F87414FCF73BF80446D9F8000080
:104FF000D0F88054FCF734F8D9F80010C1F88004D8
:10500000DC4800788DF83C000FA800F025FADFF8A6
:10501000688398F800008DF838000EA800F020FC96
:10502000D9F8000090F88814062900F29281DFE890
:1050300011F007004100BB00D6009001F800070006
:10504000DFF8F00300788DF834000DA800F004FAC2
:10505000DFF8E403002140F23F12EF2300788DF8DF
:1050600030000CA80090002000F07AFADFF8CC4362
:10507000207820B901202070FBF7F2FF6060FBF779
:10508000EFFF6168B2EE0C1A401A00EE100AB8EE9B
:10509000408A9FEDEB0A88EE000A20EE010ABDEE81
:1050A000C00A10EE100A002800F1F1800E2828BF77
:1050B0000D20EDE0611B00F58F6000EE101A90ED01
:1050C000002AB8EE401A90ED010A81EE001AB5EE02
:1050D000400AF1EE10FA32EE012A80ED002A06DDD8
:1050E0009FEDCF3AB4EE432AF1EE10FA09DCB5EEAB
:1050F000400AF1EE10FA0CDAB5EE402AF1EE10FAA1
:1051000007DA32EE411AB1EE400A80ED001A80ED66
:10511000010A98F80000C44D32214FF496720A2318
:105120008DF8400010A80190BE4800900A20A847C2
:10513000924C41214FF496720A2320788DF80C048A
:105140000DF20C400190B94800900A20A847207841
:1051500050214FF496720A238DF808040DF58160F2
:105160000190B34800900A20A8472078C8214FF446
:10517000967214238DF804040DF2044000900A2066
:1051800000F0EEF92078C82114238DF80004D9F836
:10519000000000F58F6090ED000A0DF58060009032
:1051A0000A20FDF7C4F8D4E0944895A14FF4A0720A
:1051B000C82300788DF828000AA8FDF75EF898F853
:1051C000000014214FF4A072C8238DF8240009A810
:1051D000019092480090002000F05AFAB9E0674C24
:1051E00077A14FF4A072C82320788DF8200008A87A
:1051F000FDF743F820787BA14FF4A072C8238DF807
:105200001C0007A8CDE900100020142100F040FA8E
:1052100078A13720FFF7FAF877A1C320FFF7F6F857
:1052200097E0564C56A14FF4A072BE2320788DF81B
:10523000180006A8FDF721F8207857A14FF4A072B6
:10524000DC238DF8140005A8FDF717F820789FEDF2
:105250005B1A82211E238DF81000D9F8000000F29D
:10526000844090ED000A04A80090142020EE010A6A
:10527000FDF75DF8207882214FF48C721E238DF8A3
:105280000C0003A80090142000F06AF961E00020EF
:1052900002308DF80C040DF20C4000F0E1FA9FEDA5
:1052A000690AB0EE089A9FED69BAB1EE04AA88EED9
:1052B000000A00EE099A9FED640AB5EE409AF1EEFD
:1052C00010FAB8BFB0EE409A10AF00253E46F02D60
:1052D0000FD000EE105AB8EEC00A80EE0A0A08EEAF
:1052E0000B0A02F067F929EE000A0135A6EC010A63
:1052F000EDE7A268574D0026964219DA05EB8601C4
:1053000035F82600897807EB810393ED000ABDEE9E
:10531000C00A10EE103A1844431E5B089E2B05D8B5
:1053200021B1EE2902D800F0DFFAA2680136E3E7E6
:1053300098F80000B4214FF4A07214238DF82C00CB
:105340000BA8019042480090002000F0A1F900F065
:1053500031FA00F02FFAD9F80000002180F8741417
:105360000DF5826DBDEC088B01B0BDE8F08300BF88
:10537000C8750020306F00200C0000208C00002039
:10538000CFEEE4EEE6E4E8F2E520E7E0E2E5F0F86F
:10539000E5EDE8FF00000000F3F1F2E0EDEEE2EAF7
:1053A000E820EFF0EEE3F0E0ECECEDEEE3EE20EEE3
:1053B000E1E5F1EFE5F7E5EDE8FF000000008C43E3
:1053C000CEE1EDE0F0F3E6E5EDEE20EFF0EEE3F018
:1053D000E0ECECEDEEE520EEE1E5F1EFE5F7E5EDF3
:1053E000E8E50000D3F1F2E0EDEEE2E8F2FC20E5C2
:1053F000E3EE3F00C4C00000CDC5D2008E00002007
:10540000CDC520D3C4C0CBCED1DC20CFD0CED7C821
:10541000D2C0D2DC20C4C8D1CA0000003BD20008F0
:105420000000964327D20008915600089AD200083F
:105430001AD20008316F00200D000020206F0020DC
:105440000000FA4400007AC400000000CDCC4C3DBE
:1054500061D20008A4000020BCB50446E1480178F0
:105460004A1E012A0ED80322012902700AD100F037
:1054700067F80B4D0020A8470120A8470220A84745
:105480000320A8472078002140F23F12EF238DF837
:10549000040001A80090002000F004F8BCBD00BF8B
:1054A000E95700082DE9FF41DDF828800D468E49B7
:1054B00004461F461646404600F0CEFA30B198F832
:1054C00000008DF80C0003A800F0CAF900F0B8F84D
:1054D00000200821019009208DF80670ADF80460C5
:1054E00000906846FCF729FFBDE8FF8180B50549BB
:1054F00005204FF4C872FFF79FFB6448002101703C
:1055000080BD00BF75590008E0B51020042101904E
:1055100001A800F065F88CBDE0B503210078019189
:1055200006498DF8050001EB40000421B0F8D200D7
:10553000ADF8060001A800F053F88CBDEC75002012
:105540007CB5E44E002501AC3078854228BF7CBD97
:1055500020468DF80450FFF7DFFF0135F4E700BF68
:105560002DE9F04186B006460C981F4615460C46BC
:1055700000788DF8140005A800F072F9DFF8F083C8
:10558000354431462A4698F800008DF8100004ABE7
:10559000204600F0B5F998F80000274421463A4625
:1055A0008DF80C0003AB304600F0C8F998F8000005
:1055B00031462A468DF8080002AB384600F0A0F9C3
:1055C000B5F5A07F09DA98F8000021463A468DF833
:1055D000040001AB284600F0B1F906B0BDE8F08147
:1055E0002DE9F04705461248124EDFF84CA08846D8
:1055F000002781464745A8BFBDE8F08730464FF4F5
:105600000061FBF727FD0028F8D04FF4FA70D0476F
:1056100028784C46FCF737FE6878FCF734FEA8780B
:10562000FCF731FEE878FCF72EFE04370435E1E79D
:105630000000086000180240254C00087047000078
:10564000E0B5A348A44900F0F9F958B1CC48A44A00
:10565000A2490078002808BF0A4610788DF8040097
:1056600001A80FE09A489F4900F0E8F960B1C448EA
:105670009A4A9B490078002808BF0A4610788DF89E
:105680000000684600F0ECF88CBD00BFB975002042
:105690002DE9FE4307460B98994616468846007842
:1056A0008DF8080002A800F0DBF80A9C2046FFF7FE
:1056B0008BFA05462078FFF797FAAD490223A9EB4C
:1056C000000090FBF3F009788DF80410711B91FB3A
:1056D000F3F101ABCA1900EB08011046224600F0B5
:1056E00025F8BDE8FE8300BF8C0000201CB50D49E5
:1056F0000978814215D059490B4A8DF8050051F8B7
:10570000201005208DF8040011600021ADF806106E
:1057100001AC04212046FFF763FF20460221FFF77A
:105720008DFF1CBD8F000020900000202DE9F0416E
:105730009AB004461878154688468DF8640019A872
:1057400000F08EF8287888B3FFF77AFFFFF756FA53
:10575000074668465F21461D3046FAF72BFFA8EB47
:1057600007000027ADF8014009308DF8030006203E
:105770008DF80000287848B15C2F07D806F8010B97
:10578000FFF734FA044401370135F3E700206D4692
:105790003070381D8DF8047000F0FC00011D2846A3
:1057A000FFF71EFF791D2846FFF748FF20461AB075
:1057B000BDE8F0811CB50B4C607878B10F20042156
:1057C000019001A8FFF70CFF2078032803D1FFF711
:1057D000F9F900202070FFF797FE1CBD01206070D2
:1057E0001CBD00BF706E002070B5ADF5416D044664
:1057F00003288FBF002660B213A151F8206001A8D2
:1058000040F60A41851C2846FAF7D4FE16208DF88A
:1058100005408DF80400104838B1321829180130BD
:1058200092F8082C81F8082CF6E701A80221FFF76E
:1058300005FF0A4840F6041150F82400FFF7FEFE69
:105840000DF5416D70BD00BFECA10008F4AD00087E
:1058500004C60008FCB90008F8F3FFFF940000201C
:10586000BCB51B4D0446294600F0F6F870B340491C
:10587000204600F0F1F848B320783D4928702846CA
:1058800000F0E3F82178A8B1134829702178007856
:10589000814202D11148124905E012480078814244
:1058A00008D10F480D49364A1278002A08BF014630
:1058B0000978217000208DF805100421ADF806004C
:1058C00004208DF8040001A8FFF78AFEBCBD00BFCC
:1058D000B87500208C0000208E0000200D000020F4
:1058E000316F00208D000020E0B5072201928DF875
:1058F0000710ADF8050001A80421FFF771FE8CBD6B
:10590000FEB50D461A49FCF789FD28B138788DF8A7
:10591000080002A8FFF7A4FFFFF792FE002008216D
:1059200001901320ADF8046000906846ADF8025075
:105930008DF80140FFF754FEFEBD00BFFEB50D46D9
:105940000B49FCF76BFD28B138788DF8080002A8E8
:10595000FFF786FFFFF774FE002008210190142056
:105960008DF8046000906846FCF7E7FCFEBD00BFC0
:105970008C0000200248017881F00101017070471D
:10598000B975002080B5034803494FF40C72FAF74B
:10599000DFFD80BDEC750020AC7B000870B50D46C6
:1059A00000681D494FF0FF361446884208BF1D2687
:1059B0003046FBF7CBFF304629462246BDE8704013
:1059C000FBF7CEBFFCB5144EDDE90754B1420FD052
:1059D000B1F1804F18D100260196104E376847F07C
:1059E00001073760366806F001060196019E0BE05C
:1059F00000260096094E376847F002073760366880
:105A000006F002060096009E80E82E000461BDE8C4
:105A1000FC40FCF79BBB00BF000400404038024044
:105A2000FCF7A5BBFCF7B8BB10B50446C160FCF79A
:105A30008DFB2046BDE81040FCF7A3BB0978007839
:105A4000401AB0FA80F040097047027809780020C7
:105A50008A4288BF0120704709780078401A18BF31
:105A600001207047B0B504464FF0FF30206300209E
:105A7000E070204601F02BFC08B10420B0BDB4F862
:105A800032024AF6552188421CBF0320B0BD94F86B
:105A90003400E92805D0EB2816D194F83600902878
:105AA00012D104F16A0001F06DFB084D20F07F4037
:105AB000A84207D004F1860001F064FB05F14C51C7
:105AC000884201D10020B0BD0220B0BD4641540043
:105AD0000246107820B10132884208BF7047F8E7CB
