:040000004FEF03F0CB
:08000800046ED8CF05F0E0CF33
:1000100006F00001E9CF0CF0EACF07F0E1CF08F0DD
:10002000E2CF09F0D9CF0AF0DACF0BF0F3CF12F01C
:10003000F4CF13F0FACF14F0F5CF15F0F6CF16F099
:10004000F7CF17F000C00EF001C00FF002C010F0A3
:1000500003C011F09DA030EF00F09EB0ABEF00F0B8
:100060000EC000F00FC001F010C002F011C003F08C
:100070000CC0E9FF07C0EAFF078E08C0E1FF09C016
:10008000E2FF0AC0D9FF0BC0DAFF12C0F3FF13C0B2
:10009000F4FF14C0FAFF15C0F5FF16C0F6FF17C035
:1000A000F7FF045006C0E0FF05C0D8FF1000F76A54
:1000B000BE0FF66E000EF7220900F55012003E3D0D
:1000C0003B372F1FF76AD40FF66E000EF722090098
:1000D000F5501200C9C9C9597F49F76AEA0FF66E8F
:1000E000000EF7220900F55012005E058E05BE05D0
:1000F000EE0522064206ECCFFAFFED52EFCFE8FF05
:10010000F96E12006E50070B006E6E30016E0132F8
:1001100001321F0E011601507024E96E000E71208D
:10012000EA6E016A012A002A01D00136002EFDD7AD
:100130006F5203E00150EF1203D0011E0150EF1681
:10014000120094908B8094928B8294948B84949ED2
:100150008B9E246A1200C7B001D0FDD7C9CF23F00F
:1001600023507F0B6C6E6C523AE06C50030837E3FF
:1001700023AE1AD0036A6C505B0FE96E000E0320A9
:10018000EA6EEFCF6DF06DC06EF06F6A0F0E716E9C
:10019000890E706EB7DF6DC06EF06F6A0F0E716EF4
:1001A000920E706EAFDF1AD0036A6C505B0FE96E6F
:1001B000000E0320EA6EEFCF6DF06DC06EF0010E01
:1001C0006F6E0F0E716E890E706E9CDF6DC06EF0DB
:1001D0006F6A0F0E716E920E706E94DF08D06C50C5
:1001E000040805E1242C03D0010E256EAADFC69E6B
:1001F000949C8B8C22C0C9FF226A949C8B9CB10E6C
:10020000CF6EE00ECE6E00009E9030EF00F0F29CBC
:10021000F29EF2BEFDD7700ED36E9B6AD350FF0ED6
:10022000926E000E936E100E946ECF0E826E8168E9
:1002300088DF310EC66EC76A550EC96E880ED56E40
:10024000850ECD6ECD6EF30ECF6E4E0ECE6E0000CF
:100250009D80C00EF212B1EF03F0EA6A630EE96E00
:10026000EF500DE0020E016E006A002EFED7012E47
:10027000FBD7970E006E002EFED7EF2EF3D712009D
:100280008150C00B636E036A215011DF6312936AC1
:1002900063C08AFF926880CF1AF0036A21501B0F57
:1002A000E96E000E0320EA6E1A50EF5C45E0036A27
:1002B000215008DF016E1A500114636E036A215049
:1002C00001DF016E635C1AE0616A6150020815E3A8
:1002D00092681A50805C0CE0036A21501B0FE96E93
:1002E000000E0320EA6EEFCF1AF0000E016E26D04A
:1002F000010E636EB2DF612AE8D71BD0626A6250DA
:10030000040817E392681A50805C0CE0036A2150DD
:100310001B0FE96E000E0320EA6EEFCF1AF0000EFD
:10032000016E0CD0420E006E002EFED70000622A35
:10033000E6D7010E016E02D0000E016ED0EF03F081
:10034000010E006E6950016E04E0D8900036012E57
:10035000FCD700501A142CE16AC022F0926880CFBA
:100360006BF0010E006E6950016E04E0D89000360B
:10037000012EFCD700506B1412E16A5089080EE17F
:10038000926880B40BD0926880B808D02252D8A46A
:10039000FDD7240E226E010E016E0CD0DFD7225243
:1003A000D8A4FDD7800E6A5C226E010E016E02D0C9
:1003B000000E016EF1EF01F0666A6150665C18E2B2
:1003C00066506224E96E000E6320EA6EEFCF69F09A
:1003D00066506424E96E000E6520EA6EEFCF6AF085
:1003E000AFD7015203E0010E016E04D0662AE5D7B3
:1003F000000E016E1200645203E165C022F005D0C8
:10040000642C03D0800E6524226E1200265231E047
:1004100027522FE0626A625001082BE3020E006E41
:100420006250016E04E0D8900036012EFCD70050D7
:100430001A141DE0036A21501B0FE96E000E032001
:10044000EA6EEFCF64F0020E006E6250016E04E0BF
:10045000D8900036012EFCD70050641408E162C029
:1004600064F061C065F0C7DF010E016E37D0622A0B
:10047000D2D7265231E127522FE1636A6350010837
:100480002BE3020E006E6350016E04E0D89000363C
:10049000012EFCD700501A141DE1036A21501B0FD6
:1004A000E96E000E0320EA6EEFCF64F0020E006EDC
:1004B0006350016E04E0D8900036012EFCD7005046
:1004C000641408E063C064F061C065F094DF010E5D
:1004D000016E04D0632AD2D7000E016E120066525C
:1004E00003E167C022F005D0662C03D0800E67249C
:1004F000226EA7EF02F062522FE0656A6550010894
:100500002BE363C000F06550016E04E0D890003624
:10051000012EFCD700501A141DE0036A21501B0F56
:10052000E96E000E0320EA6EEFCF66F063C000F0C4
:100530006550016E04E0D8900036012EFCD70050C3
:10054000661408E165C066F064C067F0C8D7010EA4
:10055000016E04D0652AD2D7000E016E1200040E7F
:10056000616E636A290E626E656A2D0E646E24DF09
:1005700001520CE1140E616E49DF015207E128C0FF
:1005800062F0100E636E150E646EB5DF1200040E7D
:10059000616E636A310E626E656A350E646E0CDFE1
:1005A00001520CE1160E616E31DF015207E128C0E5
:1005B00062F0100E636E170E646E9DDF1200040E63
:1005C000616E636A390E626E656A3D0E646EF4DEBA
:1005D00001520CE1180E616E19DF015207E128C0CB
:1005E00062F0100E636E190E646E85DF1200040E49
:1005F000616E636A410E626E656A450E646EDCDE92
:1006000001520EE1265202E0275202E1000E01D013
:10061000010E616E626E020E636E1A0E646E6BDF07
:100620001200070E616E636A490E626E656A500EB3
:10063000646EC2DE1200949E8B8E010E246E26EF35
:1006400003F01AB012D024520AE1F5D7010E636EFE
:1006500004DE926880CF1AF01AA0FBD705D0225290
:1006600001E0FDD78B0E226E19D0020E616E636A17
:10067000570E626E656A590E646E9EDE01520EE17F
:10068000265202E0275202E1000E01D0010E616EF7
:10069000626E020E636E1B0E646E2DDF1200F86A2E
:1006A000D09E078E7E0E006E100E016E020EE96E59
:1006B000000EEA6EEE6A0400002EFCD7012EFAD777
:1006C000700ED36E9B6AD3501A6A216A226A236A1B
:1006D000246A256AC150C00B0F09C16E070EB46EA3
:1006E00020D006401B000440260035800307068109
:1006F0009C9D8D00030706839E9F8E000307068541
:10070000A0A18F0003040687A288900001020304C1
:100710000506898A848C8682910306A392001011B3
:100720001200000EF86E060EF76EE20EF66E09006D
:10073000F550006E000A13E00900F550016EE8BEA6
:1007400005D03F0BEA6E0900F5CFE9FF01BC0900B7
:1007500001AC0900F5CFEEFF004EE9D7F9D7F86AF2
:1007600056D5216A2150050816E38150C00B616EF1
:10077000036A21509CDC6112936A61C08AFF036A9C
:1007800021501B0FE96E000E0320EA6E926880CFA5
:10079000EFFF212AE7D7216A215005082FE370D502
:1007A000015225E01A50020B266E1A50040B276ED8
:1007B0001AA802D01ABA02D0000E01D0010E286E7B
:1007C000D8902134036A89DC0900F5CF03F05F6E0D
:1007D00003C060F0EA6A5F0EE96E8DDC036A2150A7
:1007E0001B0FE96E000E0320EA6E1AC0EFFF252CE6
:1007F00003D0949E8B9E256A212ACED7CCD70300A6
:020000040030CA
:0E00000000C81E1E008781000FC00FE00F40D9
:00000001FF
;PIC18F2515
;CRC=A8F3  CREATED="14-окт-24 12:24"
