:020000040800F2
:10000000E8B7022089020008910200089302000864
:1000100095020008970200089902000800000000FD
:100020000000000000000000000000009B0200082B
:100030009D020008000000009F020008412A0008FD
:10004000A3020008A3020008A3020008A3020008FC
:10005000A3020008A3020008A3020008A3020008EC
:10006000A3020008A3020008A3020008A3020008DC
:10007000A3020008A3020008A3020008A3020008CC
:10008000A3020008A3020008A3020008A3020008BC
:10009000A3020008A3020008A302000865090008E3
:1000A000A3020008A3020008A3020008A30200089C
:1000B000A3020008A52A0008A3020008A302000862
:1000C000A3020008A3020008A30200089525000867
:1000D000A3020008A3020008A3020008A30200086C
:1000E000A3020008A3020008A3020008A30200085C
:1000F000A3020008A3020008A3020008A30200084C
:10010000A3020008A3020008A3020008A30200083B
:10011000A3020008A3020008A3020008A30200082B
:10012000A3020008A3020008A3020008A30200081B
:10013000A3020008A3020008A3020008A30200080B
:10014000A3020008A3020008A302000885250008F6
:10015000A3020008A3020008A3020008A3020008EB
:10016000A3020008A3020008A3020008A3020008DB
:10017000A3020008A3020008A3020008A3020008CB
:10018000A3020008A3020008A3020008A3020008BB
:10019000A3020008A3020008A3020008A3020008AB
:1001A0000000000000000000A302000800F002F8B8
:1001B00000F05BF80AA090E8000C82448344AAF1A6
:1001C0000107DA4501D100F050F8AFF2090EBAE8A4
:1001D0000F0013F0010F18BFFB1A43F0010318477B
:1001E0004CE500006CE500000A4410F8014B14F0E7
:1001F0000F0508BF10F8015B240908BF10F8014B78
:100200006D1E05D010F8013B6D1E01F8013BF9D1C0
:10021000641E03D0641E01F8015BFBD19142E4D35C
:10022000704700000023002400250026103A28BF54
:1002300078C1FBD8520728BF30C148BF0B60704758
:100240001FB508F051FC9DE8030000F07DFA00F0B6
:10025000C1FA04000020002108F030FC401C60605E
:1002600000F03CFA1FBD10B510BD00F0DDFA1146DC
:10027000FFF7E6FF07F098FF00F0FBFA03B4FFF783
:10028000F2FF03BC00F02CFB0948804709480047F7
:10029000FEE7FEE7FEE7FEE7FEE7FEE7FEE7FEE736
:1002A000FEE7FEE704480549054A064B7047000093
:1002B0004D2A0008AD010008E8770020E8B70220C9
:1002C000E8B70120E8B7012070B5064600F020FA33
:1002D000056806F10B0020F00704B4429CBF002023
:1002E00070BD2B466A68BAB11068A04210D304F101
:1002F000080188423CBF5068586007D35168101904
:1003000041601168091B016058601460101D70BDC8
:1003100013465268002AE7D12146284600F000FA29
:100320000028DED170BD70B50446051F00F0F0F95D
:100330000068002C14BF446870BD002C18BFAC428C
:100340003CBF20466468F8D301680A18AA4218BF67
:10035000456003D12A6805461144016028684119A7
:10036000A1421CBF6C6070BD61686960216808446F
:10037000286070BD53EA020C00F069802DE9F04B53
:100380004FF00006002B1FBFB3FA83F503FA05F404
:1003900024FA05F65E4012BF1643B2FA82F502FA5D
:1003A00005F4C5F120051EBF22FA05FC44EA0C0441
:1003B000203556EA044C4FEA144418BF641C4FF031
:1003C00000084FF00009904271EB030C39D300296B
:1003D00019BFB1FA81F701FA07F6B0FA80F700FA0F
:1003E00007F6C7F120071EBF20FA07FC46EA0C06F5
:1003F0002037B6FBF4FCA7EB0507103F07F01F0BF7
:10040000CBF120062CFA06F60CFA0BFB44BFB346E0
:100410000026202FA4BF5E464FF0000B5BEA060CBF
:1004200008BF4FF0010B19EB0B0948EB0608ABFBBB
:10043000027C06FB02CC0BFB03CCC01B71EB0C0156
:10044000C1E70B46024641464846BDE8F08B13B56E
:10045000084318BF4FF0FF300146AFF30080BDE8FE
:100460001C40704710B5044600F04AF90068005D72
:10047000C00602D504F1200010BD204610BD40EAA0
:100480000103024630B59B0710D14FF0013400E064
:1004900008C208C91D1B9D4315EAC41FF8D013F0FC
:1004A000FF0102F8011B0DD01B0AF8E711F8013B10
:1004B000002B02F8013B05D011F8013B002B02F89C
:1004C000013BF3D130BD032A40F2308010F0030C21
:1004D00000F0158011F8013BBCF1020F624498BF97
:1004E00011F801CB00F8013B38BF11F8013BA2F134
:1004F000040298BF00F801CB38BF00F8013B11F0AF
:10050000030300F02580083AC0F0088051F8043B4E
:10051000083A51F804CBA0E80810F5E7121D5CBFBB
:1005200051F8043B40F8043BAFF30080D20724BFEE
:1005300011F8013B11F801CB48BF11F8012B24BF82
:1005400000F8013B00F801CB48BF00F8012B7047D1
:1005500010B5203AC0F00B80B1E81850A0E8185050
:10056000B1E81850A0E81850203ABFF4F5AF5FEAA0
:10057000027C24BFB1E81850A0E8185044BF18C945
:1005800018C0BDE810405FEA827C24BF51F8043BEC
:1005900040F8043B08BF7047D20728BF31F8023B40
:1005A00048BF11F8012B28BF20F8023B48BF00F8D4
:1005B000012B704702F0FF0343EA032242EA0242A2
:1005C00000F002B84FF000020429C0F0128010F0D1
:1005D000030C00F01B80CCF1040CBCF1020F18BF1F
:1005E00000F8012BA8BF20F8022BA1EB0C0100F0B2
:1005F0000DB85FEAC17C24BF00F8012B00F8012B85
:1006000048BF00F8012B70474FF0000200B51346B9
:1006100094469646203922BFA0E80C50A0E80C5022
:10062000B1F12001BFF4F7AF090728BFA0E80C50D3
:1006300048BF0CC05DF804EB890028BF40F8042BCC
:1006400008BF704748BF20F8022B11F0804F18BF39
:1006500000F8012B7047000030B44FF0013C50F817
:10066000042B51F8043BCCFA52F4D51A20D1FCB932
:1006700050F8042B51F8043BCCFA52F4D51A17D198
:10068000B4B950F8042B51F8043BCCFA52F4D51A03
:100690000ED16CB950F8042B51F8043BCCFA52F44B
:1006A000D51A05D1002CDAD030BC4FF000007047CD
:1006B00029BAB1FA81F111F01801D1F1200084407A
:1006C000F2D1CA40CB4012F0FF0213F0FF0330BC5E
:1006D000D01A7047704770477047000070B5064CDD
:1006E0007C44064D7D4404E0204601680844804770
:1006F000241DAC42F8D170BD78E1000078E1000023
:1007000010B500F067F8001D10BD00BFB1830000F8
:1007100000487047106E0020704770477047704760
:1007200038B504460A4600206946AFF30080002829
:1007300008BF38BD02460099204600F053F801205A
:1007400038BD012000F068B8F8B5AFF30080054669
:1007500000200C46102000BF0646A819A0420DD963
:10076000324669460020AFF30080070008BF00F062
:1007700053F80098A04218BF0546C419FFF7C8FFF8
:1007800005600746F01D20F007004619284600F0D6
:100790000AF8B44208BFF8BDA21B31463868BDE86C
:1007A000F84000F01FB800210160C0E90110704757
:1007B0001020704710B500F011F8006810BD10B59A
:1007C000044600F00BF8046010BD000000487047BC
:1007D000086E002000487047286E002000487047CF
:1007E000086E0020034640688C46002818BF8842E7
:1007F0003CBF03464068F8D318681844884207D0C5
:100800000CF1030020F00700001D411A521A0146A6
:10081000081D0A60FFF787BD10B500F039F8BDE884
:10082000104000F02FB870477546FFF7CFFFAE4677
:1008300005006946534620F00700854618B020B5EC
:10084000FFF730FDBDE820404FF000064FF00007F5
:100850004FF000084FF0000BAC46ACE8C009ACE824
:10086000C009ACE8C009ACE8C00921F007018D4619
:10087000704710B50446AFF300802046BDE8104035
:10088000FFF7FCBC002801D000F02AB87047000038
:1008900010B5012805D0002103A000F027F80120A1
:1008A00010BD09A1F8E7000053494752544D454D8A
:1008B0003A204F7574206F662068656170206D6501
:1008C0006D6F7279000000003A2048656170206DFC
:1008D000656D6F727920636F7272757074656400F4
:1008E00001491820ABBEFEE72600020070B50546A0
:1008F0000C460A2000E06D1C00F011F835B1287894
:100900000028F8D102E0641C00F009F814B1207846
:100910000028F8D1BDE870400A20AFF3008008B588
:1009200069468DF800000320ABBE08BD10B5044633
:1009300000F51F703C21FFF767FE04F11C004FF427
:100940000071FFF73FFE00204FF480712070A4F883
:100950000110C4F8B802012020834020A071A4F83F
:100960001C1210BD80B5402000F006FB80BD0000C9
:1009700080B5002200F002F880BD000080B547F28B
:10098000845EC2F2000E9EF80930002B1CBF0120CD
:1009900080BD9EF80930844600200EF803009EF8C2
:1009A00009300EEB8303C3F804C09EF8093073448A
:1009B0001A729EF80920531C30328EF809300A70E2
:1009C00042F63A72A1F80120C87080BD80B543F6A6
:1009D0001043C4F20203D3F800C04FF4407E2CF45D
:1009E00040721A601A68032938BF4FEA012E42EAA2
:1009F0000E01196019684FF0200C21F0F801196000
:100A00001A68C1000B2888BF0CEBC00141EA020044
:100A100040F002001860186840F48030186080BD13
:100A200043F60040C4F20200016889050FD5016851
:100A300021F400710160016841F400610160016806
:100A400021F400610160016841F4007101600168F6
:100A5000490558BF7047016821F480610160016851
:100A600041F480510160016821F480510160016806
:100A700041F480610160704743F61042C4F2020203
:100A80001368012923F4407313604FF4004308BF37
:100A900004230329116808BF48F2040319431160B5
:100AA000116841EA002040F4803010607047000077
:100AB00043F61042C4F20202136823F44073136039
:100AC00013681360136843F00103136001707047EB
:100AD00080B543F6104EC4F2020EDEF800C02CF4CE
:100AE0004071CEF80010DEF8001041F44071CEF8ED
:100AF0000010DEF8001041F00101CEF80010026095
:100B0000436080BD43F61042C4F20202136823F42E
:100B100040731360136843F480731360136843F0E9
:100B2000010313600180704743F61042C4F20202D1
:100B3000136823F440731360136843F40073136065
:100B4000136843F0010313600160704743F60C40E3
:100B5000C4F202000168C90647F29451C2F20001D2
:100B600005D5CA6942F01002CA611022026002680B
:100B7000920605D5CA6942F00802CA6120220260C5
:100B80000268520605D5CA6942F00402CA614022D1
:100B900002600268120605D5CA6942F00202CA6103
:100BA000802202600268D20506D5CA6942F00102BD
:100BB000CA614FF4807202600268920758BF7047A2
:100BC000CA6942F02002CA61022101607047000038
:100BD000F0B581B0044647F2945043F60C46C2F299
:100BE00000000021C4F20206C16100F0A3FA3168DE
:100BF000C9030DD43068C0071CBF012030603068C5
:100C000010F4F97F0BD0FFF7A1FF012001B0F0BD78
:100C10000546671C06D054B9032001B0F0BD002082
:100C200001B0F0BD3068C003E4D5002FFAD000F069
:100C300081FA401BA042F5D9EEE70000B0B5B3F54C
:100C4000804F034615D153F822C00020CCF6F07037
:100C50000CEA000CD1E9000ED1E9024540EA0C0093
:100C600040EA0E10896940EA042040EA0540014349
:100C700001E06FF07041002043F82210B0BD000089
:100C80002DE9F043D1E9002CD1E9023ED1E90489F4
:100C9000D1E9066750F822408025CFF6E0752C4058
:100CA00044EA0C051D4345EA0E0545EA080545EAF8
:100CB00009052E430D6A37434E6A2F438D6A374329
:100CC000CE6A2F43CD6B37430E6B2F434D6B3743AB
:100CD0002F43082B08BF47F0400740F822704A6BAB
:100CE000B2F5801F05D1096819B1016841F480117E
:100CF00001600020BDE8F0832DE9F04700EB82039E
:100D00005A6891E8000702F0404E4EEA0805D1E922
:100D1000036740F2000C45EA0915CFF6F07C45EA7E
:100D20000A25D1E905240CEB075745EA0646374367
:100D3000FE32274347EA02625A600268D20207D5B0
:100D40004268096922F470020CEB015111434160C1
:100D50000020BDE8F087000090F83510022909D185
:100D6000052180F835100068016821F0010101605B
:100D700000207047802141650120704780B543F60F
:100D80001000C4F202004FF0FF3100220161026145
:100D90004161426101600260416042608160826045
:100DA00000F010FC002080BDB0B582B0019000F0D2
:100DB000C1F9019904464D1C28BF4FF0FF3500BF13
:100DC00000F0B8F9001BA842FAD302B0B0BD000091
:100DD0002DE9F04381B047F29458C2F2000898F828
:100DE0001820012A01D1022449E00546012088F893
:100DF00018004CF250300E46FFF7EAFE0446D8BB0E
:100E00004FF0FF3030602868012812D1287C6968D3
:100E1000FFF732FE4CF25030FFF7DAFE044643F69D
:100E20001040C4F20200016848F2040291430160DC
:100E300020E0D5E90270384487421BD243F61049BE
:100E4000C4F20209297C3846FFF7C0FD4CF250304D
:100E5000FFF7BEFED9F80010044621F0FA00C9F8E9
:100E6000000034B9D5E90201013708448742E9D3CB
:100E700000E03760FFF7D4FD002088F81800204616
:100E800001B0BDE8F083000043F61041C4F2020156
:100E9000086840F0004200200A6070472DE9F041E8
:100EA00047F29458C2F20008144698F81820012A14
:100EB00004BF0220BDE8F0810746012088F8180031
:100EC0004CF250301E460D46FFF782FE20BB022F2B
:100ED00007D0012F0AD077B9E1B22846FFF7E8FD25
:100EE0000EE028462146FFF71FFE09E0A1B2284682
:100EF000FFF708FE04E0284622463346FFF7E8FDE8
:100F00004CF25030FFF764FE43F61041C4F2020188
:100F10000A6822F001020A60002188F81810BDE872
:100F2000F081000043F60440C4F20200C168B1F150
:100F3000FF3FC4BF0020704740F22311C4F2675145
:100F4000016048F6AB11CCF6EF510160C068C00FEC
:100F500070470000402818BF704780B540F2240059
:100F600046F68F61C2F20000C2F20001012200F0D9
:100F700083FEBDE88040704780B543F61441C4F25B
:100F800001010A68024208BF80BD0860FFF7E2FF66
:100F900080BD00002DE9F04F83B000F13E4202F128
:100FA000FF7242F2004743F6004E4FEAB222C4F20B
:100FB0000207C4F2010E01920A22B8424FF0010466
:100FC0004FF000074FF000084FF0000908BF09225A
:100FD000009209E009F1010908F10408B9F1100FC4
:100FE00007F1020700F09D800D6804FA09FA15EA7E
:100FF0000A0CEFD04D6845F01005122D11D16FF09D
:10100000030202EA5905054408F01C020F232C6A6A
:1010100003FA02F60B69B44303FA02F222430124F5
:101020002A6202680323D1F804B0BB40DD439A432F
:101030000BF00303BB401A43BBF1120F026013D83D
:1010400004FA0BF212F0061F0ED08268CB682A4019
:10105000BB401A4382604268CBF3001322EA0A02C3
:1010600003FA09F31A434260C2688B682A40BB4006
:101070001A435FEACB03C260ACD5002243F64403B7
:101080000292C4F202031A684FF6084A42F4804200
:101090001A601A68CFF6FF7A02F480420292029A2E
:1010A00029F00302724452F80A3008F00C040F25AC
:1010B000A540019EAB43009D092E38BF354605FA79
:1010C00004F4234342F80A30DEF800204B6842EA79
:1010D0000C04DD0358BF22EA0C04CEF80040DEF811
:1010E00004209D0342EA0C0458BF22EA0C04CEF807
:1010F0000440DEF80820DD0242EA0C0458BF22EA70
:101100000C04CEF8084043F60C44C4F201042268F3
:101110009B0242EA0C0358BF22EA0C03236001241D
:1011200058E703B0BDE8F08F0069084018BF012000
:101130007047000047F2E470C2F200000068704798
:1011400080B5D0F8940202F08DF880BD80B5D0F85B
:10115000940202F09DF880BD80B5006803F000FAAB
:1011600080BD000080B5006803F0FEF980BD00007E
:1011700001EB810100EBC10090F85C0070470000BA
:1011800001EB810100EBC100C06C704710B5044653
:1011900090F89002012804BF022010BD20680122AF
:1011A00084F8902203F0EEF9002084F8900210BD3C
:1011B00070B584B0044690F89002012802D1022054
:1011C00004B070BD012084F8900201EB810004EBB3
:1011D000C00602F07F0086F83A00D009DDF828C08A
:1011E000DDE9085E86F83B00206886F83830A6F80E
:1011F00040C086F8391086F83FE086F83C50CDE9CB
:10120000005ECDF808C003F007FA002184F89012C0
:1012100004B070BD70470000F0B581B00DF1180E3C
:101220009EE8C04001EB810400EBC4040225002EBF
:1012300084F83B2084F83F3008BF0325032B84F853
:10124000425050D8DDF824C0DFE803F002261B2A04
:10125000002A08BF012E46D1BEF1000F04BF0122B3
:1012600084F8512094F8512094F85C30002A18BF7B
:1012700001225200022B84F8422018BF84F83DC09E
:1012800031E0C2B194F85020002A04F1420214BFA8
:1012900002230023137026E0002284F8422022E07B
:1012A000C2B194F85020002A04F1420214BF022374
:1012B0000023137017E094F8512094F85C30002A52
:1012C00018BF01225200022B84F8422018BF84F874
:1012D0003DC008E094F85120002A04F1420214BFF6
:1012E0000223002313700022036804F1380CA4F8D1
:1012F0005C20E264027C84F8391018466146C4E937
:10130000117E03F0FBF901B0F0BD0000F0B581B033
:1013100005680446284603F031F9012840F08D8025
:10132000206803F00DFB002800F08780206803F0A0
:1013300007FB800203D520684FF40011416120684B
:1013400003F0FEFAC00203D520684FF4801141611A
:10135000206803F0F5FA400103D520684FF0806162
:101360004161206803F0ECFA800702D52068022171
:101370004161206803F0E4FA800010D5D5F84004FC
:1013800020F02E00C5F840042046FFF7DFFE20685D
:10139000012103F0B9FA20684FF000514161206843
:1013A00003F0CEFAC00102D5204600F0FBFF206812
:1013B00003F0C6FA000705D5204600F099F820682A
:1013C00008214161206803F0BBFA800123D5206821
:1013D00003F090F9A168D1B1064605F5A065002794
:1013E00009E000BF204600F0D3FEA0680137874225
:1013F00005F120050BD226FA07F0C007F5D02868C2
:10140000F9B20004EED5204600F0B4FDEDE7206807
:101410004FF000714161206803F092FAC0060CD5CC
:101420002068816921F010018161204601F014F8E3
:101430002068816941F01001816101B0F0BD0000B8
:101440002DE9F04F8BB0054600284FF0010043D046
:10145000032085F89102284600F042F8286803F03E
:101460001DF8286805F1040E0A90D5E90C8005F1F5
:10147000240B9EE8DE509BE8000ECDE908800A9818
:101480008DE8D050CDE9059ACDF81CB002F0B4FF3C
:101490002868012103F086FA28682F1D0A90D5E9F3
:1014A0000C4005F1140E05F1240A8ECF9EE8405839
:1014B0009AE80007CDE9084002A880E800580A9899
:1014C000CDE90076CDE90589CDF81CA003F0AEF991
:1014D000012085F8910200200BB0BDE8F08F0000DC
:1014E0007047000080B5006803F042FA80BD00003C
:1014F00080B5D0F8940201F009FF80BD10B5044614
:1015000090F89002012804BF022010BD206801213C
:1015100084F8901202F0FAFF2068012102F0D6FF51
:10152000002084F8900210BD10B5044690F8900297
:10153000012804BF022010BD2068012184F8901208
:1015400003F046FA002084F8900210BD47F2E470E0
:10155000C2F20000016801310160704780B543F6B6
:101560000040C4F20200016841F4007101600168AA
:1015700041F480610160016841F4807101600320E1
:1015800000F06AF80F2000F005F800F01DF80020C8
:1015900080BD000010B540F20001C2F200010968F0
:1015A00044F6D352C1F26202A1FB02120446900932
:1015B00000F088FC4FF0FF302146002200F03CF89C
:1015C000002010BD7047000080B5032000F044F8F3
:1015D0006FF00B000021002200F02EF86FF00A00DF
:1015E0000021002200F028F86FF0090000210022FD
:1015F00000F022F86FF004000021002200F01CF837
:101600006FF003000021002200F016F86FF00100D7
:101610000021002200F010F84FF0FF3000210022DE
:1016200000F00AF880BD000080B500F04FFF80BDDB
:1016300080B500F059FF80BD70B514460D460646D2
:1016400000F076FF2946224600F05CFF0146304656
:1016500000F076FF70BD000080B500F083FF80BD14
:101660002DE9F041002800F0868043F60808C4F216
:1016700002080446D8F8F8030D4600F00F0088422F
:1016800007D288F8F853D8F8F80300F00F00A84202
:1016900071D12068810717D5410705D5D8F800100A
:1016A00041F4E051C8F80010010705D5D8F8001042
:1016B00041F46041C8F80010D8F80010A26821F089
:1016C000F0011143C8F80010C0073AD1D8F8F80368
:1016D00000F00F00A84207D988F8F853D8F8F803AB
:1016E00000F00F00A84246D12068410707D5D8F87E
:1016F0000010E26821F4E0511143C8F8001000071F
:1017000008D5D8F80000216920F4604040EAC10003
:10171000C8F8000000F04EF8D8F8001048F6F4328F
:10172000C1F30311C0F60002515CC84040F2000151
:10173000C2F2000108600F20FFF72CFF0020BDE877
:10174000F0816068811E022907D258F8081C8901BF
:101750005CBF0120BDE8F08110E0012807D158F8F6
:10176000081C89035CBF0120BDE8F08106E058F841
:10177000081C890702D40120BDE8F081D8F80010C8
:1017800021F003010843C8F80000FFF7D3FC064628
:1017900041F28837D8F80000616800F00C00B0EB27
:1017A000810F93D0FFF7C6FC801BB842F2D903200B
:1017B000BDE8F08110B543F60404C4F20204606889
:1017C00000F00C0008280AD0042819BF42F200409B
:1017D000C0F2F40047F64000C0F27D1010BD206852
:1017E00021682368490247F64001C0F27D1100F0EC
:1017F0003F02C3F388105CBF42F20041C0F2F40123
:10180000A1FB00010023FEF7B5FD21680222C1F310
:10181000014102EB4101B0FBF1F010BDF0B581B028
:10182000002877D00446007843F60006C007C4F2CB
:10183000020644D0B06800F00C00042816D0B0684E
:1018400000F00C00082802D1706840020ED46568D0
:10185000B5F5A02F10D0B5F5803F11D0306820F439
:1018600080303060306820F480200CE030688003E5
:1018700025D5606818BB4DE0306840F480203060AA
:10188000306840F480303060FFF754FC002D05468E
:1018900012D000BF3068800311D4FFF74BFC401B0F
:1018A0006428F7D9A5E000BFFFF744FC401B64287B
:1018B0004FF0030000F21A8130688003F4D42078DE
:1018C000800718D5B06810F00C0F07D0B06800F092
:1018D0000C00082857D17068400254D43068800743
:1018E00002D5E068012815D13068216920F0F800A0
:1018F00040EAC1003060207800070ED4207840070D
:1019000021D4A569002D00F0F380B06800F00C0030
:10191000082871D1012001B0F0BD6069002855D0C0
:101920000020C4F247200121C0F8801EFFF702FC0E
:10193000054600BF706F8007E0D4FFF7FBFB401B3C
:101940000228F7D955E000200090306C47F20007DC
:1019500040F080503064306CC4F2000700F08050DA
:1019600000900098386840F480703860FFF7E2FB20
:10197000054600BF3868C0051BD4FFF7DBFB401BE2
:101980000228F7D935E0E068002840F20000C4F2F0
:10199000472052D001210160FFF7CCFB054600BF74
:1019A00030688007A0D4FFF7C5FB401B0228F7D999
:1019B0001FE0A568052D51D0012D53D0306F20F0C8
:1019C00001003067306F20F004004EE00020C4F2C8
:1019D00047200021C0F8801EFFF7ACFB054600BF82
:1019E000706F80077FF58AAFFFF7A4FB401B0228CA
:1019F000F6D9032001B0F0BD0027C4F2472700202C
:101A00003866FFF797FB022D05460BD13068800141
:101A10004BD5FFF78FFB401B02284FF00300F5D991
:101A200064E000BF3068800162D5FFF783FB401B94
:101A300003284FF00300F5D358E000210160FFF7C1
:101A400079FB0546306880077FF555AFFFF772FBDD
:101A5000401B02284FF00300F4D947E0306F40F0FC
:101A600004003067306F40F001003067FFF762FB21
:101A7000002D054641F2883713D000BF306F800734
:101A80003FF53FAFFFF756FB401BB8424FF0030056
:101A9000F4D92BE0FFF74EFB401BB8424FF0030098
:101AA00024D8306F8007F5D42BE704F11C052FCD27
:101AB00008430021CFF6FF7140EA821001EBC331E9
:101AC0006FF30F0140EA056008437060012038663B
:101AD000FFF730FB044600BF3068800108D4FFF7F1
:101AE00029FB001B02284FF00300F5D901B0F0BD1F
:101AF000002001B0F0BD000070470000B0B582B01A
:101B000004460068416882684B0605D502F041032F
:101B1000012B01D1216C05E00B0607D512F0020361
:101B200004D0616C2046884702B0B0BD8B065AD500
:101B300012F4B07357D012F0400317D094F851301C
:101B4000032B08D100210191C168019180680190A7
:101B5000019802B0B0BD636D43F0040363650023D8
:101B60000193C368019383680193019B93060CD58D
:101B7000636D43F001036365002301938368019360
:101B8000036823F040030360019BD20508D5626D12
:101B900042F0080262650022019282680192019A75
:101BA000626D02B34268890722F0E00242604FF0A2
:101BB000010284F8512013D0416842F66D0521F0EE
:101BC00003014160E06CC0F6000510B10565FFF748
:101BD000C3F8A06C38B10565FFF7BEF802B0B0BD20
:101BE0002046FFF789FF02B0B0BD0000002804BF07
:101BF0000120704710B5044690F8510028B9002024
:101C000084F85000204600F035F8022084F8510096
:101C100094E807101143036841EA0C0123F04003E4
:101C2000036022691143D4E9052341EA020C03F45D
:101C30000072E16942EA0C0242EA010C226AA16ADE
:101C400042EA0C020A4302604FF0040C626A0CEA9A
:101C500013431A434260B1F5005F04BFE16A0161BA
:101C6000C16921F40061C16100200121606584F82F
:101C7000511010BD7047000080B5836894465BB971
:101C80004268B2F5827F07D1042280F851200A46CB
:101C9000634600F06DF880BD90F85020012A04BF23
:101CA000022080BD012280F8502090F85120012AA6
:101CB00047D100294FF0010218BFBCF1000F41D0FD
:101CC000042280F85120002242658163A0F83CC0C4
:101CD000A0F83EC002638286C286D0F80CE042F6CD
:101CE0007D0142F6F10CC0F60001BEF1000FC0F616
:101CF000000C08BF6146B3F5004F0164426404D193
:101D000001680A6822F480420A60816AB1F5005FC6
:101D100009D101684DF6FF730A681A400A600A6823
:101D200042F400520A6001684A6842F060024A6068
:101D30000A68520603D40A6842F040020A60002290
:101D400000E00222002180F85010104680BD000003
:101D500080B546F68F60C2F20000007803F0D4FC34
:101D600043F20C00C4F201000021016080BD0000BC
:101D700080B590F850C0BCF1010F04BF022080BDB7
:101D80004FF0010C80F850C090F851C0BCF1010F29
:101D90004FD100294FF0010C18BF002A5BD0002B57
:101DA00059D090F851C0BCF1010F04BF4FF0050CA1
:101DB00080F851C04FF0000CC0F854C00163838616
:101DC000C38682638387C387C36842F2096C42F289
:101DD0009D52C0F6000CC0F60002816A002B42F250
:101DE0007D6308BF624642F2C96CC0F60003C0F6CC
:101DF000000C08BF6346B1F5005F0264436409D17B
:101E000001684DF6FF730A681A400A600A6842F4D6
:101E100000520A6001684A6842F0E0024A600A68BB
:101E2000520603D40A6842F040020A604FF0000CE8
:101E300011E0D0F804E0BEF5827F0AD1BCF1040FB6
:101E40004FF0020C07D1D0F808E0BEF1000FA0D08F
:101E500001E04FF0020C002180F85010604680BD78
:101E600070470000002804BF0120704770B5044689
:101E700090F8490015460E4628B9002084F848001D
:101E8000204600F01BF8206804F10801FEF7F8FE78
:101E90002068A2683146FEF72FFFD4E90102236BC8
:101EA0002946FEF7CBFE2068A16850F8212042F0B9
:101EB000010240F82120002070BD000070470000A2
:101EC0007047000080B500F0A3FD80BD80B5FFF72E
:101ED000F7FF80BD002804BF0120704710B50446FD
:101EE00090F8390028B9002084F83800204600F026
:101EF0000DF8022084F839002068211D00F0E6FD6D
:101F0000012084F83900002010BD00007047000057
:101F10000146022081F839000868026842F0010297
:101F200002600122002081F8392070470168C868EA
:101F300040F00100C860086840F0010200200A601B
:101F400070470000006841F21112C16821F00101E0
:101F5000C160016A114201D000207047016A40F25D
:101F600044421142F8D1016821F0010101600020D2
:101F7000704700002DE9F041054600680C4600EB73
:101F80004111D1F8082501F5A06652071BD4B168AC
:101F900089061FD4B16809071FD4B16849052ED539
:101FA000F16841F00201F160214602F0EBFA1020E5
:101FB000B06004EB840005EBC000082180F85D10E0
:101FC0004FF4806007E00420B060F06840F0020049
:101FD000F06014E02020B06011E0F168052241F0CB
:101FE0000201F16004EB840105EBC10181F85D2081
:101FF0001021B1600821B160214602F0C3FAB06837
:10200000800530D4B068C0073AD1B06880075FD48B
:10201000B068000600F19580B068C00621D504EBD9
:10202000840005EBC008474617F83F0F032807D187
:10203000F068214640F00200F060286802F0A2FA41
:10204000032088F85D001020B060387840F002006E
:10205000022818BFBDE8F0813068022161F39F704B
:102060003060BDE8F081F068214640F00200F06089
:10207000286802F087FA4FF40070B060BDE8F08184
:10208000286948B104EB840005EBC000816C32691B
:102090006FF3DF42891AC16404EB840005EBC007CB
:1020A0000120002187F85D00B965B06097F83F0016
:1020B00018B1032831D002283BD1F068214640F006
:1020C0000200F060286802F05DFA1020B06030E095
:1020D000F06820F00200F06004EB840005EBC00023
:1020E00090F85D100139072948D8DFE801F0404732
:1020F000474744044704816D4A1C03294FF00201FD
:1021000088BF0022826588BF042180F85C10316896
:10211000022262F39F71316030E03068214640F066
:1021200000503060012087F85C0028460122FFF74C
:1021300071F897F8500080F0010087F85000BDE872
:10214000F081F068062240F00200F06004EB8400A9
:1021500005EBC001886D81F85D2001308865286835
:10216000214602F00FFA8020B060BDE8F081012125
:1021700080F85C1002E0052180F85C100221B1605B
:1021800090F85C2028462146FFF744F8BDE8F0812E
:1021900070B5054600680C4600EB4111D1F80825E2
:1021A00001F5A066520740D4B168890644D4B168ED
:1021B00049065AD4B16889056AD4B168C90740F0A4
:1021C0007280B168090700F18080B168C90600F12A
:1021D0008D80B168090600F19C80B168490500F165
:1021E000A980B068800758BF70BDF06820F0020079
:1021F000F06004EB840005EBC00090F85D1001393D
:10220000072900F2C580DFE801F0B2C3A9ABC00422
:10221000C304014651F8582F531C042A0B60C0F028
:102220009D8000220A600421B0E00420B060F068C4
:1022300040F00200F06070BD2021B16004EB840129
:1022400005EBC10595F83D10012940F0A980042156
:1022500085F85D10F16841F00201F160214602F05D
:1022600091F9022085F85C0070BD04EB840105EB58
:10227000C101042281F85D2000228A65F16841F0E5
:102280000201F160214602F07DF94020B06070BD8E
:10229000F16841F00201F160214602F073F94FF458
:1022A0000070B06070BD04EB840105EBC105002136
:1022B000A965F16841F00201F160214602F062F97E
:1022C0000120B06085F85D0070BD0821B160F16843
:1022D00041F00201F160214602F054F904EB840060
:1022E00005EBC000052180F85D1070BD04EB840192
:1022F00005EBC1050021A965F16841F00201F1601B
:10230000214602F03FF9032085F85D001020B060FF
:1023100070BDF16841F00201F160214602F032F92E
:1023200004EB840005EBC000062180F85D108020DE
:10233000B06070BDF16841F00201F160214602F029
:1023400021F91020B0604FF48060B06004EB84008D
:1023500005EBC000082180F85D1070BD022115E07A
:10236000022180F85C10002180F83D1010E090F808
:102370003F100122022980F85C2009D190F8511009
:1023800081F0010180F8511002E0052180F85C1015
:102390000221B16090F85C2028462146FEF73AFF02
:1023A00070BD0000B0B582B005680446D5F84004A1
:1023B0000190D5F840040090009820F02E00009085
:1023C000019880070DD50198C00706D0A86920F0B4
:1023D0000050A8612046FEF7B3FE009840F00200CE
:1023E0000090019800072BD5009840F0080000905D
:1023F000019840070BD4D5F8400420F02E00C5F812
:1024000040042068816941F00051816118E0A069B1
:1024100002280BD1019800F4C0212068B1F5802F6B
:1024200014BF0121022102F06FFA06E0E0680328E0
:1024300004BF4EF66020C5F804042046FEF780FE77
:102440000198800603D5009840F020000090009885
:10245000C5F8400402B0B0BD2DE9F0410468216A1E
:1024600001F4F012B2F5802F2ED1C1F30A155DB33D
:1024700001F00F0808EB880100EBC1073E4656F853
:10248000441F09B320462A4602F05EFA3068F96C10
:10249000284430604819F86404EB4810D0F810154F
:1024A0000022C1F6F872114208BFBDE8F08100F5C4
:1024B000A0600168022262F39F71016097F85000EA
:1024C00080F0010087F85000BDE8F08100F01F01A6
:1024D000012202FA01F14EF280124009CEF200020E
:1024E00042F820107047000000F01F01012202FA9C
:1024F00001F14EF200124009CEF2000242F8201023
:102500007047000000F0070080F00703042B28BF8D
:1025100004234FF0FF3C03380CFA03F338BF0020CC
:10252000994381400CFA00F022EA0000084370470A
:102530004EF60C50CEF200000068C0F30220704747
:1025400000F16042090102F564424EF6145C00F0AD
:102550000F03CEF2000C002848BF03EB0C021170F1
:10256000704700004EF60C51CEF200010A684FF69B
:10257000FF031A4060F30A2242F0806040F0FD70D1
:102580000860704780B547F2D420C2F20000FEF721
:10259000BDFE80BD80B503F0AFF880BD80B5016899
:1025A000826BCB6822F8023B8263C28F013AC287FA
:1025B000C28F002A18BF80BD826AB2F5005F05D1C4
:1025C00042F2E151C0F60001016480BD4A6822F088
:1025D00040024A60C18E002908BF00F0AFF880BDFC
:1025E00080B582B00021ADF806100168CA68ADF868
:1025F0000620BDF806204A6822F040024A6000F03A
:102600009DF802B080BD000080B50168097B826B37
:10261000531C83631170C18F0139C187C18F002999
:1026200018BF80BD816AB1F5005F05D142F25161EA
:10263000C0F60001016480BD01684A6822F06002B2
:102640004A60C18E002908BF00F078F880BD000004
:1026500080B582B000218DF8071001680A7B8DF8E3
:1026600007209DF807204A6822F060024A60C18E68
:10267000002908BF00F062F802B080BD80B5026B8F
:10268000016832F8023BCB600263C28E013AC28617
:10269000C28E002A18BF80BD826AB2F5005F08D1E1
:1026A000086840F480500860486820F08000486066
:1026B00080BD4A6822F080024A60C18F002908BFAD
:1026C00000F03CF880BD000080B5016B02684B1C37
:1026D000036309781173C18E0139C186C18E002947
:1026E00018BF80BD826A0168B2F5005F08D1086832
:1026F00040F480500860486820F08000486080BD49
:102700004A6822F080024A60C18F002908BF00F0A9
:1027100015F880BDB0B582B00B4600928021002232
:102720000446002500F01CF920B1606D032540F03F
:1027300020006065284602B0B0BD000010B582B030
:1027400040F20001C2F20001096841F6F112C0F244
:102750007652A1FB02120446500A642148430190BC
:10276000FEF7E8FC216802464B6823F02000486031
:102770000198431E019318B188688007F8D503E0DB
:10278000606D40F02000606520466421FFF7C2FFC5
:1027900018B1606D40F020006065A06838B9002075
:1027A00000902068C16800918068009000982068BF
:1027B0008168C90605D4606D90B1012084F851008C
:1027C00009E0012184F85110616D41F00201616559
:1027D0004FF6EF7181602046FFF78EF902B010BD11
:1027E00094F8510001210428204684F8511003D1A7
:1027F000FFF7AEFA02B010BDFFF732FB02B010BD1A
:1028000080B582B0D0E900124B68B2F5827F23F028
:1028100060034B600AD18268B2F5004F02D0B2F576
:10282000806F03D10A6822F040020A60826832B9E0
:1028300000220192CA6801928A680192019A0122DB
:1028400080F851208B68426DDB0604D44AB9FFF74B
:102850007FFA02B080BD42F0020242654FF6EF728D
:102860008A60FFF749F902B080BD000080B5806B37
:102870000021C187C186FFF73FF980BD80B501689F
:10288000826BCB6822F8023B8263C28F013AC28717
:10289000C28F012A07D1826AB2F5005F03D10A68AC
:1028A00042F480520A60C18F002918BF80BD816A3E
:1028B000B1F5005F05D142F6C901C0F6000101641F
:1028C00080BDFFF79DFF80BD80B582B00021ADF8CF
:1028D00006100168CA68ADF80620BDF806204A68EF
:1028E00022F060024A60FFF78BFF02B080BD00005B
:1028F00080B50168097B826B531C83631170C18FA3
:102900000139C187C18F012908D1816AB1F5005F02
:1029100004D101680A6842F480520A60C18F00291C
:1029200018BF80BD816AB1F5005F05D142F6411143
:10293000C0F60001016480BDFFF762FF80BD0000AA
:1029400080B582B000218DF807100168097B8DF8F1
:1029500007109DF80710FFF753FF02B080BD00007D
:102960002DE9F04381B08146006880680840401A34
:10297000B0FA80F04009904203D1002001B0BDE8D8
:10298000F083DDF8208015460E461F465C1C09E0EA
:10299000D9F8000080683040801BB0FA80F0400910
:1029A000A842EAD0002CF3D02FB1FEF7C3FBA0EB76
:1029B0000800B842ECD3D9E900014268B1F5827F42
:1029C00022F0E00242600BD1D9F80810B1F5004FB7
:1029D00002D0B1F5806F03D1016821F040010160A0
:1029E000D9F82810B1F5005F08D101684DF6FF72E3
:1029F00011400160016841F400510160012089F833
:102A00005100002089F85000032001B0BDE8F08398
:102A1000B0B501380024B4EB106F1CBF0120B0BD6D
:102A20004EF21005CEF2000568604FF0FF300F2126
:102A3000FFF786FD0720AC6028602046B0BD00008F
:102A400080B5FEF783FDFFF741FA80BD4EF6885052
:102A5000CEF2000001684FF0000C41F470010160FB
:102A600043F60001C4F202010A6842F001020A6062
:102A7000C1F808C00B684FF6FF72CFF6F6621A4035
:102A80000A6043F21002C2F200424A600A6822F46D
:102A900080220A60C1F80CC04FF0006140F8801C31
:102AA0007047000080B540F21040C4F20000016899
:102AB000C9071CBF50F8041C5FEAC17100D180BD7A
:102AC0006FF00101016002F011FB80BD80B540F69E
:102AD000FF3E0368C4F2000E40F2004C7045C4F2A1
:102AE000010C0FDCB0F1804F19D040F20042C4F26B
:102AF0000002904213D040F60002C4F2000290425D
:102B00000DD010E040F60042C4F20002904206D020
:102B1000604504D00022C4F20102904203D14A6809
:102B200023F07003134341F6FF72C4F20002904297
:102B30000DDC70451FDCB0F1804F41D040F2004207
:102B4000C4F2000290423BD040F6000221E043F67E
:102B5000FF72C4F20102904220DC42F20002C4F291
:102B6000000290422CD00022C4F20102904227D0F1
:102B7000604525D028E040F60042C4F200029042B1
:102B80001ED041F60002C4F20002904218D041F675
:102B90000042C4F20002904212D015E044F200025A
:102BA000C4F2010290420BD044F60002C4F20102CA
:102BB000904205D044F20042C4F20102904203D197
:102BC000CA6823F44073134303608A680B68C262C7
:102BD00040F480628362624504BF09690163012198
:102BE000416180BDB0B50D46044600F005F94FF6D1
:102BF000FF7188421EBF05F5004104EB8002C2F858
:102C00007C12C0B2B0BD000080B584B094460122F1
:102C10004FF0000ECDE90021194601220223CDF824
:102C20000CE0CDF808C000F0B5FB002004B080BD7A
:102C300010B584B09E4690F81D329446069A002442
:102C4000002B18BF22460123CDE9003103927146C3
:102C500000220223CDF808C000F09CFB002004B045
:102C600010BD000080B500F0F5FA002080BD000026
:102C700080B58278012A05D14FF4817281820021CA
:102C80000261C1820021002200F016F880BD000020
:102C900080B584B0944601224FF0000ECDE90021AA
:102CA000194601220023CDF80CE0CDF808C000F051
:102CB00071FB002004B080BD10B504468078022866
:102CC00008D0012813D1A16001200221A281207621
:102CD000A17010BD204600F0EFF8022809D00028AE
:102CE00018BF10BD0120A0700020207610BD01206B
:102CF00010BD0120A070022010BD000010B584B0EE
:102D00009E4690F81D329446069A0024002B18BF68
:102D100022460123CDE900310392714600220023AF
:102D2000CDF808C000F036FB002004B010BD000054
:102D300080B584B08C46002108230091CDE9023192
:102D4000114600220023CDF804C000F023FB002030
:102D500004B080BD80B5FEF727F880BD80B500F2D5
:102D6000432E4FF0000C06E00CF1010CBCF1020FF9
:102D70000EF11A0E12D0FF2903D01EF8020C884261
:102D8000F2D1FF2A03D01EF8010C9042ECD1FF2BA8
:102D900006D09EF800009842E6D101E04FF0FF0C0B
:102DA0005FFA8CF080BD00000A2907D800EB810093
:102DB000D0F87C126FF3DF31C0F87C12002070472E
:102DC00080B59C4683789646029A012B10D141F03B
:102DD00080010174062141742EF0FF010023A0F848
:102DE00012E0B1F5407F08BF40F209438382C282FE
:102DF0006146FFF761FF80BD002100BF00EB81024B
:102E000092F87D2212065CBFC8B270470A2901F110
:102E1000010124BF4FF6FF707047EFE702780B887F
:102E2000104413440B807047F0B581B000F11C05CD
:102E30000C4600214FF400722B4606460094FFF723
:102E4000BFFF074628B906F232202946224601F084
:102E500011F9384601B0F0BDF0B581B000F11C05A4
:102E60000C4600214FF480722B4606460094FFF773
:102E7000A7FF074628B906F508702946224601F043
:102E80005BF9384601B0F0BDF0B581B000F11C0629
:102E90001C46154601F54072002133460094FFF7A9
:102EA0008FFF074620B930462946224601F086F9B1
:102EB000384601B0F0BD0000B0B582B00446007ED7
:102EC00001380A2830D8DFE800F00631495610648E
:102ED0007784921EA000627904F110012046FFF76A
:102EE00027FF022020760125D6E0A168A289637918
:102EF000012520460095FFF701FFD4F8B802E081D4
:102F000006202076C8E06179204600F0F9F904280F
:102F100000F09780022800F09880012840F0998006
:102F20000D2020760025B7E00125B5E06179204627
:102F300000F0E6F9042800F07E80012840F07F8050
:102F4000E18A94F91000002900F09F80B0F1FF3F62
:102F5000CCBF05200320207601259DE0D4F8B802DF
:102F6000A168A2892379E0812046FFF791FE042021
:102F70002076012590E02179204600F0C1F905284E
:102F800069D0042869D0012804BF092020760125D2
:102F900082E06179204600F0B3F9013804284FF04F
:102FA000010500F27980DFE800F0036477686C00C7
:102FB0000720207601256FE023792046002100229A
:102FC000FFF766FED4F8B8020125E08108202076DC
:102FD00062E02179204600F093F9052841D00428C9
:102FE00041D0012843D10D202076002554E063799B
:102FF00001252046002100220095FFF77FFED4F82E
:10300000B802E0810A20207646E0607E0130C1B23D
:103010000229607606D8204600F0B4F9012525760D
:10302000A57039E0D4F8C42220460621904700203C
:103030000225607630E00B20207601252CE001256A
:103040002AE00B202076012526E0092020760125A4
:1030500022E0012520E003251EE00B20207601253B
:103060001AE0032518E00B202076012514E0012545
:1030700012E00520207601250EE00B2020760225A7
:103080000AE00C202076032506E0B0F1FF3FCCBF1C
:103090000720092020760125284602B0B0BD000097
:1030A000F0B583B00446407807282DD8DFE800F05B
:1030B000042E38616B76859420460821FFF7CCFEFC
:1030C00000284FF0010540F09E8094F8270294F804
:1030D0001D22217994F81C32A0716570002700929E
:1030E000029020468022019700F0B6FF94F81D025E
:1030F00094F81C326179A679CDE9000720460022B8
:10310000029600F0A9FF7EE001257CE02046122116
:10311000FFF7A2FE0125002804BF0220607072E0C4
:1031200020460121012501F03DF900286BD1022044
:10313000FFF710FE94F81D22A3790320217984F86B
:103140001C526070002600920293204680220123C8
:10315000019600F081FF94F81D0294F81C32617909
:10316000A779CDE9000620460022029700F074FFFF
:1031700049E020460921FFF757FE002804BF04203C
:10318000607001253FE0B4F834122046FFF74CFE92
:10319000002804BF05206070012534E094F82E1249
:1031A00041B304F11C022046FF23FFF76DFE002807
:1031B00004BF06206070012525E094F82F12E9B1C4
:1031C00004F11C022046FF23FFF75EFE002804BF27
:1031D00007206070012516E094F8301291B104F1D7
:1031E0001C022046FF23FFF74FFE002818BF0120D6
:1031F00003B0F0BD06206070012504E00720607078
:10320000012500E00025284603B0F0BD80B5017817
:103210000A2906D1D0F87412002908BF80BD896937
:10322000884780BD002804BF02207047B0B504461F
:1032300080F8BC220020C4E99D0020460D46FDF721
:1032400075FB2046002D18BFC4F8C45200F068F882
:103250000020B0BD80B5D0F8C002FDF797FF002078
:1032600080BD000080B5017831B10178012904BF2B
:1032700002210170002080BD012180F81E12D0F8CB
:10328000C422002AF6D004219047002080BD00000F
:1032900010B5044600F076F821792046FFF784FD4A
:1032A00061792046FFF780FD002084F81E02D4F8E3
:1032B000C42212B1204605219047204600F05AF85A
:1032C00003210020217010BD80B5C820FDF76CFDE2
:1032D000002080BD80B5D0F8C002FDF751FF80BD51
:1032E00080B5D0F8C002FDF73DFF02288CBF012059
:1032F000C0B280BD80B5084602F0D6FA80BD00009D
:1033000080B5D0F8C002FDF733FF80BD80B5D0F89E
:10331000B8120131C0F8B812FFF778FF80BD000085
:1033200080B502F09DFA002080BD000010B584B089
:10333000DDE906CE089CD0F8C002CDE900CE0294AB
:10334000FDF736FF002004B010BD000080B5D0F8B6
:10335000C002FEF7C7F8002080BD0000C0F8B81218
:103360007047000080B50846114602F0AFFA002011
:1033700080BD000080B5D0F8C002FEF7BFF8002085
:1033800080BD000080B5D0F8C002FEF7CDF8002067
:1033900080BD0000B0B584B0DDE908CEDDE90A45A6
:1033A000D0F8C002CDE900CECDE90245FDF734FFEB
:1033B000002004B0B0BD000080B5D0F8742201290F
:1033C000D26902D031B9D11D00E0911D0978FFF713
:1033D0004FFC80BD022080BDD0F8740244F2500240
:1033E000C16945F25530C4F24230C2F23002C1E93F
:1033F00015020122002081F8502081F852207047E8
:1034000070B582B00446D0F87402C66996F85000D0
:1034100001380A2817D8DFE800F006183440566350
:103420007C889EABC90006F154020220737986F8AD
:10343000611086F850000125204611461F22009594
:10344000FFF7F6FB10E101250EE171792046FFF749
:1034500057FF052800F0CC80022800F0CE8001281C
:1034600040F0CF80F06D002800F0F58096F9600004
:103470000125B0F1FF3FCCBF0520032086F85000A6
:10348000F2E0D6F88C10728933792046FFF7BCFB46
:10349000042086F850000125E6E031792046FFF748
:1034A0002FFF052800F08C80012840F08E80F06D01
:1034B0007289904240F2B380D6F88C10801A114481
:1034C000C6F88C10ACE0D6F88C10328973790125DF
:1034D00020460095FFF7ACFB062086F85000C3E0BD
:1034E00071792046FFF70CFF052800F08C80022838
:1034F00000F08E80012840F09080F06D328990427B
:1035000040F29880D6F88C10801A1144C6F88C10BE
:1035100091E0337906F1780120460D22FFF774FB24
:10352000082086F8500001259EE031792046FFF7FB
:10353000E7FE05284BD001284ED1012086F8500027
:1035400086F85200204600F0E3F8002818BF01205A
:10355000400002B070BD20460021FFF72DFF042877
:103560003CD0002804BF072086F8500001257BE0EE
:10357000204601210125FFF71FFF042833D0002832
:1035800072D171792046FFF7B5FE7179C0F1010063
:10359000C2B22046FFF7E6FE317920460022FFF74F
:1035A000E1FE092086F8500001255DE0204600F08C
:1035B0006DF80546002804BF012086F8500053E04E
:1035C000092086F8500001254EE001254CE0092035
:1035D00086F85000012547E0012545E00B2086F8DC
:1035E0005000012540E00B2086F8500001253BE00B
:1035F0000A2086F85000012536E0012586F8505053
:1036000032E0012530E00A2086F8500001252BE049
:10361000052086F85000012526E0012524E0002041
:10362000F06598B1D6F88C1033792046FFF7ECFAA4
:10363000012519E00020F06590B1D6F88C1073795F
:10364000012520460095FFF7F3FA0DE0072086F8E4
:103650005000012508E0072086F85000012503E00E
:10366000072086F850000125284602B070BD0000F2
:1036700080B54FF6A16202820022C0F8122001221A
:10368000C2820122FFF718FB80BD000080B54FF613
:10369000217101820021C0F81210C1820021002294
:1036A000FFF70AFB80BD000070B5D0F87412CC693A
:1036B000A17B19B1032920D0022922D12146FFF78D
:1036C000D7FF032804BF00202060002818BF70BD6A
:1036D00021784FF0000C4A1C22604FF0340E022279
:1036E00000250023013305FB0E46DDB2A94286F812
:1036F000922086F8C1C0F5D270BD0021FFF7B8FA5C
:1037000008B1012070BDE07BA073012070BD0000F6
:1037100010B5D0F87412CC692179FFF7DBFD0D28C4
:1037200013D1A06F45F25531C5F2423188420CD118
:10373000A06DE16F81424FF0010018BF10BD94F8F9
:103740008410032938BF084610BD022010BD0000B8
:10375000B0B5D0F87432DB6900780A281CBF0220AB
:10376000B0BD342011FB0030D0F8A44000F1980522
:10377000D0E924CE2ACD546102F108042AC4C2E95A
:1037800000CED0E92ACED0E92C54D0E92E31C2E9BE
:103790000854C2E90A31C2E906CED0F8C00010636D
:1037A0000020B0BDB0B50446D0F87402C56969798F
:1037B00041B12046FFF756FA69792046FFF7F4FA3F
:1037C00000206871297941B12046FFF74BFA297929
:1037D0002046FFF7E9FA00202871D4F87402C06986
:1037E00028B1FCF7A0FDD4F874020021C1610020CB
:1037F000B0BD00002DE9F04184B00446D0F8740259
:103800000622017920465023FFF7A8FAFF2869D045
:103810000146204600F0BCFD4FF48070FCF754FDDB
:10382000054694F81F021A2110FB014292F9481232
:10383000D4F87432B1F1FF3FDD61B2F84A22C7BF5C
:10384000A9712A81E9716A811A2110FB014191F95C
:103850005002B1F85212B0F1FF3FC7BFA8712981E1
:10386000E8716981A97900262046C5F8F860AE8123
:10387000AE73FFF7B7F9E97968712046FFF7B2F93F
:1038800028712046FFF7A8FD05F190006821FCF79C
:10389000BBFE94F81D026979AA7994F81C32B5F838
:1038A00008C04FF00208CDE900082046CDF808C056
:1038B00000F0D2FB94F81D022979EA7994F81C32C1
:1038C0006F89CDE900082046029700F0C5FB2979F1
:1038D00020460022FFF746FD697920460022FFF7C7
:1038E00041FD00E00226304604B0BDE8F081000052
:1038F000F0B581B00546D0F87402C669307B012866
:1039000038D0002838D1B6F8F8003168814235D96E
:10391000342100FB0161012411F8902F082A4C701A
:1039200036D8DFE802F0053538580B753535A1007B
:1039300004220A70D5F8B812C6F8FC10342400FB33
:10394000046101F19F02C1B2284600F099F90428F0
:1039500000F08F80022800F09680002840F09D80C3
:10396000B6F8F800342100FB0160022180F89010C5
:1039700001240DE000240BE0012409E00020D5F82B
:10398000C422A6F8F8000124284602213473904787
:10399000204601B0F0BDC1B2284600F095FA0428D7
:1039A0007DD0022800F08680002840F09880B6F88C
:1039B000F800342100FB0160012490F892100029E6
:1039C00018BF012180F8C1100321A0F89010002138
:1039D00080F89210DCE7342400FB046101F19402CA
:1039E000C1B2284600F0F0F904287AD0022800F08D
:1039F0008280002840F08980B6F8F800342100FB6E
:103A0000016101240130A1F89040A6F8F800BFE759
:103A1000342700FB076101F19C02C1B2284600F087
:103A20000FFA042800F08A8002287DD000286ED189
:103A3000B6F8F810342201FB026292F89C3043F091
:103A40000403062B65D1D5F8B832D6F8FC505B1BC1
:103A500042F20F75AB425CD8342001FB00600221BA
:103A600080F89010012493E70130A6F8F8000124B3
:103A70008EE7B6F8F80040F2012100FB0460012453
:103A8000A0F8901084E7B6F8F800342100FB01603C
:103A9000052180F8901001247AE7012478E7B6F830
:103AA000F800342100FB016040F20121A0F89010E1
:103AB00001246DE7B6F8F800342100FB0160012411
:103AC00090F89210023918BF012180F8C11040F21D
:103AD0000511A0F89010022180F8921058E70124F7
:103AE00056E7B6F8F80040F2012100FB046001241B
:103AF000A0F890104CE7B6F8F800342100FB016004
:103B0000052180F89010012442E7012440E70124B8
:103B10003EE701240131042882F89040A6F8F8100D
:103B20000CD002287FF434AFB6F8F800342100FB43
:103B30000160082180F89010012429E7B6F8F80008
:103B400040F2012100FB07600124A0F890101FE75C
:103B500070B582B0D0F874220C46D669342114FBBB
:103B60000162154615F8901F052910D0072925D0A8
:103B700006293BD10026214600220023009600F0B2
:103B8000DFF804282BD002282ED078BB22E09C320C
:103B9000214600F055F9014600284FF0010006D1FA
:103BA0002870342014FB0062022082F8910004295E
:103BB00002BF08202870022002B070BD00262146F6
:103BC00000220023009600F0A5F9042807D002285F
:103BD0000AD058B901202870002002B070BD08201A
:103BE0002870022002B070BD05202870012002B0AC
:103BF00070BD00002DE9F04182B00446D0F8740297
:103C0000D0F81C8094F81E0270B320780A282BD1BB
:103C1000342011FB00800D4610F8901F012923D19C
:103C2000089E062188F80C10017020462946A8F845
:103C3000FA50009600F084F8D4F8B87242F210708E
:103C4000464300BF20462946FFF782FF01280FD1D7
:103C5000D4F8B802C01BB04203D894F81E02002862
:103C6000F0D1012088F80C00022002B0BDE8F081FC
:103C7000012088F80C00002002B0BDE8F0810000AF
:103C800070B5D0F87432DE6996F85230022B26D027
:103C9000012B2BD1802386F860300A2306F1100017
:103CA00086F862300023490101242422C6F86330DB
:103CB000C6F86730A6F86B30122586F8641002212A
:103CC000C6F88C002046F26586F86350A6F8653089
:103CD000A6F8672086F8504086F8521070BD154649
:103CE000FFF78EFB044620B1204670BD022420461B
:103CF00070BD28462221FCF765FCD6F88C000178BF
:103D000001F01F0169700178490929704178C909DA
:103D1000A970C1688068C5F80710C5F80300D6F817
:103D20008C0001694269C3698069AB6168612A617D
:103D3000E960D6F88C00006AC5F81D00204670BD09
:103D400070B5D0F874C2DCF81CC09CF852E0BEF12B
:103D5000020F34D0BEF1010F34D1DDF810E0100EA7
:103D60004FEA4E26CCF85C6080268CF860600A260C
:103D70004FEA1E218CF862600026140C150ACCF85C
:103D80006360CCF86760CCF86B60CCF86F60282675
:103D90008CF865008CF86A10012002218CF86360B1
:103DA0008CF866408CF867508CF868208CF86BE0D3
:103DB0008CF850008CF85210CCF88C3070BDFFF7A6
:103DC0001FFB70BD022070BDB0B5D0F87432DD6944
:103DD00095F85230022B20D0012B2ED10820E86517
:103DE000802085F860000A2085F862000020C5F870
:103DF0006300C5F86700C5F86B00C5F86F002520A3
:103E000005F1100185F863000120022285F85000B9
:103E100085F85220C5F88C10B0BD1446FFF7F0FAB3
:103E2000002818BFB0BDD5F88C100A6812BA2260FD
:103E3000C98809BA090CA180B0BD0120B0BD00003D
:103E4000B0B5D0F87432DD6995F85230022B27D026
:103E5000012B36D1802385F860300A230E2085F8A7
:103E600062300023490105F11002E865C5F86330AE
:103E7000C5F86730C5F86B30C5F86F30032485F896
:103E80006410A5F867000120022185F86340A5F8B9
:103E9000653085F8500085F85210C5F88C20B0BD0B
:103EA0001446FFF7ADFA002818BFB0BDD5F88C1046
:103EB0008A7802F00F0222700A7B6270497BA1703F
:103EC000B0BD0220B0BD000080B5D0F87422D26928
:103ED00092F85230022B17D0012B18D100200A2162
:103EE000D06582F8600082F86210C2F86300C2F800
:103EF0006700C2F86B00C2F86F000120022182F84F
:103F0000500082F8521080BDFFF77AFA80BD02207F
:103F100080BD0000F0B581B0D0F874C2DCF81CC0E0
:103F20009CF852E0BEF1020F34D0BEF1010F35D142
:103F3000DDF818E0100E4FEA4E264FEA1E21CCF8AD
:103F40005C600026140C150A8CF860600A27CCF817
:103F50006360CCF86760CCF86B60CCF86F602A26A1
:103F60008CF865008CF86A10012002218CF86270D0
:103F70008CF863608CF866408CF867508CF8682089
:103F80008CF86BE08CF850008CF85210CCF88C3028
:103F900001B0F0BDFFF734FA01B0F0BD022001B06E
:103FA000F0BD000000207047D0F87422D26900787C
:103FB0000A281CBF00207047342011FB002090F815
:103FC0009100B0FA80F04009704700002DE9F041FF
:103FD00082B00446D0F87402D0F81C8094F81E0217
:103FE00070B320780A282BD1342011FB00800D46B5
:103FF00010F8901F012923D1089E072188F80C1082
:10400000017020462946A8F8FA500096FFF782FF73
:10401000D4F8B87242F21070464300BF20462946D9
:10402000FFF796FD01280FD1D4F8B802C01BB042AB
:1040300003D894F81E020028F0D1012088F80C0063
:10404000022002B0BDE8F081012088F80C000020B9
:1040500002B0BDE8F081000010B584B0DDE906CE05
:10406000089CCDE900CE0294FFF760F9002004B06F
:1040700010BD00002DE9F04F81B00D4609780446CF
:10408000017068780A2A60706888608028792071D9
:1040900068796071A879A071E879E071287A207256
:1040A00046D3092000260DF1020A4FF00009ADF8B1
:1040B000020005E009F101094FFA89F6022E37DA0C
:1040C000BDF802006188884232D228465146FEF788
:1040D000A5FE054640780428EED11A2006FB004BC9
:1040E00029460BF10A0000F055F85F4617F80E0F4D
:1040F0000028DFD04FF00008002604E038784FFA9F
:1041000086F88045D6DABDF8020061888842D1D2AF
:1041100028465146FEF782FE054640780528EDD137
:104120000BEBC8001430294600F026F80136E5E70D
:1041300001B0BDE8F08F00000B78092A03704B78BE
:1041400043704B8843800B7903714B7943718B79B2
:104150008371CB79C37138BF70470A8902814A895C
:1041600042818A8982818A7B8273CA7BC2730A7C7C
:104170000274497C417470470A7802704A78427030
:104180008A788270CA78C2708A88828089798171BF
:10419000704700000A7802704A7842708A7882700C
:1041A000CA78C2700A7902714A7942718A79827139
:1041B000CA79C271097A0172704700004378032BF3
:1041C00018BF704710F8023B023B9342C8BF13462A
:1041D0001FFA83FCBCF1000F0AD00139002300BF95
:1041E000C25C02339BB2634501F8012FF8D3013161
:1041F000002008707047000070B584B004460220AB
:104200008DF80F0020780A2800F2B180DFE800F076
:1042100006AF1444AF5262717A839B0094F81E0279
:10422000002800F0A48001202070C820FEF792FD35
:104230002046FFF78BF89AE06420FEF78BFD2046BE
:10424000FFF74EF884F81D0205202070204600215B
:104250000026FEF7C7FC607120468021FEF7C2FCF5
:10426000014694F81D0294F81C32A5792171CDE91C
:104270000006204680220295FFF7EEFE94F81D020C
:1042800094F81C326179A579CDE900062046002218
:104290000295FFF7E1FE6AE02046FCF747FBD4F801
:1042A0007402002863D0C168204688470020C4F803
:1042B00074025CE02046FEF7F3FE002857D194F824
:1042C00031020021012884F81F1214BF07200820A2
:1042D00020704CE0D4F87402E0B3016920468847AE
:1042E0008DF80F009DF80F00002840D10A202070A3
:1042F0003DE0D4F8C422D2B32046012190470820E3
:10430000207034E094F83712204600F05BF870BB60
:10431000092020702BE0D4F8780240B3D4F8701252
:1043200094F841220B7900209342C4F8740208BF2C
:104330000846C4F8740280B181682046884778B185
:104340000C20207013E0D4F8740280B1416920463B
:1043500088470CE00C20207009E00C20207006E05B
:1043600006202070D4F8C422204603219047002064
:1043700004B070BD11B1D0F878220AB102207047A4
:104380000122C0F87822C0F87012002070470000A7
:1043900090F836228A4292BF022080F81F12002035
:1043A0007047000080B58278012A05D14FF4A062E1
:1043B000418200210282416100210022FEF77CFC43
:1043C00080BD000080B58278012A05D14FF41062CB
:1043D000418200210282416100210022FEF76CFC33
:1043E00080BD000010B50446FEF7C4FF2046012141
:1043F000FEF76AFF002010BDB0B50699049D0129A3
:1044000004461BD1A06B4FF6BF7120F48030A0632F
:10441000E068CFF6BD710840E060E0680D9920F4D7
:1044200040100129E06003D1E06840F48010E060B2
:10443000204600F019F8012D14D10BE0E06840F09F
:104440004000E060204600F00FF84FF48030A06399
:10445000012D07D1A06840F00600A060A06840F0E0
:104460002000A0600020B0BD40F64151C0F2030121
:104470000A4600BF013A08BF70470369B3F1FF3F26
:10448000F8DC026942F00102026100BF01391CBF81
:1044900002695FEAC272F9D1704700000146806884
:1044A00020F0010200208A607047000000EB4111FB
:1044B0000020C8F20800C1F81005D1F8002502203C
:1044C00060F39F720020C1F80025704781B0D0F8DA
:1044D000402401290092009A22F02E020092009AB4
:1044E00008BF12F4805204D1009A42F48052C0F8FE
:1044F0004024009A39B912F4805104D0009921F473
:104500008051C0F84014002001B070470146806817
:1045100040F0010200208A60704700001021016114
:1045200040F64151C0F20301013904BF0320704736
:104530000269D2065CBF00207047F5E7890120318F
:10454000016140F64151C0F2030100BF013904BFCF
:1045500003207047026992065CBF00207047F5E7B0
:10456000D0F8080480B2704781B0D0F840040090C1
:104570000098C0F3414001B070470000406900F06E
:104580000100704700F5A0624901535813F4402F11
:1045900005D08B5803F44023B3F5002F0DD18B5871
:1045A00043F080438B50C36A885813F47F0F11D0B7
:1045B00040F000408850002070478B5843F0804303
:1045C0008B50D0F8103488581B0413D040F00040B2
:1045D00088501EE020F000408850885840F000408D
:1045E000885040F2E93000BF013812D08B58002BC0
:1045F000FAD40EE020F000408850885840F0004087
:10460000885040F2E93000BF013802D08B58002BAF
:10461000FAD4002070470000F0B5DDE9055E079C84
:1046200000EB411606F5A06C4FF0FF37BEF1030F0B
:10463000C6F808752ED8DFE80EF00212021F57B236
:1046400040F29D46B7F1FF3FCCF80C601CDDB0F1A5
:10465000A04F1FD0DCF80C6046F0600618E057B29F
:1046600040F22526B7F1FF3FCCF80C6012DCDCF8F5
:104670000C6046F4C0760BE057B240F29D66B7F18D
:10468000FF3FCCF80C6005DCDCF80C6046F480766B
:10469000CCF80C600126D0F8187406FA01F1394301
:1046A000C0F818148169022D41F0007181614FF446
:1046B000F04101EAC22102F0800203F07F0041EAEA
:1046C000022141EA80500EF0030308BF00F50030DC
:1046D0006FF3DF2440EA83402043BEF1030FCCF8A0
:1046E000000005D1DCF8000040F00050CCF80000DC
:1046F0000020F0BDD0F8140480B27047F0B581B04E
:10470000B0F1A04F18D00B79B3B9012A09D09AB9EA
:104710004B79012B03D14978FFF7C8FE82E0012ACB
:104720000AD14B7800EB4313D3F80C4524F0600416
:10473000C3F80C4500234B710B697BB1B1F808C07D
:104740006344013BB3FBFCF39CB2B4F5807F82BFB2
:104750004FEA0C230B614FF4807300E00123CE7805
:104760001EB10C899DB265430D61D1F810E00024A3
:10477000C1F6F874754604EAC3438C7A6FF3DF45DB
:1047800091F801C02B4404F0030443EA447400EBA5
:104790004C15C5F8104505F5A063002A1CBFCC6870
:1047A0005C61D0F808441D68324325F000551D6057
:1047B0004FF000551F6825EA447444EA07041C6062
:1047C0001C684FF0020565F39F741C602AD1BEF18E
:1047D000000F27D0CA79032A1CD8DFE802F0020EA6
:1047E000020EC36A0EF10302C2F38F029BB29A4219
:1047F00010D9826942F020020BE0D0F810340EF19B
:104800000302C2F38F029BB29A4203D9826942F03B
:1048100080628261C96800241FFA8EF362460094A8
:1048200000F01AF9002001B0F0BD000070B50026BC
:10483000C0F8006E0446806B032B20F48020A06338
:10484000A06B154620F40020A063A06B40F400107C
:10485000A063D4F8000420F00400014608BF04312E
:10486000B4F1A04F08BF0146C4F80014204610213F
:10487000FFF764FE2046FFF751FE4DB104F5A0603E
:104880004FF0FF318160C660013D00F12000F9D199
:10489000049D20460121FFF719FEC820FCF784FA89
:1048A0004FF0FF30B4F1A04FA66160611AD04FF411
:1048B0000070606240F20020C0F20010A06240F27E
:1048C0000030C0F2E000C4F800011DB9A06940F05A
:1048D0001000A061A0690821CAF220310143002024
:1048E000A16170BD2420C5F20000802101608021FB
:1048F000C0F260014160E021C0F24001C0F8DC106C
:10490000002DE7D1E2E70000D0F8002401F0030316
:1049100022F00302C0F80024D0F80024012942EA62
:104920000302C0F8002404D0022906D141F27071BC
:1049300001E04BF68031C0F80414002070470000FD
:10494000416980690840704703320023B3EB920F3E
:104950000BD0920804394FF4805C00BF50F80C3043
:10496000013A41F8043FF9D104310846704700008C
:1049700010B582B00446D0F840040190019820F0B0
:104980002E000190019840F48070C4F840040A2081
:10499000FCF70AFA019820F480710020C4F8401452
:1049A00002B010BD80B5C268012922F0C042C260C9
:1049B00003D039B94FF0804101E04FF00051C26897
:1049C0001143C1603220FCF7EFF9002080BD0000E8
:1049D0002DE9F04147F6FF758046C3F6FF75FFF7F6
:1049E0005DFD40461021FFF7A9FD4046FFF796FD0B
:1049F00008F5A060002100BF42582A4002F1804221
:104A000042502031B1F5007FF6D1002140F2E93269
:104A1000002303E033460131102911D04C0106591F
:104A20002E4006F1404606515E1C964298BF16463F
:104A30000133B3F57A7FEDD82758002FF8D4EAE791
:104A40004FF0FF30C8F81404C8F814004046FFF7D0
:104A50005DFD0020BDE8F081DDF800C0BCF1000F75
:104A600012D103F1030C0023B3EB9C0F0CD04FEADF
:104A70009C0300F5805C1203043900BF51F8040F59
:104A8000013B42F80C00F9D10020704780B501F0DD
:104A9000BDFE80BD10B58EB0032910D80346144664
:104AA000DFE801F032020F1A47F20C00C2F20000F8
:104AB00001AA1946FEF74CFEC8B1012124E00421E9
:104AC00022E047F20C00C2F2000001AA1946FEF7EC
:104AD0003FFE80B1012117E047F20C00C2F2000056
:104AE00001AA1946FEF734FE50B101210CE00298EC
:104AF0000021206008E0BDF80C000021206003E0E8
:104B0000BDF80C000021206008460EB010BD00006A
:104B100010B58EB0044647F20C009C460B46C2F21C
:104B200000002146CDF800C0FFF750FA90B147F2DF
:104B30000C00C2F2000001AA2146FEF709FE9DF812
:104B40001100272809DC04280BD027280CD10220CB
:104B50000EB010BD00200EB010BD3A2801D028289C
:104B600002D103200EB010BD01200EB010BD000018
:104B700080B5014647F20C00C2F20000FFF714FABC
:104B8000B0FA80F0400980BD002070472DE9F04167
:104B90002DED048BADF5806D00F060FF4EF20C4002
:104BA000C0F6000000F046FE50B3044600EE104A86
:104BB000002547F29058B8EEC08AC0F602056E464E
:104BC000B7EE009AC2F200084FF48060314600F060
:104BD0000DFE0746284631463A4600F05BFFE41BCF
:104BE00000EE104AB8EEC00A80EE080AD8F80000BD
:104BF0003D4400F2844039EE400A80ED000AE3D1E2
:104C000000F00CFE0DF5806DBDEC048BBDE8F0816D
:104C100010B58EB0044647F20C009C460B46C2F21B
:104C200000002146CDF800C0FEF7E4FF80B147F256
:104C30000C00C2F2000001AA2146FEF789FD9DF892
:104C400011100320042918BF282904D10EB010BD6B
:104C500000200EB010BD3A2918BF01200EB010BDC3
:104C6000F0B585B040F27F06C2F2000604AF0D46F3
:104C700004463846314600F093FF4FF491702146C8
:104C800019221423009701F0B7FA03AF38463146D2
:104C900000F086FF4FF4917021461B2213230095EC
:104CA000019701F065FB05B0F0BD000070B5ADF5F2
:104CB000963D6C46204600F07FFB47F2080C40F220
:104CC000A40E0020C2F2000CC2F2000E06E000BFEB
:104CD0000130B0F5A07F04F1F00412D0002302E00F
:104CE0000133F02BF4D0E15C0029F9D0DCF800109E
:104CF0000EEB81022EF8210001319370CCF80010E8
:104D0000EEE70DF5963D70BD0168002905D40E292A
:104D1000B8BF70470D2101607047002101607047E6
:104D20002DE9F04780465C2001F54675088028464D
:104D30000E4602F0B3FC00281CBF0020BDE8F0873F
:104D400006F5007A2846514602F0B8FD40B100262B
:104D5000284688F8006002F01BFB3046BDE8F0876B
:104D600000244FF00109002716E000BFE7B1B0FAB8
:104D700080F196F8082249090C4302F010012E3800
:104D800089EA111118BF01200840074428465146FE
:104D900002F094FD0028DAD196F816020028E5D139
:104DA000E107E3D0D3E700BF96F80812C906DED4C6
:104DB00006F216214046FBF762FB0120BDE8F087B2
:104DC00046F60870C2F20000A0F108014FF0FF3073
:104DD000102200BF51F8103F834238BF1846013AF5
:104DE000F8D170472DE9F04381B02DED068BADF57C
:104DF000727D47F27250C2F20000017847F274549B
:104E0000C2F2000421B901210170FCF793F920607E
:104E1000FCF790F921689FED3E1A401A00EE100A47
:104E2000B8EE409A89EE010AB2EE0C1AF1A820EE13
:104E3000010ABDEEC00A8DEDF10AFFF765FF9DF88E
:104E4000C4030230C1B2F0A800F0AEFE01F092FB44
:104E50009FED300AB0EE081A89EE000A6C46261F54
:104E60000025B1EE04AA20EE010A30EE018A9FED82
:104E70002B1AB5EE408A29EE019A9FED270AF1EE32
:104E800010FAB8BFB0EE408A00EE105AB8EEC00A71
:104E900080EE0A0A39EE000A03F08AFC28EE000AC6
:104EA000013586ED010A0436F02DEDD147F20805F3
:104EB000C2F200052868012822DB40F2A407002680
:104EC000C2F2000704E000BF28680136864217DA04
:104ED00007EB86008178481EED28F5D804EB8100A9
:104EE00090ED000A37F82600BDEEC00A10EE102A39
:104EF0001044421E52089E2AE6D801F06BFBE3E7FD
:104F00000DF5727DBDEC068B01B0BDE8F08300BFEE
:104F10000000FA4400007AC400000000CDCC4C3DF3
:104F200080B586B048F62430C0F6000090E80E1038
:104F300000690DF1040E059041F600008EE80E1098
:104F4000C4F2020001A9FCF725F806B080BD0000FC
:104F5000B0B504468138112810D8FCF7EBF847F2B9
:104F60007855C2F200052968401A652806D304F076
:104F70007F04FCF7DFF828602046B0BD00242046FF
:104F8000B0BD000070B588B047F29056C2F200067E
:104F9000316801EE100A01F58F6090ED010AB8EE5C
:104FA000411A81EE001A90ED002AB5EE400AF1EEAA
:104FB00010FA32EE012A80ED002A06DD9FED383A24
:104FC000B4EE432AF1EE10FA09DCB5EE400AF1EE38
:104FD00010FA0CDAB5EE402AF1EE10FA07DAB1EE6B
:104FE000400A32EE411A80ED001A80ED010A40F2CB
:104FF0007E0107ACC2F20001204600F0D1FD29A0DD
:1050000000900A2032214FF496720A23019401F095
:10501000AFF940F27F04C2F2000406AD28462146F3
:1050200000F0BEFD24A000900A2041214FF49672AA
:105030000A23019501F09CF905AD2846214600F0B0
:10504000AFFD26A000900A2050214FF496720A234B
:10505000019501F08DF904AD2846214600F0A0FD30
:105060000A20C8214FF496721423009501F0C4F869
:10507000306803AE00F58F6090ED000A3046BDEE5B
:10508000C00A214610EE105A00F08AFD0A20C821FD
:105090002A461423009601F037F808B070BD00BF0F
:1050A00000009643CEE1EDE0F0F3E6E5ED20555348
:1050B000422DE4E8F1EA2E00C8E4B8F220EFEEE871
:1050C000F1EA20EFF0EEE3F0E0ECECEDEEE3EE20C1
:1050D000EEE1E5F1EFE5F7E5EDE8FF00CFEEE4EE18
:1050E000E6E4E8F2E52E2E2E000000002DE9F04760
:1050F000FCF720F88246FFF763FE504588BFBDE805
:10510000F08700F071F946F608790025C2F200092F
:105110004FF0FF3805E0C7F8008000BF0135102DC3
:1051200017D009EB0516374657F8080F5045F5D844
:10513000280159F800008047307B0028EBD0043666
:10514000306839680C183C60FBF7F4FF8442F7D3F1
:10515000E4E7FFF735FE00F075F9BDE8F0870000E1
:105160002DE9F04101F5007701F546750E468046C0
:105170002846394602F0A2FB40B10026284688F8AE
:10518000006002F005F93046BDE8F081002405E03A
:105190002846394602F092FB0028EED196F8160216
:1051A00040B12E28F4D096F8080210F01000EFD18C
:1051B00004E000BFE007E0D10124E9E706F2162190
:1051C0004046FBF75CF90120BDE8F081B0B540F244
:1051D000840CC2F2000CDCF8003040F2880E8B42E6
:1051E00047F27C53C2F2000EC2F2000303D1DEF894
:1051F000004084420ED040F29004C2F200042468C1
:1052000000EBC0052C440C446479CEF800001C70FF
:10521000CCF800101878D04000F00100B0BD0000BC
:1052200040F28C03C2F200031A68824247F28052B5
:10523000C2F200020AD0186040F29003C2F20003EA
:105240001B6800EBC0001844053010601068405C1B
:10525000002818BF012070474EF60C50BFF34F8F47
:10526000CEF200000168042201F4E061C0F2FA52BB
:1052700011430160BFF34F8F00BFFDE780B50429E4
:1052800010D0022918BF80BD47F29050C2F2000032
:105290000068D0F870140131C0F87014012180F852
:1052A000381280BD47F29050C2F200000068002220
:1052B000D0F86C140131C0F86C14012180F8881406
:1052C0004EF27A41C0F60001002002F075F880BD70
:1052D0002DE9F04F85B040F29003C2F200031F6841
:1052E00001EBC1033B448B46396893F904300090CD
:1052F00001930B06012B57DB01980026C0F1080033
:10530000049048B20290C0F14F0400984FF0010998
:10531000C0EB001002EB0010204403900AE000BF35
:10532000029801368642039804F1090400F109004D
:10533000039039DA58463146FFF772FF0028EFD064
:1053400001980128ECDBDDF80C80DDF800A00727D0
:1053500009E000BF04980AF1090A8742A7F1010792
:1053600008F50768DCDD584631463A46FFF72EFF60
:105370000028EFD00020414605E000BF0130092899
:1053800001F1F001E6D000EB0A02002303E000BFC8
:105390000133092BF2D09509042DF9D8E518EF2D2A
:1053A00098BF01F80390F3E70198009900EBC00063
:1053B000084405B0BDE8F08F70B54FF4963104464F
:1053C000FBF700F94EF23C40C0F60000451E1F20DE
:1053D000052600BF15F8011F2246FFF779FF013EA1
:1053E00000F10900F6D170BD80B546F6CC60C2F27E
:1053F000000001F0E7F980BD10B5014600780028F3
:1054000008BF10BD4C1E00BFFBF72CF804F8010FBD
:1054100060780028F8D110BDB0B50446FFF7D0FC85
:105420000546FBF787FE46F60871C2F2000101EB64
:1054300004114A681044A842886038BF00F002F89E
:10544000B0BD000010B50446FFF7CEFF601C08BFDA
:1054500010BDFBF76FFE201A4FF0FF3101EB40014A
:1054600046F6CC60C2F2000001F0B0F910BD0000B9
:1054700080B500F0B7F800F055F900F0B9FB80BD39
:1054800081B0002143F630000091C4F202000268AE
:1054900042F001020260026802F001020092009AEA
:1054A0000091026842F002020260026802F0020209
:1054B0000092009A0091026842F0040202600268C1
:1054C00002F004020092009A0091026842F0080281
:1054D0000260026802F008020092009A00910268DD
:1054E00042F010020260026802F010020092009A7C
:1054F0000091026842F020020260026802F020027D
:105500000092009A0091026842F040020260026834
:1055100002F040020092009A0091426942F48052E7
:105520004261426902F480520092009A00918268BE
:1055300042F001028260826802F001020092009A49
:10554000426842F0800242600091426942F4804227
:105550004261426902F480420092009A009102681E
:1055600042F400120260026802F400120092009AF3
:105570000091026942F020020261026902F02002F9
:105580000092009A0091026942F0005202610269A1
:1055900002F000520092009A0091026942F080529B
:1055A0000261026902F080520092009A0091416902
:1055B00041F480414161406900F4804000900098CE
:1055C00001B0704780B500F0A9FBFFF759FFFFF766
:1055D0004FFF362002210022FCF72EF83620FCF780
:1055E00027F880BDF0B5B5B048F63830C0F60000F9
:1055F00090E81E00006940F600450DF1C00CC4F2B1
:1056000002058CE81E00349030A92846FBF7C2FC46
:1056100048F64C30C0F6000090E81E0000690DF11D
:10562000AC0C8CE81E002F902BA92846FBF7B2FC8F
:1056300048F66030C0F6000090E81E0000690DF1E9
:10564000980C8CE81E002A9005F5806026A9FBF7CF
:10565000A1FC48F67430C0F6000090E81E00006916
:105660000DF1840C8CE81E00259005F5006021A941
:10567000FBF790FC48F68830C0F6000090E81E006A
:1056800000690DF1700C8CE81E00209005F540605B
:105690001CA9FBF77FFC08AF38465021FAF7B4FF8E
:1056A0004FF02040089040F20410CAF20000099028
:1056B00008200C9010200D904FF48050119048F667
:1056C0009C30C0F6000090E82E00D0E904468069C6
:1056D0000DF1040C8CE82E0001A9079038460A460B
:1056E000CDE90546FCF7BEFB35B0F0BD46F68E6051
:1056F000C2F200000078704780B540F22400C2F288
:105700000000FCF7FBF980BD48B180B5FFF720FC35
:1057100046F68E61C2F200010870BDE880400120AB
:1057200070470000F0B58BB048F6B830C0F6000006
:1057300090E84E00006940F200440DF1180CC4F2EC
:10574000020406AD8CE84E000A90A4F5806029465C
:10575000FBF720FC2020069020462946FBF71AFC88
:1057600040F22400C2F20000FCF740FA232004219A
:1057700000220026FBF760FF2320FBF759FF48F6C5
:10578000CC30C0F6000090E82E0000690DF1040C4A
:105790008CE82E0001AD059020462946FBF7FAFB68
:1057A0001720032100220327FBF746FF1720FBF7F2
:1057B0003FFF4FF4805001900120029004F5A0506B
:1057C0002946CDE90476FBF7E5FB0BB0F0BD000000
:1057D00080B52320FBF728FF1720FBF725FF80BDAE
:1057E00080B5FFF7F5FFFBF7C9FA80BD80B582B041
:1057F00047F29053C2F200031B680246002001905A
:1058000003F50F7001AB01F099FF0199002818BF53
:105810004FF0FF31084602B080BD000080B547F26E
:105820009050C2F20000006800F50F7001F098FD82
:1058300080BD000010B547F29054C2F20004226807
:10584000014602F50F70012201F0E8FD00281CBF9F
:105850004FF0FF3010BD2068D0F8480210BD0000A6
:10586000B0B547F2D4250446C2F200054FF0A0407F
:10587000286003200B210022C5E902100220C5E99F
:10588000060228462A612A62EA626A63C5F89442DF
:10589000C4F8C052FBF7D4FD2846FBF75DFC014677
:1058A0002046FDF75BFDB0BD47F2D42100EB800040
:1058B000C2F2000101EBC00090F83B1000F1500271
:1058C000002908BF00F151021078704747F2D42236
:1058D00000EB8000C2F2000202EBC00090F83B2017
:1058E000002A0CBF80F8511080F85010704700005B
:1058F00010B586B048F6E030C0F6000090E81E0013
:1059000000690DF1040C8CE81E000590002443F69C
:1059100044000094C4F20200016841F48041016037
:10592000006801A900F480400090009803200490D2
:105930004FF4D05001900A2005900020C4F20200DC
:10594000FBF728FB432006210022FBF775FE4320CE
:10595000FBF76EFE47F29050C2F20000006880F83C
:105960003842C0F86C44C0F8704400F50D7148F638
:105970009450C0F60000FAF7FBFF08B106B010BD66
:1059800047F20C04C2F2000445F27D21C0F600018A
:1059900020460022FDF746FC40F20401C2F200015D
:1059A0002046FEF7E7FC2046FEF71CFD06B010BDC2
:1059B00010B547F20C00C2F20000FEF71DFC47F2E2
:1059C0009054C2F20004206890F83812012909D1DD
:1059D00000F50D71002201F0EFFC28B120680221D2
:1059E00080F88814002010BD012010BDF0B5ADF284
:1059F0004C5D01460DF24E30FAF741FDFFF7FCFC1D
:105A00000DF24D406946FFF78BF9F8B10DF24D44A8
:105A10002046FFF7F1FC0DF24E302146FAF71CFE4E
:105A2000B0B10DF24D456E460DF24E372846314667
:105A3000FFF796FB044660B12846FFF7DDFC3846C9
:105A40002946FAF709FE0028F0D102E0002400E020
:105A5000012420460DF24C5DF0BD000080B586B0FB
:105A600043F60C40C4F20200F3210160FBF75AFA3E
:105A70000521039103210020049102210190059149
:105A8000009001A86946FBF7A3F9FBF7FDF906B002
:105A900080BD0000F0B581B0044643F60C400E46D0
:105AA000C4F20200F32115460160FBF73BFAA80798
:105AB0000ED0012D1FDB013E16F8012F00202146DC
:105AC0000023671CFBF7EAF9013D3C46F4D112E0E4
:105AD000042D10DBE81705EB90708510043E00BF25
