:020000040000fa
:04005c004c03000051
:020000040000fa
:040010004c0300009d
:020000040000fa
:04025c004c0300004f
:020000040000fa
:040210004c0300009b
:020000040000fa
:040274004c03000037
:020000040000fa
:040334004c03000076
:020000040000fa
:04035c004c0300004e
:020000040000fa
:040270004c0300003b
:020000040000fa
:0403b8004c030000f2
:020000040000fa
:04022c004c0300007f
:020000040000fa
:04023c004c0300006f
:020000040000fa
:0402bc004c030000ef
:020000040000fa
:0402c0004c030000eb
:020000040000fa
:0402c4004c030000e7
:020000040000fa
:0402c8004c030000e3
:020000040000fa
:040280004c0300002b
:020000040000fa
:040284004c03000027
:020000040000fa
:04039c004c0300000e
:020000040000fa
:040228004c03000083
:020000040000fa
:040278004c03000033
:020000040000fa
:04029c004c0300000f
:020000040000fa
:0402fc004c030000af
:020000040000fa
:040300004c030000aa
:020000040000fa
:040260004c0300004b
:020000040000fa
:040264004c03000047
:020000040000fa
:04027c004c0300002f
:020000040000fa
:040288004c03000023
:020000040000fa
:0402b0004c030000fb
:020000040000fa
:0402b4004c030000f7
:020000040000fa
:0402b8004c030000f3
:020000040000fa
:040238004c03000073
:020000040000fa
:0402e0004c030000cb
:020000040000fa
:0402e4004c030000c7
:020000040000fa
:0402e8004c030000c3
:020000040000fa
:0402f4004c030000b7
:020000040000fa
:0402f8004c030000b3
:020000040000fa
:040304004c030000a6
:020000040000fa
:040308004c030000a2
:020000040000fa
:04030c004c0300009e
:020000040000fa
:040310004c0300009a
:020000040000fa
:040314004c03000096
:020000040000fa
:040318004c03000092
:020000040000fa
:04031c004c0300008e
:020000040000fa
:040324004c03000086
:020000040000fa
:040328004c03000082
:020000040000fa
:040338004c03000072
:020000040000fa
:04033c004c0300006e
:020000040000fa
:040340004c0300006a
:020000040000fa
:040344004c03000066
:020000040000fa
:04034c004c0300005e
:020000040000fa
:040350004c0300005a
:020000040000fa
:040354004c03000056
:020000040000fa
:040358004c03000052
:020000040000fa
:040360004c0300004a
:020000040000fa
:040364004c03000046
:020000040000fa
:040368004c03000042
:020000040000fa
:0403a0004c0300000a
:020000040000fa
:0403a4004c03000006
:020000040000fa
:0403a8004c03000002
:020000040000fa
:0403ac004c030000fe
:020000040000fa
:0403b0004c030000fa
:020000040000fa
:0403b4004c030000f6
:020000040000fa
:040348004c03000062
:020000040000fa
:04026c004c0300003f
:020000040000fa
:0402f0004c030000bb
:020000040000fa
:04037c004c0300002e
:020000040000fa
:040218004c03000093
:020000040000fa
:040230004c0300007b
:020000040000fa
:040240004c0300006b
:020000040000fa
:04028c004c0300001f
:020000040000fa
:040290004c0300001b
:020000040000fa
:0402cc004c030000df
:020000040000fa
:0402d0004c030000db
:020000040000fa
:0402d4004c030000d7
:020000040000fa
:0402d8004c030000d3
:020000040000fa
:040398004c03000012
:020000040000fa
:04020c004c0300009f
:020000040000fa
:0402dc004c030000cf
:020000040000fa
:040320004c0300008a
:020000040000fa
:040208004c030000a3
:020000040000fa
:04021c004c0300008f
:020000040000fa
:040220004c0300008b
:020000040000fa
:040224004c03000087
:020000040000fa
:040268004c03000043
:020000040000fa
:0402ec004c030000bf
:020000040000fa
:040378004c03000032
:020000040000fa
:04024c004c0300005f
:020000040000fa
:040250004c0300005b
:020000040000fa
:0402a8004c03000003
:020000040000fa
:0402ac004c030000ff
:020000040000fa
:040390004c0300001a
:020000040000fa
:040394004c03000016
:020000040000fa
:040214004c03000097
:020000040000fa
:040234004c03000077
:020000040000fa
:040244004c03000067
:020000040000fa
:040248004c03000063
:020000040000fa
:040294004c03000017
:020000040000fa
:040298004c03000013
:020000040000fa
:04032c004c0300007e
:020000040000fa
:040254004c03000057
:020000040000fa
:040258004c03000053
:020000040000fa
:040330004c0300007a
:020000040000fa
:0402a0004c0300000b
:020000040000fa
:0402a4004c03000007
:020000040000fa
:04036c004c0300003e
:020000040000fa
:040370004c0300003a
:020000040000fa
:040374004c03000036
:020000040000fa
:040384004c03000026
:020000040000fa
:040388004c03000022
:020000040000fa
:04038c004c0300001e
:020000040000fa
:040380004c0300002a
:020000040000fa
:040074004c03000039
:020000040000fa
:040134004c03000078
:020000040000fa
:04015c004c03000050
:020000040000fa
:040070004c0300003d
:020000040000fa
:04002c004c03000081
:020000040000fa
:04003c004c03000071
:020000040000fa
:0400bc004c030000f1
:020000040000fa
:0400c0004c030000ed
:020000040000fa
:0400c4004c030000e9
:020000040000fa
:0400c8004c030000e5
:020000040000fa
:040080004c0300002d
:020000040000fa
:040084004c03000029
:020000040000fa
:04019c004c03000010
:020000040000fa
:040028004c03000085
:020000040000fa
:040078004c03000035
:020000040000fa
:04009c004c03000011
:020000040000fa
:0400fc004c030000b1
:020000040000fa
:040100004c030000ac
:020000040000fa
:040060004c0300004d
:020000040000fa
:040064004c03000049
:020000040000fa
:04007c004c03000031
:020000040000fa
:040088004c03000025
:020000040000fa
:0400b0004c030000fd
:020000040000fa
:0400b4004c030000f9
:020000040000fa
:0400b8004c030000f5
:020000040000fa
:040038004c03000075
:020000040000fa
:0400e0004c030000cd
:020000040000fa
:0400e4004c030000c9
:020000040000fa
:0400e8004c030000c5
:020000040000fa
:0400f4004c030000b9
:020000040000fa
:0400f8004c030000b5
:020000040000fa
:040104004c030000a8
:020000040000fa
:040108004c030000a4
:020000040000fa
:04010c004c030000a0
:020000040000fa
:040110004c0300009c
:020000040000fa
:040114004c03000098
:020000040000fa
:040118004c03000094
:020000040000fa
:04011c004c03000090
:020000040000fa
:040124004c03000088
:020000040000fa
:040128004c03000084
:020000040000fa
:040138004c03000074
:020000040000fa
:04013c004c03000070
:020000040000fa
:040140004c0300006c
:020000040000fa
:040144004c03000068
:020000040000fa
:04014c004c03000060
:020000040000fa
:040150004c0300005c
:020000040000fa
:040154004c03000058
:020000040000fa
:040158004c03000054
:020000040000fa
:040160004c0300004c
:020000040000fa
:040164004c03000048
:020000040000fa
:040168004c03000044
:020000040000fa
:0401a0004c0300000c
:020000040000fa
:0401a4004c03000008
:020000040000fa
:0401a8004c03000004
:020000040000fa
:0401ac004c03000000
:020000040000fa
:0401b0004c030000fc
:020000040000fa
:0401b4004c030000f8
:020000040000fa
:040148004c03000064
:020000040000fa
:04006c004c03000041
:020000040000fa
:0400f0004c030000bd
:020000040000fa
:04017c004c03000030
:020000040000fa
:040018004c03000095
:020000040000fa
:040030004c0300007d
:020000040000fa
:040040004c0300006d
:020000040000fa
:04008c004c03000021
:020000040000fa
:040090004c0300001d
:020000040000fa
:0400cc004c030000e1
:020000040000fa
:0400d0004c030000dd
:020000040000fa
:0400d4004c030000d9
:020000040000fa
:0400d8004c030000d5
:020000040000fa
:040198004c03000014
:020000040000fa
:04000c004c030000a1
:020000040000fa
:0400dc004c030000d1
:020000040000fa
:040120004c0300008c
:020000040000fa
:040008004c030000a5
:020000040000fa
:04001c004c03000091
:020000040000fa
:040020004c0300008d
:020000040000fa
:040024004c03000089
:020000040000fa
:040068004c03000045
:020000040000fa
:0400ec004c030000c1
:020000040000fa
:040178004c03000034
:020000040000fa
:04004c004c03000061
:020000040000fa
:040050004c0300005d
:020000040000fa
:0400a8004c03000005
:020000040000fa
:0400ac004c03000001
:020000040000fa
:040190004c0300001c
:020000040000fa
:040194004c03000018
:020000040000fa
:040014004c03000099
:020000040000fa
:040034004c03000079
:020000040000fa
:040044004c03000069
:020000040000fa
:040048004c03000065
:020000040000fa
:040094004c03000019
:020000040000fa
:040098004c03000015
:020000040000fa
:04012c004c03000080
:020000040000fa
:040054004c03000059
:020000040000fa
:040058004c03000055
:020000040000fa
:040130004c0300007c
:020000040000fa
:0400a0004c0300000d
:020000040000fa
:0400a4004c03000009
:020000040000fa
:04016c004c03000040
:020000040000fa
:040170004c0300003c
:020000040000fa
:040174004c03000038
:020000040000fa
:040184004c03000028
:020000040000fa
:040188004c03000024
:020000040000fa
:04018c004c03000020
:020000040000fa
:040180004c0300002c
:020000040000fa
:080000000002040000000000f2
:020000040000fa
:100400000f5a24000eff27000e0188000000000094
:10041000000020000000e000020032000001200087
:10042000200288000e000700c0c525000100200042
:10043000810f70000100320014000700000020004e
:100440000000e00002003200000002000000000096
:1004500020970200000000000040da000000fe00cb
:100460004440a900e01223000000e0000300320035
:1004700000202000900188004440a80000000600f1
:100480008a1f78008b1f780000000600a1028800f8
:10049000800478000000eb001f003700e284440075
:1004a00054a0b4009905ba00e284440054a0b400fa
:1004b0009906ba00e284440054a0b4000006eb00a0
:1004c000476fde00fd07b200ae018800636ce100fb
:1004d00003003a00eaff07000000eb000e003700bf
:1004e000606ce10008003a00004deb000a05e800ee
:1004f000020039003420ec000af0a0008b05e9006e
:10050000f9ff3e00040037006168e100010032009d
:100510000086eb000b00070019c7ba001905ba00e6
:100520000e04e00003003a000a00e000dbff3a009e
:1005300000000600fe07b200ae0288008a047800c0
:10054000f5ff37000cd0a300e20f4d001c0039006e
:1005500089027800354dba000a05e800020039002a
:100560003420ec000af0a0008b05e9000f003200f7
:10057000254dba000a05e800020039003420ec00dd
:100580000af0a0008b05e900080032000c00e00032
:100590000600320015cdba000a05e8000200390055
:1005a0003420ec000af0a0008b05e9008984e80003
:1005b00054a0b4000b00e000e2ff3a000000060087
:1005c0009902ba00055d78008b05e900f7ff32005b
:1005d000c82ade00055d78008b05e900f3ff3200d4
:1005e0000c00e000f1ff320019ddba00eeff370029
:1005f0001a95040000000000ea94040000000000c6
:100600004894040000000000a293040000000000d1
:10061000f690040000000000aa9004000000000012
:10062000c092040000000000b89204000000000026
:10063000e8920400000000001a930400000000008b
:10064000d292040000000000c495040000000000e5
:10065000d895040000000000d496040000000000bb
:100660007a95040000000000569504000000000088
:10067000009104000000000040930400000000000e
:10068000a096040000000000ba96040000000000dc
:1006900098900400000000000040da000000fe0016
:1006a000889fbe00100482000000e00001003200bc
:1006b00000000100200482000000e0000100320080
:1006c00000000100000824001004e00022003a00ad
:1006d000d00c8200e10c820088002000d26026004d
:1006e00093012000d3000700f2352f00e3c623005a
:1006f00000004100818049000804e900f7ff3a004a
:10070000680824000908200088844400d26026007c
:1007100093012000c7000700f2352f00e3c6230035
:10072000000041008180490000acbe00890f5400e8
:10073000f6ff3a00d00c8a00e10c8a0030088200f3
:100740004108820030048a0041048a0011c0b300cd
:100750000008240001487800d260260093012000a0
:10076000d00c8200e10c8200b2000700f2352f00ad
:10077000e3c623000002410081824900d40c8a00b4
:10078000e50c8a0060082400100078007f016000fa
:100790004211dd00a0082400020140001200be004a
:1007a00030048a0041048a000489be0001007800f8
:1007b00000f0a1004f04be00000006004f89de00db
:1007c00082017800210037000001be002f000700e1
:1007d0000470a70003f0a1006509b1001600320003
:1007e0000d0035006828e10006003500f0ff2f00fd
:1007f000f1ff27000300e00013003b000100280088
:100800000000050000004000818048008502e900ea
:10081000fcff3a0008003700f88f420002003c005d
:100820008000eb00000005008100d1000080d300b3
:100830008502e800fcff3a000300e00002003b00f4
:1008400060001000e080180000000600881f78009b
:10085000030478000300e00007003d006000100082
:10086000e080180060011900e081190002003b00df
:1008700001f02d00030037001900070008f0a70061
:1008800001f0a0004f04780000000600c70ade0057
:10089000f107b200f50fb20008003200e1cf4200cc
:1008a000020032000170a00024000500810f7000da
:1008b000010032000408050044000500810f7000ab
:1008c00002003a00140005008502e9000000400023
:1008d00081c04800fcff3b000170a000240005001f
:1008e000889fbe008a9fbe000082700004027100d3
:1008f00004827100260032000004be000200be0027
:100900006011b8006b092000950220000182cf0021
:100910000a0039000541b1000082cf00070039000c
:100920000541b1000982cf00040039000541b10042
:100930000882cf00010039000541b1000542520094
:10094000120032000a003b008281710061016400e4
:100950008100d1000080d3008984d3000884d300b3
:100960008b05e8000442e800f7ff3a000700370073
:100970000804440089844c0000004800818048003d
:100980008b05e9000442e900f9ff3a000300070083
:100990004f05be004f04be0000000600810020008d
:1009a000618055000b003d000b00200061fe2f0010
:1009b0000100e1001d0034008281710061016400ca
:1009c0008904d1000884d3000000e800faff3a004f
:1009d00071002000610064000300700002006000ec
:1009e0000900320061044400e0844c000988a5003d
:1009f000050032008b05e8006808e10002003a00bb
:100a00008904d1000884d300f20f20000258e100cd
:100a100005003d00c75ddd00f907b2008980750063
:100a200008007800000006000bf827008b00780013
:100a300000000500020ab900001bb9000200b8005e
:0c0a40008100420081004300000006001d
:020000040000fa
:020000040005f5
:0457f400ffff0000b3
:020000040000fa
:020000040005f5
:0457f800ad1b0000e5
:020000040000fa
:020000040005f5
:0457fc00773e0000f4
:020000040000fa
:0401b8004c400000b7
:020000040000fa
:100a4c000000000000000000ffff00000500000097
:100a5c00000800000400000000100000040000006a
:100a6c00001800000400000000200000040000003a
:100a7c00002800000400000000300000040000000a
:100a8c0000380000040000000040000004000000da
:100a9c0000480000040000000050000004000000aa
:100aac00005800000400000000600000040000007a
:100abc00006800000400000000700000040000004a
:100acc00007800000400000000800000040000001a
:100adc0000880000040000000190000004000000e9
:100aec00029800000400000003a0000004000000b5
:100afc0004a800000400000005b000000400000081
:100b0c0006b800000400000007c00000040000004c
:100b1c0008c800000400000009d000000400000018
:100b2c000ad80000040000000be0000004000000e4
:100b3c000ce80000040000000df0000004000000b0
:100b4c000ef80000040000000f000000050000007b
:100b5c000108000005000000011000000500000065
:100b6c000118000005000000052000000500000031
:100b7c0005280000050000000430000005000000fe
:100b8c0005380000050000000340000005000000cf
:100b9c0002480000050000000250000005000000a3
:100bac00055800000500000003600000050000006f
:100bbc000268000005000000037000000500000042
:100bcc000178000005000000028000000500000014
:100bdc0003880000050000000390000005000000e1
:100bec00039800000500000003a0000005000000b1
:100bfc0003a800000500000003b000000500000081
:100c0c0003b800000500000003c000000500000050
:100c1c0003c800000500000003d000000500000020
:100c2c0001d800000500000003e0000005000000f2
:100c3c0003e800000500000002f0000005000000c1
:100c4c0003f800000500000005000000060000008d
:100c5c00050800000600000003100000060000005c
:100c6c00031800000600000003200000060000002e
:100c7c0003280000060000000330000006000000fe
:100c8c0003380000060000000340000006000000ce
:100c9c00034800000600000003500000060000009e
:100cac00035800000600000003600000060000006e
:100cbc00036800000600000005700000060000003c
:100ccc00047800000600000003800000060000000d
:100cdc0003880000060000000490000006000000dd
:100cec00039800000600000003a0000006000000ae
:100cfc0003a800000600000003b00000060000007e
:100d0c0003b800000600000005c00000060000004b
:100d1c0004c800000600000003d00000060000001c
:100d2c0004d800000600000002e0000006000000ed
:100d3c0005e800000600000002f0000006000000bc
:100d4c0005f800000600000003000000070000008a
:100d5c000508000007000000031000000700000059
:100d6c00031800000700000003200000070000002b
:100d7c0003280000070000000330000007000000fb
:100d8c0003380000070000000340000007000000cb
:100d9c00034800000700000003500000070000009b
:100dac00035800000700000003600000070000006b
:100dbc000368000007000000057000000700000039
:100dcc00047800000700000003800000070000000a
:100ddc0003880000070000000490000007000000da
:100dec00039800000700000003a0000007000000ab
:100dfc0003a800000700000003b00000070000007b
:100e0c0003b800000700000005c000000700000048
:100e1c0005c800000700000003d000000700000018
:100e2c0004d800000700000005e0000007000000e7
:100e3c0003e800000700000005f0000007000000b8
:100e4c0005f800000700000000000000080000008a
:100e5c00000800000800000000100000080000005e
:100e6c00001800000800000000200000080000002e
:100e7c0000280000080000000030000008000000fe
:100e8c0000380000080000000040000008000000ce
:100e9c000648000008000000065000000800000092
:100eac00005800000800000000600000080000006e
:100ebc00006800000800000000700000080000003e
:100ecc00007800000800000000800000080000000e
:100edc0007880000080000000790000008000000d0
:100eec00079800000800000002a0000008000000a5
:100efc0000a800000800000000b00000080000007e
:100f0c0000b800000800000000c00000080000004d
:100f1c0000c800000800000000d00000080000001d
:100f2c0000d800000800000000e0000008000000ed
:100f3c0000e800000800000000f0000008000000bd
:100f4c0000f800000800000000000000090000008c
:100f5c000308000009000000081000000900000050
:100f6c00081800000900000008200000090000001b
:100f7c0008280000090000000130000009000000f2
:100f8c0005380000090000000540000009000000c1
:100f9c000148000009000000085000000900000092
:100fac00005800000900000000600000090000006b
:100fbc00006800000900000000700000090000003b
:100fcc00007800000900000000800000090000000b
:100fdc0003880000090000000890000009000000d0
:100fec00089800000900000008a00000090000009b
:100ffc0008a800000900000008b00000090000006b
:10100c0008b800000900000000c000000900000042
:10101c0000c800000900000000d00000090000001a
:10102c0000d800000900000000e0000009000000ea
:10103c0000e800000900000000f0000009000000ba
:10104c0000f8000009000000000000000a00000089
:10105c00030800000a000000031000000a00000052
:10106c00031800000a000000032000000a00000022
:10107c00052800000a000000033000000a000000f0
:10108c00043800000a000000034000000a000000c1
:10109c00044800000a000000045000000a00000090
:1010ac00035800000a000000036000000a00000062
:1010bc00056800000a000000037000000a00000030
:1010cc00037800000a000000038000000a00000002
:1010dc00038800000a000000039000000a000000d2
:1010ec00039800000a00000003a000000a000000a2
:1010fc0005a800000a00000004b000000a0000006f
:10110c0004b800000a00000003c000000a00000040
:10111c0005c800000a00000006d000000a0000000c
:10112c0004d800000a00000005e000000a000000de
:10113c0003e800000a00000003f000000a000000b1
:10114c0005f800000a000000040000000b0000007d
:10115c00030800000b000000031000000b0000004f
:10116c00031800000b000000032000000b0000001f
:10117c00052800000b000000033000000b000000ed
:10118c00043800000b000000034000000b000000be
:10119c00044800000b000000045000000b0000008d
:1011ac00035800000b000000036000000b0000005f
:1011bc00056800000b000000037000000b0000002d
:1011cc00037800000b000000038000000b000000ff
:1011dc00038800000b000000039000000b000000cf
:1011ec00039800000b00000003a000000b0000009f
:1011fc0005a800000b00000004b000000b0000006c
:10120c0004b800000b00000003c000000b0000003d
:10121c0005c800000b00000006d000000b00000009
:10122c0004d800000b00000005e000000b000000db
:10123c0003e800000b00000003f000000b000000ae
:10124c0005f800000b000000040000000c0000007a
:10125c000000000000000000000000000000000082
:10126c000000000000000000000000000000000072
:10127c000000000000000000000000000000000062
:10128c000000000000000000000000000000000052
:10146c00010100000100000001000000000000006c
:10147c00000000000000000001000000000000005f
:10148c00000a00001f0a00000a1f00000a000000ea
:10149c00000400001f0500001f1400001f040000c2
:1014ac000904000006020000090000000000000012
:1014bc00000400000a0400001a09000016000000d5
:1014cc00000400000200000000000000000000000a
:1014dc0002010000010100000200000000000000f9
:1014ec0001020000020200000100000000000000e8
:1014fc00000000000a0400001f0400000a000000a5
:10150c0000020000070200000000000000000000c4
:10151c0000000000000200000100000000000000bc
:10152c0000000000070000000000000000000000a8
:10153c00000000000000000001000000000000009e
:10154c000002000002010000010000000000000089
:10155c000705000005050000070000000000000062
:10156c00030200000202000007000000000000005f
:10157c000704000007010000070000000000000045
:10158c000704000007040000070000000000000032
:10159c000505000007040000040000000000000026
:1015ac000701000007040000070000000000000015
:1015bc000701000007050000070000000000000004
:1015cc000704000002010000010000000000000000
:1015dc0007050000070500000700000000000000e0
:1015ec0007050000070400000700000000000000d1
:1015fc0001000000000000000100000000000000dd
:10160c0000000000040000000004000004020000c0
:10161c0005050000000000000000000000000000b4
:10162c0000030000000300000000000000000000a8
:10163c000102000004020000010000000000000094
:10164c00000e00001108000004000000040000005f
:10165c00000e0000191500000d0100000e00000026
:10166c000705000007050000050000000000000051
:10167c000705000003050000070000000000000043
:10168c00070100000101000007000000000000003d
:10169c000305000005050000030000000000000029
:1016ac000701000007010000070000000000000017
:1016bc00070100000701000001000000000000000d
:1016cc0007010000010500000700000000000000f9
:1016dc0005050000070500000500000000000000e3
:1016ec0007020000020200000700000000000000da
:1016fc0004040000040500000700000000000000c6
:10170c0005030000010300000500000000000000bc
:10171c0001010000010100000700000000000000b2
:10172c00111b00001511000011000000000000004a
:10173c00090b00000d09000009000000000000006a
:10174c000705000005050000070000000000000070
:10175c000705000007010000010000000000000068
:10176c0007050000050d0000070000000000000048
:10177c000705000007030000050000000000000042
:10178c000701000007040000070000000000000033
:10179c00070200000202000002000000000000002e
:1017ac000505000005050000070000000000000012
:1017bc000505000005070000020000000000000005
:1017cc0011110000111500000a00000000000000bb
:1017dc0009060000020600000900000000000000dd
:1017ec0005050000050200000200000000000000da
:1017fc000f080000040200000f00000000000000b1
:10180c0003010000010100000300000000000000c3
:10181c00000000000102000004080000100000009d
:10182c0003020000020200000300000000000000a0
:10183c00000400000e150000040400000400000069
:10184c000000000000000000070000000000000085
:10185c00000c000012070000020200001f00000034
:10186c00070500000705000005000000000000004f
:10187c000705000003050000070000000000000041
:10188c00070100000101000007000000000000003b
:10189c000305000005050000030000000000000027
:1018ac000701000007010000070000000000000015
:1018bc00070100000301000001000000000000000f
:1018cc0007010000010500000700000000000000f7
:1018dc0005050000070500000500000000000000e1
:1018ec0007020000020200000700000000000000d8
:1018fc0004040000040500000700000000000000c4
:10190c0005030000010300000500000000000000ba
:10191c0001010000010100000700000000000000b0
:10192c00111b000015110000110000000000000048
:10193c00090b00000d090000090000000000000068
:10194c00070500000505000007000000000000006e
:10195c000705000007010000010000000000000066
:10196c0007050000050d0000070000000000000046
:10197c000705000007030000050000000000000040
:10198c000701000007040000070000000000000031
:10199c00070200000202000002000000000000002c
:1019ac000505000005050000070000000000000010
:1019bc000505000005050000020000000000000005
:1019cc0011110000111500000a00000000000000b9
:1019dc00110a0000040a00001100000000000000c1
:1019ec0005050000070200000200000000000000d6
:1019fc000f080000040200000f00000000000000af
:101a0c00001c000004030000040400001c00000083
:101a1c0000040000040400000404000004000000a2
:101a2c000007000004180000040400000700000078
:101a3c00001400000a00000000000000000000007c
:101a4c00000000000000000000000000000000008a
:101a5c00000000000000000000000000000000007a
:101a6c00000000000000000000000000000000006a
:101a7c00000000000000000000000000000000005a
:101a8c00000000000000000000000000000000004a
:101a9c00000000000000000000000000000000003a
:101aac00000000000000000000000000000000002a
:101abc00000000000000000000000000000000001a
:101acc00000000000000000000000000000000000a
:101adc0000000000003f00000000000000000000bb
:101aec003f0000003f00000000000000000000006c
:101afc0000000000000000000000000000000000da
:101b0c0000000000000000000000000000000000c9
:101b1c0000000000000000000000000000000000b9
:101b2c0000000000000000000000000000000000a9
:101b3c000000000000000000000000000000000099
:101b4c000000000000000000000000000000000089
:101b5c000008000008080000087f000000000000da
:101b6c0000000000064900003000000000000000ea
:101b7c00000000007f0000006b000000000000006f
:101b8c000000000003000000000000000000000046
:101b9c000000000000000000000000000000000039
:101bac000000000000000000000000000000000029
:101bbc000000000000000000000000000000000019
:101bcc000000000000000000000000000000000009
:101bdc0000000000000000000000000000000000f9
:101bec0000000000000000000000000000000000e9
:101bfc0000000000000000000000000000000000d9
:101c0c0000000000000000000000000000000000c8
:101c1c0000000000000000000000000000000000b8
:101c2c0000000000000000000000000000000000a8
:101c3c000000000000000000000000000000000098
:101c4c000000000000000000000000000000000088
:101c5c000007000007010000070000000000000062
:101c6c001824000042810000000000000000000069
:101c7c000000000000000000814200002418000059
:101c8c00183c00007eff0000000000000000000077
:101c9c000000000000000000ff7e00003c18000067
:101cac000100000000000000010000000000000026
:101cbc00070400000e0400001c00000000000000df
:101ccc001c0400000e0400000700000000000000cf
:101cdc0001000000000000000100000000000000f6
:101cec000f21000031f90000312100000f0000002d
:101cfc0000000000000000000000000000000000d8
:101d0c0000000000000000000000000000000000c7
:101d1c0000000000000000000000000000000000b7
:101d2c0000000000000000000000000000000000a7
:101d3c000000000000000000000000000000000097
:101d4c000000000000000000000000000000000087
:101d5c000007000007010000070000000000000061
:101d6c00000000000000000000000000ff00000068
:101d7c003e41000041410000414100008000000054
:101d8c007c82000082820000828200000100000040
:101d9c00000000000000000000000000ff00000038
:101dac00fc02000002020000020200000100000020
:101dbc003f40000040400000404000008000000018
:101dcc000000000000000000000000000000000007
:101ddc0000000000000000000000000000000000f7
:101dec0000000000000000000000000000000000e7
:101dfc0000000000000000000000000000000000d7
:101e0c0000000000000000000000000000000000c6
:101e1c0000000000000000000000000000000000b6
:101e2c0000000000000000000000000000000000a6
:101e3c000000000000000000000000000000000096
:101e4c000000000000000000000000000000000086
:101e5c000705000007050000050000000000000059
:101e6c00070100000705000007000000000000004b
:101e7c00070500000305000007000000000000003b
:101e8c00070100000101000001000000000000003b
:101e9c000e0a00000a1f00001100000000000000e4
:101eac00070100000701000007000000000000000f
:101ebc00090600000f0600000900000000000000e9
:101ecc0007040000020400000700000000000000ee
:101edc00090d00000b0900000900000000000000c3
:101eec00090d00000b0900000900000000000000b3
:101efc0005030000010300000500000000000000c5
:101f0c0006050000050500000500000000000000ab
:101f1c00111b000015110000110000000000000052
:101f2c00050500000705000005000000000000008a
:101f3c000705000005050000070000000000000078
:101f4c00070500000505000005000000000000006a
:101f5c000705000007010000010000000000000060
:101f6c000701000001010000070000000000000054
:101f7c000702000002020000020000000000000046
:101f8c000505000007040000070000000000000029
:101f9c001f150000151f00000400000000000000c9
:101fac000906000006060000090000000000000001
:101fbc0005050000050500000f00000000000000f2
:101fcc0005050000070400000400000000000000ec
:101fdc0015150000151500001f0000000000000082
:101fec0015150000151500003f0000000000000052
:101ffc00030200000e0a00000e00000000000000aa
:10200c00111100001715000017000000000000005f
:10201c00010100000705000007000000000000009f
:10202c000704000007040000070000000000000087
:10203c001d150000171500001d0000000000000019
:10204c000f0900000f0a000009000000000000004a
:10205c000705000007050000050000000000000057
:10206c000701000007050000070000000000000049
:10207c000705000003050000070000000000000039
:10208c000701000001010000010000000000000039
:10209c000e0a00000a1f00001100000000000000e2
:1020ac00070100000701000007000000000000000d
:1020bc00090600000f0600000900000000000000e7
:1020cc0007040000020400000700000000000000ec
:1020dc00090d00000b0900000900000000000000c1
:1020ec00090d00000b0900000900000000000000b1
:1020fc0005030000010300000500000000000000c3
:10210c0006050000050500000500000000000000a9
:10211c00111b000015110000110000000000000050
:10212c000505000007050000050000000000000088
:10213c000705000005050000070000000000000076
:10214c000705000005050000050000000000000068
:10215c00070500000701000001000000000000005e
:10216c000701000001010000070000000000000052
:10217c000702000002020000020000000000000044
:10218c000505000007040000070000000000000027
:10219c001f150000151f00000400000000000000c7
:1021ac0009060000060600000900000000000000ff
:1021bc0005050000050500000f00000000000000f0
:1021cc0005050000070400000400000000000000ea
:1021dc0015150000151500001f0000000000000080
:1021ec0015150000151500003f0000000000000050
:1021fc00030200000e0a00000e00000000000000a8
:10220c00111100001715000017000000000000005d
:10221c00010100000705000007000000000000009d
:10222c000704000007040000070000000000000085
:10223c001d150000171500001d0000000000000017
:10224c000f0900000f0a0000090000000000000048
:10225c000000000000000000ffff0000080000006c
:10226c000008000004000000001000000400000042
:10227c000018000004000000002000000400000012
:10228c0000280000040000000030000004000000e2
:10229c0000380000040000000040000004000000b2
:1022ac000048000004000000005000000400000082
:1022bc000058000004000000006000000400000052
:1022cc00006800000400000005700000040000001d
:1022dc0008780000040000000180000004000000e9
:1022ec0000880000040000000190000004000000c1
:1022fc00029800000400000003a00000040000008d
:10230c0004a800000400000005b000000400000058
:10231c0006b800000400000007c000000400000024
:10232c0008c800000400000009d0000004000000f0
:10233c000ad80000040000000be0000004000000bc
:10234c000ce80000040000000df000000400000088
:10235c000ef80000040000000f0000000500000053
:10236c00020800000500000003100000050000003a
:10237c000318000005000000052000000500000007
:10238c0005280000050000000630000005000000d4
:10239c0005380000050000000340000005000000a7
:1023ac00024800000500000002500000050000007b
:1023bc000358000005000000036000000500000049
:1023cc000468000005000000037000000500000018
:1023dc0001780000050000000380000005000000eb
:1023ec0004880000050000000490000005000000b7
:1023fc00049800000500000004a000000500000087
:10240c0004a800000500000004b000000500000056
:10241c0004b800000500000004c000000500000026
:10242c0004c800000500000004d0000005000000f6
:10243c0001d800000500000003e0000005000000ca
:10244c0006e800000500000003f000000500000095
:10245c0006f8000005000000050000000600000062
:10246c000408000006000000041000000600000034
:10247c000418000006000000042000000600000004
:10248c0004280000060000000430000006000000d4
:10249c0004380000060000000540000006000000a3
:1024ac000548000006000000055000000600000072
:1024bc000458000006000000056000000600000043
:1024cc000468000006000000057000000600000013
:1024dc0005780000060000000580000006000000e2
:1024ec0005880000060000000590000006000000b2
:1024fc00059800000600000004a000000600000083
:10250c0005a800000600000005b000000600000051
:10251c0005b800000600000005c000000600000021
:10252c0005c800000600000005d0000006000000f1
:10253c0005d800000600000004e0000006000000c2
:10254c0005e800000600000004f000000600000092
:10255c0005f800000600000006000000070000005f
:10256c000308000007000000041000000700000032
:10257c000418000007000000042000000700000001
:10258c0004280000070000000430000007000000d1
:10259c0003380000070000000440000007000000a2
:1025ac000448000007000000015000000700000074
:1025bc000458000007000000046000000700000041
:1025cc000268000007000000057000000700000012
:1025dc0004780000070000000480000007000000e1
:1025ec0004880000070000000590000007000000b0
:1025fc00039800000700000004a000000700000082
:10260c0003a800000700000004b000000700000051
:10261c0005b800000700000005c00000070000001e
:10262c0005c800000700000004d0000007000000ef
:10263c0005d800000700000007e0000007000000bc
:10264c0007e800000700000007f00000070000008a
:10265c0007f800000700000002000000080000005e
:10266c000308000008000000031000000800000030
:10267c0008180000080000000820000008000000f6
:10268c0006280000080000000730000008000000c9
:10269c000838000008000000074000000800000097
:1026ac00074800000800000000500000080000006f
:1026bc000658000008000000076000000800000039
:1026cc00086800000800000001700000080000000d
:1026dc0005780000080000000680000008000000db
:1026ec0007880000080000000790000008000000a8
:1026fc00079800000800000008a000000800000077
:10270c0008a800000800000005b000000800000048
:10271c0005b800000800000008c000000800000018
:10272c0000c800000800000006d0000008000000ef
:10273c0005d800000800000005e0000008000000bb
:10274c0007e800000800000000f00000080000008e
:10275c0006f8000008000000070000000900000057
:10276c000708000009000000081000000900000024
:10277c0008180000090000000520000009000000f6
:10278c0005280000090000000130000009000000cd
:10279c000738000009000000074000000900000095
:1027ac00044800000900000000500000090000006f
:1027bc00085800000900000001600000090000003a
:1027cc00086800000900000001700000090000000a
:1027dc0008780000090000000880000009000000d3
:1027ec0007880000090000000890000009000000a4
:1027fc00089800000900000008a000000900000073
:10280c0008a800000900000008b000000900000042
:10281c0008b800000900000007c000000900000013
:10282c0004c800000900000000d0000009000000ee
:10283c0007d800000900000000e0000009000000bb
:10284c0007e800000900000000f00000090000008b
:10285c0008f8000009000000060000000a00000053
:10286c00050800000a000000051000000a00000026
:10287c00051800000a000000042000000a000000f7
:10288c00062800000a000000053000000a000000c5
:10289c00053800000a000000054000000a00000096
:1028ac00054800000a000000055000000a00000066
:1028bc00055800000a000000056000000a00000036
:1028cc00056800000a000000057000000a00000006
:1028dc00057800000a000000058000000a000000d6
:1028ec00058800000a000000059000000a000000a6
:1028fc00059800000a00000005a000000a00000076
:10290c0007a800000a00000005b000000a00000043
:10291c0006b800000a00000005c000000a00000014
:10292c0005c800000a00000006d000000a000000e4
:10293c0005d800000a00000006e000000a000000b4
:10294c0004e800000a00000005f000000a00000086
:10295c0006f800000a000000050000000b00000053
:10296c00040800000b000000041000000b00000025
:10297c00041800000b000000032000000b000000f6
:10298c00062800000b000000043000000b000000c3
:10299c00053800000b000000044000000b00000094
:1029ac00044800000b000000045000000b00000065
:1029bc00045800000b000000046000000b00000035
:1029cc00056800000b000000047000000b00000004
:1029dc00047800000b000000048000000b000000d5
:1029ec00048800000b000000049000000b000000a5
:1029fc00039800000b00000004a000000b00000076
:102a0c0005a800000b00000005b000000b00000042
:102a1c0005b800000b00000004c000000b00000013
:102a2c0005c800000b00000006d000000b000000e1
:102a3c0005d800000b00000005e000000b000000b2
:102a4c0004e800000b00000004f000000b00000084
:102a5c0005f800000b000000040000000c00000052
:102a6c00000000000000000000000000000000005a
:102a7c00000000000000000000000000000000004a
:102a8c00000000000000000000000000000000003a
:102a9c00000000000000000000000000000000002a
:102aac00000000000000000000000000000000001a
:102abc00000000000000000000000000000000000a
:102acc0000000000000000000000000000000000fa
:102adc0000000000000000000000000000000000ea
:102aec0000000000000000000000000000000000da
:102afc0000000000000000000000000000000000ca
:102b0c0000000000000000000000000000000000b9
:102b1c0000000000000000000000000000000000a9
:102b2c000000000000000000000000000000000099
:102b3c00040e00001f040000041f00000e0400001f
:102b4c007c820000050900001101000001820000d8
:102b5c000000000001010000010100000100000064
:102b6c000000000000000000000000000000000059
:102b7c000000000000000000000000000000000049
:102b8c000000000000000000000000000000000039
:102b9c000000000000000000000000000000000029
:102bac000000000000000000000000000000000019
:102bbc000000000000000000000000000000000009
:102bcc0000000000000000000000000000000000f9
:102bdc0000000000000000000000000000000000e9
:102bec0000000000000000000000000000000000d9
:102bfc0000000000000000000000000000000000c9
:102c0c0000000000000000000000000000000000b8
:102c1c0000000000000000000000000000000000a8
:102c2c000000000000000000000000000000000098
:102c3c000000000000000000000000000000000088
:102c4c007c000000000000000000000000000000fc
:102c5c000000000000000000000000000000000068
:102c6c000000000000000000000000000000000058
:102c7c000404000004040000040000000400000030
:102c8c00050500000000000000000000000000002e
:102c9c00000a00001f0a00000a1f00000a000000c2
:102cac00000400001f0500001f1400001f0400009a
:102cbc000023000013080000043200003100000063
:102ccc00000400000a0400001a09000016000000ad
:102cdc0000040000020000000000000000000000e2
:102cec0002020000010100000102000002000000cd
:102cfc0001010000020200000201000001000000be
:102d0c0000000000050200000500000000000000ab
:102d1c00000000000207000002000000000000009c
:102d2c00000000000000000000080000040000008b
:102d3c000000000000070000000000000000000080
:102d4c000000000000000000000000000100000076
:102d5c000004000004020000020100000100000059
:102d6c000f09000009090000090900000f0000000c
:102d7c000604000004040000040400000e0000001f
:102d8c000f080000080f0000010100000f000000f8
:102d9c000f080000080f0000080800000f000000da
:102dac0009090000090f00000808000008000000d5
:102dbc000f010000010f0000080800000f000000c8
:102dcc000f010000010f0000090900000f000000b6
:102ddc000f080000040200000101000001000000c7
:102dec000f090000090f0000090900000f00000086
:102dfc000f090000090f0000080800000f00000078
:102e0c0000010000000000000001000000000000b4
:102e1c000000000004000000000400000402000098
:102e2c000024000012090000122400000000000021
:102e3c000000000007000000070000000000000078
:102e4c00000900001224000012090000000000001c
:102e5c00000e000011080000040000000400000037
:102e6c00090000000f0900000f0100000f00000016
:102e7c000f090000090900000f09000009000000fb
:102e8c0007090000090700000909000007000000fd
:102e9c000f01000001010000010100000f00000003
:102eac0007090000090900000909000007000000db
:102ebc000f01000001070000010100000f000000dd
:102ecc000f010000010700000101000001000000db
:102edc000e11000001010000191100000e0000008d
:102eec0011110000111f0000111100001100000051
:102efc001f04000004040000040400001f00000074
:102f0c00080800000808000009090000060000007d
:102f1c001109000005030000050900001100000064
:102f2c000101000001010000010900000f00000078
:102f3c00111b000015110000111100001100000000
:102f4c0011110000131500001519000011000000ec
:102f5c000e11000011110000111100000e000000f4
:102f6c000f110000111100000f0100000100000002
:102f7c000e110000111100001509000016000000d0
:102f8c000f110000111100000f09000011000000ca
:102f9c000f010000010f0000080800000f000000e6
:102fac001f040000040400000404000004000000de
:102fbc001111000011110000111100000e00000091
:102fcc001111000011110000110a00000400000092
:102fdc001111000011110000111500000a00000071
:102fec00110a000004040000040a00001100000093
:102ffc0011110000110a000004040000040000007c
:10300c001f10000008040000020100001f00000057
:10301c00000e000002020000020200000e00000080
:10302c000000000001020000040800001000000075
:10303c00000e000008080000080800000e00000048
:10304c00000400000e150000040400000400000041
:10305c00000000000000000000000000003f000025
:10306c00060200000702000002020000020000003d
:10307c00000000000f0800000f0900000f00000006
:10308c00010100000f090000090900000f000000f9
:10309c00000000000f010000010100000f00000003
:1030ac00080800000f090000090900000f000000cb
:1030bc00000000000f0900000f0100000f000000cd
:1030cc0006020000070200000202000002000000dd
:1030dc00000000000f090000090f0000080f00009d
:1030ec00010100000f09000009090000090000009f
:1030fc0001000000010100000101000001000000be
:10310c000008000000080000080800000906000084
:10311c000101000009050000030500000900000082
:10312c00010100000101000001010000030000008a
:10313c00000000000b150000151500001500000024
:10314c000000000007090000090900000900000048
:10315c00000000000f090000090900000f0000002a
:10316c00000000000f090000090f00000101000021
:10317c00000000000f090000090f000008180000f3
:10318c000000000007010000010100000100000028
:10319c00000000000f0100000f0800000f000000ed
:1031ac0002020000070200000202000006000000fc
:1031bc000000000009090000090900000f000000d0
:1031cc0000000000111100000a0a000004000000b9
:1031dc000000000011150000151500000a00000089
:1031ec0000000000110a0000040a00001100000099
:1031fc000000000009090000090f0000080f000082
:10320c00000000001f080000040200001f00000066
:10321c001f0400000404000004740000547000003b
:10322c000f010000010700000171000021200000c7
:10323c001f0400000404000004740000242000009b
:10324c0000000000064900003000000000000000f3
:10325c00000000000201000001000000000000005e
:10326c000004000006070000060400000000000037
:10327c000001000003070000030100000000000033
:10328c000f21000031f90000312100000f00000077
:10329c00874500002710000008e40000a2e10000b0
:1032ac003e220000363600001c0800000000000022
:1032bc007f7f00007f7f00003e1c000008000000a4
:1032cc0000f800008cde0000dcf8000000000000bc
:1032dc00001f0000317b00003b1f000000000000bd
:1032ec0041220000140800001422000041000000dc
:1032fc0000000000000000000000000000000000c2
:10330c003e2200002a2200003e00000000000000c7
:10331c007f7f00007f7f00007f7f000000000000a7
:10332c007c820000010100001109000005820000f0
:10333c00000000000101000001010000010000007c
:10334c0007020000021200001a1200001210000006
:10335c0007020000023a00002a2200001238000086
:10336c000008000008080000087f000000000000b2
:10337c0000000000064900003000000000000000c2
:10338c00000000007f0000006b0000000000000047
:10339c001f3f00007fff00007f3f00001f00000068
:1033ac00f8fc0000feff0000fefc0000f80000002e
:1033bc001f1f00001f1f00001f1f00001f0e00001a
:1033cc000e1f00001f1f00001f1f00001f1f00000a
:1033dc000024000066ff00006624000000000000ce
:1033ec0000000000000000000000000000000000d1
:1033fc0000080000103f0000100800000000000052
:10340c0000040000041f0000040400000000000081
:10341c0000000000001f0000000000000000000081
:10342c007c00000000000000000000000000000014
:10343c000000000000000000000000000000000080
:10344c00050500000525000035250000232000009f
:10345c0005050000057500005545000023700000af
:10346c001414000054550000414100004224000097
:10347c001824000042810000000000000000000041
:10348c000000000000000000814200002418000031
:10349c00040e00001f0000000000000000000000ef
:1034ac001f0e0000040000000000000000000000df
:1034bc0000010000000000000001000000000000fe
:1034cc000f080000081c000008080000780000002d
:1034dc0078080000081c0000080800000f0000001d
:1034ec0006090000090600000000000000000000b2
:1034fc0000000000000000000000000000000000c0
:10350c007c820000412100001101000001820000ba
:10351c00000000000101000001010000010000009a
:10352c007c8200000101000011210000418200009a
:10353c00000000000101000001010000010000007a
:10354c00030f00003fff0000ffff0000ffff000023
:10355c000000000000000000030f00003fff00000f
:10356c000202000002020000020200007f000000c4
:10357c00a80200000002000000020000ff00000092
:10358c003e4100004141000041410000800000002c
:10359c007c82000082820000828200000100000018
:1035ac00154000000040000000400000ff0000003b
:1035bc00fc020000020200000202000001000000f8
:1035cc003f400000404000004040000080000000f0
:1035dc002a2a00002a2a00002a2a00007f00000064
:1035ec00090000000f0900000f0100000f0000008f
:1035fc0000000000000000000000000000000000bf
:10360c007c00000000000000000000000000000032
:10361c00000000000000000000000000000000009e
:10362c007c00000000000000000000000000000012
:10363c00000000000000000000000000000000007e
:10364c00ffff0000ffff00003f0f00000300000021
:10365c003f0f00000300000000000000000000000d
:10366c001f110000111f00001111000011000000bb
:10367c001f010000011f0000111100001f000000bd
:10368c001f110000110f0000111100001f0000009d
:10369c000f01000001010000010100000100000009
:1036ac001e12000012120000121200003f21000036
:1036bc001f010000010f0000010100001f000000ad
:1036cc0015150000150e0000151500001500000062
:1036dc001f110000100c0000101100001f00000052
:1036ec001119000015130000111100001100000049
:1036fc001519000015130000111100001100000035
:10370c00110900000503000005090000110000006c
:10371c001c1200001111000011110000110000001a
:10372c00111b000015110000111100001100000008
:10373c0011110000111f00001111000011000000f8
:10374c001f11000011110000111100001f000000da
:10375c001f110000111100001111000011000000d8
:10376c001f110000111100001f01000001000000da
:10377c001f11000001010000011100001f000000da
:10378c001f040000040400000404000004000000f6
:10379c0011110000111f0000101000001f0000008c
:1037ac007f490000494900007f0800000800000024
:1037bc00110a00000a0400000a0a000011000000af
:1037cc001111000011110000111100003f20000028
:1037dc0011110000111100001f100000100000005a
:1037ec001515000015150000151500001f00000030
:1037fc001515000015150000151500003f200000e0
:10380c0003020000021e0000121200001e00000045
:10381c0021210000212f0000292900002f00000089
:10382c0001010000010f0000090900000f00000059
:10383c001f100000101f0000101000001f000000df
:10384c003d25000025270000252500003d00000037
:10385c001f110000111100001e12000011000000c9
:10386c00000000000f0800000f0900000f0000000e
:10387c00000000000f0100000f0900000f00000005
:10388c00000000000f090000070900000f000000f5
:10389c000000000007010000010100000100000011
:1038ac00000000001e120000121200003f21000058
:1038bc00000000000f0900000f0100000f000000c5
:1038cc0000000000151500000e150000150000008a
:1038dc00000000000f090000040900000f000000a8
:1038ec0000000000090d00000b0900000900000099
:1038fc0000040000090d00000b0900000900000085
:10390c00000000000905000003050000090000008c
:10391c00000000000e090000090900000900000069
:10392c0000000000111b0000151100001100000028
:10393c0000000000090900000f0900000900000048
:10394c00000000000f090000090900000f00000032
:10395c00000000000f090000090900000900000028
:10396c00000000000f090000090f00000101000019
:10397c00000000000f090000010900000f0000000a
:10398c00000000000702000002020000020000001c
:10399c0000000000090900000f0800000f000000e3
:1039ac00000000001f150000151f0000040000009f
:1039bc0000000000110a0000040a000011000000c1
:1039cc000000000009090000090900001f10000098
:1039dc0000000000090900000f08000008000000aa
:1039ec000000000015150000151500001f00000058
:1039fc000000000015150000151500003f20000008
:103a0c0000000000030200001e1200001e00000057
:103a1c000000000011110000171500001700000035
:103a2c0000000000010100000f0900000f00000061
:103a3c00000000000f0800000f0800000f0000003d
:103a4c00000000001d150000171500001d000000ef
:103a5c00000000000f0900000e0a00000900000021
:103a6c000000000000000000ffff00000800000044
:103a7c00000800000400000000100000040000001a
:103a8c0000180000040000000020000004000000ea
:103a9c0000280000040000000030000004000000ba
:103aac00003800000400000000400000040000008a
:103abc00004800000400000000500000040000005a
:103acc00005800000400000000600000040000002a
:103adc0000680000040000000070000004000000fa
:103aec0000780000040000000080000004000000ca
:103afc000088000004000000019000000400000099
:103b0c00029800000400000003a000000400000064
:103b1c0004a800000400000005b000000400000030
:103b2c0006b800000400000007c0000004000000fc
:103b3c0008c800000400000009d0000004000000c8
:103b4c000ad80000040000000be000000400000094
:103b5c000ce80000040000000df000000400000060
:103b6c000ef80000040000000f000000050000002b
:103b7c000808000005000000081000000500000007
:103b8c0007180000050000000820000005000000d8
:103b9c0008280000050000000830000005000000a7
:103bac000838000005000000074000000500000078
:103bbc000848000005000000075000000500000048
:103bcc000758000005000000086000000500000018
:103bdc0007680000050000000870000005000000e8
:103bec0007780000050000000080000005000000c0
:103bfc00058800000500000005900000050000008d
:103c0c00089800000500000006a000000500000058
:103c1c0008a800000500000007b000000500000027
:103c2c0007b800000500000008c0000005000000f7
:103c3c0007c800000500000008d0000005000000c7
:103c4c0008d800000500000007e000000500000097
:103c5c0008e800000500000007f000000500000067
:103c6c0008f800000500000000000000060000003d
:103c7c000808000006000000081000000600000004
:103c8c0007180000060000000820000006000000d5
:103c9c0008280000060000000830000006000000a4
:103cac000838000006000000084000000600000074
:103cbc000848000006000000075000000600000045
:103ccc000758000006000000086000000600000015
:103cdc0007680000060000000870000006000000e5
:103cec0007780000060000000080000006000000bd
:103cfc00058800000600000005900000060000008a
:103d0c00089800000600000006a000000600000055
:103d1c0008a800000600000005b000000600000026
:103d2c0005b800000600000008c0000006000000f6
:103d3c0004c800000600000008d0000006000000c7
:103d4c0008d800000600000007e000000600000094
:103d5c0008e800000600000007f000000600000064
:103d6c0008f800000600000000000000070000003a
:103d7c000808000007000000081000000700000001
:103d8c0008180000070000000820000007000000d1
:103d9c0008280000070000000830000007000000a1
:103dac000838000007000000084000000700000071
:103dbc000848000007000000085000000700000041
:103dcc000858000007000000086000000700000011
:103ddc0008680000070000000870000007000000e1
:103dec0008780000070000000080000007000000b9
:103dfc000588000007000000089000000700000084
:103e0c00049800000700000008a000000700000054
:103e1c0002a800000700000005b000000700000029
:103e2c0008b800000700000004c0000007000000f4
:103e3c0008c800000700000002d0000007000000c6
:103e4c0008d800000700000008e000000700000090
:103e5c0008e800000700000000f000000700000068
:103e6c0000f800000700000000000000080000003f
:103e7c0008080000080000000810000008000000fe
:103e8c0007180000080000000020000008000000d7
:103e9c0000280000080000000830000008000000a6
:103eac00083800000800000008400000080000006e
:103ebc000848000008000000005000000800000046
:103ecc00085800000800000008600000080000000e
:103edc0008680000080000000870000008000000de
:103eec0008780000080000000080000008000000b6
:103efc00088800000800000008900000080000007e
:103f0c00089800000800000008a00000080000004d
:103f1c0008a800000800000008b00000080000001d
:103f2c0008b800000800000008c0000008000000ed
:103f3c0008c800000800000008d0000008000000bd
:103f4c0008d800000800000008e00000080000008d
:103f5c0008e800000800000008f00000080000005d
:103f6c0000f800000800000000000000090000003c
:103f7c00000800000900000000100000090000000b
:103f8c0008180000090000000820000009000000cb
:103f9c00082800000900000008300000090000009b
:103fac00083800000900000005400000090000006e
:103fbc00004800000900000000500000090000004b
:103fcc00085800000900000008600000090000000b
:103fdc0008680000090000000170000009000000e2
:103fec0000780000090000000080000009000000bb
:103ffc00088800000900000008900000090000007b
:10400c00089800000900000004a00000090000004e
:10401c0000a800000900000000b00000090000002a
:10402c0008b800000900000008c0000009000000ea
:10403c0008c800000900000008d0000009000000ba
:10404c0008d800000900000008e00000090000008a
:10405c0008e800000900000008f00000090000005a
:10406c0008f8000009000000000000000a00000031
:10407c00080800000a000000031000000a000000fd
:10408c00081800000a000000082000000a000000c8
:10409c00082800000a000000083000000a00000098
:1040ac00083800000a000000084000000a00000068
:1040bc00084800000a000000085000000a00000038
:1040cc00085800000a000000036000000a0000000d
:1040dc00086800000a000000087000000a000000d8
:1040ec00007800000a000000008000000a000000b8
:1040fc00008800000a000000089000000a00000080
:10410c00079800000a00000000a000000a00000050
:10411c0000a800000a00000008b000000a0000001f
:10412c0008b800000a00000008c000000a000000e7
:10413c0008c800000a00000000d000000a000000bf
:10414c0000d800000a00000008e000000a0000008f
:10415c0007e800000a00000008f000000a00000058
:10416c0008f800000a000000000000000b0000002e
:10417c00080800000b000000081000000b000000f5
:10418c00081800000b000000082000000b000000c5
:10419c00082800000b000000083000000b00000095
:1041ac00083800000b000000084000000b00000065
:1041bc00084800000b000000025000000b0000003b
:1041cc00005800000b000000006000000b00000015
:1041dc00006800000b000000007000000b000000e5
:1041ec00007800000b000000008000000b000000b5
:1041fc00088800000b000000089000000b00000075
:10420c00089800000b00000008a000000b00000044
:10421c0002a800000b00000008b000000b0000001a
:10422c0008b800000b00000008c000000b000000e4
:10423c0008c800000b00000008d000000b000000b4
:10424c0000d800000b00000000e000000b00000094
:10425c0000e800000b00000000f000000b00000064
:10426c0000f800000b000000000000000c00000033
:10427c000000000000000000000000000000000032
:10428c000000000000000000000000000000000022
:10429c000000000000000000000000000000000012
:1042ac000000000000000000000000000000000002
:1042bc0000000000000000000000000000000000f2
:1042cc0000000000000000000000000000000000e2
:1042dc0000000000000000000000000000000000d2
:1042ec0000000000000000000000000000000000c2
:1042fc0000000000000000000000000000000000b2
:10430c0000000000000000000000000000000000a1
:10431c000000000000000000000000000000000091
:10432c000000000000000000000000000000000081
:10433c000000000000000000000000000000000071
:10434c000000000000000000000000000000000061
:10435c000000000000000000000000000000000051
:10436c000000000000000000000000000000000041
:10437c000000000000000000000000000000000031
:10438c000000000000000000000000000000000021
:10439c000000000000000000000000000000000011
:1043ac000000000000000000000000000000000001
:1043bc0000000000000000000000000000000000f1
:1043cc0000000000000000000000000000000000e1
:1043dc0000000000000000000000000000000000d1
:1043ec0000000000000000000000000000000000c1
:1043fc0000000000000000000000000000000000b1
:10440c0000000000000000000000000000000000a0
:10441c000000000000000000000000000000000090
:10442c000000000000000000000000000000000080
:10443c000000000000000000000000000000000070
:10444c000000000000000000000000000000000060
:10445c000000000000000000000000000000000050
:10446c000000000000000000000000000000000040
:10447c00440e00001f0400000404000004c40000eb
:10448c0055600000d09000001010000010130000c8
:10449c00550000001f3100002020000020600000ab
:1044ac0055c00000a02000002020000020200000ab
:1044bc00550000003f6300004040000040c0000079
:1044cc0000000000000000000000000000c0000020
:1044dc0000600000d09000001010000010130000cd
:1044ec00000000001f3100002020000020600000b0
:1044fc0000000000808000008080000080c400006c
:10450c00000300003c600000404000004040000000
:10451c00440e00001f04000004040000040400000a
:10452c0055300000e80800000808000008080000ea
:10453c00550000000304000004040000040c0000fb
:10454c0055380000ec0400000404000004040000d2
:10455c0055000000010600000404000004040000e3
:10456c00000000000000000000000000000000003f
:10457c00040400000404000004040000041f0000f4
:10458c00160c0000000000000000000000000000fd
:10459c00408000000000000000000000000000004f
:1045ac00262f000018000000000000000000000092
:1045bc00800000000000000000000000000000006f
:1045cc0000000000440e00001f040000041f000047
:1045dc00160c000055000000000000000000000058
:1045ec00c0000000550000000000000000000000aa
:1045fc004f380000550000000000000000000000d3
:10460c004080000055000000000000000000000089
:10461c0004df00000e440000000000000000000059
:10462c00080d000003550000000000000000000011
:10463c0008380000e05500000000000000000000f9
:10464c0004060000035500000000000000000000fc
:10465c0004e40000385500000000000000000000d9
:10466c00000000000000000000000000000000003e
:10467c0000000000440e00001f04000004c40000f1
:10468c0040600000d59000001010000010130000d6
:10469c00000000005f3100002020000020600000be
:1046ac0080e0000075200000202000002020000089
:1046bc00000000003f6200004040000040c00000cd
:1046cc0000000000000000000000000000c400001a
:1046dc0040600000d0900000101000001057000047
:1046ec00000000000f1900001010000010f5000071
:1046fc0020600000d090000010100000185f000037
:10470c00001000001f1500001010000010750000b4
:10471c0000000000440e00001f0400000404000010
:10472c0040600000b51000001010000010100000d8
:10473c00000000005f20000020200000202000006e
:10474c0020e00000d5100000101000001010000038
:10475c00000000005f20000020200000202000004e
:10476c00000000000000000000000000000000003d
:10477c00040400000404000004040000041f0000f2
:10478c00160c0000000000000000000000000000fb
:10479c00408000000000000000000000000000004d
:1047ac00262f000018000000000000000000000090
:1047bc00800000000000000000000000000000006d
:1047cc000e1f00000404000004040000041f00007d
:1047dc00160c0000000000000000000000000000ab
:1047ec00c0000000000000000000000000000000fd
:1047fc0009000000000000000000000000000000a4
:10480c00c0000000000000000000000000000000dc
:10481c001f0e0000c400000000000000000000009b
:10482c00101000005f0c00000000000000000000f1
:10483c0020200000d5000000000000000000000057
:10484c00101000005f0e00000800000000000000c7
:10485c0020200000d5000000000000000000000037
:10486c00000000000000000000000000000000003c
:10487c00000000008080000040e00000440e0000ba
:10488c00060900001010000020aa000020400000c3
:10489c00804000002020000010ba0000100800002a
:1048ac00010200000404000008aa00000810000027
:1048bc00609000000808000004ae00000402000034
:1048cc0000000000a48e00005f44000044040000bf
:1048dc0006090000ba100000202000002040000053
:1048ec0080400000aa2000001010000010080000fa
:1048fc0001020000ae0400000808000008100000cf
:10490c0060900000aa0800000404000004020000eb
:10491c00a40e00001f0400001f0e0000a4000000e5
:10492c00aa0000000000000000000000aa00000027
:10493c00aa0500000525000055550000555500003e
:10494c00aa0000000000000000000000ff010000b1
:10495c00aa0000000000000000000000ff000000a2
:10496c00000000000000000000000000000000003b
:10497c001f0400000404000004040000041f0000d5
:10498c00408000000000000000000000000000005b
:10499c0008040000030000000000000000000000fc
:1049ac0010200000c000000000000000000000000b
:1049bc0002010000000000000000000000000000e8
:1049cc00040400000404000004040000041f0000a0
:1049dc00408000000000000000000000000000000b
:1049ec0008040000030000000000000000000000ac
:1049fc0010200000c00000000000000000000000bb
:104a0c000201000000000000000000000000000097
:104a1c000000000000000000e000000000000000aa
:104a2c0000000000000000007f800000000000007b
:104a3c0095150000090100000100000000000000b5
:104a4c00000000000000000000000000000000005a
:104a5c00000000000000000000000000000000004a
:104a6c00000000000000000000000000000000003a
:104a7c0000000000ff00000000000000000000002b
:104a8c0000000000ff80000080800000808000009b
:104a9c00000000000000000000000000044a0000bc
:104aac0000000000000000000000000000000000fa
:104abc0000000000000000000000000000000000ea
:104acc008080000080800000e0800000808000007a
:104adc00ff80000080800000838000008080000048
:104aec008080000080800000e0800000808000005a
:104afc00ff80000080800000838000008080000028
:104b0c000000000000000000000000000000000099
:104b1c00fe80000080800000e080000086840000a1
:104b2c008080000080800000838000008080000076
:104b3c00ff80000080800000e0800000808000008a
:104b4c008080000080800000838000008080000056
:104b5c00ff0000000000000000000000000000004a
:104b6c000000000000000000000000000000000039
:104b7c00a81c00003e0000003e1c00004800000085
:104b8c00aa8000008080000080800000550000009a
:104b9c00aa2a00002a2a00001202000001000000cc
:104bac00ff000000000000000000000000000000fa
:104bbc00ff000000000000000000000000000000ea
:104bcc00fe0000000000000080000000000000005b
:104bdc008000000002030000ff0300000200000040
:104bec00ff00000020600000ff60000020000000bb
:104bfc008000000000000000000000000000000029
:104c0c00ff00000000000000000000000000000099
:104c1c00840400004e2000009008000004000000f6
:104c2c00ff00000002030000ff0300000200000070
:104c3c008000000020600000ff60000020000000e9
:104c4c00ff00000000000000000000000000000059
:104c5c000000000000000000000000000000000048
:104c6c000000000000000000000000000000000038
:104c7c000000000000000000000000000000000028
:104c8c000000000000000000000000000000000018
:104c9c000000000080000000804000002010000098
:104cac00f80400000f0100000000000000000000ec
:104cbc00ff000000000000000000000000000000e9
:104ccc00ff000000000000000000000000000000d9
:104cdc003f400000e0000000000000000000000069
:104cec000000000003010000020400000810000096
:104cfc0000000000000000000000000000000000a8
:104d0c000000000000000000000000000000000097
:104d1c000000000000000000c000000000000000c7
:104d2c00ff0100000101000007010000010100006b
:104d3c007f40000040400000f04000004040000078
:104d4c000000000000000000010000000000000056
:104d5c000000000000000000000000000000000047
:104d6c000000000000000000000000000000000037
:104d7c000000000000000000ff0000000000000028
:104d8c000000000080000000ff0000000000000098
:104d9c0088c40000efc1000080000000000000008b
:104dac00020600000f0600000200000000000000d8
:104dbc0000000000000000000000000000000000e7
:104dcc0000000000000000000000000000000000d7
:104ddc0080c00000e0c00000800000000000000067
:104dec0022460000ef060000020000000000000058
:104dfc000000000003010000fe00000000000000a5
:104e0c000000000000000000ff0000000000000097
:104e1c00ff00000000000000000000000000000087
:104e2c000100000004060000ff0600000400000062
:104e3c00c0000000103000007f30000010000000a7
:104e4c00ff00000000000000000000000000000057
:104e5c00ff00000000000000000000000000000047
:104e6c000000000000000000000000000000000036
:104e7c00ff00000000000000c00000000000000067
:104e8c000101000001010000070100000101000008
:104e9c00c040000040400000f040000040400000d6
:104eac00ff000000000000000100000000000000f6
:104ebc00ff000000000000000000000000000000e7
:104ecc000000000000000000c00000000000000016
:104edc00ff010000010100000701000001010000ba
:104eec007f40000040400000f040000040400000c7
:104efc0080800000808000008180000080800000a5
:104f0c00ff00000000000000000000000000000096
:104f1c00ff00000000000000c000000000000000c6
:104f2c000101000001010000070100000101000067
:104f3c00c040000040400000f04000004040000035
:104f4c00ff800000808000008180000080800000d5
:104f5c000000000000000000000000000000000045
:104f6c000000000000000000000000000000000035
:104f7c000000000000000000000000000000000025
:104f8c00ff00000004060000ff0600000400000003
:104f9c007f000000103000007f3000001000000087
:104fac0000000000000000000000000000000000f5
:104fbc0000000000000000000000000000000000e5
:104fcc00ff000000000000000000000000000000d6
:104fdc000100000004060000ff06000004000000b1
:104fec00c0000000103000007f30000010000000f6
:104ffc00ff000000000000000000000000000000a6
:10500c000000000000000000000000000000000094
:10501c000000000000000000000000000000000084
:10502c00ff00000004060000ff0600000400000062
:10503c007f000000103000007f30000010000000e6
:10504c0080000000000000000000000000000000d4
:10505c00ff00000000000000000000000000000045
:10506c000000000000000000000000000000000034
:10507c000000000000000000c080000080800000e4
:10508c00fc0400000404000044640000f46400000c
:10509c00ff0000000000000000000000ff00000006
:1050ac00ff000000e0200000a2260000afa60000d8
:1050bc00ff000000ff0000000302000003000000de
:1050cc00ff000000ff000000c08000008080000096
:1050dc00ff0000000704000044640000f4640000ba
:1050ec00ff0000000000000000000000ff000000b6
:1050fc003f20000020200000a2260000afa60000e8
:10510c00000000000000000003020000030000008b
:10511c000000000000000000000000000000000083
:10512c000000000000000000000000000000000073
:10513c000000000000000000000000000000000063
:10514c000000000000000000000000000000000053
:10515c000000000000000000000000000000000043
:10516c000000000000000000000000000000000033
:10517c00c0000000ff000000ff0000000000000065
:10518c004504000007000000ff00000000000000c4
:10519c000000000000000000ff0000000000000004
:1051ac00a2200000202000003f00000000000000b2
:1051bc0003000000000000000000000000000000e0
:1051cc00c000000000000000000000000000000013
:1051dc004504000004040000fc0000000000000076
:1051ec000000000000000000ff00000000000000b4
:1051fc00a2200000e0000000ff0000000000000002
:10520c0003000000ff000000ff0000000000000091
:10521c000000000000000000000000000000000082
:10522c000000000000000000000000000000000072
:10523c000000000000000000000000000000000062
:10524c000000000000000000000000000000000052
:10525c000000000000000000000000000000000042
:10526c000000000000000000000000000000000032
:10527c000000000000000000ffff0000080000001c
:10528c0000080000040000000010000004000000f2
:10529c0000180000040000000020000004000000c2
:1052ac000028000004000000003000000400000092
:1052bc000038000004000000004000000400000062
:1052cc000048000004000000005000000400000032
:1052dc000058000004000000006000000400000002
:1052ec0000680000040000000070000004000000d2
:1052fc0000780000040000000080000004000000a2
:10530c000888000004000000089000000400000061
:10531c00089800000400000008a000000400000031
:10532c0000a800000400000000b000000400000011
:10533c0000b800000400000000c0000004000000e1
:10534c0000c800000400000000d0000004000000b1
:10535c0000d800000400000000e000000400000081
:10536c0000e800000400000000f000000400000051
:10537c0000f8000004000000000000000500000020
:10538c0008080000050000000810000005000000df
:10539c0008180000050000000420000005000000b3
:1053ac000728000005000000073000000500000081
:1053bc000838000005000000034000000500000054
:1053cc000848000005000000045000000500000023
:1053dc0008580000050000000460000005000000f3
:1053ec0008680000050000000770000005000000c0
:1053fc00087800000500000008800000050000008f
:10540c000588000005000000009000000500000069
:10541c00089800000500000004a000000500000032
:10542c0007a800000500000006b000000500000001
:10543c0008b800000500000003c0000005000000d3
:10544c0008c800000500000004d0000005000000a2
:10545c0007d800000500000004e000000500000073
:10546c0008e800000500000007f00000050000003f
:10547c0008f800000500000008000000060000000d
:10548c0008080000060000000710000006000000dd
:10549c0008180000060000000620000006000000ae
:1054ac00082800000600000006300000060000007e
:1054bc00083800000600000007400000060000004d
:1054cc000848000006000000015000000600000023
:1054dc0008580000060000000560000006000000ef
:1054ec0008680000060000000770000006000000bd
:1054fc00087800000600000007800000060000008d
:10550c00088800000600000007900000060000005c
:10551c00089800000600000006a00000060000002d
:10552c0008a800000600000006b0000006000000fd
