:0400000082EF03F098
:08000800046ED8CF05F0E0CF33
:1000100006F00001E9CF0CF0EACF07F0E1CF08F0DD
:10002000E2CF09F0D9CF0AF0DACF0BF0F3CF12F01C
:10003000F4CF13F0FACF14F000C00EF001C00FF0AF
:1000400002C010F003C011F09DA02AEF00F09EB096
:10005000AEEF00F00EC000F00FC001F010C002F0D3
:1000600011C003F00CC0E9FF07C0EAFF078E08C00B
:10007000E1FF09C0E2FF0AC0D9FF0BC0DAFF12C0DE
:10008000F3FF13C0F4FF14C0FAFF045006C0E0FFF2
:1000900005C0D8FF1000F2CF0DF0F29EF76AB00F46
:1000A000F66E000EF7220900F5500DBEF28E12001A
:1000B0003E3D3B372F1FF2CF0DF0F29EF76AD00F77
:1000C000F66E000EF7220900F5500DBEF28E1200FA
:1000D000C9C9C9597F49F2CF0DF0F29EF76AF00FF6
:1000E000F66E000EF7220900F5500DBEF28E1200DA
:1000F0009A05D805160654068806A806ECCFFAFF1E
:10010000ED52EFCFE8FFF96E12006E50070B006E54
:100110006E30016E013201321F0E01160150702443
:10012000E96E000E7120EA6E016A012A002A01D0F0
:100130000136002EFDD76F5203E00150EF1203D0BD
:10014000011E0150EF16120094908B8094928B82C6
:1001500094948B84949E8B9E226A1200C7B001D027
:10016000FDD7C9CF21F021507F0B6C6E6C523AE065
:100170006C50030837E321AE1AD0036A6C505A0F53
:10018000E96E000E0320EA6EEFCF6DF06DC06EF0E9
:100190006F6A0F0E716E890E706EB7DF6DC06EF0F4
:1001A0006F6A0F0E716E920E706EAFDF1AD0036A17
:1001B0006C505A0FE96E000E0320EA6EEFCF6DF01F
:1001C0006DC06EF0010E6F6E0F0E716E890E706E47
:1001D0009CDF6DC06EF06F6A0F0E716E920E706EC6
:1001E00094DF08D06C50040805E1222C03D0010EE6
:1001F000236EAADFC69E949C8B8C20C0C9FF206A08
:10020000949C8B9CB10ECF6EE00ECE6E9E902AEF2A
:1002100000F0F29CF29EF2BEFDD7700ED36ED3506A
:10022000FF0E926E000E936E100E946ECF0E826EC5
:1002300081688ADF310EC66EC76A550EC96E880E98
:10024000D56E850ECD6ECD6EF30ECF6E4E0ECE6E8C
:100250009D80C00EF212F5EF03F0EA6A640EE96EBB
:10026000EF500DE0020E016E006A002EFED7012E47
:10027000FBD7970E006E002EFED7EF2EF3D712009D
:100280008150C00B646E036A1E50F2CF65F0F29E7F
:1002900002DF65BEF28E016E64500110616E936ADA
:1002A00061C08AFF926880CF17F0036A1E50180F52
:1002B000E96E000E0320EA6EEF5017183DE0036A66
:1002C0001E50F2CF64F0F29EF6DE64BEF28E016E36
:1002D00017500114646E036A1E50F2CF65F0F29E4F
:1002E000EADE65BEF28E016E645C11E0626A625005
:1002F00002080CE392681750805C03E0000E016E68
:100300001DD0010E646EA9DF622AF1D712D0636A94
:10031000635004080EE392681750805C03E0000EFF
:10032000016E0CD0420E006E002EFED70000632A34
:10033000EFD7010E016E02D0000E016E1CEF04F02B
:10034000010E006E6950016E04E0D8900036012E57
:10035000FCD7005017142CE16AC020F0926880CFBF
:100360006BF0010E006E6950016E04E0D89000360B
:10037000012EFCD700506B1412E16A5089080EE17F
:10038000926880B40BD0926880B808D02052D8A46C
:10039000FDD7240E206E010E016E0CD0DFD7205247
:1003A000D8A4FDD7800E6A5C206E010E016E02D0CB
:1003B000000E016EF7EF01F0666A6150665C1EE2A6
:1003C000036A66506224E96E63500320EA6EEFCF41
:1003D00067F0036A66506424E96E65500320EA6E94
:1003E000EFCF68F067C069F068C06AF0A9D7015222
:1003F00003E0010E016E04D0662ADFD7000E016E05
:100400001200635203E164C020F005D0632C03D0D6
:10041000800E6424206E1200245231E025522FE019
:100420001F6A1F5001082BE3020E006E1F50016E61
:1004300004E0D8900036012EFCD7005017141DE0C0
:10044000036A1E50180FE96E000E0320EA6EEFCF0C
:1004500063F0020E006E1F50016E04E0D89000366B
:10046000012EFCD70050631408E11FC063F062C086
:1004700064F0C7DF010E016E04D01F2AD2D7000E30
:10048000016E7DEF02F0245231E125522FE11F6A07
:100490001F5001082BE3020E006E1F50016E04E096
:1004A000D8900036012EFCD7005017141DE1036AC6
:1004B0001E50180FE96E000E0320EA6EEFCF63F0B6
:1004C000020E006E1F50016E04E0D8900036012E1F
:1004D000FCD70050631408E01FC063F062C064F0F2
:1004E00090DF010E016E04D01F2AD2D7000E016EDC
:1004F00085EF02F061C062F08FD7015203E0010E78
:10050000016E0AD061C062F0BED7015203E0010E55
:10051000016E02D0000E016E1200655203E166C04A
:1005200020F005D0652C03D0800E6624206EC5EF28
:1005300002F062522FE01F6A1F5001082BE363C0D4
:1005400000F01F50016E04E0D8900036012EFCD759
:10055000005017141DE0036A1E50180FE96E000EBC
:100560000320EA6EEFCF65F06350006E1F50016EFE
:1005700004E0D8900036012EFCD70050651408E145
:100580001FC065F064C066F0C8D7010E016E04D0CC
:100590001F2AD2D7000E016E1200040E616E636A2C
:1005A000280E626E656A2C0E646E06DF015213E13E
:1005B000140E616E9FDF01520EE1265202E02752B7
:1005C00002E1000E01D0010E616E626E100E636ECC
:1005D000150E646EAEDF1200040E616E636A300E9B
:1005E000626E656A340E646EE7DE015213E1160E28
:1005F000616E80DF01520EE1265202E0275202E1D5
:10060000000E01D0010E616E626E100E636E170E49
:10061000646E8FDF1200040E616E636A380E626EC4
:10062000656A3C0E646EC8DE015213E1180E616EFD
:1006300061DF01520EE1265202E0275202E1000E74
:1006400001D0010E616E626E100E636E190E646E43
:1006500070DF1200040E616E636A400E626E656A9E
:10066000440E646EA9DE01520EE1245202E02552CE
:1006700002E1000E01D0010E616E626E020E636E29
:100680001A0E646E56DF1200070E616E636A480E22
:10069000626E656A4F0E646E8FDE1200949E8B8EC2
:1006A000010E226E59EF03F017B012D022520AE168
:1006B000F5D7010E646ED1DD926880CF17F017A0D8
:1006C000FBD705D0205201E0FDD78B0E206E19D04C
:1006D000020E616E636A560E626E656A580E646E33
:1006E0006BDE01520EE1245202E0255202E1000EBF
:1006F00001D0010E616E626E020E636E1B0E646E9F
:1007000018DF1200F86AD09E078EF20E006E0F0EF0
:10071000016E020EE96E000EEA6EEE6A0400002E13
:10072000FCD7012EFAD7800E006E010E016E000E6E
:10073000E96E0F0EEA6EEE6A0400002EFCD7012E61
:10074000FAD7700ED36ED350176A1E6A1F6A206ADA
:10075000216A226A236A246A256A266A276AC150A6
:10076000C00B0F09C16E070EB46E1FD006401800F3
:1007700036002800030706819C9D8D000307068331
:100780009E9F8E0003070685A0A18F0003040687A5
:10079000A2889000010203040506898A848C86825F
:1007A000910306A3920010111200000EF86E070EBE
:1007B000F76E6C0EF66E0900F550006E000A13E03D
:1007C0000900F550016EE8BE05D00F0BEA6E090076
:1007D000F5CFE9FF01BC090001AC0900F5CFEEFF40
:1007E000004EE9D7F9D7F86A14D51E6A1E500508DD
:1007F0001EE38150C00B616E036A1E50F2CF62F09F
:10080000F29E49DC62BEF28E016E615001105E6E96
:10081000936A5EC08AFF036A1E50180FE96E000ECD
:100820000320EA6E926880CFEFFF1E2ADFD71E6A90
:100830001E50050832E324D5012C28D01750020B96
:10084000246E1750040B256E1750100B266E175090
:10085000200B276ED8901E34036AF2CF61F0F29E0F
:100860003ADC0900F5CF03F061BEF28E5F6E03C083
:1008700060F0EA6A5F0EE96E41DC036A1E50180FF1
:10088000E96E000E0320EA6E17C0EFFF232C03D0A1
:0E089000949E8B9E236A1E2ACBD7C9D7FFD712
:020000040030CA
:0E00000000C8191E008700000FC00FE00F405F
:00000001FF
;PIC18F2515
;CRC=6892  CREATED="16-ноя-17 11:10"
