:020000040800F2
:10000000E8B7022089020008910200089302000864
:1000100095020008970200089902000800000000FD
:100020000000000000000000000000009B0200082B
:100030009D020008000000009F0200089D290008A2
:10004000A3020008A3020008A3020008A3020008FC
:10005000A3020008A3020008A3020008A3020008EC
:10006000A3020008A3020008A3020008A3020008DC
:10007000A3020008A3020008A3020008A3020008CC
:10008000A3020008A3020008A3020008A3020008BC
:10009000A3020008A3020008A30200081D0900082B
:1000A000A3020008A3020008A3020008A30200089C
:1000B000A3020008012A0008A3020008A302000806
:1000C000A3020008A3020008A3020008912500086B
:1000D000A3020008A3020008A3020008A30200086C
:1000E000A3020008A3020008A3020008A30200085C
:1000F000A3020008A3020008A3020008A30200084C
:10010000A3020008A3020008A3020008A30200083B
:10011000A3020008A3020008A3020008A30200082B
:10012000A3020008A3020008A3020008A30200081B
:10013000A3020008A3020008A3020008A30200080B
:10014000A3020008A3020008A302000881250008FA
:10015000A3020008A3020008A3020008A3020008EB
:10016000A3020008A3020008A3020008A3020008DB
:10017000A3020008A3020008A3020008A3020008CB
:10018000A3020008A3020008A3020008A3020008BB
:10019000A3020008A3020008A3020008A3020008AB
:1001A0000000000000000000A302000800F002F8B8
:1001B00000F05BF80AA090E8000C82448344AAF1A6
:1001C0000107DA4501D100F050F8AFF2090EBAE8A4
:1001D0000F0013F0010F18BFFB1A43F0010318477B
:1001E0000CE700002CE700000A4410F8014B14F063
:1001F0000F0508BF10F8015B240908BF10F8014B78
:100200006D1E05D010F8013B6D1E01F8013BF9D1C0
:10021000641E03D0641E01F8015BFBD19142E4D35C
:10022000704700000023002400250026103A28BF54
:1002300078C1FBD8520728BF30C148BF0B60704758
:100240001FB508F00BFD9DE8030000F075FA00F003
:10025000B9FA04000020002108F0EAFC401C6060AC
:1002600000F034FA1FBD10B510BD00F0D5FA1146EC
:10027000FFF7E6FF08F0EEF800F0F3FA03B4FFF73B
:10028000F2FF03BC00F024FB0948804709480047FF
:10029000FEE7FEE7FEE7FEE7FEE7FEE7FEE7FEE736
:1002A000FEE7FEE704480549054A064B7047000093
:1002B000A9290008AD010008E8770020E8B702206E
:1002C000E8B70120E8B7012070B5064600F018FA3B
:1002D000056806F10B0020F00704B4429CBF002023
:1002E00070BD2B466A68BAB11068A04210D304F101
:1002F000080188423CBF5068586007D35168101904
:1003000041601168091B016058601460101D70BDC8
:1003100013465268002AE7D12146284600F0F8F932
:100320000028DED170BD70B50446051F00F0E8F965
:100330000068002C14BF446870BD002C18BFAC428C
:100340003CBF20466468F8D301680A18AA4218BF67
:10035000456003D12A6805461144016028684119A7
:10036000A1421CBF6C6070BD61686960216808446F
:10037000286070BD53EA020C00F069802DE9F04B53
:100380004FF00006002B1FBFB3FA83F503FA05F404
:1003900024FA05F65E4012BF1643B2FA82F502FA5D
:1003A00005F4C5F120051EBF22FA05FC44EA0C0441
:1003B000203556EA044C4FEA144418BF641C4FF031
:1003C00000084FF00009904271EB030C39D300296B
:1003D00019BFB1FA81F701FA07F6B0FA80F700FA0F
:1003E00007F6C7F120071EBF20FA07FC46EA0C06F5
:1003F0002037B6FBF4FCA7EB0507103F07F01F0BF7
:10040000CBF120062CFA06F60CFA0BFB44BFB346E0
:100410000026202FA4BF5E464FF0000B5BEA060CBF
:1004200008BF4FF0010B19EB0B0948EB0608ABFBBB
:10043000027C06FB02CC0BFB03CCC01B71EB0C0156
:10044000C1E70B46024641464846BDE8F08B13B56E
:10045000084318BF4FF0FF300146AFF30080BDE8FE
:100460001C40704710B5044600F042F90068005D7A
:10047000C00602D504F1200010BD204610BD40EAA0
:100480000103024630B59B0710D14FF0013400E064
:1004900008C208C91D1B9D4315EAC41FF8D013F0FC
:1004A000FF0102F8011B0DD01B0AF8E711F8013B10
:1004B000002B02F8013B05D011F8013B002B02F89C
:1004C000013BF3D130BD032A40F2308010F0030C21
:1004D00000F0158011F8013BBCF1020F624498BF97
:1004E00011F801CB00F8013B38BF11F8013BA2F134
:1004F000040298BF00F801CB38BF00F8013B11F0AF
:10050000030300F02580083AC0F0088051F8043B4E
:10051000083A51F804CBA0E80810F5E7121D5CBFBB
:1005200051F8043B40F8043BAFF30080D20724BFEE
:1005300011F8013B11F801CB48BF11F8012B24BF82
:1005400000F8013B00F801CB48BF00F8012B7047D1
:1005500010B5203AC0F00B80B1E81850A0E8185050
:10056000B1E81850A0E81850203ABFF4F5AF5FEAA0
:10057000027C24BFB1E81850A0E8185044BF18C945
:1005800018C0BDE810405FEA827C24BF51F8043BEC
:1005900040F8043B08BF7047D20728BF31F8023B40
:1005A00048BF11F8012B28BF20F8023B48BF00F8D4
:1005B000012B70474FF000020429C0F0128010F0A8
:1005C000030C00F01B80CCF1040CBCF1020F18BF2F
:1005D00000F8012BA8BF20F8022BA1EB0C0100F0C2
:1005E0000DB85FEAC17C24BF00F8012B00F8012B95
:1005F00048BF00F8012B70474FF0000200B51346CA
:1006000094469646203922BFA0E80C50A0E80C5032
:10061000B1F12001BFF4F7AF090728BFA0E80C50E3
:1006200048BF0CC05DF804EB890028BF40F8042BDC
:1006300008BF704748BF20F8022B11F0804F18BF49
:1006400000F8012B7047000030B44FF0013C50F827
:10065000042B51F8043BCCFA52F4D51A20D1FCB942
:1006600050F8042B51F8043BCCFA52F4D51A17D1A8
:10067000B4B950F8042B51F8043BCCFA52F4D51A13
:100680000ED16CB950F8042B51F8043BCCFA52F45B
:10069000D51A05D1002CDAD030BC4FF000007047DD
:1006A00029BAB1FA81F111F01801D1F1200084408A
:1006B000F2D1CA40CB4012F0FF0213F0FF0330BC6E
:1006C000D01A7047704770477047000070B5064CED
:1006D0007C44064D7D4404E0204601680844804780
:1006E000241DAC42F8D170BD48E3000048E300008F
:1006F00010B500F067F8001D10BD00BF3585000083
:1007000000487047106E0020704770477047704770
:1007100038B504460A4600206946AFF30080002839
:1007200008BF38BD02460099204600F053F801206A
:1007300038BD012000F068B8F8B5AFF30080054679
:1007400000200C46102000BF0646A819A0420DD973
:10075000324669460020AFF30080070008BF00F072
:1007600053F80098A04218BF0546C419FFF7C8FF08
:1007700005600746F01D20F007004619284600F0E6
:100780000AF8B44208BFF8BDA21B31463868BDE87C
:10079000F84000F01FB800210160C0E90110704767
:1007A0001020704710B500F011F8006810BD10B5AA
:1007B000044600F00BF8046010BD000000487047CC
:1007C000086E002000487047286E002000487047DF
:1007D000086E0020034640688C46002818BF8842F7
:1007E0003CBF03464068F8D318681844884207D0D5
:1007F0000CF1030020F00700001D411A521A0146B7
:10080000081D0A60FFF78FBD10B500F039F8BDE88C
:10081000104000F02FB870477546FFF7CFFFAE4687
:1008200005006946534620F00700854618B020B5FC
:10083000FFF738FDBDE820404FF000064FF00007FD
:100840004FF000084FF0000BAC46ACE8C009ACE834
:10085000C009ACE8C009ACE8C00921F007018D4629
:10086000704710B50446AFF300802046BDE8104045
:10087000FFF704BD002801D000F02AB8704700003F
:1008800010B5012805D0002103A000F027F80120B1
:1008900010BD09A1F8E7000053494752544D454D9A
:1008A0003A204F7574206F662068656170206D6511
:1008B0006D6F7279000000003A2048656170206D0C
:1008C000656D6F727920636F727275707465640004
:1008D00001491820ABBEFEE72600020070B50546B0
:1008E0000C460A2000E06D1C00F011F835B12878A4
:1008F0000028F8D102E0641C00F009F814B1207857
:100900000028F8D1BDE870400A20AFF3008008B598
:1009100069468DF800000320ABBE08BD80B54020BD
:1009200000F0ECFA80BD000080B547F28453C2F2BB
:1009300000035A7A002A1CBF012080BD93F809C029
:100940008646002003F80C005A7A03EB8202C2F8B4
:1009500004E05A7A1A44107293F809C00CF10102AB
:100960005A720CF130020A7042F63A72A1F8012074
:10097000C87080BD2DE9F04147F29458044643F613
:100980000C46C2F200080020C4F20206C8F81C009F
:1009900000F096FB3168C90351D43068C0071CBF12
:1009A00001203060306810F4F97F4FD03068C00605
:1009B00007D5D8F81C0040F01000C8F81C00102023
:1009C00030603068800607D5D8F81C0040F0080079
:1009D000C8F81C00202030603068400607D5D8F8E1
:1009E0001C0040F00400C8F81C0040203060306853
:1009F000000607D5D8F81C0040F00200C8F81C001B
:100A0000802030603068C00508D5D8F81C0040F060
:100A10000100C8F81C004FF4807030603068800717
:100A20005CBF0120BDE8F081D8F81C0040F0200038
:100A3000C8F81C00022030600120BDE8F0810546A6
:100A4000671C07D05CB90320BDE8F0810020BDE839
:100A5000F08100BF3068C0039FD5002FFAD000F0AE
:100A60002FFB401BA042F5D90320BDE8F081000018
:100A7000B0B5B3F5804F034615D153F822C000201E
:100A8000CCF6F0700CEA000CD1E9000ED1E9024579
:100A900040EA0C0040EA0E10896940EA042040EA6E
:100AA0000540014301E06FF07041002043F822103F
:100AB000B0BD00002DE9F043D1E9002CD1E9023EA0
:100AC000D1E90489D1E9066750F822408025CFF6A4
:100AD000E0752C4044EA0C051D4345EA0E0545EA45
:100AE000080545EA09052E430D6A37434E6A2F4330
:100AF0008D6A3743CE6A2F43CD6B37430E6B2F433E
:100B00004D6B37432F43082B08BF47F0400740F891
:100B100022704A6BB2F5801F05D1096819B10168CE
:100B200041F4801101600020BDE8F0832DE9F04719
:100B300000EB82035A6891E8000702F0404E4EEA4B
:100B40000805D1E9036740F2000C45EA0915CFF624
:100B5000F07C45EA0A25D1E905240CEB075745EA64
:100B600006463743FE32274347EA02625A6002686C
:100B7000D20207D54268096922F470020CEB0151D8
:100B8000114341600020BDE8F087000090F8351067
:100B9000022909D1052180F835100068016821F08B
:100BA00001010160002070478021416501207047EC
:100BB00080B543F61000C4F202004FF0FF3100226E
:100BC0000161026141614261016002604160426015
:100BD0008160826000F090FF002080BDB0B582B0DF
:100BE000019000F06DFA019904464D1C28BF4FF0AA
:100BF000FF3500BF00F064FA001BA842FAD302B030
:100C0000B0BD00002DE9F04381B047F29458C2F224
:100C1000000898F81820012A03D1022001B0BDE88D
:100C2000F0830446012088F818004CF250308946C1
:100C3000FFF7A0FE002840F0A3804FF0FF31C9F875
:100C40000010216843F610470129C4F2020722D19F
:100C5000606821693A68012822F440723A604FF4D2
:100C6000004208BF04220328386808BF48F2040283
:100C7000104338600802396880B2084340F480307D
:100C800038604CF25030FFF775FE396848F20402C4
:100C9000914339603CE0D4E9026131448E4237D25D
:100CA000F50000BF20694FF44072C1B203293968D2
:100CB0004FEA002021F440713960396838BF82B2B0
:100CC00041EA0200386038680B2E20F0F8003860E6
:100CD0002846396888BF2030084340F00200386059
:100CE000386840F4803038604CF25030FFF742FEF4
:100CF000396821F0FA01396040B9D4E902120136AD
:100D000011448E4205F10805CCD301E0C9F800601A
:100D100057F8101C890517D557F8101C21F40071DD
:100D200047F8101C57F8101C41F4006147F8101CDC
:100D300057F8101C21F4006147F8101C57F8101CDC
:100D400041F4007147F8101C57F8101C490517D5DD
:100D500057F8101C21F4806147F8101C57F8101C3C
:100D600041F4805147F8101C57F8101C21F48051B1
:100D700047F8101C57F8101C41F4806147F8101C0C
:100D8000002188F8181001B0BDE8F08343F6104147
:100D9000C4F20201086840F0004200200A60704777
:100DA0002DE9F04381B047F29454C2F2000490461A
:100DB000227E012A03D1022001B0BDE8F08307465C
:100DC000012020764CF250301E460D46FFF7D2FD32
:100DD000002864D143F61049022FC4F2020915D04D
:100DE000012F28D0E7BBD9F8000020F44070C9F8E3
:100DF0000000D9F80000C9F80000D9F8000040F060
:100E00000100C9F8000085F800803EE0D9F8000034
:100E100020F44070C9F80000D9F8000040F40070D8
:100E2000C9F80000D9F8000040F00100C9F800003E
:100E3000C5F8008029E0D9F8000020F44070C9F816
:100E40000000D9F8000040F48070C9F80000D9F81B
:100E5000000040F00100C9F80000A5F8008014E08F
:100E6000D9F8000020F44070C9F80000D9F800005B
:100E700040F44070C9F80000D9F8000040F00100CB
:100E8000C9F80000C5F800806E604CF25030FFF7E2
:100E900071FDD9F8001021F00101C9F800100021FE
:100EA000217601B0BDE8F08343F60440C4F20200AD
:100EB000C168B1F1FF3FC4BF0020704740F2231169
:100EC000C4F26751016048F6AB11CCF6EF510160F6
:100ED000C068C00F70470000402818BF704780B539
:100EE00040F2240046F68F61C2F20000C2F2000117
:100EF000012201F09DF9BDE88040704780B543F6BE
:100F00001441C4F201010A68024208BF80BD0860B2
:100F1000FFF7E2FF80BD00002DE9F04F82B000F145
:100F20003E4242F2004502F1FF77C4F2020543F669
:100F3000004E4FEAB7260A22A842C4F2010E08BFAB
:100F40000922092E4FF001054FF000064FF0000472
:100F50004FF0000838BF4FEAB722009209E000BF07
:100F600008F101080434B8F1100F06F1020600F090
:100F70009D800F6805FA08FC17EA0C09F0D04F684D
:100F800047F01007122F12D16FF0030202EA580740
:100F9000074404F01C050F22D7F820A002FA05F33D
:100FA0000A692AEA0303AA4001251A433A62026841
:100FB0000323D1F804A0B3406FEA030B9A430AF06D
:100FC0000303B3401A43BAF1120F026014D805FAB2
:100FD0000AF212F0061F0FD08268CB6802EA0B02F9
:100FE000B3401A4382604268CAF3001322EA0C023B
:100FF00003FA08F31A434260C2688B6802EA0B02E4
:10100000B3401A435FEACA03C260A9D5002243F67F
:1010100044030192C4F202031A684FF6084C42F4EA
:1010200080421A601A68CFF6FF7C02F48042019277
:10103000019A28F00302724452F80C3004F00C07B5
:101040000F25BD40AB43009D05FA07F73B4342F82F
:101050000C30DEF800204B6842EA0907DD0358BF78
:1010600022EA0907CEF80070DEF804209D0342EA68
:10107000090758BF22EA0907CEF80470DEF80820F5
:10108000DD0242EA090743F60C4558BF22EA090788
:10109000CEF80870C4F201052A689B0242EA0907EB
:1010A00058BF22EA09072F60012559E702B0BDE8C1
:1010B000F08F00000069084018BF01207047000051
:1010C00047F2E470C2F200000068704780B5D0F8C3
:1010D000940202F073F880BD80B5D0F8940202F05B
:1010E00083F880BD80B5006803F0A4F980BD0000DE
:1010F00080B5006803F0A2F980BD000001EB81011A
:1011000000EBC10090F85C007047000001EB81012A
:1011100000EBC100C06C704710B5044690F8900217
:10112000012804BF022010BD2068012284F890220B
:1011300003F092F9002084F8900210BD70B584B0DD
:10114000044690F89002012802D1022004B070BD3C
:10115000012084F8900201EB810004EBC00602F04C
:101160007F0086F83A00D009DDF828C0DDE9085E86
:1011700086F83B00206886F83830A6F840C086F82C
:10118000391086F83FE086F83C50CDE9005ECDF896
:1011900008C003F0A5F9002184F8901204B070BDD6
:1011A00070470000F0B581B00DF1180E9EE8C04008
:1011B00001EB810400EBC4040225002E84F83B20DF
:1011C00084F83F3008BF0325032B84F8425050D8E1
:1011D000DDF824C0DFE803F002261B2A002A08BF3E
:1011E000012E46D1BEF1000F04BF012284F8512028
:1011F00094F8512094F85C30002A18BF0122520064
:10120000022B84F8422018BF84F83DC031E0C2B1FF
:1012100094F85020002A04F1420214BF0223002354
:10122000137026E0002284F8422022E0C2B194F834
:101230005020002A04F1420214BF0223002313703D
:1012400017E094F8512094F85C30002A18BF01226E
:101250005200022B84F8422018BF84F83DC008E0F9
:1012600094F85120002A04F1420214BF0223002303
:1012700013700022036804F1380CA4F85C20E264C7
:10128000027C84F8391018466146C4E9117E03F0E7
:1012900099F901B0F0BD00002DE9F04F83B0066868
:1012A0000446304603F0D4F8012840F060832068FB
:1012B00003F0E4FA002800F05A83206803F0DEFA15
:1012C000800203D520684FF400114161206803F0CB
:1012D000D5FAC00203D520684FF48011416120681F
:1012E00003F0CCFA400103D520684FF080614161E2
:1012F000206803F0C3FA800702D52068022141610B
:10130000206803F0BBFA800010D5D6F8400420F026
:101310002E00C6F840042046FFF7DEFE20680121BB
:1013200003F090FA20684FF000514161206803F00B
:10133000A5FAC00154D52568D5F840040290D5F827
:1013400040040190019820F02E000190029880073F
:101350000DD50298C00706D0A86920F00050A861FA
:101360002046FFF7B3FE019840F00200019002987A
:1013700000072BD5019840F0080001900298400723
:101380000BD4D5F8400420F02E00C5F840042068A6
:10139000816941F00051816118E0A06902280BD1F8
:1013A000029800F4C0212068B1F5802F14BF0121FC
:1013B000022103F047FA06E0E068032804BF4EF676
:1013C0006020C5F804042046FFF780FE02988006DE
:1013D00003D5019840F0200001900198C5F8400421
:1013E000206803F04BFA000705D5204600F01AFBF1
:1013F000206808214161206803F040FA800140F133
:101400007282206803F0DAF8A168002900F0678290
:10141000834606F5A0674FF00008009010E0042016
:10142000C9F80800D9F80C0040F00200C9F80C0017
:10143000A06808F10108804507F1200780F04F827D
:101440002BFA08F0C007F3D0396820685FFA88F6F5
:1014500000EB461202F5A06902F5A16AD2F8082550
:10146000090402F0040153D40029D8D1DAF800109D
:10147000890600F17C80DAF80010490600F19780B7
:10148000DAF80010890500F17C81DAF80010C9074C
:1014900040F09681DAF80010090700F1B581DAF81A
:1014A0000010C90600F1C481DAF80010090600F145
:1014B000D581DAF80010490500F1E181DAF8000081
:1014C0008007B5D5D9F80C0020F00200C9F80C004F
:1014D00006EB860004EBC00090F85D100139072987
:1014E00000F28881DFE811F0E5018601E301F401F3
:1014F0008101080086010800014651F8582F531C4D
:10150000042A0B60C0F0D38100220A6004216FE13D
:1015100019BBDAF80010890645D4DAF8001009077B
:101520005BD4DAF8001049056ED5D9F80C1041F0FB
:101530000201C9F80C10314602F08EFF1020C9F8E4
:10154000080006EB860004EBC000082180F85D105F
:101550004FF48060C9F8080056E00420C9F808007C
:10156000D9F80C0040F00200C9F80C004CE0202132
:10157000CAF8001006EB860104EBC10595F83D1092
:1015800001297FF455AF042185F85D10D9F80C10BE
:1015900041F00201C9F80C10314602F05DFF022053
:1015A00085F85C0044E72020CAF800002CE006EB38
:1015B000860104EBC101042281F85D2000228A65C6
:1015C000D9F80C1041F00201C9F80C10314602F0B4
:1015D00043FF4020C9F808002AE7D9F80C1005227B
:1015E00041F00201C9F80C1006EB860104EBC101C1
:1015F00081F85D201021C9F808100821C9F80810E9
:10160000314602F029FF00BFDAF8000080053BD424
:10161000DAF80000C00746D1DAF80000800770D47D
:10162000DAF80000000600F1B380DAF80000C00626
:101630007FF5FEAE06EB860004EBC005AB461BF85B
:101640003F0F032809D1D9F80C00314640F00200C1
:10165000C9F80C00206802F0FFFE032085F85D0049
:101660001020CAF800009BF80000DDF800B040F040
:10167000020002287FF4DCAED9F80000022161F3F9
:101680009F70C9F80000D3E6D9F80C0040F00200C2
:10169000C9F80C002068314602F0DEFE4FF40070FD
:1016A000C9F80800C4E6206950B106EB860004EBD7
:1016B000C000816CD9F810206FF3DF42891AC16431
:1016C00006EB860004EBC00B012100208BF85D10B7
:1016D000CBF85800CAF800109BF83F0018B1032857
:1016E00038D0022844D1D9F80C00314640F002002D
:1016F000C9F80C00206802F0AFFE1020C9F80800FD
:1017000036E0D9F80C0020F00200C9F80C0006EB16
:10171000860004EBC00090F85D100139072969D8F4
:10172000DFE801F06568686863046804816D4A1C3D
:1017300003294FF0020188BF0022826588BF04217F
:1017400080F85C10D9F80010022262F39F71C9F88A
:1017500000104FE0D9F80000314640F00050C9F8C1
:10176000000001208BF85C0020460122FFF718FDE5
:101770009BF8500080F001008BF85000DDF800B0BD
:1017800056E6D9F80C1041F00201C9F80C1082E7B6
:10179000D9F80C00062240F00200C9F80C0006EB54
:1017A000860004EBC001886D81F85D2001308865FA
:1017B0002068314602F050FE8020C9F8080037E664
:1017C00006EB860104EBC1050021A965D9F80C10D0
:1017D00041F00201C9F80C10314602F03DFE012033
:1017E000C9F8080085F85D0022E6052100E0012126
:1017F00080F85C100221CAF8001090F85C202046A6
:101800003146FFF7CDFC13E60821C9F80810D9F8D6
:101810000C1041F00201C9F80C10314602F01CFE18
:1018200006EB860004EBC000052180F85D10FFE5A3
:1018300006EB860104EBC1050021A965D9F80C105F
:1018400041F00201C9F80C10314602F005FE0320F8
:1018500085F85D001020C9F80800E9E5D9F80C10FA
:1018600041F00201C9F80C10314602F0F5FD06EB1B
:10187000860004EBC000062180F85D109CE7D9F8D3
:101880000C1041F00201C9F80C10314602F0E4FDE1
:101890001020C9F808004FF48060C9F8080006EB72
:1018A000860004EBC000082180F85D10C0E502212D
:1018B0009EE790F83F1002294FF0010180F85C107C
:1018C00098D190F8511081F0010180F8511091E702
:1018D000022180F85C10002180F83D108AE7206822
:1018E0004FF000714161206802F0C8FFC0063ED58C
:1018F0002568A86920F01000A861286A00F4F0119A
:10190000B1F5802F2ED1C0F30A165EB300F00F0898
:1019100008EB880004EBC0094F4657F8441F09B391
:101920002846324602F0AEFF3868D9F84C103044F1
:1019300038608819C9F84C0005EB4810D0F810152C
:101940000022C1F6F87211420CD000F5A0600168C7
:10195000022262F39F71016099F8500080F001004B
:1019600089F850002068816941F01001816103B05D
:10197000BDE8F08F2DE9F04F8BB0054600284FF001
:10198000010043D0032085F89102284600F042F878
:10199000286802F01FFD286805F1040E0A90D5E9B9
:1019A0000C8005F1240B9EE8DE509BE8000ECDE98B
:1019B00008800A988DE8D050CDE9059ACDF81CB082
:1019C00002F0B2FC2868012102F08EFF28682F1D6A
:1019D0000A90D5E90C4005F1140E05F1240A8ECFCA
:1019E0009EE840589AE80007CDE9084002A880E840
:1019F00000580A98CDE90076CDE90589CDF81CA0FC
:101A000002F094FE012085F8910200200BB0BDE8A1
:101A1000F08F00007047000080B5006802F04AFFB8
:101A200080BD000080B5D0F8940201F01BFC80BDA1
:101A300010B5044690F89002012804BF022010BDA2
:101A40002068012184F8901202F0ECFC206801214A
:101A500002F0C8FC002084F8900210BD10B50446C6
:101A600090F89002012804BF022010BD20680121D7
:101A700084F8901202F04EFF002084F8900210BD0E
:101A800047F2E470C2F20000016801310160704762
:101A900080B543F60040C4F20200016841F40071D1
:101AA0000160016841F480610160016841F4807166
:101AB0000160032000F09AF80F2000F005F800F014
:101AC0001DF8002080BD000010B540F20001C2F2F8
:101AD0000001096844F6D352C1F26202A1FB02126E
:101AE0000446900900F0E2FC4FF0FF30214600224E
:101AF00000F050F8002010BD7047000080B50320B2
:101B000000F074F86FF00B000021002200F042F8A2
:101B10006FF00A000021002200F03CF86FF009008D
:101B20000021002200F036F86FF0040000210022AE
:101B300000F030F86FF003000021002200F02AF8D6
:101B40006FF001000021002200F024F84FF0FF3078
:101B50000021002200F01EF880BD000000F01F01EF
:101B6000012202FA01F14EF280124009CEF2000287
:101B700042F820107047000000F01F01012202FA15
:101B800001F14EF200124009CEF2000242F820109C
:101B90007047000010B54EF60C5CCEF2000CDCF87D
:101BA0000030C3F3022E8EF00704042C28BF042457
:101BB000BEF103034FF0FF3E0EFA04F438BF0023DA
:101BC000A14399400EFA03F39A43114300F00F0228
:101BD00000F160430901043A03F5644362440028BC
:101BE00048BF02F10C03197010BD00004EF60C51F5
:101BF000CEF200010A684FF6FF031A4060F30A2292
:101C000042F0806040F0FD70086070472DE9F041BF
:101C1000002800F0868043F60808C4F20208044653
:101C2000D8F8F8030D4600F00F00884207D288F874
:101C3000F853D8F8F80300F00F00A84271D12068DB
:101C4000810717D5410705D5D8F8001041F4E051B8
:101C5000C8F80010010705D5D8F8001041F460411C
:101C6000C8F80010D8F80010A26821F0F001114364
:101C7000C8F80010C0073AD1D8F8F80300F00F00F8
:101C8000A84207D988F8F853D8F8F80300F00F00F5
:101C9000A84246D12068410707D5D8F80010E2686D
:101CA00021F4E0511143C8F80010000708D5D8F816
:101CB0000000216920F4604040EAC100C8F800003B
:101CC00000F04EF8D8F8001048F66852C1F303113E
:101CD000C0F60002515CC84040F20001C2F20001AF
:101CE00008600F20FFF7F0FE0020BDE8F08160687B
:101CF000811E022907D258F8081C89015CBF012007
:101D0000BDE8F08110E0012807D158F8081C8903CC
:101D10005CBF0120BDE8F08106E058F8081C890787
:101D200002D40120BDE8F081D8F8001021F00301B1
:101D30000843C8F80000FFF7C3F9064641F28837A8
:101D4000D8F80000616800F00C00B0EB810F93D070
:101D5000FFF7B6F9801BB842F2D90320BDE8F08145
:101D600010B543F60404C4F20204606800F00C00ED
:101D700008280AD0042819BF42F20040C0F2F4003B
:101D800047F64000C0F27D1010BD2068216823682E
:101D9000490247F64001C0F27D1100F03F02C3F353
:101DA00088105CBF42F20041C0F2F401A1FB0001C7
:101DB0000023FEF7DFFA21680222C1F3014102EBA2
:101DC0004101B0FBF1F010BDF0B581B0002877D033
:101DD0000446007843F60006C007C4F2020644D069
:101DE000B06800F00C00042816D0B06800F00C00B9
:101DF000082802D1706840020ED46568B5F5A02F9E
:101E000010D0B5F5803F11D0306820F480303060BC
:101E1000306820F480200CE03068800325D56068AD
:101E200018BB4DE0306840F480203060306840F4EA
:101E300080303060FFF744F9002D054612D000BF16
:101E40003068800311D4FFF73BF9401B6428F7D9B1
:101E5000A5E000BFFFF734F9401B64284FF00300F2
:101E600000F21A8130688003F4D42078800718D5F6
:101E7000B06810F00C0F07D0B06800F00C00082814
:101E800057D17068400254D43068800702D5E068AA
:101E9000012815D13068216920F0F80040EAC1001E
:101EA0003060207800070ED42078400721D4A5693F
:101EB000002D00F0F380B06800F00C00082871D10C
:101EC000012001B0F0BD6069002855D00020C4F2A7
:101ED00047200121C0F8801EFFF7F2F8054600BF39
:101EE000706F8007E0D4FFF7EBF8401B0228F7D9AA
:101EF00055E000200090306C47F2000740F0805021
:101F00003064306CC4F2000700F0805000900098FC
:101F1000386840F480703860FFF7D2F8054600BF9B
:101F20003868C0051BD4FFF7CBF8401B0228F7D94F
:101F300035E0E068002840F20000C4F2472052D0AB
:101F400001210160FFF7BCF8054600BF306880073B
:101F5000A0D4FFF7B5F8401B0228F7D91FE0A56809
:101F6000052D51D0012D53D0306F20F00100306786
:101F7000306F20F004004EE00020C4F24720002122
:101F8000C0F8801EFFF79CF8054600BF706F800701
:101F90007FF58AAFFFF794F8401B0228F6D903209B
:101FA00001B0F0BD0027C4F2472700203866FFF7D4
:101FB00087F8022D05460BD1306880014BD5FFF71D
:101FC0007FF8401B02284FF00300F5D964E000BF02
:101FD0003068800162D5FFF773F8401B03284FF08B
:101FE0000300F5D358E000210160FFF769F80546CA
:101FF000306880077FF555AFFFF762F8401B022875
:102000004FF00300F4D947E0306F40F00400306730
:10201000306F40F001003067FFF752F8002D0546A1
:1020200041F2883713D000BF306F80073FF53FAFD4
:10203000FFF746F8401BB8424FF00300F4D92BE0FD
:10204000FFF73EF8401BB8424FF0030024D8306F32
:102050008007F5D42BE704F11C052FCD08430021A0
:10206000CFF6FF7140EA821001EBC3316FF30F012D
:1020700040EA05600843706001203866FFF720F8E9
:10208000044600BF3068800108D4FFF719F8001B30
:1020900002284FF00300F5D901B0F0BD002001B0D7
:1020A000F0BD000070470000B0B582B00446006883
:1020B0004168826802F04103012B04D111F0400312
:1020C00001D0216C05E0930707D511F0800304D0FF
:1020D000616C2046884702B0B0BD12F4B07F18BFD3
:1020E00011F0200301D102B0B0BD12F0400317D0AF
:1020F00094F85130032B08D100210191C16801915E
:1021000080680190019802B0B0BD636D43F0040394
:10211000636500230193C368019383680193019B66
:1021200093060CD5636D43F00103636500230193AF
:1021300083680193036823F040030360019BD20589
:1021400008D5626D42F00802626500220192826841
:102150000192019A626D002AC5D04268890722F077
:10216000E00242604FF0010284F8512014D041682F
:1021700042F6A90521F003014160E06CC0F60005BC
:1021800010B10565FEF702FDA06C0028ABD0056517
:10219000FEF7FCFC02B0B0BD2046FFF783FF02B0A3
:1021A000B0BD0000002804BF0120704710B50446F0
:1021B00090F8510028B9002084F85000204600F023
:1021C00035F8022084F8510094E8071011430368A1
:1021D00041EA0C0123F04003036022691143D4E972
:1021E000052341EA020C03F40072E16942EA0C02A1
:1021F00042EA010C226AA16A42EA0C020A43026026
:102200004FF0040C626A0CEA13431A434260B1F5C2
:10221000005F04BFE16A0161C16921F40061C1612D
:1022200000200121606584F8511010BD7047000046
:1022300080B5836894465BB94268B2F5827F07D166
:10224000042280F851200A46634600F085F880BDDC
:1022500090F85020012A04BF022080BD012280F89E
:10226000502090F85120012A47D100294FF0010257
:1022700018BFBCF1000F41D0042280F85120002289
:1022800042658163A0F83CC0A0F83EC0026382862C
:10229000C286D0F80CE042F6B90142F62D1CC0F619
:1022A0000001BEF1000FC0F6000C08BF6146B3F597
:1022B000004F0164426404D101680A6822F480423C
:1022C0000A60816AB1F5005F09D101684DF6FF73BC
:1022D0000A681A400A600A6842F400520A600168FB
:1022E0004A6842F060024A600A68520603D40A68EB
:1022F00042F040020A60002200E00222002180F841
:102300005010104680BD0000B0B546F68F60C2F296
:1023100000000478CCB1A4F1810011280FD8FEF799
:10232000CFFE47F27855C2F200052968401A6528A9
:1023300005D304F07F04FEF7C3FE286000E000240C
:1023400046F68E60C2F20000047043F20C00C4F244
:10235000010000210160B0BD80B590F850C0BCF113
:10236000010F04BF022080BD4FF0010C80F850C067
:1023700090F851E0BEF1010F0ED0D0F804C0BCF5CA
:10238000827F59D1D0F808C0BCF1000F4FF0020C89
:1023900008BFBEF1040F51D100294FF0010C18BF46
:1023A000002A4BD0002B49D090F851C0BCF1010F4E
:1023B00004BF4FF0050C80F851C04FF0000CC0F87E
:1023C00054C001638386C38682638387C387C368DF
:1023D00042F2056C42F29952C0F6000CC0F60002BF
:1023E000816A002B42F2796308BF624642F2C56CF3
:1023F000C0F60003C0F6000C08BF6346B1F5005FED
:102400000264436409D101684DF6FF730A681A40FB
:102410000A600A6842F400520A6001684A6842F0A1
:10242000E0024A600A68520603D40A6842F0400299
:102430000A604FF0000C01E04FF0020C002180F820
:102440005010604680BD000070470000002804BFA7
:102450000120704770B5044690F8490015460E46B5
:1024600028B9002084F84800204600F01BF82068B6
:1024700004F10801FEF71EFB2068A2683146FEF752
:1024800055FBD4E90102236B2946FEF7F1FA2068D7
:10249000A16850F8212042F0010240F821200020DC
:1024A00070BD00007047000070470000411E002012
:1024B000B0EB116F1CBF012070474EF21002CEF23C
:1024C000000251604EF62351CEF20001F0230B7052
:1024D000072190601160704780B5FFF7E5FF80BD70
:1024E000002804BF0120704710B5044690F8390059
:1024F00028B9002084F83800204600F00DF80220AA
:1025000084F839002068211D00F0F0FA012084F8D9
:102510003900002010BD0000704700000146022075
:1025200081F839000868026842F001020260012265
:10253000002081F8392070470168C86840F0010028
:10254000C860086840F0010200200A60704700007F
:10255000006841F21112C16821F00101C160016AF5
:10256000114201D000207047016A40F244421142FA
:10257000F8D1016821F001010160002070470000DE
:1025800080B547F2D420C2F20000FEF785FE80BD80
:1025900080B502F037FC80BD80B50168826BCB68E6
:1025A00022F8023B8263C28F013AC287C28F002A9F
:1025B00018BF80BD826AB2F5005F05D142F2DD51DD
:1025C000C0F60001016480BD4A6822F040024A6002
:1025D000C18E002908BF00F09BF880BD80B582B095
:1025E0000021ADF806100168CA68ADF80620BDF8F4
:1025F00006204A6822F040024A6000F089F802B0E2
:1026000080BD000080B50168097B826B531C836329
:102610001170C18F0139C187C18F002918BF80BDDA
:10262000816AB1F5005F05D142F24D61C0F600014B
:10263000016480BD01684A6822F060024A60C18E70
:10264000002908BF00F064F880BD000080B582B0AA
:1026500000218DF8071001680A7B8DF807209DF88E
:1026600007204A6822F060024A60C18E002908BF34
:1026700000F04EF802B080BD80B5026B016832F800
:10268000023BCB600263C28E013AC286C28E002A30
:1026900018BF80BD826AB2F5005F08D1086840F4B7
:1026A00080500860486820F08000486080BD4A681B
:1026B00022F080024A60C18F002908BF00F028F88C
:1026C00080BD000080B5016B02684B1C0363097874
:1026D0001173C18E0139C186C18E002918BF80BD1A
:1026E000826A0168B2F5005F08D1086840F4805042
:1026F0000860486820F08000486080BD4A6822F089
:1027000080024A60C18F002908BF00F001F880BD37
:10271000B0B582B040F20001C2F20001096841F692
:10272000F112C0F27652A1FB02120446500A642153
:1027300048430190FEF7C4FC216805464A6822F030
:10274000200048600198421E019220B188688007ED
:10275000F8D588680DE0606D40F0200060658868FD
:1027600007E000BFFEF7ACFC411B2068642903D2E0
:1027700080680006F6D42DE0416821F0E001416058
:102780006168B1F5827F0AD1A168B1F5004F02D02E
:10279000B1F5806F03D1016821F040010160A16AA9
:1027A000B1F5005F08D101684DF6FF72114001607C
:1027B000016841F400510160012084F851000020BB
:1027C00084F85000606D40F020006065606D40F05E
:1027D00020006065A06838B9002000902068C168BA
:1027E000009180680090009820688168C90605D42F
:1027F000606D90B1012084F8510009E0012184F856
:102800005110616D41F0020161654FF6EF71816019
:102810002046FFF747FC02B0B0BD94F851000121FB
:102820000428204684F8511003D1FFF76DFD02B053
:10283000B0BDFFF709FE02B0B0BD000080B582B0A8
:10284000D0E900124B68B2F5827F23F060034B6041
:102850000AD18268B2F5004F02D0B2F5806F03D181
:102860000A6822F040020A60826832B900220192AE
:10287000CA6801928A680192019A012280F8512067
:102880008B68426DDB0604D44AB9FFF73DFD02B008
:1028900080BD42F0020242654FF6EF728A60FFF798
:1028A00001FC02B080BD000080B5806B0021C187B3
:1028B000C186FFF7F7FB80BD80B50168826BCB68EE
:1028C00022F8023B8263C28F013AC287C28F012A7B
:1028D00007D1826AB2F5005F03D10A6842F48052E0
:1028E0000A60C18F002918BF80BD816AB1F5005F01
:1028F00005D142F60511C0F60001016480BDFFF765
:102900009DFF80BD80B582B00021ADF80610016842
:10291000CA68ADF80620BDF806204A6822F06002B9
:102920004A60FFF78BFF02B080BD000080B50168F0
:10293000097B826B531C83631170C18F0139C1877E
:10294000C18F012908D1816AB1F5005F04D1016806
:102950000A6842F480520A60C18F002918BF80BD06
:10296000816AB1F5005F05D142F67D11C0F6000124
:10297000016480BDFFF762FF80BD000080B582B0BA
:1029800000218DF807100168097B8DF807109DF86C
:102990000710FFF753FF02B080BD000080B5FFF7BE
:1029A0006FF8FFF799FD80BD4EF68850CEF200001B
:1029B00001684FF0000C41F47001016043F6000122
:1029C000C4F202010A6842F001020A60C1F808C0BC
:1029D0000B684FF6FF72CFF6F6621A400A6043F2B8
:1029E0001002C2F200424A600A6822F480220A60A1
:1029F000C1F80CC04FF0006140F8801C7047000027
:102A00002DE9F04F81B040F21040C4F2000001689F
:102A1000C9071CBF50F8041C5FEAC17102D101B0A4
:102A2000BDE8F08F46F608796FF00101C2F20009A7
:102A30000160A9F1080B4FF0FF361027FEF740FBAD
:102A40008246584650F8101FB14238BF0E46013F2B
:102A5000F8D15645E3D846F6CC60C2F2000003F048
:102A600033FE00274FF0FF3805E0C6F8008000BFB6
:102A70000137102F17D009EB0714264656F8080F18
:102A80005045F5D8380159F800008047207B0028D0
:102A9000EBD00434206831680D183560FEF710FB68
:102AA0008542F7D3E4E74FF0FF3410205BF8101FA6
:102AB000A14238BF0C460138F8D146F6CC60C2F2CC
:102AC000000003F001FE601CA9D0FEF7F9FA201AFD
:102AD0004FF0FF3101EB400146F6CC60C2F200003E
:102AE00003F0F6FD01B0BDE8F08F000080B540F6C0
:102AF000FF3E0368C4F2000E40F2004C7045C4F281
:102B0000010C0FDCB0F1804F19D040F20042C4F24A
:102B10000002904213D040F60002C4F2000290423C
:102B20000DD010E040F60042C4F20002904206D000
:102B3000604504D00022C4F20102904203D14A68E9
:102B400023F07003134341F6FF72C4F20002904277
:102B50000DDC70451FDCB0F1804F41D040F20042E7
:102B6000C4F2000290423BD040F6000221E043F65E
:102B7000FF72C4F20102904220DC42F20002C4F271
:102B8000000290422CD00022C4F20102904227D0D1
:102B9000604525D028E040F60042C4F20002904291
:102BA0001ED041F60002C4F20002904218D041F655
:102BB0000042C4F20002904212D015E044F200023A
:102BC000C4F2010290420BD044F60002C4F20102AA
:102BD000904205D044F20042C4F20102904203D177
:102BE000CA6823F44073134303608A680B68C262A7
:102BF00040F480628362624504BF09690163012178
:102C0000416180BD10B54FF6FF7C4FF6FF7E00F5A9
:102C10001F72002302EB83046478240603D501337A
:102C20000B2BF7D101E05FFA83FEE6451EBF01F5ED
:102C3000004100EB8E00C0F87C125FFA8EF010BDF0
:102C400080B584B0944601224FF0000ECDE90021FA
:102C5000194601220223CDF80CE0CDF808C000F09F
:102C60004DFB002004B080BD10B584B09E4690F8A6
:102C70001D329446069A0024002B18BF22460123D9
:102C8000CDE900310392714600220223CDF808C03D
:102C900000F034FB002004B010BD000080B500F04F
:102CA00085FA002080BD000080B58278012A05D118
:102CB0004FF48172818200210261C18200210022D1
:102CC00000F016F880BD000080B584B09446012263
:102CD0004FF0000ECDE90021194601220023CDF866
:102CE0000CE0CDF808C000F009FB002004B080BD66
:102CF000B0B582B004468078022808D001281DD1E2
:102D000001250220A160A2812576A070C5E0207E69
:102D100001380A2800F2B5800FF20401DFE800F064
:102D20000610242F3B4959646D7B8B00627904F1B6
:102D30001001204600F0CEF80220A1E00125ACE011
:102D40006179204600F088FA042872D0012840F00A
:102D50009880E18A94F91000002900F08B80B0F18E
:102D6000FF3F34DC03208BE0D4F8B802A168A289CD
:102D70002379E0812046FFF7A7FF042080E0217936
:102D8000204600F069FA05286AD0042851D00128AD
:102D900040F0778073E0A168A2896379012520461D
:102DA000009500F07DF8D4F8B802E0810620207686
:102DB00068E06179204600F04FFA013804284FF0AE
:102DC00001055FD8DFE800F059035E4E5200052090
:102DD00056E02379204600210022FFF775FFD4F842
:102DE000B802E08108204BE02179204600F034FA57
:102DF000052835D0042816D11BE06379012520462B
:102E000000210022009500F04BF8D4F8B802E081D0
:102E10000A20207636E06179204600F01DFA042869
:102E200007D002282BD001282BD10D202076002599
:102E300028E00B2024E0607E0130C1B202296076D8
:102E400006D8204600F052FA01252576A57019E033
:102E5000D4F8C4222046062190470020607603E083
:102E600003250FE00B20207602250BE00C202076B6
:102E7000032507E0B0F1FF3F01DD072000E0092056
:102E800020760125022D05D03DB901200025A07036
:102E9000257602E001200225A070284602B0B0BDD0
:102EA00010B584B09E4690F81D329446069A0024D0
:102EB000002B18BF22460123CDE900310392714651
:102EC00000220023CDF808C000F018FA002004B05A
:102ED00010BD000080B584B08C460021082300910D
:102EE000CDE90231114600220023CDF804C000F0E4
:102EF00005FA002004B080BD80B5FDF76FFE80BDEF
:102F000080B500F2432E4FF0000C06E00CF1010CEE
:102F1000BCF1020F0EF11A0E12D0FF2903D01EF8D9
:102F2000020C8842F2D1FF2A03D01EF8010C904215
:102F3000ECD1FF2B06D09EF800009842E6D101E0CC
:102F40004FF0FF0C5FFA8CF080BD00000A2907D813
:102F500000EB8100D0F87C126FF3DF31C0F87C12F7
:102F6000002070472DE9F047804680780E46012802
:102F700008F11C0509D14FF4D060A8F810004FF4F7
:102F80000070C8F81200A8F816604046294632467C
:102F9000FFF7AEFE08B1BDE8F087B8F81C1098F84E
:102FA0002020A8F83212B8F81E1088F83622D8F877
:102FB00021200A2EA8F83412C8F83722EBD31FFAC2
:102FC00081F9B9F10A0FE6D3092200234FF01A0C58
:102FD0004FF0000E0BE000BF0EF1010E4FFA8EF322
:102FE000012BC8BFBDE8F08791B24945D3D22978FB
:102FF0000D446C780A44042CF0D1297803FB0C8A28
:103000008AF83C1269788AF83D12A9788AF83E124B
:10301000E9788AF83F122C798AF840426979002CC5
:103020008AF84112A9798AF84212E9798AF843129A
:10303000297A8AF84412CFD091B24945CCD20026E1
:10304000002700BF29780D446B78052B14D12B780D
:103050000AEBC60686F846326B78013786F84732A7
:10306000AB7886F84832EB7886F84932AB88A6F818
:103070004A32AB7986F84C327EB2A6420A44ABDAC9
:1030800091B24945DED3A7E7B0B5044680780D4636
:10309000012804F11C0107D14FF4D06020824FF4C5
:1030A0008070C4F81200E58220462A46FFF720FE11
:1030B00000B1B0BDE169226A092DC4F82012C4F83C
:1030C000242238BFB0BDA18C94F82A20A4F828127D
:1030D000D4F8261084F82E22C4F82A12B4F82B1043
:1030E00094F82D20A4F82F1284F83122B0BD0000EE
:1030F00070B51446827805461E460846012A05F139
:103100001C0109D100F540704FF4D062688240F292
:1031100009402A82A882EE8228463246FFF7E8FD5F
:1031200000B170BD697F032918BF70BD297F0239C6
:10313000B142C8BF314689B249B105F11E02002330
:10314000D65C02339BB28B4204F8016BF8D30021AA
:10315000217070BD002804BF0220704770B504467E
:103160000D4680F8BC2200F51D761C304FF400712E
:10317000FDF720FA30464421FDF73EFA00204FF4D7
:1031800080712070A4F80110C4F8B80201202083D7
:103190004020A0712046002DA4F81C1218BFC4F8CE
:1031A000C45200F071F8002070BD000080B5D0F866
:1031B000C002FDF7B1FF002080BD000080B501789E
:1031C00031B10178012904BF02210170002080BDC6
:1031D000012180F81E12D0F8C422002AF6D0042162
:1031E0009047002080BD000010B5044600F07EF836
:1031F00021792046FFF7AAFE61792046FFF7A6FE57
:10320000002084F81E02D4F8C42212B12046052101
:103210009047204600F062F803210020217010BD85
:1032200080B5C820FDF7DAFC002080BD80B5D0F85D
:10323000C002FDF76BFF80BD80B5D0F8C002FDF77E
:1032400057FF032828BF0120C0B280BD80B50846C3
:1032500001F0A2FE80BD000080B5D0F8C002FDF7ED
:103260004DFF80BD80B5D0F8B8120131C0F8B8125A
:1032700001780A2906D1D0F87412002908BF80BD50
:103280008969884780BD000080B501F061FE00209B
:1032900080BD000010B584B0DDE906CE089CD0F8F2
:1032A000C002CDE900CE0294FDF748FF002004B033
:1032B00010BD000080B5D0F8C002FEF7ADFB0020C5
:1032C00080BD0000C0F8B8127047000080B5084605
:1032D000114601F073FE002080BD000080B5D0F8DB
:1032E000C002FEF7A5FB002080BD000080B5D0F82D
:1032F000C002FEF7B3FB002080BD0000B0B584B073
:10330000DDE908CEDDE90A45D0F8C002CDE900CEFE
:10331000CDE90245FDF746FF002004B0B0BD000036
:10332000D0F8740244F25002C16945F25530C4F23B
:103330004230C2F23002C1E915020122002081F8B8
:10334000502081F85220704770B582B00446D0F802
:103350007402C66996F8500001380A2843D8DFE89D
:1033600000F00644606C16829BA7D723E40006F1A8
:1033700054020220737986F8611086F85000012506
:10338000204611461F220095FFF76EFC3EE1D6F85D
:103390008C1032897379012520460095FFF764FC73
:1033A000062086F8500031E1B1792046FFF77CFC19
:1033B000042800F0CD80002840F0CF8071792046AD
:1033C000FFF744FF7179C0F10100C2B22046FFF758
:1033D0007DFF317920460022FFF778FF092086F82B
:1033E0005000012512E1012510E171792046FFF717
:1033F00033FF052800F0C680022800F0C8800128AD
:1034000040F0C980F06D002800F0F18096F960006E
:103410000125B0F1FF3FCCBF0520032086F8500006
:10342000F4E0D6F88C10728933792046FFF708FC57
:10343000042086F850000125E8E031792046FFF7A6
:103440000BFF052800F08B80012840F08D80F06D87
:103450007289904240F2AD80D6F88C10801A1144E7
:10346000C6F88C10A6E071792046FFF7F5FE052816
:1034700000F09380022800F09580012840F09780AA
:10348000F06D3289904240F2A680D6F88C10801AF6
:103490001144C6F88C109FE0337906F1780120467C
:1034A0000D22FFF7CDFB082086F850000125ADE086
:1034B00031792046FFF7D0FE052857D001285AD190
:1034C000D4F874020122C5692046297986F8502073
:1034D00086F85220FFF7AAFE0D2875D1A86F45F295
:1034E0005531C5F24231884240F08B80A86DE96FBA
:1034F000814240F0888095F88400032880F0858020
:1035000040F20021C000C0F2020121FA00F57DE086
:10351000F1792046FFF7C8FB04282ED0002804BF0D
:10352000072086F85000012570E04FF621702082B8
:103530000020C4F81200E082204600210022FFF79C
:10354000D7FB0546002861D1012086F850005DE0D8
:103550000B2086F85000012558E0012556E009208F
:1035600086F85000012551E001254FE0092086F83A
:10357000500001254AE0012548E00B2086F8500064
:10358000012543E00A2086F8500001253EE0012590
:1035900086F850503AE0012538E00A2086F85000BD
:1035A000012533E0052086F8500001252EE0012595
:1035B0002CE00020F06548B1D6F88C103379204615
:1035C000FFF73EFB012521E002251FE0072086F8DA
:1035D000500001251AE00020F06568B1D6F88C1083
:1035E0007379012520460095FFF73EFB0EE007208A
:1035F00086F85000012509E0072086F850000125D3
:1036000004E0022502E0022500E00225E8B202B053
:1036100070BD000080B54FF6A16202820022C0F8A2
:1036200012200122C2820122FFF762FB80BD00004E
:1036300070B5D0F87412CC69A17B19B1032920D0E0
:10364000022922D12146FFF7E5FF032804BF00200D
:103650002060002818BF70BD21784FF0000C4A1C74
:1036600022604FF0340E022200250023013305FBB7
:103670000E46DDB28D4286F8922086F8C1C0F5D99B
:1036800070BD0021FFF710FB08B1012070BDE07B89
:10369000A073012070BD0000B0B5D0F87432DB69B2
:1036A00000780A281CBF0220B0BD342011FB003076
:1036B000D0F8A44000F19805D0E924CE2ACD546179
:1036C00002F108042AC4C2E900CED0E92ACED0E92A
:1036D0002C54D0E92E31C2E90854C2E90A31C2E9BA
:1036E00006CED0F8C00010630020B0BDB0B50446CF
:1036F000D0F87402C569697941B12046FFF7CEFA66
:1037000069792046FFF722FC00206871297941B1D0
:103710002046FFF7C3FA29792046FFF717FC00205F
:103720002871D4F87402C06928B1FCF7FCFDD4F804
:1037300074020021C1610020B0BD00002DE9F041FC
:1037400084B00446D0F87402062201792046502342
:10375000FFF7D6FBFF2869D00146204600F0B0FDF8
:103760004FF48070FCF7B0FD054694F81F021A2153
:1037700010FB014292F94812D4F87432B1F1FF3FC4
:10378000DD61B2F84A22C7BFA9712A81E9716A8155
:103790001A2110FB014191F95002B1F85212B0F117
:1037A000FF3FC7BFA8712981E8716981A979002607
:1037B0002046C5F8F860AE81AE73FFF723FAE979C9
:1037C00068712046FFF71EFA28712046FFF7A8FD12
:1037D00005F190006821FCF70FFF94F81D0269794C
:1037E000AA7994F81C32B5F808C04FF00208CDE968
:1037F00000082046CDF808C000F0C8FB94F81D0270
:103800002979EA7994F81C326F89CDE900082046BD
:10381000029700F0BBFB297920460022FFF756FDF6
:10382000697920460022FFF751FD00E0022630466C
:1038300004B0BDE8F0810000F0B581B00546D0F8D5
:103840007402C669307B012838D0002838D1B6F818
:10385000F8003168814235D9342100FB016101242F
:1038600011F8902F082A4C7036D8DFE802F00535A1
:1038700038580B753535A10004220A70D5F8B812F6
:10388000C6F8FC10342400FB046101F19F02C1B2B0
:10389000284600F091F9042800F08F80022800F0FB
:1038A0009680002840F09D80B6F8F800342100FB97
:1038B0000160022180F8901001240DE000240BE04B
:1038C000012409E00020D5F8C422A6F8F80001245C
:1038D0002846022134739047204601B0F0BDC1B2A2
:1038E000284600F08DFA04287DD0022800F086805A
:1038F000002840F09880B6F8F800342100FB016001
:10390000012490F89210002918BF012180F8C110FD
:103910000321A0F89010002180F89210DCE73424F5
:1039200000FB046101F19402C1B2284600F0E8F9FD
:1039300004287AD0022800F08280002840F0898094
:10394000B6F8F800342100FB016101240130A1F830
:103950009040A6F8F800BFE7342700FB076101F1AB
:103960009C02C1B2284600F007FA042800F08A80C1
:1039700002287DD000286ED1B6F8F810342201FB61
:10398000026292F89C3043F00403062B65D1D5F80F
:10399000B832D6F8FC505B1B42F20F75AB425CD8D4
:1039A000342001FB0060022180F89010012493E78D
:1039B0000130A6F8F80001248EE7B6F8F80040F2CE
:1039C000012100FB04600124A0F8901084E7B6F800
:1039D000F800342100FB0160052180F890100124DB
:1039E0007AE7012478E7B6F8F800342100FB01609B
:1039F00040F20121A0F8901001246DE7B6F8F8001C
:103A0000342100FB0160012490F89210023918BFA4
:103A1000012180F8C11040F20511A0F89010022198
:103A200080F8921058E7012456E7B6F8F80040F203
:103A3000012100FB04600124A0F890104CE7B6F8C7
:103A4000F800342100FB0160052180F8901001246A
:103A500042E7012440E701243EE701240131042824
:103A600082F89040A6F8F8100CD002287FF434AF0A
:103A7000B6F8F800342100FB0160082180F89010AE
:103A8000012429E7B6F8F80040F2012100FB0760A5
:103A90000124A0F890101FE770B582B0D0F874220E
:103AA0000C46D669342114FB0162154615F8901FA7
:103AB00005290BD0072916D0062927D10026214633
:103AC00000220023009600F0D7F813E09C32214634
:103AD00000F052F9014600284FF0010019D00429E6
:103AE00020D002B070BD002621460022002300969F
:103AF00000F0ACF9014600284FF0010014D0042971
:103B000010D00229EDD1012105200DE0012002B0E5
:103B100070BD2870342014FB0062022082F89100EE
:103B20000429DED1022108202870084602B070BDA9
:103B30002DE9F04182B00446D0F87402D0F81C8020
:103B400094F81E0268B320780A282AD1342011FB89
:103B500000800D4610F8901F012922D1089E0621F1
:103B600088F80C10017020462946A8F8FA500096F3
:103B700000F082F8D4F8B87242F21070464300BFE9
:103B800020462946FFF788FF01280ED1D4F8B80255
:103B9000C01BB04203D894F81E020028F0D10220C6
:103BA00004E0022002B0BDE8F0810020012188F885
:103BB0000C1002B0BDE8F08170B5D0F87432DE6947
:103BC00096F85230022B26D0012B2BD1802386F879
:103BD00060300A2306F1100086F8623000234901A4
:103BE00001242422C6F86330C6F86730A6F86B308B
:103BF000122586F864100221C6F88C002046F26572
:103C000086F86350A6F86530A6F8672086F850401D
:103C100086F8521070BD1546FFF796FB044618B1A2
:103C2000204670BD022070BD28462221FCF7C2FC50
:103C3000D6F88C00017801F01F01697001784909FC
:103C400029704178C909A970C1688068C5F8071052
:103C5000C5F80300D6F88C0001694269C369806920
:103C6000AB6168612A61E960D6F88C00006AC5F82A
:103C70001D00204670BD000070B5D0F874C2DCF89D
:103C80001CC09CF852E0BEF1020F34D0BEF1010F0F
:103C900034D1DDF810E0100E4FEA4E26CCF85C600F
:103CA00080268CF860600A264FEA1E218CF862603C
:103CB0000026140C150ACCF86360CCF86760CCF8C9
:103CC0006B60CCF86F6028268CF865008CF86A1061
:103CD000012002218CF863608CF866408CF86750F4
:103CE0008CF868208CF86BE08CF850008CF852103F
:103CF000CCF88C3070BDFFF727FB70BD022070BD83
:103D0000B0B5D0F87432DD6995F85230022B20D06E
:103D1000012B2ED10820E865802085F860000A205C
:103D200085F862000020C5F86300C5F86700C5F893
:103D30006B00C5F86F00252005F1100185F86300C0
:103D40000120022285F8500085F85220C5F88C1019
:103D5000B0BD1446FFF7F8FA002818BFB0BDD5F87B
:103D60008C100A6812BA2260C98809BA090CA180AD
:103D7000B0BD0120B0BD0000B0B5D0F87432DD692F
:103D800095F85230022B27D0012B36D1802385F8AD
:103D900060300A230E2085F862300023490105F1C6
:103DA0001002E865C5F86330C5F86730C5F86B30B8
:103DB000C5F86F30032485F86410A5F8670001206A
:103DC000022185F86340A5F8653085F8500085F834
:103DD0005210C5F88C20B0BD1446FFF7B5FA002884
:103DE00018BFB0BDD5F88C108A7802F00F0222708F
:103DF0000A7B6270497BA170B0BD0220B0BD00009B
:103E000080B5D0F87422D26992F85230022B17D0C4
:103E1000012B18D100200A21D06582F8600082F8B9
:103E20006210C2F86300C2F86700C2F86B00C2F803
:103E30006F000120022182F8500082F8521080BDEC
:103E4000FFF782FA80BD022080BD0000F0B581B08E
:103E5000D0F874C2DCF81CC09CF852E0BEF1020F2E
:103E600034D0BEF1010F35D1DDF818E0100E4FEA65
:103E70004E264FEA1E21CCF85C600026140C150A71
:103E80008CF860600A27CCF86360CCF86760CCF8E7
:103E90006B60CCF86F602A268CF865008CF86A108D
:103EA000012002218CF862708CF863608CF8664007
:103EB0008CF867508CF868208CF86BE08CF8500018
:103EC0008CF85210CCF88C3001B0F0BDFFF73CFA02
:103ED00001B0F0BD022001B0F0BD0000002070472D
:103EE000D0F87422D26900780A281CBF00207047DD
:103EF000342011FB002090F89100B0FA80F04009C6
:103F0000704700002DE9F04182B00446D0F87402F9
:103F1000D0F81C8094F81E0268B320780A282AD1B1
:103F2000342011FB00800D4610F8901F012922D18A
:103F3000089E072188F80C10017020462946A8F831
:103F4000FA500096FFF782FFD4F8B87242F2107070
:103F5000464300BF20462946FFF79EFD01280ED1AB
:103F6000D4F8B802C01BB04203D894F81E0200284F
:103F7000F0D1022004E0022002B0BDE8F081002070
:103F8000012188F80C1002B0BDE8F08110B584B0B2
:103F9000DDE906CE089CCDE900CE0294FFF77AF960
:103FA000002004B010BD000070B584B004460220AB
:103FB0008DF80F0020780A2800F27081DFE810F0F9
:103FC0000B006E01190049006E016D009E00AF00EC
:103FD000BA00C500DF0094F81E02002800F05E81E0
:103FE00001202070C820FEF787FF2046FFF762F906
:103FF00054E16420FEF780FF2046FFF71DF984F8A6
:104000001D0205202070204600210026FEF7FAFD43
:10401000607120468021FEF7F5FD014694F81D02EF
:1040200094F81C32A5792171CDE900062046802242
:104030000295FFF7ABFF94F81D0294F81C326179EA
:10404000A579CDE90006204600220295FFF79EFFE4
:1040500024E104F51F703C21FCF7CEFA04F11C00AA
:104060004FF40071FCF7A6FA00254FF4807125701B
:10407000A4F80110C4F8B85201202083D4F87402C7
:1040800040220028A271A4F81C1200F00781C16828
:1040900020468847C4F8745200E16078072800F28F
:1040A000FD80DFE800F004838CB5BEC7D4E1204674
:1040B0000821FEF7E9FF002840F0F08094F827027D
:1040C0000122217994F81C3294F81D62A07162706B
:1040D000002502902046802200960195FFF756FFAA
:1040E00094F81D0294F81C326179A679CDE9000597
:1040F000204600220296FFF749FFCFE0D4F8740271
:10410000002845D00169204688478DF80F009DF8AA
:104110000F00002840F0C2800A202070BEE0D4F8D2
:10412000C422002A00F0BA802046012190470820CE
:104130002070B3E094F83712204600F0DBF8002836
:1041400040F0AC8009202070A8E0D4F87802002864
:1041500000F0A480D4F8701294F841320A7900205B
:104160009A42C4F8740208BF0846C4F8740290B1B9
:1041700081682046884788B10C2020708EE0D4F8F2
:104180007402002800F08A8041692046884785E053
:104190000C20207082E00C2020707FE00620207030
:1041A000D4F8C42220460321904777E0204612210C
:1041B000FEF76AFF002871D1022060706EE0204691
:1041C0000121012500F086F8002867D10220FEF7C2
:1041D00093FE94F81D22A3790320217984F81C52C0
:1041E00060700025009202932046802201230195F1
:1041F000FFF7CCFE94F81D0294F81C326179A67981
:10420000CDE90005204600220296FFF7BFFE45E0FB
:1042100020460921FEF7A6FE00283FD10420607049
:104220003CE0B4F834122046FEF79CFEB0BB0520FB
:10423000607033E094F82E1259B304F11C0220464A
:10424000FF23FEF755FF48BB0620607026E094F878
:104250002F1209B304F11C022046FF23FEF748FF8A
:10426000E0B90720607019E094F8301231B104F120
:104270001C022046FF23FEF73BFF78B994F8310279
:104280000021012884F81F1214BF07200820207085
:1042900004E00620607001E007206070002004B098
:1042A00070BD000011B1D0F878220AB10220704729
:1042B0000122C0F87822C0F8701200207047000078
:1042C00090F836228A4292BF022080F81F12002006
:1042D0007047000080B58278012A05D14FF4A062B2
:1042E000418200210282416100210022FEF700FD8F
:1042F00080BD000080B58278012A05D14FF410629C
:10430000418200210282416100210022FEF7F0FC7F
:1043100080BD000010B50446FEF7E0FF20460121F5
:10432000FEF77EFF002010BD029ADDF800C0012AD2
:1043300040F64152C0F2030226D1836B4FF6BF71A3
:1043400023F480338363C368CFF6BD711940C16025
:10435000C168099B21F44011012BC16003D1C168E0
:1043600041F48011C1601346013B26D00169B1F1CF
:10437000FF3FF9DC016941F001010161013A1CD004
:104380000169C907FAD118E0C168134641F040013C
:10439000C16000BF013B0DD00169B1F1FF3FF9DC05
:1043A000016941F001010161013A1CBF01695FEA45
:1043B000C171F9D14FF480318163BCF1010F07D194
:1043C000816841F006018160816841F020018160CF
:1043D000002070470146806820F0010200208A60BA
:1043E0007047000081B0D0F8402401290092009A63
:1043F00022F02E020092009A08BF12F4805204D1DB
:10440000009A42F48052C0F84024009A39B912F45C
:10441000805104D0009921F48051C0F8401400204C
:1044200001B070470146806840F0010200208A60B8
:1044300070470000D0F8080480B2704781B0D0F80F
:10444000400400900098C0F3414001B07047000064
:10445000406900F00100704700F5A062490153581F
:1044600013F4402F05D08B5803F44023B3F5002FED
:1044700019D18B5843F080438B50C36A885813F48A
:104480007F0F19D120F000408850885840F000403C
:10449000885040F2E93000BF013802D08B58002B21
:1044A000FAD4002070478B5843F080438B50D0F8EB
:1044B000103488581B0404D040F00040885000207D
:1044C000704720F000408850885840F000408850E5
:1044D00040F2E9300138E4D08B58002BFAD4E0E701
:1044E0002DE9F041DDE9068E089C00EB411606F54A
:1044F000A06C4FF0FF37BEF1030FC6F808752AD83D
:10450000DFE80EF0020F021B40F29D47664655B2EF
:10451000002D46F80C7F19D4B0F1A04F1BD06027B6
:1045200016E040F22525664657B2B7F1FF3F46F840
:104530000C5F10DC4FF4C0770AE040F29D656646E0
:1045400057B2B7F1FF3F46F80C5F04DC4FF48077B9
:1045500035683D4335600125D0F8186405FA01F14E
:104560003143C0F818148169B8F1020F41F00071AD
:1045700081614FF4F04101EAC22102F0800203F0B0
:104580007F0041EA022141EA80500EF0030308BF98
:1045900000F500306FF3DF2440EA83402043BEF192
:1045A000030FCCF8000005D1DCF8000040F000500B
:1045B000CCF800000020BDE8F0810000D0F8140421
:1045C00080B2704770B5B0F1A04F25D00B791BBBFE
:1045D000012A16D002BB4B79012B10D14978022257
:1045E00000EB41100021C8F20801C0F81015D0F806
:1045F000001562F39F71C0F80015002070BD012AFC
:104600000AD14B7800EB4313D3F80C4524F0600437
:10461000C3F80C4500234B710B697BB1B1F808C09E
:104620006344013BB3FBFCF39CB2B4F5807F82BFD3
:104630004FEA0C230B614FF4807300E00123CE7826
:104640001EB10C899DB265430D61D1F810E00024C4
:10465000C1F6F874754604EAC3438C7A91F801C038
:104660006FF3DF452B4404F0030400EB4C1543EAE1
:10467000447405F5A063C5F810451AB1CA685A61BB
:10468000002202E0B6FA86F25209D0F808441D680A
:10469000002A25F000551D604FF000551E6825EAE0
:1046A000447444EA06041C601C684FF0020565F37C
:1046B0009F741C6018BFBEF1000F01D1002070BDB7
:1046C000CA79032A1BD8DFE802F0020C020CC36A85
:1046D0000EF10302C2F38F029BB29A420FD920223D
:1046E0000AE0D0F810340EF10302C2F38F029BB23D
:1046F0009A4204D94FF0806283691A4382615FEA6B
:104700000E42DBD0CB68032111FA8EF600F5805003
:104710004FEA0C32B5080121043B012D88BFB108D6
:1047200053F8046F01391650FAD1C7E7B0B582B01B
:1047300004460020C4F8000EA06B032B20F4802058
:10474000A063A06B069D20F40020A063A06B40F442
:104750000010A063D4F8001440F6415021F0040189
:104760000B4608BF0433C0F20300B4F1A04F08BFEA
:104770000B464FF48461C4F800342161014600BF48
:10478000013902D023699B06FAD41021216100BFB0
:10479000013802D02169C906FAD45AB104F5A060E3
:1047A0004FF0FF31002300BF8160C360013A00F188
:1047B0002000F9D1D4F840040190019820F02E0097
:1047C00001900198C00404D4019840F48050C4F8CA
:1047D00040040198C820FCF701FA0020A0614FF0C6
:1047E000FF30B4F1A04F60611BD04FF400706062E5
:1047F00040F20020C0F20010A06240F20030C0F28F
:10480000E000C4F800011DB9A06940F01000A061EB
:10481000A0690821CAF2203101430020A16102B041
:10482000B0BD2420C5F20000802101608021C0F2CB
:1048300060014160E021C0F24001C0F8DC10002DB1
:10484000E6D1E1E7D0F8002401F0030322F00302EF
:10485000C0F80024D0F80024012942EA0302C0F87D
:10486000002404D0022906D141F2707101E04BF618
:104870008031C0F80414002070470000416980694D
:10488000084070479AB1D31C4FEA930C0122BCF147
:10489000010FA1F104014FF4805C88BF9A0800BFAA
:1048A00050F80C30013A41F8043FF9D10431084680
:1048B0007047000010B582B00446D0F84004019063
:1048C000019820F02E000190019840F48070C4F807
:1048D00040040A20FCF782F9019820F4807100203E
:1048E000C4F8401402B010BD80B5C268012922F09E
:1048F000C042C26003D039B94FF0804101E04FF0AF
:104900000051C2681143C1603220FCF767F90020F2
:1049100080BD000070B58168844640F6415021F0AA
:104920000101C0F20300CCF808104FF48461CCF808
:1049300010100146013903D0DCF810209206F9D49A
:104940001021CCF8101000BF013803D0DCF8101093
:10495000C906F9D447F6FF7EC3F6FF7E0CF5A062C8
:10496000002000BF115801EA0E0101F180411150F1
:104970002030B0F5007FF5D1002340F2E93100206E
:1049800004E000BF28460133102B13D05C011559F9
:1049900005EA0E0505F140451551451C8D4298BFAD
:1049A0000D4600BF0130B0F57A7FEBD8A658002E37
:1049B000F8D4E8E74FF0FF30CCF81404CCF814003A
:1049C000DCF8080040F001010020CCF8081070BDB0
:1049D00040F27F00C2F20000007847F26E51C2F24E
:1049E000000108707047000010B58EB0032910D880
:1049F00003461446DFE801F032020F1A47F20C00BA
:104A0000C2F2000001AA1946FEF746FEC8B1012114
:104A100024E0042122E047F20C00C2F2000001AAC7
:104A20001946FEF739FE80B1012117E047F20C006C
:104A3000C2F2000001AA1946FEF72EFE50B1012174
:104A40000CE002980021206008E0BDF80C00002175
:104A5000206003E0BDF80C000021206008460EB085
:104A600010BD000010B58EB0044647F20C009C4605
:104A70000B46C2F200002146CDF800C0FFF742FA13
:104A800090B147F20C00C2F2000001AA2146FEF7E5
:104A900003FE9DF81100272809DC04280BD02728E5
:104AA0000CD102200EB010BD00200EB010BD3A286F
:104AB00001D0282802D103200EB010BD01200EB075
:104AC00010BD000080B5014647F20C00C2F20000A4
:104AD000FFF706FAB0FA80F0400980BD0020704769
:104AE00010B58EB0044647F20C009C460B46C2F24D
:104AF00000002146CDF800C0FFF71AF880B147F258
:104B00000C00C2F2000001AA2146FEF7C5FD9DF887
:104B100011100320042918BF282904D10EB010BD9C
:104B200000200EB010BD3A2918BF01200EB010BDF4
:104B300080B5042910D0022918BF80BD47F29050DB
:104B4000C2F200000068D0F870140131C0F870148F
:104B5000012180F8381280BD47F29050C2F2000067
:104B600000680022D0F86C140131C0F86C140121E7
:104B700080F888144EF23D61C0F60001002002F07A
:104B8000E7FA80BD81B0002143F630000091C4F205
:104B90000200026842F001020260026802F00102B3
:104BA0000092009A0091026842F0020202600268DC
:104BB00002F002020092009A0091026842F00402A0
:104BC0000260026802F004020092009A00910268FA
:104BD00042F008020260026802F008020092009AA5
:104BE0000091026842F010020260026802F01002B6
:104BF0000092009A0091026842F02002026002686E
:104C000002F020020092009A0091026842F04002F5
:104C10000260026802F040020092009A009142692C
:104C200042F480524261426902F480520092009A3A
:104C30000091826842F001028260826802F0010203
:104C40000092009A426842F08002426000914269FC
:104C500042F480424261426902F480420092009A2A
:104C60000091026842F400120260026802F400122D
:104C70000092009A0091026942F0200202610269EA
:104C800002F020020092009A0091026942F0005264
:104C90000261026902F000520092009A00910269DA
:104CA00042F080520261026902F080520092009A42
:104CB0000091416941F480414161406900F48040C4
:104CC0000090009801B0704780B500F0E9FBFFF755
:104CD00059FF00F00DF800F09DF800F09BFB362026
:104CE00002210022FCF756FF3620FCF745FF80BD6D
:104CF000F0B5B5B048F6AC40C0F6000090E81E0034
:104D0000006940F600450DF1C00CC4F202058CE8C4
:104D10001E00349030A92846FCF7FEF848F6C04043
:104D2000C0F6000090E81E0000690DF1AC0C8CE8A4
:104D30001E002F902BA92846FCF7EEF848F6D44029
:104D4000C0F6000090E81E0000690DF1980C8CE898
:104D50001E002A9005F5806026A9FCF7DDF848F6CC
:104D6000E840C0F6000090E81E0000690DF1840CD8
:104D70008CE81E00259005F5006021A9FCF7CCF811
:104D800048F6FC40C0F6000090E81E0000690DF1F6
:104D9000700C8CE81E00209005F540601CA9FCF703
:104DA000BBF808AF38465021FBF726FC4FF02040F7
:104DB000089040F20410CAF20000099008200C90FC
:104DC00010200D904FF48050119048F61050C0F60E
:104DD000000090E82E00D0E9044680690DF1040C33
:104DE0008CE82E0001A9079038460A46CDE9054611
:104DF000FDF72CFB35B0F0BD46F68E60C2F2000028
:104E00000078704780B540F22400C2F20000FDF740
:104E10004BF980BDF0B58BB048F62C50C0F60000C1
:104E200090E84E00006940F200440DF1180CC4F205
:104E3000020406AD8CE84E000A90A4F58060294675
:104E4000FCF76AF82020069020462946FCF764F813
:104E500040F22400C2F20000FDF7A4F9232004214F
:104E600000220026FCF796FE2320FCF785FE48F67C
:104E70004050C0F6000090E82E0000690DF1040CCF
:104E80008CE82E0001AD059020462946FCF744F839
:104E90001720032100220327FCF77CFE1720FCF7D4
:104EA0006BFE4FF4805001900120029004F5A05059
:104EB0002946CDE90476FCF72FF80BB0F0BD0000D1
:104EC00080B52320FCF74AFE1720FCF747FE80BD83
:104ED00080B5FFF7F5FFFBF76BFE80BD80B582B0B4
:104EE00047F29053C2F200031B6802460020019073
:104EF00003F50F7001AB02F0D3FB0199002818BF36
:104F00004FF0FF31084602B080BD000080B547F287
:104F10009050C2F20000006800F50F7002F092F8A5
:104F200080BD000010B547F29054C2F20004226820
:104F3000014602F50F70012202F05EF900281CBF45
:104F40004FF0FF3010BD2068D0F8480210BD0000BF
:104F5000B0B547F2D4250446C2F200054FF0A04098
:104F6000286003200B210022C5E902100220C5E9B8
:104F7000060228462A612A62EA626A63C5F89442F8
:104F8000C4F8C052FCF7F6FC2846FCF7ABF8014623
:104F90002046FEF797F9B0BD47F2D42100EB800020
:104FA000C2F2000101EBC00090F83B1000F150028A
:104FB000002908BF00F151021078704747F2D4224F
:104FC00000EB8000C2F2000202EBC00090F83B2030
:104FD000002A0CBF80F8511080F850107047000074
:104FE00010B586B048F65450C0F6000090E81E0098
:104FF00000690DF1040C8CE81E000590002443F6B6
:1050000044000094C4F20200016841F48041016050
:10501000006801A900F480400090009803200490EB
:105020004FF4D05001900A2005900020C4F20200F5
:10503000FBF772FF432006210022FCF7ABFD432063
:10504000FCF79AFD47F29050C2F20000006880F829
:105050003842C0F86C44C0F8704400F50D7148F651
:105060000870C0F60000FBF75FFC08B106B010BD89
:1050700047F20C04C2F2000444F63131C0F60001DC
:1050800020460022FEF766F840F20401C2F2000159
:105090002046FFF707F92046FFF73CF906B010BDA0
:1050A00010B547F20C00C2F20000FEF77DFF47F298
:1050B0009054C2F20004206890F83812012909D1F6
:1050C00000F50D71002202F043F828B1206802219A
:1050D00080F88814002010BD012010BD2DE9F04F8C
:1050E000ADF24C5D0DF24E3401462046FBF7C7F998
:1050F0009DF84E0338B1013CFBF7B4F904F8010FF9
:1051000060780028F8D16E465C2006F54674ADF84C
:1051100000002046314602F06BFA60B906F5007BCC
:105120002046594602F0C4FB50B100208DF84D04D2
:10513000204601F0CDFF00200DF24C5DBDE8F08F60
:1051400006F2162A00270126002515E0E5B1B0FA7F
:1051500080F19DF8082249090F4302F010012E3812
:1051600086EA111118BF012008400544204659461F
:1051700002F09EFB0028D8D19DF816020028E5D148
:10518000F907E3D0D1E700BF9DF80812C906DED4C5
:105190000DF24D4738465146FBF771F99DF84D0425
:1051A00038B17D1EFBF75EF905F8010F687800281D
:1051B000F8D10DF24D470DF24E303946FBF744FA67
:1051C000E0B3A7F101090DF24E382046594602F02E
:1051D0006FFB0028A9D1002506E000BF20465946F4
:1051E00002F066FB0028A0D19DF8160230B19DF8B0
:1051F0000812C906F2D42E28F0D004E0E8077FF4A4
:1052000094AF0125EAE738465146FBF738F99DF897
:105210004D0438B14D46FBF725F905F8010F6878C4
:105220000028F8D140463946FBF70EFA00284FF027
:105230000100CAD10DF24C5DBDE8F08F01200DF2E6
:105240004C5DBDE8F08F000080B586B043F60C40A1
:10525000C4F20200F3210160FBF726FE0521039151
:10526000032100200491022101900591009001A8E2
:105270006946FBF7C7FCFBF789FD06B080BD00005F
:10528000F0B581B0044643F60C400E46C4F202006D
:10529000F32115460160FBF707FEA8070ED0012D8C
:1052A0001FDB013E16F8012F002021460023671C5A
:1052B000FBF776FD013D3C46F4D112E0042D10DBF6
:1052C000E81705EB90708510043E00BF56F8042FD8
:1052D000022021460023FBF763FD013D04F1040495
:1052E000F4D1FBF753FD01B0F0BD000070470000A2
:1052F0000278002A04BF0020704740F29001C2F2F9
:1053000000010968431E002002EBC2020A44127920
:1053100010449A780130002A03F10103F4D1704758
:105320000920704740F29001C2F20001096800EBC9
:10533000C0000844007901307047000040F290003E
:10534000C2F20000006800687047000047F26D502C
:10535000C2F20000007847F26C51C2F200010870FE
:1053600040F27E00C2F20000007840F27C01C2F2FE
:105370000001087040F27D00C2F2000002210170BD
:105380007047000080B5FBF729FC80BD2421C4F2E2
:1053900000010A680B689B1A8342FBD37047000028
:1053A00070B546F60873C2F2000303EB0014000167
:1053B00019502546012045F8042F2073A3F1080059
:1053C0004FF0FF36102100BF50F8102FB24238BF07
:1053D00016460139F8D1FBF773FE29680D18B5425E
:1053E000A56015D246F6CC60C2F2000001F06CF95F
:1053F000681C08BF70BDFBF763FE281A4FF0FF3131
:1054000001EB400146F6CC60C2F2000001F060F909
:1054100070BD0000B0B582B046F60870C2F2000060
:10542000083810214FF0FF32013940F8102FFBD11E
:1054300046F6CC640120C2F2000440F2004100258F
:105440000090C4F2000120464DF2EF2200230195A6
:1054500001F002F920460121012201F0E7F846F6A9
:1054600090644FF0FF30C2F20004009020464FF0ED
:10547000804100220023019501F0EEF8204601F062
:105480001FF902B0B0BD000046F60871C2F200017B
:1054900001EB00104FF0FF31816000210173704774
:1054A000B0B592B0002443F640000694C4F2020066
:1054B0000168022541F080510160006800F08050D1
:1054C0000690069847F200000694C4F200000168B6
:1054D00041F440410160006800F4404006900698A5
:1054E000012006904FF4803007904FF480000D901B
:1054F00019200E904FF4A870CDE90F0507201190E8
:1055000006A80C95FCF760FC0F20CDE901054FF4CF
:10551000A05004904FF48050059001A805210394F9
:10552000FCF774FBFCF7B4FA12B0B0BD2DE9F04FF4
:10553000ADF5963D93B047F29050C2F2000000687E
:1055400000210024C4F2201180F87444C0F878448B
:10555000C0F87C14C0F88044FFF7F8FE9FEDA53A30
:1055600047F2B450B2EE0C0AB3EE0F1AB6EE002AB0
:10557000C2F2000004EE104AB8EEC44A84EE004ABB
:1055800024EE015A24EE034A35EE025A34EE024A62
:10559000BDEEC55ABDEEC44A15EE101A14EE102A1F
:1055A00001F01F0102F03F0241EA421242EAC1212A
:1055B00000EB440201340E2CA2F8D610DAD100F030
:1055C000A5FC48F69840C0F6000090E88E000069FF
:1055D0000DF14C0C179041F6000013AC8CE88E00D6
:1055E000C4F202002146FBF797FC00F0A1FC012069
:1055F000012500F0B3FD20464FF49631FAF7FCFF89
:1056000047F27C50C2F2000090F8008040F288001F
:10561000C2F20000006840F28C02119040F2840057
:10562000C2F200000068C2F20002129047F28050FD
:10563000C2F2000000680D9040F29000C2F200003B
:105640000168084605910868116800220C9101065E
:10565000049140B201210128C8BF0146C0F14F00AA
:105660000390204402901F200B9108900DE000BF92
:105670000A980899069A00EBC00008440132052AEE
:1056800000F10900089000F08D805BA0865C059910
:1056900006EBC6000B18049893F904100128069233
:1056A0000A91E5DBC1F108001090581D0990089897
:1056B0000299C0EB0010DDF80CC001EB00140027CC
:1056C000079307E00E9C0B980137093487420CF1D1
:1056D000090CCDD00C98B0420CD040F28C00C2F234
:1056E0000000066047F280500999C2F20000016094
:1056F000CDE90C610D980E94C05D0028E2D00A98A7
:105700000128DFDB0798089A384405300F900720FE
:1057100008E000BF109909328842A0F1010004F5A9
:105720000764CFDD1299B94202D11199B14214D068
:105730000F99CDE9116791F8008047F27C51C2F2D0
:10574000000181F8008040F28801C2F200010E6081
:1057500040F28401C2F200010F605FFA88F3C34097
:10576000DB07D7D00023A64605E000BF0133092B95
:105770000EF1F00ECED003EB020B4FF0000A04E066
:105780000AF1010ABAF1090FF0D04FEA9B1104297E
:10579000F6D81CEB0A09F3D4B9F1EF0FD8BF0EF815
:1057A0000A50EDE747F20800C2F20000016840F23B
:1057B000A407002213ABC2F2000705E00132B2F5E4
:1057C000A07F03F1F0030FD0002602E00136F02E97
:1057D000F4D09D5D002DF9D007EB810527F821203D
:1057E0000131AE700160F1E70DF5963D13B0BDE8F3
:1057F000F08F00BF00007C42CCCDC8CFC8000000B5
:1058000047F29050C2F20000006890F874047047AC
:105810002DE9F04381B02DED068BADF5826D47F299
:105820009059C2F20009D9F80000012180F87414DF
:10583000FBF746FCD9F800100446D1F88054FBF77A
:105840003FFC47F26D52D9F80010C2F20002127804
:10585000C1F880040FA88DF83C2000F081FA40F2D6
:105860007E08C2F2000898F800008DF838000EA8F3
:1058700000F056FDD9F8000090F88814062900F2CF
:105880000A82DFE811F00700BF004B017001080237
:10589000C401070047F26C50C2F2000000788DF896
:1058A00034000DA800F05CFA40F27C00C2F2000067
:1058B00000780CAF8DF830000020002140F23F123C
:1058C000EF23009700F062FB47F27250C2F2000033
:1058D000017847F27454C2F2000421B90121017029
:1058E000FBF7EEFB2060FBF7EBFB21689FEDF11A65
:1058F000401A00EE100AB8EE40AA8AEE010AB2EE93
:105900000C1A20EE010ABDEEC00A10EE100A0D2896
:10591000A8BF0D2020EAE07002308DF80C040DF2D3
:105920000C4000F0FDFC9FEDE40AB0EE081A8AEE90
:10593000000A10AC261F0025B1EE049A20EE010AE1
:1059400030EE018A9FEDDD0AB5EE408AF1EE10FAE5
:10595000B8BFB0EE408A9FEDDA0A2AEE00AA00BF77
:1059600000EE105AB8EEC00A80EE090A3AEE000ABC
:1059700002F0D8FF28EE000A013586ED010A043650
:10598000F02DEDD147F20807C2F200073868012870
:1059900023DB40F2A4050026C2F2000504E000BFAC
:1059A00038680136864218DA05EB8600817804EB08
:1059B000810090ED000A35F82600BDEEC00A10EE19
:1059C000102A1044421E52089E2AE9D80029E7D026
:1059D000EE29E5D800F004FDE2E798F800000BAFEF
:1059E0008DF82C004EF2E150C0F60000009000202F
:1059F000B4214FF4A0721423019700F07DFB00F056
:105A000023FC48E100F58F60611B01EE101A90ED58
:105A1000010AB8EE411A81EE001A90ED002AB5EEA7
:105A2000400AF1EE10FA32EE012A80ED002A06DD7E
:105A30009FEDCA3AB4EE432AF1EE10FA09DCB5EE56
:105A4000400AF1EE10FA0CDAB5EE402AF1EE10FA47
:105A500007DAB1EE400A32EE411A80ED001A80ED0D
:105A6000010A98F8000010AF8DF840004EF2A750E0
:105A7000C0F6000000900A2032214FF496720A23EB
:105A8000019700F039FB40F27F04C2F20004207855
:105A90000DF20C478DF80C044EF21A60C0F60000AF
:105AA00000900A2041214FF496720A23019700F0DA
:105AB00023FB20780DF581678DF808044EF29A508B
:105AC000C0F6000000900A2050214FF496720A237D
:105AD000019700F011FB20780DF204478DF80404C3
