:020000040800F2
:1000000020B80220B5020008BD020008BF020008A7
:10001000C1020008C3020008C50200080000000079
:10002000000000000000000000000000C7020008FF
:10003000C902000800000000CB020008492900089E
:10004000CF020008CF020008CF020008CF0200084C
:10005000CF020008CF020008CF020008CF0200083C
:10006000CF020008CF020008CF020008CF0200082C
:10007000CF020008CF020008CF020008CF0200081C
:10008000CF020008CF020008CF020008CF0200080C
:10009000CF020008CF020008CF0200088F09000835
:1000A000CF020008CF020008CF020008CF020008EC
:1000B000CF020008A5290008CF020008CF020008DF
:1000C000CF020008CF020008CF020008C9250008AF
:1000D000CF020008CF020008CF020008CF020008BC
:1000E000CF020008CF020008CF020008CF020008AC
:1000F000CF020008CF020008CF020008CF0200089C
:10010000CF020008CF020008CF020008CF0200088B
:10011000CF020008CF020008CF020008CF0200087B
:10012000CF020008CF020008CF020008CF0200086B
:10013000CF020008CF020008CF020008CF0200085B
:10014000CF020008CF020008CF020008DD2100081E
:10015000CF020008CF020008CF020008CF0200083B
:10016000CF020008CF020008CF020008CF0200082B
:10017000CF020008CF020008CF020008CF0200081B
:10018000CF020008CF020008CF020008CF0200080B
:10019000CF020008CF020008CF020008CF020008FB
:1001A0000000000000000000CF02000800F002F88C
:1001B00000F071F814A696E8000CB244B344DA4596
:1001C00001D100F068F8BAE80F000FA696E83000F9
:1001D000A5EB040504EB0607AAEB0704A7F101074A
:1001E0004FEA15154FEA3414A4F10104AC4201D3CF
:1001F00000F051F813F0010F18BFFB1A43F0010390
:1002000000F001F8DBE718472CD300004CD30000C6
:100210000A4410F8014B14F00F0508BF10F8015BF9
:10022000240908BF10F8014B6D1E05D010F8013BE2
:100230006D1E01F8013BF9D1641E03D0641E01F864
:10024000015BFBD19142E4D370470000704700008E
:100250000023002400250026103A28BF78C1FBD8CF
:10026000520728BF30C148BF0B6070471FB507F069
:1002700089FB9DE8030000F07BFA00F0BDFA040062
:100280000020002107F068FB401C606000F036FA97
:100290001FBD10B510BD00F0D9FA1146FFF7E6FFFB
:1002A00006F0A6FF00F0F7FA03B4FFF7F2FF03BC75
:1002B00000F028FB0948804709480047FEE7FEE7B1
:1002C000FEE7FEE7FEE7FEE7FEE7FEE7FEE7FEE706
:1002D00004480549054A064B7047000059290008A3
:1002E000AD0100082078002020B8022020B80120AD
:1002F00020B8012070B5064600F01EFA056806F128
:100300000B0020F00704B4429CBF002070BD2B46B8
:100310006A68BAB11068A04210D304F1080188429B
:100320003CBF5068586007D351681019416011688C
:10033000091B016058601460101D70BD134652689F
:10034000002AE7D12146284600F0FEF90028DED138
:1003500070BD70B50446051F00F0EEF90068002C72
:1003600014BF446870BD002C18BFAC423CBF20468F
:100370006468F8D301680A18AA4218BF456003D11F
:100380002A6805461144016028684119A1421CBF32
:100390006C6070BD6168696021680844286070BD48
:1003A00053EA020C00F069802DE9F04B4FF0000693
:1003B000002B1FBFB3FA83F503FA05F424FA05F600
:1003C0005E4012BF1643B2FA82F502FA05F4C5F197
:1003D00020051EBF22FA05FC44EA0C04203556EA2B
:1003E000044C4FEA144418BF641C4FF000084FF04F
:1003F0000009904271EB030C39D3002919BFB1FAFF
:1004000081F701FA07F6B0FA80F700FA07F6C7F1AC
:1004100020071EBF20FA07FC46EA0C062037B6FB71
:10042000F4FCA7EB0507103F07F01F0BCBF12006EC
:100430002CFA06F60CFA0BFB44BFB3460026202F1D
:10044000A4BF5E464FF0000B5BEA060C08BF4FF0FE
:10045000010B19EB0B0948EB0608ABFB027C06FB12
:1004600002CC0BFB03CCC01B71EB0C01C1E70B46AC
:10047000024641464846BDE8F08B13B5084318BF15
:100480004FF0FF300146AFF30080BDE81C407047DD
:1004900010B5044600F048F90068005DC00602D5BA
:1004A00004F1200010BD204610BD40EA01030246C1
:1004B00030B59B0710D14FF0013400E008C208C9E5
:1004C0001D1B9D4315EAC41FF8D013F0FF0102F86D
:1004D000011B0DD01B0AF8E711F8013B002B02F8B5
:1004E000013B05D011F8013B002B02F8013BF3D191
:1004F00030BD032A40F2308010F0030C00F015806C
:1005000011F8013BBCF1020F624498BF11F801CB16
:1005100000F8013B38BF11F8013BA2F1040298BF7B
:1005200000F801CB38BF00F8013B11F0030300F0E5
:100530002580083AC0F0088051F8043B083A51F889
:1005400004CBA0E80810F5E7121D5CBF51F8043B8E
:1005500040F8043BAFF30080D20724BF11F8013B01
:1005600011F801CB48BF11F8012B24BF00F8013B63
:1005700000F801CB48BF00F8012B704710B5203AB6
:10058000C0F00B80B1E81850A0E81850B1E818503E
:10059000A0E81850203ABFF4F5AF5FEA027C24BF10
:1005A000B1E81850A0E8185044BF18C918C0BDE8F9
:1005B00010405FEA827C24BF51F8043B40F8043BC2
:1005C00008BF7047D20728BF31F8023B48BF11F877
:1005D000012B28BF20F8023B48BF00F8012B7047D1
:1005E0004FF000020429C0F0128010F0030C00F05C
:1005F0001B80CCF1040CBCF1020F18BF00F8012BDA
:10060000A8BF20F8022BA1EB0C0100F00DB85FEAA7
:10061000C17C24BF00F8012B00F8012B48BF00F873
:10062000012B70474FF0000200B5134694469646E2
:10063000203922BFA0E80C50A0E80C50B1F12001F5
:10064000BFF4F7AF090728BFA0E80C5048BF0CC0A3
:100650005DF804EB890028BF40F8042B08BF704701
:1006600048BF20F8022B11F0804F18BF00F8012B73
:10067000704700000000000030B44FF0013C50F81B
:10068000042B51F8043BCCFA52F4D51A20D1FCB912
:1006900050F8042B51F8043BCCFA52F4D51A17D178
:1006A000B4B950F8042B51F8043BCCFA52F4D51AE3
:1006B0000ED16CB950F8042B51F8043BCCFA52F42B
:1006C000D51A05D1002CDAD030BC4FF000007047AD
:1006D00029BAB1FA81F111F01801D1F1200084405A
:1006E000F2D1CA40CB4012F0FF0213F0FF0330BC3E
:1006F000D01A7047704770477047000008487CB5B3
:100700007844009007487844009C0546019004E036
:100710002046016808448047241DAC42F8D17CBDC6
:1007200060CF00005ECF000010B500F065F8001D3E
:1007300010BD00BF2572000000487047106E0020F9
:10074000704770477047704738B504460A46002026
:100750006946AFF30080002808BF38BD0246009903
:10076000204600F051F8012038BD012000F066B8A5
:10077000F8B5AFF30080054600200C460C2000BF02
:100780000646A819A0420DD9324669460020AFF3AB
:100790000080070008BF00F051F80098A04218BF81
:1007A0000546C419FFF7C8FF05600746F01D20F095
:1007B00007004619284600F00AF8B44208BFF8BD01
:1007C000A21B31463868BDE8F84000F01DB8002192
:1007D0000160416070470C20704710B500F010F8C0
:1007E000006810BD10B5044600F00AF8046010BDA2
:1007F00000487047086E002000487047286E0020AF
:1008000000487047086E0020034640688C46002868
:1008100018BF88423CBF03464068F8D318681844A4
:10082000884207D00CF1030020F00700001D411A98
:10083000521A0146081D0A60FFF78BBD10B500F083
:1008400039F8BDE8104000F02FB870477546FFF743
:10085000CFFFAE4605006946534620F007008546A7
:1008600018B020B5FFF734FDBDE820404FF000067A
:100870004FF000074FF000084FF0000BAC46ACE81B
:10088000C009ACE8C009ACE8C009ACE8C00921F077
:1008900007018D46704710B50446AFF3008020462F
:1008A000BDE81040FFF700BD002801D000F02AB8D5
:1008B0007047000010B5012805D0002103A000F00A
:1008C00027F8012010BD09A1F8E70000534947525D
:1008D000544D454D3A204F7574206F662068656110
:1008E00070206D656D6F7279000000003A204865D8
:1008F0006170206D656D6F727920636F72727570B3
:100900007465640001491820ABBEFEE726000200B2
:1009100070B505460C460A2000E06D1C00F011F889
:1009200035B128780028F8D102E0641C00F009F8FD
:1009300014B120780028F8D1BDE870400A20AFF348
:10094000008008B569468DF800000320ABBE08BDE5
:100950009F210022AE2903D040F821200131F9E780
:100960001C210022B1F5077F02D042540131F9E782
:1009700000214FF480720170A0F80120A0F81C2221
:100980000122028340228271C0F8B81270474020D1
:1009900000F0AABA002200F001B80000B0B50D4C7A
:1009A0000346607A08B10120B0BD657A0020605529
:1009B000657A04EB85056B60637A23441A72627A68
:1009C000531C3032637242F63A73C8700A70A1F851
:1009D0000130B0BDBC750020514A0329136823F4CF
:1009E000407313604FF4407338BF0B021168194312
:1009F000C3001160116821F0F801116020210B285B
:100A000088BF01EBC0031068184340F0020010607B
:100A1000106840F480301060704700BF13480168D0
:100A200089050FD5016821F400710160016841F466
:100A300000610160016821F400610160016841F416
:100A400000710160016849050FD5016821F48061DA
:100A50000160016841F480510160016821F4805116
:100A60000160016841F4806101607047003C024010
:100A7000EB4A0129136823F4407313604FF40043D9
:100A800008BF0423032908BF48F20403116819436F
:100A90001160116841EA002040F480301060704716
:100AA000DF4A136823F440731360136813601368FC
:100AB00043F0010313600170704700BF10B5D849BF
:100AC0000C6824F440740C600C6844F440740C60AE
:100AD0000C6844F001040C600260436010BD00BF6C
:100AE000F04A136823F440731360136843F480736F
:100AF0001360136843F0010313600180704700BF67
:100B0000E84A136823F440731360136843F40073D6
:100B10001360136843F0010313600160704700BF66
:100B2000103C024032480168C90606D5DC49CA6952
:100B300042F01002CA61102101600168890606D5E1
:100B4000D749CA6942F00802CA61202101600168E0
:100B5000490606D5D249CA6942F00402CA61402159
:100B600001600168090606D5CD49CA6942F0020252
:100B7000CA61802101600168C90507D5C849CA69F1
:100B800042F00102CA614FF4807101600168890777
:100B900006D5C349CA6942F02002CA610221016038
:100BA000704700BFF8B50446BD480021104EC16132
:100BB00000F06EFA0546671C3068C00309D5002FA7
:100BC000FAD024B100F064FA401BA042F4D903200B
:100BD000F8BD3068C0071CBF01203060306810F4D9
:100BE000F97F04BF0020F8BDFFF79CFF0120F8BD8E
:100BF0000C3C0240B3F5804F12D1F0B550F82230D2
:100C00000A4C234091E8F0008969234343EA051325
:100C100043EA062343EA07431943BDE8F04001E0F5
:100C20006FF0704140F82210002070470000F0CFB4
:100C30002DE9F043D1E900C801F11009D1E902E53D
:100C4000CB69184A99E8C00250F82C40224042EA89
:100C5000080201F120082A4332433A4342EA0902DA
:100C60001A4398E8F8011A43CB6B22432A433243D4
:100C70001A433A4342EA0802BEF1080F42EA0E0262
:100C800008BF42F0400240F82C204A6BB2F5801FAA
:100C900005D1096819B1016841F480110160002093
:100CA000BDE8F0838000E0FF2DE9F04700EB820310
:100CB000154DD3F80480D1E9042ED1E90096D1E98D
:100CC000027C8C69AA4605EB025208F0404545EAD1
:100CD000090545EA061545EA072545EA0C452A4374
:100CE00022430EF1FE0442EA04625A600268D20214
:100CF00007D5426809690AEB015122F470021143D9
:100D000041600020BDE8F0870000F0FF90F835104A
:100D1000022909D1052180F835100068724601F0DA
:100D2000A8FB96460020704780214165012070474E
:100D300080B509484FF0FF31002201610261416135
:100D4000426101600260416042608160826000F047
:100D5000D5FD002080BD00BF10380240BCB5019019
:100D600000F096F904460198451C28BF4FF0FF3566
:100D700000F08EF9001BA842FAD3BCBD2DE9F84360
:100D8000DFF81C81054698F81800012801D10226D9
:100D90003AE00120894688F8180001F029FA064651
:100DA00078BB4FF0FF303F4CC9F80000286801289D
:100DB0000CD16968287CFFF75BFE01F019FA064642
:100DC000206848F204018843206018E0A8680746BC
:100DD000E968084487420ED2297C3846FFF7FCFDBB
:100DE00001F006FA0646206820F0FA00206026B9D5
:100DF000A8680137ECE7002601E0C9F80070FFF7AA
:100E00000DFE002088F818003046BDE8F88300BFCA
:100E10002448016841F0004101600020704700BF94
:100E2000103C02402DE9F041DFF87480074698F845
:100E30001800012804BF0220BDE8F08101201E46F1
:100E400014460D4688F818004CF25030FFF7AAFE01
:100E500008BB022F0CD0012F05D077B9E1B228468C
:100E6000FFF71EFE0EE0A1B22846FFF739FE09E0AB
:100E700028462146FFF744FE04E028462246334632
:100E8000FFF71CFE4CF25030FFF78CFE05490A6854
:100E900022F001020A60002188F81810BDE8F081F4
:100EA000CC750020103C02400648C168B1F1FF3FFC
:100EB000C4BF002070470449016004490160C06854
:100EC000C00F7047043C024023016745AB89EFCD5A
:100ED000402818BF704702480249012201F048B873
:100EE00034000020546F002003490A68024208BF02
:100EF00070470860FFF7ECBF143C01402DE9FC4F40
:100F00005A4A0A2400F120094FF0000A9042584A38
:100F100008BF092402444FEAB223092B38BF4FEA25
:100F2000B2240094012500260027102F08BFBDE839
:100F3000FC8F0C6805FA07FC14EA0C0B00F090809B
:100F4000D1F804E04EF01003122B14D10AF01C0368
:100F50000F2202FA03F56FF0030202EA570259F872
:100F60000240AC430D6905FA03F30125234349F818
:100F70000230D1F804E0032304680EF00302B3400A
:100F8000B2409C436FEA03082243BEF1120F026095
:100F900013D805FA0EF212F0061F0ED08268CB6845
:100FA00002EA0802B3401A4382604FEA1E12436805
:100FB000BA4023EA0C031A434260C2688B6802EA13
:100FC0000802B3401A43C2605FEACE0248D500224D
:100FD0002A4B284D27F0030401921A68AC462C4492
:100FE00042F480421A601A680F2302F48042019290
:100FF0000AF00C02019D9340214DAE46655925EA49
:101000000303009D05FA02F21A4344F80E20DCF8AF
:1010100000204C6842EA0B03E50358BF22EA0B03A9
:10102000CCF80030A503DCF8042042EA0B0358BFDB
:1010300022EA0B03CCF80430E502DCF808200E4D60
:1010400042EA0B0358BF22EA0B03CCF80830A40293
:101050002A6842EA0B0358BF22EA0B032B600125E2
:1010600002360AF1040A01375FE700BF002402409C
:101070000000FEBF003C01400C3C014044380240EF
:1010800008FCFFFF0069084018BF012070470000FE
:1010900001480068704700BF1C780020D0F8940217
:1010A00001F06BBFD0F8940201F07CBF006802F041
:1010B00067BE006802F068BE01EB810100EBC10071
:1010C00090F85C00704701EB810100EBC100C06C3F
:1010D000704710B501F02CFA04BF022010BD01F0DA
:1010E00069FA02F05EFE01F040BAFEB501F020FAA6
:1010F00004BF0220FEBD0120DDF828C0DDE908762E
:10110000D50984F8900201EB810004EBC00080F85F
:101110003B5002F07F05A0F840C080F8383080F8DE
:101120003F6080F8391080F83C7080F83A502068B1
:10113000CDE90076CDF808C002F078FE002184F8F1
:101140009012FEBD70470000F0B501EB8105059FD0
:10115000022400EBC505002F08BF032485F8424098
:1011600085F83F3085F83B2005F13804DDE906E5D8
:10117000032B22D8DDF820C0DFE803F0021D0A1699
:10118000DAB9012F19D135B3627E32BB002225E0D6
:101190005AB9627E94F82430002A18BF0122520006
:1011A000022BA27209D01EE00AB1227E00E0627E0C
:1011B0000AB1022200E00022A272002261700168DE
:1011C000C4E903E56261A284027C08462146BDE8C9
:1011D000F04002F09BBE012262760222A27294F8D5
:1011E0002420022AE9D084F805C0E6E72DE9FE4F65
:1011F00006680446304602F0D0FD012840F0CD825A
:10120000206802F091FF002800F0C782206802F0F9
:101210008BFF01462068890244BF4FF400114161F1
:1012200002F082FF01462068C90244BF4FF48011DA
:10123000416102F079FF01462068490144BF4FF047
:101240008061416102F070FF01462068890744BF58
:101250000221416102F068FF800001D4206810E0A3
:10126000D6F8400420F02E00C6F840042046FFF7D0
:1012700019FF2068012102F03DFF20684FF0005166
:10128000416102F051FF2568C00154D5D5F84004F2
:101290000290D5F840040190019820F02E000190B2
:1012A000029880070DD50298C00706D0A86920F0E3
:1012B0000050A8612046FFF7F1FE019840F00200BF
:1012C0000190029800072BD5019840F0080001908A
:1012D000029840070BD4D5F8400420F02E00C5F842
:1012E00040042068816941F00051816118E0A069E3
:1012F00002280BD12068029901F4C021B1F5802F9A
:1013000014BF0121022102F0F5FE06E0E068032887
:1013100004BF4EF66020C5F804042046FFF7BEFE69
:101320000298800603D5019840F0200001900198B2
:10133000C5F840042568284602F0F6FE000701D4EF
:10134000206805E0204600F084FA20680821416109
:1013500002F0EAFE01462068890140F1E18102F0D5
:10136000D1FD804604F1380A06F5A0674FF0000968
:10137000A068814580F0D08128FA09F0C00700F00C
:10138000898120685FFA89F63A6800EB4611D1F846
:10139000083501F5A06B11044FEA437147D40029C9
:1013A00060D4DBF8081089066CD4DBF80810490615
:1013B00000F17E80DBF80810890500F13881DBF848
:1013C0000810C90740F04C81DBF80810090700F14C
:1013D0006581DBF80810C90600F16D81DBF80810A3
:1013E000090600F17381DBF80810490500F17881E6
:1013F000DBF80800800740F14D8100F05EFF00F24D
:101400004081DFE811F07E013E017C017A01390163
:1014100008003E010800016A4A1C04290262C0F06B
:101420006E81042180F824100021016229E1002945
:1014300020D4DBF80810890636D4DBF80810090739
:1014400043D4DBF80810490555D500F0D5FE10202F
:101450000821CBF8080001F04EF880F825104FF471
:10146000806022E00420CBF80800DBF80C0001F0DB
:1014700005F80FE10420CBF80800DBF80C0000F0C1
:10148000FDFF38E02021CBF8081001F086F86979DB
:10149000012940F0FF80042185F8251000F0ACFE02
:1014A000022085F82400F5E02020CBF8080022E097
:1014B00006EB860100220AEBC1010A62042281F8D0
:1014C000252000F099FE402056E0DBF80C100522A4
:1014D00041F00201CBF80C101021CBF8081006EBFC
:1014E00086010AEBC10181F825200821CBF80810FC
:1014F000314602F056FCDBF80800800532D4DBF8F8
:101500000800C0073BD1DBF8080080075CD4DBF89B
:101510000800000600F19280DBF80800C00640F1E8
:10152000B98006EB860055460AEBC00A9AF8070018
:10153000032801D100F02DFF1020CBF80800032074
:101540008AF825009AF80700AA4640F0020002280F
:1015500040F0A080DBF80000022161F39F70CBF81F
:10156000000097E0DBF80C0000F088FF20683146AF
:1015700002F017FC4FF40070CBF808008AE02069F5
:1015800040B100F0B8FF0169DBF810206FF3DF42D3
:10159000891A4161012106EB860055460AEBC00A13
:1015A000CBF808100020CAF820009AF807008AF843
:1015B000251018B1032824D0022830D100F0E9FE0C
:1015C0001020CBF808002AE000F077FE59D8DFE8B9
:1015D00001F05558585853045804016A022203294F
:1015E00001F1010188BF042280F8242088BF002176
:1015F00001620222DBF8001062F39F71CBF8001049
:101600003FE00120314601228AF82400DBF8000087
:1016100040F00050CBF800002046FFF793FD9AF809
:10162000180080F001008AF81800AA4632E0DBF8C2
:101630000C1041F00201CBF80C1098E7DBF80C001D
:10164000062100F01BFF00F056FF80F82510016A0C
:10165000013101622068314602F0A3FB80208BE754
:1016600000F09BFF0021296200F0C6FD0120CBF8AD
:10167000080085F825000DE0052100E0012180F833
:1016800024100221CBF80810314690F8242020467F
:10169000FFF758FD203709F1010969E60821CBF869
:1016A000081000F0A9FD06EB860005210AEBC0003A
:1016B00080F82510EEE700F070FF0021296200F0AD
:1016C0009BFD032085F82500102055E700F094FDD0
:1016D00006EB860006210AEBC00080F82510BDE766
:1016E00000F08AFD10200821CBF8080000F003FF6D
:1016F00080F825104FF480603EE7002141710221FF
:10170000BDE7012180F82410C1790229B9D1417EB9
:1017100081F001014176B4E720684FF0007141612A
:1017200002F002FDC00638D52568A86920F0100037
:10173000A861286A00F4F011B1F5802F28D1C0F318
:101740000A162EB300F00F0808EB880004EBC00067
:10175000416CE9B100F138072846324602F0E8FC56
:10176000F86879690E4A3044F8608819786105EBA9
:101770004810D0F8101511420AD000F5A0600222DE
:10178000016862F39F710160387E80F00100387655
:101790002068816941F010018161BDE8FE8F00BFC2
:1017A0000000F81F2DE9F04F8BB005460120002DF9
:1017B00048D0032085F89102284600F046F82868B2
:1017C00002F084FA286805F1180E2F1D05F1240B8C
:1017D0009EE81050CECF9BE8000E0A90D5E90C8011
:1017E000CDE90067CDE9088002A880E8105005A87F
:1017F00080E8000E0A9802F021FA2868012102F020
:10180000BBFC286805F1140E05F1040B05F1240A50
:101810009EE8C0509BE80E089AE800070A90D5E9B8
:101820000C40CDE900B6CDE9084002A880E8805020
:1018300005A880E800070A9802F0F6FB012085F869
:10184000910200200BB0BDE8F08F7047006802F0F5
:101850007BBCD0F8940201F0DABB10B500F068FE52
:1018600004BF022010BD00F0A5FE02F065FA20685A
:10187000012102F041FA00F078BE10B500F058FEE8
:1018800004BF022010BD00F095FE02F08BFC00F0BA
:101890006CBE00000248016801310160704700BF62
:1018A0001C78002080B50B48016841F4007101608C
:1018B000016841F480610160016841F48071016058
:1018C000032000F07FF80F2000F006F800F018F871
:1018D000002080BD003C024010B5044686484FF40D
:1018E0007A710068B0FBF1F000F028FC4FF0FF3097
:1018F0002146002200F040F8002010BD7047000093
:1019000010B5032000F05EF8104C6FF00B0000F0F3
:10191000CEFC6FF00A0000F0CAFC6FF0090000F086
:10192000C6FC6FF0040000F0C2FC6FF0030000F092
:10193000BEFC6FF0010000F0BAFC4FF0FF30002158
:1019400000222346BDE81040184700BF791900085F
:10195000734600F017FD9E46014A00F0ABBC00BF85
:1019600080E100E0734600F00DFD9E46014A00F064
:10197000A1BC00BF00E100E0F0B5184B4FF0FF360E
:101980001C68C4F30224E51E84F0070438BF002558
:1019900006FA05F7BA43042C28BF042406FA04F417
:1019A000A14300F00F04A940043C1143044A23441E
:1019B00009010244002848BF03F10C021170F0BD78
:1019C00000E400E005494FF6FF030A681A4060F39F
:1019D0000A22034810430860704700BF0CED00E086
:1019E0000000FA05002852D02DE9F041404B044692
:1019F000884600F00AFC814205D983F8008400F093
:101A000004FC40454CD12068810711D5410703D51E
:101A1000996841F4E0519960010703D5996841F450
:101A200060419960A1689A6822F0F00211439960C0
:101A3000C0072ED100F0E9FB804505D283F8008471
:101A400000F0E3FB40452BD12068410705D5E16854
:101A50009A6822F4E05211439960000706D5206984
:101A6000996821F4604141EAC00098601C4600F08A
:101A700045F8A1681F4AC1F30311515CC8401E49D3
:101A800008600F20FFF728FF0020BDE8F08101204B
:101A900070476068811E022905D21968890107D440
:101AA0000120BDE8F08101281DD119688903F7D50F
:101AB00099681D4621F0030108439860FFF7E8FA92
:101AC000064641F288376068A9682B4601F00C0190
:101AD000B1EB800FAED0FFF7DBFA801BB842F2D932
:101AE0000320BDE8F08119688907D9D5E0E700BF78
:101AF00000380240C07900081000002010B5144CD6
:101B00006068C0F381011348DFE801F002030502B9
:101B100010BD114810BD226820680023400202F069
:101B20003F020D485CBF42F20040C0F2F400216861
:101B3000C1F38811A0FB0101FEF732FC21680222EB
:101B4000C1F3014102EB4101B0FBF1F010BD00BF58
:101B5000043802400024F40040787D01D0B32DE920
:101B6000FC4104460078A64EC00709D0B06800F0DA
:101B70000C0004285FD13068800301D5606830B361
:101B80002078800716D5B06810F00C0F05D000F053
:101B90000AFC66D17068400263D43068800702D5C1
:101BA000E068012813D12069316821F0F80141EA89
:101BB000C0003060207800070ED4207840071ED483
:101BC000A769002F00F0FA8000F0EDFB7AD1012028
:101BD000BDE8FC81012070476069002861D0894818
:101BE0000121C0F8801EFFF753FA0546706F800789
:101BF000E3D4FFF74DFA401B0228F7D9BCE00020E0
:101C0000814F0190306C40F080503064306C00F0B7
:101C1000805001900198386840F480703860FFF778
:101C200037FA05463868C0052DD4FFF731FA401B56
:101C30000228F7D9A0E000F0B6FB02D1706840029C
:101C400099D430686168B1F5803F06D0B1F5A02F16
:101C500065D140F480203060306840F480303060DE
:101C600066E0E1686748002949D001210160FFF77B
:101C70000FFA05463068800795D4FFF709FA401B34
:101C80000228F7D978E0306FA168012905D005292D
:101C90005BD140F004003067306F40F001003067E6
:101CA0005CE058480021C0F8801EFFF7F1F90546B6
:101CB000706F80077FF581AFFFF7EAF9401B0228BC
:101CC000F6D959E04F49002088460866FFF7E0F949
:101CD0000546022F09D13068800150D5FFF7D8F9A9
:101CE000411B03200229F6D972E73068800165D5CF
:101CF000FFF7CEF9411B03200329F6D368E7002143
:101D00000160FFF7C5F90546306880077FF552AFDF
:101D1000FFF7BEF9411B03200229F5D958E720F44B
:101D2000803000293060306820F48020306048D056
:101D3000FFF7AEF90546306880033FF521AFFFF7A6
:101D4000A7F9401B6428F6D916E020F0010000290D
:101D50003067306F20F00400306740D0FFF798F90B
:101D6000054641F28837306F80073FF529AFFFF70E
:101D70008FF9401BB842F6D90320BDE8FC811C3422
:101D80001FCC0843D90340EA82104FF6FF729143FB
:101D900040EA0460A1F58031084370600120C8F872
:101DA0006000FFF775F904463068800106D4FFF73C
:101DB0006FF9011B03200229F6D909E70020BDE8CD
:101DC000FC81FFF765F90546306880037FF5D8AEE2
:101DD000FFF75EF9411B03206429F5D9F8E6FFF708
:101DE00057F9054641F28837306F80077FF5E8AE36
:101DF000FFF74EF9411B0320B942F5D9E8E600BFD1
:101E00000038024000004742007000407047000068
:101E1000BCB50446006841688268530603D4D50700
:101E200001D04D0618D4950701D50D0612D412F431
:101E3000B07F56D08D0654D5002B1DD594F8513067
:101E4000032B0ED100210191C1680191806801909E
:101E5000019846E0616C00E0216C2046BDE8BC4082
:101E60000847636D43F00403636500230193C3686F
:101E7000019383680193019B93060CD5636D43F036
:101E8000010363650023019383680193036823F0D2
:101E900040030360019BD20508D5626D42F0080241
:101EA00062650022019282680192019A626DC2B15C
:101EB000426822F0E00242600122890784F8512042
:101EC00010D000F040FAE06C18B109490165FEF746
:101ED0001DFFA06C28B106490165BDE8BC40FEF7B6
:101EE00015BFBCBD2046BDE8BC40FFF78FBF00BF9B
:101EF00007280008C8B3B0B5044690F8510028B9C7
:101F0000002084F85000204600F031F8022084F8C8
:101F1000510094E80F0011430568194325F040056E
:101F200005602269114362691143A26902F40073DA
:101F30001943E3691943236A1943A36A19430160EA
:101F4000042101EA1241626A11434160B3F5005F66
:101F500004BFE16A0161C16921F40061C16100202F
:101F60000121606584F85110B0BD012070477047B1
:101F700070B5134682685AB94468B4F5827F07D1B8
:101F8000042280F851200A46BDE8704000F052B8A3
:101F900090F85040012C01D1022137E090F85140D7
:101FA000012C2DD171B36BB304241A4E184D80F857
:101FB000514000244465C38783878163848604631A
:101FC000C3680168002B08BF2E46C0E91064C486B0
:101FD000B2F5004F03D10A6822F480420A60826A97
:101FE000B2F5005F01D100F0C4FA4A6842F0600225
:101FF0004A600A68520601D400F01FFA002102E08C
:10200000022100E00121002280F85020084670BD26
:10201000692800081528000880B50448007802F0F7
:10202000BFFB03480021016080BD00BF546F00204A
:102030000C300140B0B590F85040012C01D1022481
:1020400044E090F85150012D2FD1C9B3C2B3BBB3B6
:1020500090F851401F4D012C04BF052480F85140D9
:1020600000244465C3868386016383878263C387B4
:10207000174CC268836A0168002A08BF2546174CBE
:10208000154A08BF1446B3F5005FC0E9104501D1F9
:1020900000F06FFA4A6842F0E0024A600A685206AD
:1020A00001D400F0CAF900240DE04468B4F5827F41
:1020B00008D10224042D06D18568002DC5D002E088
:1020C000012400E00224002180F850102046B0BD19
:1020D000A92600087B26000819260008CD2500083F
:1020E000704730B370B5044690F8490015460E4667
:1020F00028B9002084F84800204600F01CF8206829
:1021000004F10801FEF794FD2068A2683146FEF74D
:10211000CBFDD4E90102236B2946FEF76BFD206855
:10212000A16850F8212042F0010240F8212000204F
:1021300070BD01207047704770470000411E0020AD
:10214000B0EB116F1CBF01207047044AF0235160AF
:1021500003490B70072190601160704710E000E0A8
:1021600023ED00E0FFF7E8BF58B110B500F0BBF970
:1021700018B900F045F900F006F800F019F900F080
:1021800082B9012070477047022180F83910016838
:102190000A6842F001020A6000F054B90068C168A0
:1021A00041F00101C160724600F0C7F996467047E0
:1021B000006841F21112C16821F00101C160016A99
:1021C000114208D1734600F0EDF99E4603D17246E4
:1021D00000F0F5F996460020704700000148FFF72F
:1021E00005B800BF207300204FF4007004F0FABB64
:1021F0004CF25030FEF7D6BCDBF80C1041F0020177
:10220000CBF80C10314601F0CCBDD3F8000400F03F
:102210000F00704701684DF6FF72114001600168C0
:1022200041F4005101607047089EA8F8FA4001701F
:1022300088F80C102846214600967047F065D6F8BD
:102240008C0081182046C6F88C107047E365130A8D
:1022500084F8500084F86A1084F86730130C84F80E
:102260006630130E84F86530B0BD04F11C022046C0
:10227000FF2300F040BE0021002200F07DBC0024BE
:102280000125CDE90051CDE9022419467047CDE979
:1022900000100020002103F021BA8DF80350ADF8A2
:1022A000014003F0D7B9031D00690ECB7047002130
:1022B0000022204742F820107047DBF80C0020F085
:1022C0000200CBF80C0006EB86000AEBC00090F889
:1022D000251001390729704741F0020161654FF669
:1022E000EF71816070470546D0F87402D0F81C8009
:1022F00095F81E0200287047204600F084BE144660
:10230000D0F87422D56995F85220022A70472046E9
:1023100000F032BD6179204600F075BEBDEEC00A06
:1023200010EE102A03F0F4B8044618461F4616466D
:1023300003F0BEBB0023CDE90005204603F06EBBD1
:10234000314604F015BE416821F003014160704739
:1023500094F91400B0F1FF3F7047204604F008BE26
:102360002046642100F0B8B9016821F04001016005
:102370007047012084F851007047207D00F07F00F5
:102380002075704700F01F010122400902FA01F197
:102390007047DBF80C00314640F00200CBF80C002F
:1023A000206801F0FEBCB06800F00C0008287047FF
:1023B0000220211D84F83900206800F033BB45F667
:1023C000C0510068B0FBF1F06421484370472046DB
:1023D000102101F0C5BCB7F8F80034217047A5F80A
:1023E0006200022085F85200012085F85000B0BD3F
:1023F000CDE9022501240022CDE9004119467047AC
:10240000002084F8380020467047026B0168531C96
:10241000036312780A73C18E0139C186C18E002907
:102420007047026B016832F8023BCB60C38E013B00
:10243000C3860263C28E002A70470A6842F04002D7
:102440000A607047012180F8391000207047A0EB26
:102450000800A84270470021ADF802100168CA6860
:10246000ADF80220BDF802204A687047284604F003
:102470006ABF016821F001010160704740F002006D
:10248000CBF80C007047012084F83900002010BD03
:10249000CDE900082046029701F071BA84F868205F
:1024A0004B0284F85200012084F86B10090A70472F
:1024B00001EB00110A7301F0DDBF0168097B826B3B
:1024C000531C83631170C18F0139C187C18F70475D
:1024D0000168826BCB6822F8023BC38F013BC38744
:1024E0008263C28F7047044690F8390070472046D7
:1024F000002103F0A9BC06EB86000AEBC000704780
:10250000606D40F020006065704734200C4611FB80
:10251000008010F8901F01297047D0F87442E469D8
:1025200094F85250022D7047E169504604F00BBFF9
:10253000044690F8900201287047016841F00101BB
:10254000016000207047086840F4805008604868C7
:1025500020F0800048607047012188F80C10BDE829
:10256000FC814FF40071FEF73BB8002084F8900224
:1025700010BD0A684DF6FF731A400A600A6842F4FB
:1025800000520A607047204601F0DCBB42F2107036
:1025900006FB00F7D5F8B862704706EB86010AEB38
:1025A000C1057047016A40F2444211427047044637
:1025B00005F020B8012084F8900220687047016877
:1025C00021F001010160704702F0E6B84DF808ED16
:1025D000FFF77EFF5DF808EB02B17047826AB2F543
:1025E000005F02D10549016470474A6822F0400249
:1025F0004A60C18E0029F0D100F080B801260008A1
:1026000081B07346FFF727FF9E4622F040024A60E2
:1026100001B000F073B800004DF808EDFFF74DFF72
:102620005DF808EB01B17047816AB1F5005F02D136
:1026300006490164704701684A6822F060024A60F6
:10264000C18E0029EFD100F059B800BF5126000813
:1026500081B000218DF8031001680A7B8DF80320FA
:102660009DF803204A6822F060024A60C18E09B1D9
:1026700001B0704701B000F041B84DF808EDFFF728
:10268000D0FE5DF808EB00D07047826AB2F5005FBB
:1026900001D1FFF758BF4A6822F080024A60C18F1B
:1026A0000029F1D100F02AB84DF808EDFFF7ADFE92
:1026B0005DF808EB00D07047826A0168B2F5005FF0
:1026C00001D1FFF740BF4A6822F080024A60C18F03
:1026D0000029F0D100F012B8BCB50B460092802161
:1026E00000220546002400F0ECF820B1686D0324B8
:1026F00040F0200068652046BCBD00001CB50446C3
:102700002548FFF75CFE0190FEF7C2FC02462068F8
:10271000416821F02001416001994B1E019319B1DC
:1027200081688907F8D501E0FFF7EAFEFFF718FE98
:1027300008B1FFF7E5FEA06808B1206807E00020B7
:1027400000902068C16800918168009100998168BB
:10275000C90604D4606D68B1FFF70BFE05E00121E6
:1027600084F85110616DFFF7B7FD2046BDE81C40AD
:10277000FFF74CBB94F85100012184F85110042854
:1027800004D12046BDE81C40FFF746BC2046BDE80A
:102790001C40FFF7A5BC00BF1000002018B5D0E911
:1027A000001382684C68B3F5827F24F060044C60AB
:1027B0000BD15AB1B2F5004F02D0B2F5806F0CD1F7
:1027C0000A6822F040020A6007E032B90022009253
:1027D000CA6800928A680092009A012280F851200B
:1027E0008B68426DDB0604D44AB9BDE81840FFF798
:1027F00013BC42F0020242654FF6EF728A60BDE8F8
:102800001840FFF703BB806B0021C187C186FFF72B
:10281000FDBA00004DF808EDFFF75AFE5DF808EB31
:10282000012A07D1826AB2F5005F03D10A6842F437
:1028300080520A60C18F01B17047816AB1F5005FB3
:1028400018BFFFF7ABBF014901647047512800086A
:1028500081B07346FFF7FFFD9E4622F060024A609A
:1028600001B0FFF79BBF00004DF808EDFFF725FE14
:102870005DF808EB012908D1816AB1F5005F04D148
:1028800001680A6842F480520A60C18F01B1704742
:10289000816AB1F5005F18BFFFF780BF014901648D
:1028A000704700BFA928000881B000218DF80310EF
:1028B0000168097B8DF803109DF8031001B0FFF744
:1028C0006DBF2DE9F843DDF820801D4616460F4602
:1028D00081465C1CD9F8000081683940C91BB1FAF7
:1028E00081F149098E422CD0002CF3D035B1FEF78E
:1028F000CFFBFFF7ACFDEDD3D9F80000416821F024
:10290000E0014160D9F80410B1F5827F09D1D9F80E
:102910000810B1F5004F02D0B1F5806F01D1FFF77B
:1029200023FDD9F82810B1F5005F01D1FFF772FC43
:10293000002089F85000012089F851000320BDE8EB
:10294000F8830020BDE8F88380B5FEF7A3FFBDE85B
:102950008040FFF707BC000010B50E480F4CD0F8C0
:10296000801041F47001C0F880100B490A6842F0F1
:1029700001020A6000228A600B6823400B60084B4A
:102980004B600B6823F480230B60CA604FF000613A
:10299000016010BD08ED00E000380240FFFFF6FEC8
:1029A000103000242DE9F8431C484168C9070CD0B9
:1029B0000168C90709D06FF001014160FEF768FBAB
:1029C000044601F017FDA04201D9BDE8F88301F0EB
:1029D00043FDDFF84C9000254FF0FF38102D16D046
:1029E00009EB0517B868A0420FD838688047387BD4
:1029F000012808D1D7E901010E18BE60FEF748FB97
:102A00008642F7D301E0C7F808800135E6E701F018
:102A1000F1FCBDE8F84301F043BD00BF0C040040E9
:102A2000586F002010B5254B026898422FD000F156
:102A300040444FEAB424042C03D303F58063984246
:102A400003D14B6822F070021A43B0F1804F22D0BC
:102A50001B4B98421FD01B4B98421CD01A4B9842DC
:102A600019D01A4B984216D0194B984213D0194BD3
:102A7000984210D0184B98420DD0184B98420AD06B
:102A8000174B984207D0174B984204D007E04B6889
:102A900022F070021A43CB6822F440721A4302609B
:102AA0008B680A68C3620C4B826240F480629A426F
:102AB00004BF096901630121416110BD00000140AB
:102AC0000004004000080040000C004000180040D6
:102AD000001C004000200040000401400040014074
:102AE000004801400044014000F51F7200200B28FF
:102AF00006D002EB80035B781B0603D50130F6E7B6
:102B0000FF2003E001F5004142F82010C0B27047F9
:102B1000BFB5FFF7B4FB0122022300F0B8FA002092
:102B200004B0B0BD7FB590F81D420026089D002C72
:102B300018BF3546FFF75CFC022300F0A8FA00201E
:102B400004B070BD80B500F011FA002080BD82781D
:102B5000012A05D1002281824FF48171C282016174
:102B6000FFF789BBBFB5FFF78AFB0122002300F006
:102B70008EFA002004B0B0BDBCB5044680780228AF
:102B800009D0012840F07F8001250220A281A160A8
:102B90002576A07078E0207E01380A2800F2738044
:102BA0000FF20401DFE800F00643212C0E576438D1
:102BB0007F187200627904F11001204600F0AEF82F
:102BC000022046E06379A289A1680125204600958C
:102BD00000F094F806206FE0FFF79CFB012870D00E
:102BE000042835D0022815D04DE0D4F8B802A168E9
:102BF0002379A289E0812046FFF7B4FF042028E072
:102C00002179204600F0FFF905286FD004281FD055
:102C1000012838D109201CE02179204600F0F3F981
:102C200001284ED0052861D004282CD110E0FFF7F0
:102C300071FB04280CD0012825D1E18A94F91000F9
:102C4000002955D0B0F1FF3FD4BF0320052000E09C
:102C50000B20207617E0FFF75DFB013801250428E3
:102C600012D8DFE800F0033E11394100072039E0B7
:102C70002379204600210022FFF774FF08202076E8
:102C8000D4F8B802E08101252846BCBD607E013041
:102C90006076C0B2022817D8204600F0F1F901256D
:102CA0002576A570F0E763790125204600210022F2
:102CB000009500F023F80A202076D4F8B802E081CD
:102CC000E2E70025012063E7D4F8C422204606216C
:102CD00090470020607601E00B202076012002253D
:102CE00057E705202076CFE70C2020760325CBE799
:102CF000B0F1FF3F7FF78EAF0720AAE77FB590F8CE
:102D00001D420026089D002C18BF3546FFF770FBBA
:102D1000002300F0BCF9002004B070BD1FB50023F3
:102D20000824CDE9003111460022CDE9024300F02C
:102D3000AEF9002004B010BDFEF710B8B0B500F237
:102D40004324002001E01A340130022812D014F884
:102D5000025C8D4218BFFF29F5D114F8015C954241
:102D600018BFFF2AEFD125789D4218BFFF2BEAD16B
:102D7000C0B2B0BDFF20FBE70A2907D800EB8100F5
:102D8000D0F87C126FF3DF31C0F87C12002070475E
:102D9000B0B585781446049A012D0FD141F0800119
:102DA00006254482C282017424F0FF010024457488
:102DB000B1F5407F08BF40F2094484821946BDE85E
:102DC000B040FFF7D9BE2DE9F84300F11C040E46D0
:102DD000009100214FF4007205462346FFF7D8FF0B
:102DE00000285DD1A98B95F820200A2EA5F8321273
:102DF000E98B85F83622D5F82120A5F83412C5F8DC
:102E000037224DD305F50F7E002209238DB24FF0F6
:102E10001A0C012A44D899B2A94241D221780C4413
:102E20000B4461780429F4D1267802FB0CF14FF0B1
:102E300000090EF8016002FB0CE1667801F10A0856
:102E40004E70A6788E70E678CE7027790F7166790D
:102E50004E71A6798E71E679CE71267A0E724FFA8E
:102E600089F6BE421ADA99B2A94217D221780C44E7
:102E70000B4461780529F4D1217809F1010908F89A
:102E8000361008EBC60166784E70A6788E70E6782C
:102E9000CE70A6888E80A6798E71E0E70132B8E701
:102EA000BDE8F883BCB50D46009100F11C0300217C
:102EB0004FF480720446FFF76BFF00B1BCBDE169BF
:102EC000226A092DC4F82012C4F82422F6D3A18C5A
:102ED000A4F82812D4F82610C4F82A1294F82A105C
:102EE00084F82E12B4F82B10A4F82F1294F82D1099
:102EF00084F83112BCBD7CB5144601F540721D4604
:102F0000009300F11C0300210646FFF741FF00B1CA
:102F10007CBD717F0329FBD1317F06F11E0202398E
:102F2000A942C8BF294689B200239BB28B4204D272
:102F3000D55C023304F8015BF7E7002121707CBD0A
:102F400090B1B0B5044600200D46C4E99D0020466E
:102F500084F8BC22FDF7FCFC0DB1C4F8C452204635
:102F600000F063F80020B0BD0220704780B5D0F8B3
:102F7000C002FEF7AEF8002080BD017829B10178CB
:102F8000012904BF022101700AE0012180F81E120C
:102F9000D0F8C42222B180B504219047BDE880401A
:102FA0000020704710B5044600F06AF82179FFF759
:102FB000AEF96179FFF7ABF9002084F81E02D4F86E
:102FC000C42212B1204605219047204600F051F856
:102FD00003202070002010BD80B5C820FDF7BEFE84
:102FE000002080BDD0F8C002FEF76DB880B5D0F8E3
:102FF000C002FEF75EF8032828BF0120C0B280BDE2
:10300000084601F0A9BCD0F8C002FEF755B8D0F8C8
:10301000B8120131C0F8B81201780A2904D1D0F8E9
:10302000741209B189690847704780B501F072FCD4
:10303000002080BD1FB5089CD0F8C0020294079CF8
:103040000194069C0094FEF750F8002004B010BDD7
:1030500080B5D0F8C002FEF7F9FB002080BDC0F8B3
:10306000B812704780B50846114601F085FC002073
:1030700080BD80B5D0F8C002FEF7EFFB002080BD18
:1030800080B5D0F8C002FEF7F8FB002080BD1FB568
:10309000099CD0F8C0020394089C0294079C0194F8
:1030A000069C0094FEF750F8002004B010BD0622E4
:1030B000002908BF0722D0F87412C969895CFFF79C
:1030C00046BD0000D0F874020549064AC069C0E94F
:1030D0001521012180F8521080F85010002070470F
:1030E00050403020555342437CB50446D0F874021A
:1030F000C66996F8500001380A2800F2C780DFE858
:1031000000F0067D3E47158FA259B522AB00022084
:10311000737986F86110012506F154011F2286F8A3
:10312000500020460095FFF7FDFCB0E0737932892E
:10313000D6F88C10012520460095FFF7F3FC0620F9
:1031400086F85000A3E0204601210125FFF7AFFFDC
:10315000042800F09480002840F09980717920467E
:10316000FFF74EFFC0F101007179C2B22046FFF7B0
:1031700079FF317920460022FFF774FF3CE0337974
:103180007289D6F88C102046FFF7C2FC04207BE041
:103190003179FFF7B1F805282ED0012876D1728950
:1031A000F06D904275D9801A3379FFF747F8FFF731
:1031B000AFFC6BE03179FFF79FF805281CD00128A0
:1031C00064D1012086F8520086F85000D4F87402C9
:1031D000C56920462979FFF705FF0D280AD1A86F98
:1031E0003149884206D1A86DE96F814202D195F834
:1031F0008400C8B302254AE0092045E07179FFF751
:103200007BF805283DD0022849D001283ED1F06D39
:1032100098B396F96000B0F1FF3F34DC032033E04F
:103220007179FFF769F805282BD002282BD00128E7
:103230002CD13289F06D90422BD9801A73790125F7
:10324000FEF7FCFF6EE7337906F1780120460D2288
:10325000FFF75EFC082017E0204600F032F8054634
:10326000A8B9012086F85000002510E02046002172
:10327000FFF71DFF042802D040B9072004E00B200F
:1032800002E00A2000E0052086F8500001252846CB
:103290007CBD072086F850000020F065F6E7012588
:1032A00086F85050F3E700BF555342530122C282C3
:1032B0000022C0F812204FF6A16202820122FFF71D
:1032C0005BBC00210022C182C0F812104FF62171B0
:1032D00001820021FFF750BC70B5D0F87412CC69A0
:1032E000A17B19B103290AD002290ED12146FFF78B
:1032F000DDFF002103280AD040B9207808E0002132
:10330000FFF725FC08B9E07BA073012070BD002009
:10331000421C0223002544F8902B3422EEB2864250
:1033200084BF002070BD16FB0246013586F83110BF
:10333000B370F3E7D0F87432DB6900780A281CBF59
:103340000220704780B5342011FB003000F190015D
:1033500010463422FDF7CDF8002080BDB0B50446FC
:10336000D0F87402C569697941B12046FFF7EAFBDC
:1033700069792046FFF700FD00206871297941B185
:103380002046FFF7DFFB29792046FFF7F5FC0020F8
:103390002871D4F87402C06928B1FCF7DAFFD4F8B8
:1033A00074020021C1610020B0BD2DE9FF41044637
:1033B000D0F874020622502301792046FFF7BEFCA4
:1033C000FF281DD00146204600F00EFC4FF480700F
:1033D000FCF790FF0546D4F8740294F81F2204F518
:1033E0000F71C5611A2012FB001000F10E0390F955
:1033F0000C00B0F1FF3F05DD1B88A8712B8104E0B4
:10340000022649E01B88E8716B811A2312FB031125
:1034100001F1160291F91410B1F1FF3F04DD10889B
:10342000A9712881084602E0E971118869810026A6
:10343000C1B22046AE73AE81C5F8F860FFF754FB09
:10344000E97968712046FFF74FFB28712046FFF7A6
:1034500039FE05F190006821FDF7E4F894F81D02AB
:103460006979AA7994F81C322F894FF00208FFF786
:103470000FF894F81D0294F81C326F892979EA79C3
:10348000FFF706F8297920460022FFF7EBFD69795E
:1034900020460022FFF7E6FD304604B0BDE8F0818B
:1034A000F8B50546D0F87402C769387B012836D0D4
:1034B000002840F0AF80B7F8F8003968814230D971
:1034C00007F190063421012400FB01624143715C45
:1034D0005470082900F29F80DFE801F0059D2E66F8
:1034E0000B459D9D750004211170D5F8B812C7F8E1
:1034F000FC10342400FB046101F10F02C1B2284624
:1035000000F0F1F804286CD0022864D0002840F0C4
:103510008180FEF760FF48430221012482E00024FD
:1035200079E00020D5F8C42201240221A7F8F80090
:1035300028463C7390476EE0C1B2284600F0A0F9DF
:10354000042844D0022854D0002863D1FEF743FF5A
:10355000032300FB01F200FB0160B35200228178DB
:103560008270002952E0C1B20C32284600F055F9B1
:1035700004282CD0022850D000284BD1FEF72BFF76
:1035800000FB0162127B42F00402062A08D1D7F840
:10359000FC20D5F8B8329A1A42F20F739A42BAD97F
:1035A0004143012474540EE0C1B20432284600F0B5
:1035B00003F904280BD002280DD058BBFEF70BFFEF
:1035C0000124414374520130A7F8F80023E0FEF7CC
:1035D00002FF484308E0FEF7FEFE012448430521B0
:1035E00020E0B7F8F800604340F201210124315295
:1035F00011E0FEF7F0FE40F2051300FB01F200FBC4
:103600000160B352022281788270023918BF012111
:1036100080F8311001242046F8BDFEF7DCFE0124BD
:10362000484308213154F6E71CB5D0F874223423FE
:10363000D26911FB032414F8902F052A17D0072A0A
:1036400007D0062A24D100220023009200F093F82C
:1036500004E000220023009200F035F9042811D084
:10366000022813D0A0B90120207000201CBD04F155
:103670000C0200F0D2F8042804D048B940F201202E
:10368000208001E00820207002201CBD0520207051
:1036900001201CBD2DE9FC41FEF725FE1DD0287838
:1036A0000A281AD1FEF731FF17D10621FEF7BCFD1B
:1036B00000F061F8FEF76AFF28462146FFF7B4FFE5
:1036C00001280DD1D5F8B802801BB84203D895F86F
:1036D0001E020028F0D1022003E00220BDE8FC8198
:1036E0000020FEF739BFB0B5FEF709FE1AD0012A57
:1036F0001CBF0220B0BD00204901C5F86900802030
:1037000085F8641005F1100185F860002420C5F8E3
:103710008C10E8654FF41010C5F8650041F20A20DE
:10372000FEF75DBEFFF7E0FC00B1B0BD20462221F0
:10373000FCF756FFD5F88C001022017801F01F012C
:1037400061700178490921704178C909A1708168C7
:10375000C068C4F80700C4F8031004F10C00D5F8E1
:103760008C101031FCF7C5FED5F88C00006AC4F847
:103770001D000020B0BDB0B5FEF7CFFE18D0012D62
:103780001CBF0220B0BD0499C4F88C30002042F662
:103790000A05E0666066A066C4F86F000220A4F81F
:1037A00062508025FEF77AFE84F86050FEF74EBD29
:1037B000BDE8B040FFF798BCB0B5FEF7A0FD1DD046
:1037C000012A1CBF0120B0BD00208021E866686688
:1037D000A866C5F86F0042F20A5085F8601008210B
:1037E000A5F862000220E96505F1100185F8520094
:1037F0000120C5F88C1085F85000B0BDFFF774FCAF
:1038000000B1B0BDD5F88C00016809BA2160C0884C
:1038100000BA000CA0800020B0BDB0B5FEF76FFD6F
:103820001ED0012A1CBF0220B0BD00208022490109
:10383000C5F86900C5F86D00A5F871004FF4602067
:1038400085F860200E2285F8641005F11001C5F896
:10385000650040F20A30EA65C5F88C10FEF7BFBD7E
:10386000FFF742FC00B1B0BDD5F88C00817801F0C3
:103870000F012170017B6170407BA0700020B0BD02
:10388000D0F87422D26992F85230022B19D0012B51
:103890001CBF0220704700200A21C2F8630082F892
:1038A0006000D065C2F86700C2F86B00C2F86F0014
:1038B000022082F8621082F85200012082F8500043
:1038C0007047FFF711BCB0B5FEF727FE17D0012DEA
:1038D0001CBF0220B0BD0499C4F88C30002042F611
:1038E0000A25E0666066A066C4F86F0084F8600090
:1038F0000220A4F86250FEF7D1FDFEF7A7BCBDE898
:10390000B040FFF7F1BB00207047D0F87422D269B5
:1039100000780A281CBF00207047342011FB0020CB
:1039200090F89100B0FA80F0400970472DE9FC4111
:10393000FEF7D9FC1DD028780A281AD1FEF7E5FD3C
:1039400017D10721FEF770FCFFF7BDFFFEF71EFE43
:1039500028462146FFF768FE01280DD1D5F8B802A8
:10396000801BB84203D895F81E020028F0D102202F
:1039700003E00220BDE8FC810020FEF7EDBD1FB58D
:10398000089C0294079C0194069C0094FFF752FB4C
:10399000002004B010BD0000BFB5044602208DF821
:1039A0000F0020780A2800F2B880DFE800F006B6A1
:1039B0002D14B683A0235D66AD0094F81E02002886
:1039C00000F0AB8001202070C820FFF7B5F9204639
:1039D000FFF73EFBA1E02046FCF7BAFFD4F87402E3
:1039E000002800F09A80C168204688470020C4F86B
:1039F000740292E0D4F8C422002A00F08E8020469F
:103A000001219047082087E06420FFF795F92046C0
:103A1000FFF7ECFA84F81D02052000210025207034
:103A20002046FFF761F8607120468021FFF75CF8BF
:103A30000146207194F81D02A27994F81C32CDE958
:103A40000005029220468022FFF799FF94F81D029C
:103A5000A27994F81C326179CDE9000502922046E2
:103A60000022FFF78CFF58E094F83712204600F050
:103A7000CFF8002851D109204EE0D4F87802002870
:103A80004BD0D4F8700294F8411202798A4218BFE0
:103A90000020C4F8740200283DD081682046884781
:103AA000002838D10620032120702046D4F8C422F3
:103AB000904732E0607807282FD8DFE800F0046DE7
:103AC0003A5431757E5C20460821FFF7EBF920BBA4
:103AD000012094F81C32217994F81D220025607091
:103AE00094F82702A071CDE900250290AAE7D4F846
:103AF000740280B10169204688478DF80F009DF857
:103B00000F0050B90A2007E0D4F8740228B14169C7
:103B10002046884701E00C202070002004B0B0BD92
:103B2000B4F834122046FFF74EF90028F5D10520ED
:103B30004BE020460121012500F05FF80028ECD180
:103B40000220FFF7F9F80320A27984F81C522179AA
:103B500000250123607094F81D0202928022CDE9B5
:103B60000005204670E720460921FFF72CF90028C0
:103B7000D3D1042029E094F8301219B1FEF775FB77
:103B80000028CAD1002084F81F0294F831020128CD
:103B90003FF438AF0720BFE720461221FFF782F934
:103BA0000028BAD1022010E094F82E1219B1FEF7C5
:103BB0005CFB0028B1D1062007E094F82F1219B160
:103BC000FEF753FB0028A8D107206070A5E711B1CC
:103BD000D0F878220AB102207047C0F87012012193
:103BE000C0F878120020704790F8362291422EBF1C
:103BF000022080F81F12002070478278012A05D128
:103C0000002241824FF4A06142610182FEF733BB82
:103C10008278012A05D1002241824FF4106142616D
:103C20000182FEF728BB10B50446FFF722FA2046B2
:103C30000121FFF7D1F9002010BD0000B0B5044606
:103C40000698049D012816D1A16B164A0D9821F4FF
:103C50008031A163E1681140E1600128E16821F44D
:103C60004011E16003D1E06840F48010E06020463C
:103C700000F01AF809E0E06840F04000E0602046FB
:103C800000F012F84FF48030A063012D07D1A06836
:103C900040F00600A060A06840F02000A060002076
:103CA000B0BD00BFBFFFBDFF34490A46013A0CD08A
:103CB0000369B3F1FF3FF9DC026942F001020261DE
:103CC000013902D00269D207FAD17047816821F028
:103CD000010181600020704700EB4110054902227C
:103CE000C0F81015D0F8001562F39F71C0F80015E8
:103CF000002070470000088081B0D0F840240129DE
:103D00000092009A22F02E020092009A08BF12F44C
:103D1000805204D1009A42F48052C0F84024009AA4
:103D200039B912F4805104D0009921F48051C0F8BF
:103D30004014002001B07047816841F001018160AA
:103D400000207047102101610C49013904BF032094
:103D500070470269D2065CBF00207047F5E700BFDC
:103D60008901203101610549013904BF03207047F1
:103D7000026992065CBF00207047F5E7410D030021
:103D8000D0F8080480B2704781B0D0F840040090A9
:103D90000098C0F3414001B07047406900F0010055
:103DA0007047490100F5A062535813F4402F05D025
:103DB0008B5803F44023B3F5002F18D18B5843F0F0
:103DC00080438B50C36A885813F47F0F18D120F0BA
:103DD00000405050505840F00040505040F2E93000
:103DE000013810D05358B3F1FF3FF9DD0BE08B5889
:103DF00043F080438B50D0F8103488581B0404D013
:103E000040F0004050500020704720F000405050DB
:103E1000505840F00040505040F2E9300138F2D0A4
:103E20005358B3F1FF3FF9DDEDE700002DE9F04114
:103E3000DDE906C800EB4114089E4FF0FF3504F59C
:103E4000A067C4F80855B8F1030F2CD8DFE808F0D4
:103E50000210021C55B240F29D4E3C4644F80CEF55
:103E6000002D1AD4B0F1A04F1DD04FF0600E16E017
:103E700040F225253C4644F80C5F55B2B5F1FF3FB2
:103E800011DC4FF4C07E0AE040F29D653C4644F8E8
:103E90000C5F55B2B5F1FF3F05DC4FF4807E25681D
:103EA00045EA0E05256001246FF3DF2604FA01F1CF
:103EB000D0F818442143C0F81814816941F000710A
:103EC0008161D0020E4940EA8350084002F080012F
:103ED00040EA0120BCF1020F08F0030108BF00F521
:103EE0000030B8F1030F40EA81403044386003D11C
:103EF000386840F0005038600020BDE8F08100BF15
:103F00000078C01FD0F8140480B27047F8B5B0F143
:103F1000A04F02D00B79002B57D00B696BB10C89E5
:103F20001D19013DB5FBF4F6B5B2B5F5807F82BF32
:103F300023020B614FF4807601E00126002391F803
:103F400003E0BEF1000F03D00B89B4B263430B61F1
:103F5000344D91F801C08F7A05EAC6451E4600EB44
:103F60004C146FF3DF46354407F0030645EA467507
:103F700004F5A066C4F810550AB1CC687461D0F895
:103F80000844356825F0005535604FF0005525EAA6
:103F9000447435682C430225346052EA0E023468BA
:103FA00065F39F7434602FD173B3CA79032A24D880
:103FB000DFE802F002160216C26ADC1CC4F38F04AA
:103FC00092B2944219D9202214E0012A1ED0002A6C
:103FD000A3D14B79012BA0D14978FFF77DFE13E0E7
:103FE000D0F81024DC1CC4F38F0492B2944204D99C
:103FF0004FF08062846922438261C96800229BB2CB
:104000000092624600F008F90020F8BD00234B71D1
:104010004B7800EB4313D3F80C4524F06004C3F84D
:104020000C457AE70000F81FF8B50027044615464E
:10403000C0F8007E032B806B20F48020A063A06B6F
:1040400020F40020A063A06B40F40010A063D4F81B
:10405000000420F00400014608BF0431B4F1A04F71
:1040600008BF0146C4F80014FEF7B1F9FEF78BFA59
:10407000069E04F5A0604FF0FF3125B18160C76056
:104080002030013DF9E720460121FFF735FEC82029
:10409000FCF764FE0020A0614FF0FF30B4F1A04FA8
:1040A000606108D04FF4007060620C48A0620C4858
:1040B000C4F8000107E00B48802101600A49416013
:1040C0000A49C0F8DC101EB9A06940F01000A061D8
:1040D000A06907490843A0610020F8BD0002000163
:1040E0000003E0002400005080006000E000400079
:1040F000080020A3D0F8002422F00302C0F8002416
:1041000001F00302D0F800341A430129C0F800245A
:1041100004D0022906D141F2707101E04BF68031E2
:10412000C0F8041400207047416980690840704756
:1041300010B503324FF4805392081AB1C458013AB3
:1041400010C1FAE7084610BD1CB50446D0F840047B
:104150000190019820F02E000190019840F48070A9
:10416000C4F840040A20FCF7F9FD019820F480709F
:10417000C4F8400400201CBDC268012922F0C042DE
:10418000C26003D039B94FF0804101E04FF00051D7
:10419000C2681143C16080B53220FCF7DFFD00200A
:1041A00080BD000070B504468068102120F0010039
:1041B000A0602046FFF7D4FDFEF7E5F9154904F5A8
:1041C000A0600022B2F5007F06D083580B4003F1B7
:1041D000804383502032F5E700220023102A0ED0BE
:1041E000550146590E4006F1404646510133B3F59C
:1041F0007A7F02D84659002EF8D40132EEE74FF00C
:10420000FF30C4F814046061A06840F00100A060B1
:10421000002070BDFF7FFF3F10B5029C0CB1002055
:1042200010BD0333120300F580509B08002BF6D01D
:1042300010C9013B1450F9E76D4802490078087035
:10424000704700BFB875002010B58EB0032916D88E
:1042500003461446DFE801F0180B0202534801AA96
:104260001946FFF767F840B9BDF80C000AE04F485F
:1042700001AA1946FFF75EF818B1012104E00421F4
:1042800002E002982060002108460EB010BD00BF79
:10429000B0B58EB004460D464448009321462B46E7
:1042A000FFF744FB80B1414801AA2146FFF742F8DD
:1042B0009DF81100042805D0272807D03A2801D0FE
:1042C000282805D1032004E0002002E0022000E0BD
:1042D00001200EB0B0BD00BF80B501463348FFF7E6
:1042E00014FBB0FA80F0400980BD00BF0020704789
:1042F0002DE9F0412DED048BADF5806D00F046FC0D
:10430000194800F0F5FA0446184DDFF8188D6E468E
:10431000B7EE009A00EE104AB8EEC08ADCB14FF456
:104320008060314600F0CCFA0746284631463A46CE
:1043300000F044FCE41BD8F800003D4400EE104AB5
:10434000B8EEC00A00F2844080EE080A39EE400A56
:1043500080ED000AE2E700F0C5FA0DF5806DBDECD6
:10436000048BBDE8F08100BFD8D10008000002082E
:10437000B0B58EB004460D460C48009321462B463E
:10438000FFF788F978B1094801AA2146FEF7D2FF64
:104390009DF811100320042918BF282904D03A29B8
:1043A00018BF012000E000200EB0B0BD5870002002
:1043B0007FB50F4E05460C46192214232946307846
:1043C0008DF80F000DF10F0000904FF4917001F087
:1043D000FFF8307829461B2213238DF80E000DF1CB
:1043E0000E00CDE900404FF4917001F077F97FBDE8
:1043F0008C000020294A4FF0FF300021B1F5807F6A
:1044000008BF704753189B68834238BF1846103165
:10441000F4E700BF04290CD0022909D10C4801217E
:10442000006880F83812D0F870140131C0F87014A8
:104430007047074801210022006880F88814D0F8EE
:104440006C140131C0F86C140249002001F0ECBF7B
:10445000C875002085D200081B4801F00FBB00BFC3
:1044600010B50446207820B1FCF712F804F8010BCF
:10447000F8E710BDB0B5094901EB0015FFF7BAFF29
:104480000446FCF705FE69680844A042A86028BFFE
:10449000B0BDBDE8B04000F003B800BF586F0020C9
:1044A00010B50446FFF7D8FF601C08BF10BDFCF72D
:1044B000EFFD201A4FF0FF3101EB40010248BDE84B
:1044C000104001F0DDBA00BFA86E002080B500F0FA
:1044D000BBF800F081F9BDE8804000F0E1BB0000CE
:1044E00081B000214E480091026842F00102026052
:1044F000026802F001020092009A0091026842F004
:1045000002020260026802F002020092009A009128
:10451000026842F004020260026802F004020092A3
:10452000009A0091026842F008020260026802F0FC
:1045300008020092009A0091026842F010020260A4
:10454000026802F010020092009A0091026842F0A4
:1045500020020260026802F020020092009A00919C
:10456000026842F040020260026802F040020092DB
:10457000009A0091426942F480524261426902F419
:1045800080520092009A0091826842F0010282609B
:10459000826802F001020092009A426842F08002B2
:1045A00042600091426942F480424261426902F4F1
:1045B00080420092009A0091026842F40012026068
:1045C000026802F400120092009A0091026942F01F
:1045D00020020261026902F020020092009A00911A
:1045E000026942F000520261026902F00052009238
:1045F000009A0091026942F080520261026902F061
:1046000080520092009A0091416941F480414161D9
:10461000406900F480400090009801B0704700BFEE
:104620003038024080B500F0B7FBFFF759FFFFF7C5
:104630004DFF362002210022FDF79EF93620BDE80D
:104640008040FDF78FB90000B0B5B4B02D48334DB0
:104650002F902CA030ACFDF726FE33900EC42FA96E
:104660002D4C2046A8472E482A902DA02BAFFDF7B1
:104670001AFE2E9020460EC72AA9A8472D4825903D
:104680002CA026AFFDF70FFE299004F580600EC721
:1046900025A9A8472C4820902BA021AFFDF703FEA9
:1046A000249004F500600EC720A9A8472B481B9052
:1046B0002AA01CAFFDF7F7FD1F9004F540600EC760
:1046C0001BA9A84707AC482104F10800FBF7AAFF83
:1046D0004FF480506D4627A11C22109010200C90A2
:1046E00008200B90224808904FF020400790284661
:1046F000FBF7FFFE204629462A46FDF7F2FC34B0C0
:10470000B0BD00BF800000000200000000000000FB
:10471000020000000C000000000C0240FD0E00082A
:10472000B3FF0000020000000000000002000000D3
:104730000C00000098FF00000200000000000000D4
:10474000020000000C0000003FF00000020000002A
:1047500000000000020000000C0000003F0000000C
:104760000200000000000000020000000C00000039
:10477000040100A002000000040000000900000085
:104780000000000000000000000000000000002009
:1047900010480078704700BF3B48FDF739BB00BFA9
:1047A000B0B1B0B50446813811280CD8FCF770FCC4
:1047B000084DA968401A652805D3FCF769FCA86074
:1047C00004F01F0000E0002002490870BDE8B0407E
:1047D00001207047746E00202DE9F0418AB0234813
:1047E000284F059021A006AC031D00690ECB09904F
:1047F0000EC405AE224C31462046B847202004F5B1
:104800008065314605902846B8471F48FDF772FB82
:104810002320042100224FF00008FDF7ADF82320EB
:10482000FDF7A0F81948009018A001AE031D00691B
:104830000ECB049028460EC66E463146B847172068
:10484000032100220325FDF797F81720FDF78AF8CA
:1048500001203146CDE9035801904FF4805000907B
:1048600004F5C050B8470AB0BDE8F0816000000010
:10487000020000000200000002000000050000002D
:1048800000000240FD0E000834000020400000003F
:1048900000001110000000000000000000000000F7
:1048A00080B52320FDF754F81720BDE88040FDF7C0
:1048B0004FB880B5FFF7F4FFBDE88040FCF738BA89
:1048C000E0B50246002001906E48006801AB00F59B
:1048D0000F7001F045FF0199002818BF4FF0FF311C
:1048E00008468CBD6748006800F50F7001F078BD80
:1048F00010B5644C01460122206800F50F7001F0EC
:10490000B9FD10B14FF0FF3010BD2068D0F848025B
:1049100010BD00BFB0B51F4D04464FF0A0410320AD
:104920000B2229600021C5E902200220C5F894422B
:10493000C4F8C052C5E90601284629616963E962E5
:104940002962FCF72FFF2846FCF7B0FB0146204602
:10495000BDE8B040FEF783BB0E4900EB8000182293
:1049600001EBC00090F83B10002908BF1922104449
:1049700090F83800704700BF064A00EB800002EB59
:10498000C00202F1380092F83B200AB1017670476C
:10499000417670472073002010B586B02248019000
:1049A00021A002AC031D00690ECB059023480EC464
:1049B00000240094016841F480410160006800F423
:1049C000804000900320049000980A2005904FF446
:1049D000D05001901A4801A9FCF790FA4320062113
:1049E0000022FCF7C9FF4320FCF7BCFF2548006804
:1049F000C0F86C44C0F8704480F8384200F50D717E
:104A00001048FBF7C7FF60B91D4C0F490022204634
:104A1000FEF796FA0D492046FFF7D9F82046FFF732
:104A200002F906B010BD00BF000000000200000047
:104A300000000000020000000000000044380240B6
:104A400000000240607B00081544000814000020AC
:104A500010B50B48FEF7A0FF0A4C206890F83812FA
:104A6000012909D100F50D71002201F0DDFC28B10A
:104A70002068022180F88814002010BD012010BD9C
:104A800058700020C87500202DE9F047ADF5AA6DDB
:104A900001460DF25230FBF708FDFFF7E1FC5C2008
:104AA000ADF8040001AE06F546743146204601F02B
:104AB000FFFD002863D106F5007506F216290027D0
:104AC0004FF0010800262046294601F0F8FE002894
:104AD00052D19DF81A02B0FA80F1490931424BD106
:104AE0009DF80C2202F010033B430BD00E43D1B2D1
:104AF0002E3801F0100188EA111118BF012008407A
:104B00000744E0E70DF2514749463846FBF7CDFC34
:104B1000FFF7A6FC0DF252303946FBF7ADFD98B316
:104B200000270DF2514A0DF252382046294601F075
:104B3000C6FEF0B99DF81A02B0FA80F14E09A8B18C
:104B40009DF80C12C906F0D42E28EED050464946E6
:104B5000FBF7ABFCFFF784FC40465146FBF78CFDAE
:104B60000146012037460029DFD109E0F807374622
:104B7000DBD000208DF85104204601F045FC0020D8
:104B80000DF5AA6DBDE8F0870120F9E7FEB51F48D5
:104B9000F3210160FCF788F90220694605900320A3
:104BA0000490052003900020CDE9000001A8FCF747
:104BB000E5F8FCF72DF906B080BD00BFF8B5054655
:104BC00012480C46F32116460160FCF76DF9B00758
:104BD0000AD00027B74215DAE25DE9190020002368
:104BE000FCF720F90137F5E7B6100027B74209DADC
:104BF00054F82720022029460023FCF713F9013737
:104C00000435F3E7BDE8F840FCF702B90C3C02407C
:104C1000704700000E4909680A1D0021037833B16E
:104C200003EBC3030130D35C19440131F6E70846B6
:104C3000704700BF09207047F14900EBC0000968C8
:104C40000844007901307047ED48006800687047FB
:104C50009000002004480221817004490A784A70BB
:104C600001784170704700BF0C000020306F0020B9
:104C7000FCF774B803490A680B689B1A8342FBD39C
:104C8000704700BF2400004010B5214C0301E150E3
:104C900004EB00114A60BDE8104000F02BB800BFE3
:104CA0001B4900204FF0FF32B0F5807F03D00B1876
:104CB00010309A60F8E7BCB50C4C002501200C4977
:104CC0004DF2EF22FDF736FB20460121012200F0D4
:104CD00091FE4FF0FF303C344FF080410022FDF751
:104CE00029FB2046BDE8BC4000F0C6BEA86E0020EF
:104CF0000004004006490122FDF7DABB044901EB3C
:104D00000010002101734FF0FF318160704700BF38
:104D1000586F0020B0B592B000241D4802250694BB
:104D2000016841F080510160006800F080500690F9
:104D3000069801941748016841F4404101600068F9
:104D400000F4404001900720109511904FF4A87096
:104D50000F9019200E904FF48000CDE90C504FF4C5
:104D60008030079001200690019806A8FCF7F6FE17
:104D70004FF48050CDE90254052105904FF4A05026
:104D800004900F20019001A8FCF72CFE12B0B0BDDA
:104D9000403802400070004080B5FFF7BBFFBDE81F
:104DA0008040FCF77FBD00002DE9F04FADF5963D4A
:104DB00091B0894889490024006880F87444C0F89B
:104DC0007844C0F87C14C0F88044FFF743FF9FED9F
:104DD000841A8448B2EE0C0AB6EE002AB3EE0F3AFB
:104DE0000E2C21D004EE104AB0EE425AB8EE444ADE
:104DF00084EE004A04EE015ABDEEC55A15EE101AB3
:104E0000B0EE425A04EE035ABDEEC54A14EE102A23
:104E1000D30261F34A1302F01F0100EB4402013494
:104E20001944A2F8D610DBE700F098FB6E48119009
:104E30006DA012AC031D00690ECB15906F480EC417
:104E400011A9FCF75BF800F0B3FB012000F076FC41
:104E500011A8002100230246B3F5A07F08D000244A
:104E6000F02C02D011550134FAE7F0320133F3E7A8
:104E700063494FF0010B096811F9042B0491C2F149
:104E80004F010B92084403915F4902905D480A6804
:104E90004678C3681F2008924A6889680A90109271
:104EA00000220F91052A78D00A980299DDF80C901B
:104EB00000240692C0EB001001EB001553A00499EA
:104EC000875C07EBC70008440146099011F9010B04
:104ED0000590C0F1080A089807910B998C4252DAA4
:104EE000B84205D0079B47480897C360464807600B
:104EF000185D002841D009980D930A9B4FF00708D0
:104F00000C95204401300E90DDE90F10D04532DBC6
:104F1000A14208BFB84208D00E98CDE90F470678E5
:104F20003948C0E901743748467026FA08F0C007CE
:104F300019D00020AC46092815D0C1184FF0000E3A
:104F40008909BEF1090F0AD0042905D809EB0E0220
:104F5000EF2A98BF0CF80EB00EF1010EF1E70CF13C
:104F6000F00C0130E7E705F50765A8F10108093302
:104F700038462146CAE7DDE90C5309F1090909352C
:104F800001343846A9E705980A99069A00EBC00053
:104F90000132084409300A9084E71A481D4C002267
:104FA000816811ABB2F5A07F11D00020F0280BD0A2
:104FB0001D5C3DB104EB810524F821200131A8706E
:104FC000104DA9600130F1E7F0330132EAE70DF549
:104FD000963D11B0BDE8F08FC8750020000020415B
:104FE00000007C42EC75002000080000000000007A
:104FF0000000000003000000000000000018024054
:1050000090000020206F002000000020CCCDC8CFF1
:10501000C8000000A4000020F048006890F8740464
:10502000704700BFC87500202DE9F8432DED088BAF
:10503000ADF5787DDFF8A4930121D9F8000080F860
:105040007414FCF725F80446D9F80000D0F8805411
:10505000FCF71EF8D9F80010C1F88004E048007889
:105060008DF81B000DF11B0000F02CFADFF87483A3
:1050700098F800008DF81A000DF11A0000F01CFCE1
:10508000D9F8000090F88814062900F29881DFE82A
:1050900011F00700A5005701740196011E010700D9
:1050A000DFF8FC0300788DF819000DF1190000F00D
:1050B00009FADFF8F003002140F23F12EF230078F5
:1050C0008DF8180006A80090002000F081FADFF8A3
:1050D000D843207820B901202070FBF7D9FF606009
:1050E000FBF7D6FF6168B2EE0C1A401A00EE100A08
:1050F000B8EE408A9FEDED0A88EE000A20EE010A24
:10510000BDEEC00A10EE100A01460D2828BF0D2181
:10511000023100280DF2DF3048BF02218DF8DF1385
:1051200000F0CAFB9FEDE20AB0EE089A9FEDE2BAEA
:10513000B1EE04AA88EE000A00EE099A9FEDDD0A9E
:10514000B5EE409AF1EE10FAB8BFB0EE409A07AF54
:1051500000253E46F02D0FD000EE105AB8EE400A62
:1051600080EE0A0A08EE0B0A02F070FA29EE000A35
:105170000135A6EC010AEDE7A268D14D0026964262
:1051800019DA05EB86008178481EED2811D807EB67
:10519000810335F8260093ED000ABDEEC00A10EE3B
:1051A000103A1844431E5B089E2B02D800F0C8FB3F
:1051B000A2680136E3E798F80000B4214FF4A0722A
:1051C00014238DF817000DF117000190BB480090D3
:1051D000002000F083FA00F01BFBF0E0611B00F5FB
:1051E0008F6000EE101A90ED002AB8EE401A90ED94
:1051F000010A81EE001AB5EE400AF1EE10FA32EE25
:10520000012A80ED002A06DD9FEDA03AB4EE432A84
:10521000F1EE10FA09DCB5EE400AF1EE10FA0CDA04
:10522000B5EE402AF1EE10FA07DA32EE411AB1EE8D
:10523000400A80ED001A80ED010A98F80000954DB3
:1052400032214FF496720A238DF81C0007A80190B2
:105250008F4800900A20A847634C41214FF4967272
:105260000A2320788DF8DF030DF2DF3001908A48A1
:1052700000900A20A847207850214FF496720A2304
:105280008DF8DE030DF2DE300190844800900A2094
:10529000A8472078C8214FF4967214238DF8DD03B7
:1052A0000DF2DD3000900A2000F092F92078C8213C
:1052B00014238DF8DC03D9F8000000F58F6090ED21
:1052C000000AF7A800900A20FDF728F877E0464C7E
:1052D00046A14FF4A072BE2320788DF812000DF184
:1052E0001200FCF7D4FF207846A14FF4A072DC2313
:1052F0008DF811000DF11100FCF7C9FF20789FED2A
:105300004A1A82211E238DF81000D9F8000000F2FD
:10531000844090ED000A04A80090142020EE010AB9
:10532000FCF7FCFF207882214FF48C721E238DF84D
:105330000F000DF10F000090142000F049F93EE03D
:1053400049484AA14FF4A072C82300788DF816008E
:105350000DF11600FCF79BFF98F8000014214FF4A4
:10536000A072C8238DF815000DF115000190464874
:105370000090002000F0B2F921E01B4C2BA14FF46B
:10538000A072C82320788DF8140005A8FCF77FFFD1
:1053900020782FA14FF4A072C8238DF813000DF1CF
:1053A0001300CDE900100020142100F097F92CA182
:1053B0003720FEF7FDFF2BA1C320FEF7F9FF00F019
:1053C00027FAD9F80000002180F874140DF5787DD3
:1053D000BDEC088B01B0BDE8F08300BFC8750020AC
:1053E000306F00200C0000208C000020CFEEE4EE97
:1053F000E6E4E8F2E520E7E0E2E5F0F8E5EDE8FFD5
:1054000000000000F3F1F2E0EDEEE2EAE820EFF058
:10541000EEE3F0E0ECECEDEEE3EE20EEE1E5F1EFB3
:10542000E5F7E5EDE8FF000000008C43CEE1EDE09C
:10543000F0F3E6E5EDEE20EFF0EEE3F0E0ECECED7E
:10544000EEE520EEE1E5F1EFE5F7E5EDE8E500005A
:10545000D3F1F2E0EDEEE2E8F2FC20E5E3EE3F000E
:10546000C4C00000CDC5D2008E000020CDC520D321
:10547000C4C0CBCED1DC20CFD0CED7C8D2C0D2DCF6
:1054800020C4C8D1CA00000003D20008000096431F
:10549000EFD10008DD56000862D20008E2D1000812
:1054A000316F00200D000020206F00200000FA4422
:1054B00000007AC400000000CDCC4C3D29D2000889
:1054C000A4000020BCB50446DD4801784A1E012A2C
:1054D0000ED80322012902700AD100F069F80B4DA1
:1054E0000020A8470120A8470220A8470320A8477A
:1054F0002078002140F23F12EF238DF807000DF1D4
:1055000007000090002000F003F8BCBD45580008DB
:105510002DE9FF41DDF828800D46874904461F46E6
:105520001646404600F0C4FA38B198F800008DF8ED
:105530000F000DF10F0000F0BFF900F0B1F80020EE
:105540000821019009208DF80670ADF804600090E4
:105550006846FCF7A2FEBDE8FF8100BF80B50549A3
:1055600005204FF4C872FFF78FFBF448002101704B
:1055700080BD00BFCD590008E0B510200421019086
:1055800001A800F067F88CBDE0B503210078019117
:1055900006498DF8050001EB40000421B0F8D20067
:1055A000ADF8060001A800F055F88CBDEC750020A0
:1055B0007CB5DD4E00250DF107043078854228BF0B
:1055C0007CBD20468DF80750FFF7DEFF0135F4E77C
:1055D0002DE9FC41064608981F4615460C46007802
:1055E0008DF807000DF1070000F066F9DFF8D883A9
:1055F00035440DF1060331462A4698F800008DF82F
:105600000600204600F0A8F998F8000027440DF1A4
:10561000050321463A468DF80500304600F0BAF9F8
:1056200098F8000031462A468DF8040001AB384650
:1056300000F092F9B5F5A07F0ADA98F800000DF1B4
:10564000030321463A468DF80300284600F0A2F9EC
:10565000BDE8FC812DE9F0410E4C0F4E8846054611
:1056600000274745A8BFBDE8F08130464FF40061F0
:10567000FBF708FD0028F8D04B20FFF7FBFA28784D
:105680000437207068782070A8782070E878043596
:105690002070E6E700000860001802407047000034
:1056A000E0B5A048A14900F0F5F920B1A049A14A10
:1056B0000DF1070008E09B489F4900F0EBF960B14D
:1056C0009C499B4A0DF10600C34B1B78002B08BF79
:1056D0000A461178017000F0EFF88CBD2DE9F8430F
:1056E0000746099899461646884600788DF80300C3
:1056F0000DF1030000F0E0F8089C2046FFF78AFA5D
:1057000005462078FFF796FAAF490223A9EB00007F
:1057100090FBF3F009788DF80210711B91FBF3F107
:105720000DF10203CA1900EB08011046224600F0F1
:1057300027F8BDE8F88300BF8C0000200E490978E7
:10574000884218D01CB55B490C4A8DF8050051F809
:10575000201005208DF8040011600021ADF806101E
:1057600001AC04212046FFF775FF20460221FFF718
:1057700095FFBDE81C4070478F000020900000207E
:105780002DE9F0439BB004461878154688468DF8FD
:105790006B000DF16B0000F08FF8287898B3FFF7DD
:1057A0007FFFFFF751FA0DF1070907465F2109F165
:1057B0000500FAF715FFA8EB070000260027ADF853
:1057C000084009308DF80A0006208DF80700A85D12
:1057D00009EB060140B15C2F06D84871FFF72CFA9F
:1057E000044401360137F2E700208DF80B70487150
:1057F000381D00F0FC00011D4846FFF72BFF791D06
:105800004846FFF74BFF20461BB0BDE8F083000081
:105810001CB50B4C607878B10F200421019001A8D1
:10582000FFF718FF2078032803D1FFF7F1F90020D4
:105830002070FFF7A1FE1CBD012060701CBD00BFE1
:10584000706E002070B5ADF5416D044603289ABF17
:1058500013A050F82450002501AE40F60A41B01CB8
:10586000FAF7BEFE16208DF805408DF804001048AA
:1058700038B12A183118013092F8082C81F80A2C16
:10588000F6E701A80221FFF709FF0A4840F60411D4
:1058900050F82400FFF702FF0DF5416D70BD00BF09
:1058A000B4A10008BCAD0008CCC50008C4B900080C
:1058B000F8F3FFFF94000020BCB51A4D04462946BA
:1058C00000F0F6F868B34049204600F0F1F840B324
:1058D00020783D492870284600F0E3F82178A0B1EF
:1058E000124829700078814202D11148114905E01F
:1058F00011480078814208D10E480D49364A127885
:10590000002A08BF01460978217000208DF8051093
:105910000421ADF8060004208DF8040001A8FFF76B
:1059200099FEBCBDB87500208C0000208E000020C0
:105930000D000020316F00208D000020B97500207F
:10594000E0B5072201928DF80710ADF8050001A817
:105950000421FFF77FFE8CBDFEB50D461A49FCF70A
:10596000E3FC30B138788DF80B000DF10B00FFF738
:10597000A3FFFFF795FE0020082101901320ADF84A
:10598000046000906846ADF802508DF80140FFF7C2
:1059900061FEFEBDFEB50D460B49FCF7C5FC30B1FE
:1059A00038788DF80B000DF10B00FFF785FFFFF73E
:1059B00077FE00200821019014208DF804600090EB
:1059C0006846FCF76AFCFEBD8C00002002480178A6
:1059D00081F0010101707047B975002080B503485E
:1059E00003494FF40C72FAF7C9FD80BDEC75002035
:1059F000747B000870B50D4600681D494FF0FF36F6
:105A00001446884208BF1D263046FBF7ABFF3046E0
:105A100029462246BDE87040FBF7AEBFFCB5144EE8
:105A2000DDE90754B1420FD0B1F1804F18D1002603
:105A30000196104E376847F001073760366806F068
:105A400001060196019E0BE000260096094E37687C
:105A500047F002073760366806F002060096009E9F
:105A600080E82E000461BDE8FC40FCF77DBB00BF70
:105A70000004004040380240FCF786BBFCF798BBAE
:105A800010B50446C160FCF76FFB2046BDE810402E
:105A9000FCF784BB09780078401AB0FA80F040091E
:105AA00070470278097800208A4288BF0120704739
:105AB00009780078401A18BF01207047B0B5044635
:105AC0004FF0FF3020630020E070204601F03BFCE7
:105AD00008B10420B0BDB4F832024AF6552188421C
